:020000040000FA
:060000000219FD0206B327
:03000B000202FFEF
:030013000206CF13
:03001B0002056873
:03002B000203705D
:03005B000206E1B9
:030073000203A5E0
:1000A000080C10182030406080A0C0E0F09000B133
:1000B0007301D101DE01EE01FE210B211B2128215C
:1000C0003B214B215E216821782185219B21A8219C
:1000D000BBA6F008A67208A670088570F022A6F0EC
:1000E00008A67008A67108A670088570F022E57150
:1000F000B5F002E572F608A672088570F022A6F047
:1001000008A67008A672088570F022A6F008A671ED
:1001100008A67008A670088570F022A6F008A671DF
:1001200008A671088570F022E571B5F002E572F657
:1001300008A67008A671088570F022A6F008A670BF
:1001400008A67008A671088570F022E571B5F00266
:10015000E572F608A67108A670088570F022A6F070
:1001600008A672088571F022E571B5F002E572F615
:1001700008A671088571F022A6F008A67008A6717D
:10018000088571F022E571B5F002E572F608A670F7
:1001900008A67008A670088570F022A6F008A6715F
:1001A00008A670088571F022E571B5F002E572F6D7
:1001B00008A67008A670088571F022A6F008A6703F
:1001C00008A67008A670088571F022E527A23733CB
:1001D000F52675270F8075E527A23733A23633F54C
:1001E0002675270D8066E527A23733A23633A23560
:1001F00033F52675270B8054E52654F0C23C45277D
:10020000C4F5267527098044E526A23813A23913C0
:10021000A23A13F5267527078032E526A23813A2E5
:100220003913F5267527058023E526A23813F52610
:100230007527038017203F93203E9C203DA8203C3B
:10024000B7203BC4203AD32039DFE526C4652665B4
:1002500027F478D08570F023541E11ADE526235481
:100260001E11ADE526C423541E11ADE52723541EEF
:1002700011ADA6F00822C285C0D0C0E0740FD5E051
:10028000FDD0E0D0D0D285C0D0C0E07405D5E0FD6F
:10029000D0E0D0D022C285C0D0C0E07405D5E0FD4A
:1002A000D0E0D0D0D285C0D0C0E0740FD5E0FDD072
:1002B000E0D0D022C0E0C0F0C0D0C2A8C28CD285AD
:1002C00075A4E0C0D0C0E07405D5E0FDD0E0D0D08A
:1002D00075F00830E70451768002519523D5F0F38C
:1002E00075A4C0D285C0D0C0E07414D5E0FDD0E0C4
:1002F000D0D0D28CC289D2A8D0D0D0F0D0E02220E9
:100300002B0132C0D0C0E075D01018B8CF33208593
:100310000BD28585708A08D0E0D0D03275A4C0D2C7
:1003200085C22B758E0C7589AAC2A9C289C28B752C
:100330008A00758C00758200D2A8D2AAD0E0D0D0F5
:1003400032B285868AD0E0D0D032C28D202B0122F5
:10035000C0D0C0E075D01018E8B56F0BD28585709D
:100360008A08D0E0D0D022B285868AD0E0D0D022D0
:10037000C0D0C0E0C2CF053DE5626009E56160051F
:10038000756100801B756101E53160021531C3E5BF
:100390004E6005754F008008054FE54F7002154F00
:1003A000D0E0D0D032C2AF53E67F7592FA7593FF9A
:1003B000C21053917FD2AF32C0D075D010E52E70ED
:1003C00004E52D601EE52DA27013F526A2711325FC
:1003D00026F526E52E03C2E7F52703C2E73527F504
:1003E0002780067526FF7527FF5135C28D758A86D1
:1003F000758E097589A2D22BD2A9D28575A4E0D0B9
:10040000D0227582007526007527007528007800B7
:1004100075F000E0C0E0C395F0D0F0C395664002EF
:10042000D23B0582E0C0E0C395F0D0F0C3956640B2
:1004300002D23A0582E0C0E0C395F0D0F0C39566E1
:100440004002D2390582E0C0E0C395F0D0F0C395F8
:10045000664002D2380582E0C0E0C395F0D0F0C318
:1004600095664002D2370582E0C0E0C395F0D0F037
:10047000C395664002D2360582E0C0E0C395F0D055
:10048000F0C395664002D2350582E0C0E0C395F026
:10049000D0F0C395664002D2340582E0C0E0C39537
:1004A000F0D0F0C395664002D2330582E0C0E0C3CD
:1004B00095F0D0F0C395664002D2320582E0C0E0EC
:1004C000C395F0D0F0C395664002D2310582E0C0FA
:1004D000E0C395F0D0F0C395664002D2300582E0CB
:1004E000C0E0C395F0D0F0C395664002D2430582C8
:1004F000E0C0E0C395F0D0F0C395664002D242055B
:1005000082E0C0E0C395F0D0F0C395664002D241CE
:100510000582E0C0E0C395F0D0F0C395664002D2FA
:10052000400582E526C465266527302701F4652845
:10053000540F22900000D2A8D2AA0530E5307002F4
:1005400015300530E53070021530C3E53094324087
:1005500005754E00A15975310AD0F0D0E0D0D032E7
:100560000483223C78B4F0F0C2AFC2A8C28EC0D0DF
:10057000C0E0C0F075D008C2CAA8CCA9CDD2CAD2FA
:10058000AF758A00C3E89569F8E9956AF9E970A33F
:10059000E8956B409E956C509AE582B41095910257
:1005A0007091A926E526C39460FAE5279400FB50D4
:1005B000177B007A00E96010C313500CB54C04059A
:1005C0004D8005F54C754D0030270271B8302A2753
:1005D000C3EA94D0F8EB9407F9400BE8FAE9FB2062
:1005E0002509D225A1EB302502C225202902B225FA
:1005F000C3EA33FAEB33FBEB2B3B3BF9C3EB13FBC7
:10060000EA13FAEA29FAEB3400FB30E3047AFF7BC1
:10061000FFE5235403601D201A1AE55D33F9EB70E2
:1006200007C3E99A4002E9FAE5385403B1602AFAAF
:10063000EB3400FBC3EA33C4540FF8EB33C454F07B
:1006400048F87005EA60027801E53060021530D2A2
:1006500020884EE54E6003754F00AC5BC3E55B95AB
:100660005C4002AC5CC3EC954E5008EC75F008A4FD
:10067000FAABF08A5453540F8BF07900EAA2F013CE
:10068000A2F113A2F213F4F8C3E89405FAE9940076
:10069000FB50047A007B00885089518A528B537535
:1006A000310A202707900000D2A8D2AAD0F0D0E0CB
:1006B000D0D032C0E0E58AF0058285688BD0E03288
:1006C000C289C0E0E58AF0058285688BD0E022C24D
:1006D000AA85688BD28EC2CA85CC6985CD6AD2CAFA
:1006E0003253E6EF327901801479038010790A8061
:1006F0000C791E80087964800479C880007817E43A
:10070000D5E0FDD8FAD9F62278FF20182879A1E79C
:100710006023E52C601F74FF852CF084853BF0304E
:10072000190375F005A4F8C5F0600278FFC3E895D9
:100730005D5002A85D885C22C3E52B94A0E52C9453
:1007400000E55C5003148001046002F55C2275E84A
:100750009022055EC3E55E9408405330EDF4A8BDD9
:10076000A9BE755E00E9FA79A0E76041EA7006E586
:100770005F6018800CC3E8955F600EE55F50056010
:100780000A1480070460FA8002E55FF55FC395658F
:10079000401B755BC0C394044013755B80C3940415
:1007A000400B755B40C394044003755B0022E55B1E
:1007B0002410500274FFF55B22743279A687F0A4EE
:1007C000C5F0A2F733F55D22752B00752CF022C21F
:1007D000AFC2CAA8CCA9CDAA3D30CF010AD2CAD295
:1007E000AFC3EA13FAE913F9E813F8AB3EAC3F885C
:1007F0003E893FC3E89BF8E99C20180A547FF930F2
:100800001C0201EC8040AD408A40F9EA9D547FFA19
:10081000600678FF79FF8013AE41AF428B418C4276
:10082000A83EA93FC3E89EF8E99FF9C3E52C13FB56
:10083000E52B13FAE82AF52BE93BF52C5008752B2C
:10084000FF752CFF804DAA2BAB2CAC2BAD2C7E045E
:100850007F02C3EB9404400D1E1FC3EB94084005B8
:100860002019021E1FC3ED13FDEC13FCDEF7C3EAD3
:100870009CFAEB9DFBEF6009C3E913F9E813F8DF7D
:10088000F7EA28FAEB39FB8A2B8B2C50067BFF8B7F
:100890002B8B2CC3EB94025002D21C3018047F0324
:1008A000801C7892E6FFC3E539948240110FC3E5BE
:1008B0003994A040010FC3EF940640027F057E02E9
:1008C000E52CC4540FF9E52CC454F0F8E52BC454BE
:1008D0000F28F8C3E89EFAE99400FB400AC3EA94A3
:1008E00001EB94004001227A01E4FB22AA2BAB2CFD
:1008F000EBC4FEEAC4540F4EFCC3EA9CFAEB94002E
:10090000FBC3E813C313F8EA28FAEB3400FB8A2B85
:100910008B2CC3EB94024002C21C7802EBC4FE7B1A
:1009200000EAC4540F4EFAC3EA98FA4005C3940192
:1009300050027A017892E6FF22C2AF852B2D852CDA
:100940002ED2AF3010022143854892854993D210B0
:1009500043E68022C3E49AF8E49BF9C3E833F8E95C
:1009600033F9201C6FE8FAE9FBD3E913FDE813FC27
:1009700088488949C3EF94036037EF20E00CE82CE6
:10098000F8E93DF9ECFAEDFB8013E828F8E939F9CC
:10099000C3E82401F8E93400F97AFF7BFFC3EF9440
:1009A00003400E8A4A8B4B884489458C468D47808C
:1009B00057884A894B8A448B458C468D473018129C
:1009C000754AF0754BFF7546F07547FF7548F07531
:1009D00049FF8034E8FAD3E813FC8848C3EF940356
:1009E0006020EF20E007E82CF8ECFA21F4E8282456
:1009F00001F87AFFC3EF940340088A4A88448C4682
:100A00008006884A8A448C463010024108753602B6
:100A1000D21043E680E5235403602DA82BA92CC3F4
:100A2000E913F9E813F8301804E92440F9C2AF5388
:100A3000E67F759100C3E498F594E499F595759176
:100A400004D21043E680D2AF22D211754300752044
:100A500000301B037520404167D21175430075209B
:100A600040301B0375200078017901201C28E52304
:100A700054036002C2117914E52CC313700104F809
:100A8000C3941440027814301804781B791BC3E80F
:100A900033F8C3E933F9201010E543600C30180334
:100AA000D53604D212611A51100543E59B5440B566
:100AB0002002610430180908C3E8994001184196E2
:100AC00020110A08C3E899400241674196C21153B8
:100AD000E67F759100301C117594007595F0759145
:100AE00004D21043E680020A67E52C7EFFC3334040
:100AF00009C3334005C3334001FEC3E49E7594002F
:100B0000F59541DEC3E5359401500241673011028D
:100B10004167D80261184196C212C2AF53E67F7591
:100B20009100854A94854B9575910485449285453D
:100B300093D21043E680D2AFE52354036007201917
:100B4000020535801030120D201B0A201107158177
:100B5000158102140C2278003011027801E53975F4
:100B6000F007A4F9E5F028F5F0E9A2F013A2F113DB
:100B7000A2F213F539C394785003753978C3E53977
:100B8000953A4009C290C292C29475D57F30100246
:100B9000618D854692854793D21043E68022E555C4
:100BA0004554121493F5555355FEA2E0E55092E0DA
:100BB00075D8008552F975FA00F5FBF5FC8552E908
:100BC0008552EA75D84022202813C2AFC293C2953D
:100BD00075D54FD291D2AF719E759F2022C2AFC200
:100BE00091C29375D57CD295D2AF719E759F20220C
:100BF000202813C2AFC293C29575D573D291D2AFDC
:100C0000719E759F3022C2AFC291C29375D573D2C7
:100C100095D2AF719E759F1022202813C2AFC2914A
:100C2000C29375D573D295D2AF719E759F1022C2B3
:100C3000AFC293C29575D573D291D2AF719E759F95
:100C40003022202813C2AFC291C29375D57CD295B1
:100C5000D2AF719E759F2022C2AFC293C29575D547
:100C60004FD291D2AF719E759F2022202813C2AF20
:100C7000C291C29575D57CD293D2AF719E759F30CB
:100C800022C2AFC291C29575D54FD293D2AF719E99
:100C9000759F1022202813C2AFC291C29575D54FFF
:100CA000D293D2AF719E759F1022C2AFC291C295EE
:100CB00075D57CD293D2AF719E759F30227A147B0A
:100CC0007880127A107B8C800C7A0D7BB480067A47
:100CD0000B7BC88000E560D5E001227902E4C29375
:100CE000D5E0FDD292D5E0FDC292D5E0FDD293D5FC
:100CF000E0FDE920E002D29030E002D294E560D538
:100D0000E0FDE920E002C29030E002C2947496D582
:100D1000E0FDD9C9EAF8D5E0FDD8FBDBB8C29322E3
:100D2000C290C292C294C291C293C29575D57F22DD
:100D3000788076FF0876FF0876FF0876FF0876FF52
:100D40000876FF0876090876FF087601788C760128
:100D50000876FF0876FF0876FF0876FF0876FF081A
:100D600076030876FF0876FF0876FF087625087672
:100D7000D00876280876500876040876FF087602B0
:100D80000876FF08767A0876FF0876070876010865
:100D900076FF0876FF08760008760022FA75F00CD8
:100DA000A4ABF0EAC333F8740133F9E8C333F8E9CC
:100DB00033F9E8C32BF8E93400F9E8C333F8E93331
:100DC000F9227888E6C39403D22A5002C22AC228A4
:100DD000E630E102D228A22892297886E614C2AF32
:100DE000C083C0829000A093D082D083D2AF78A677
:100DF000F67886E6F53BC394025003753B02789C77
:100E0000E6753AFFB40203753AA0B40303753A825B
:100E100078A0E6F8600674282409D8FCF565B120AE
:100E20002278A5E6F95403D2867002C286E9540CF2
:100E3000D2877002C287E95430D2967002C296E916
:100E400054C0700022758851758E0C7589AA758CF6
:100E500000758D00758E0C75683C756620756B6C21
:100E6000756C147570FF7571EC7572DD22758851A3
:100E7000758E0C7589AA758C00758D00758E0C7534
:100E80006800756640756BD9756C287570EE757164
:100E9000CD7572AC22741E208515C0D0C0E0740AD6
:100EA000D5E0FDD0E0D0D02085EBD5E0EDC322C069
:100EB000D0C0E0740AD5E0FDD0E0D0D03085D6D5E2
:100EC000E0EDD3227563007564007597DE7597AD0C
:100ED0007581AF43FF8075EF0675A900B12075805D
:100EE0003F75F1F075A4C075803F75D4FF75900013
:100EF00075F27F75A57F75900075D57F75A6017514
:100F0000E34075E202C290C292C2941206F5D291F9
:100F1000D293D2951206E5C291C293C295B120E454
:100F2000F8F6D8FDB13012159478988660753201C4
:100F3000C2AF1206F991BD1206F191C31206F191EA
:100F4000C91206F1D121C2AF75A91375A71075C1D9
:100F50000075A70075620075630075640078FA7902
:100F6000FA308507D9FBD8F7021C0075A71075C1A8
:100F70003075A70075A903756201B1C278988660C3
:100F8000B12075C80475910475D84075D90875F7F6
:100F900080759E0375558075960275DA4275DB4241
:100FA000759B80759D0075D10C75BCB975BB1075AE
:100FB000E88075B2011206E5753800C2201206F904
:100FC000D224D1959227C22B752D00752E0075E481
:100FD000D530270375E45D75E68075B80375A828DC
:100FE000D2AFD16D7530321206F5754C00754D00DB
:100FF000C3E53094024002E1461206E920200302D4
:101000000F46E54E6003020F46C2AF120CBD120C34
:10101000BD120CBDD2AF1206F975630075640012E3
:1010200006F5E54E6003020F46C2AF120CCF120C5C
:10103000CF120CCFD2AF1206F9753200752D0075A4
:101040002E00E4F533F5340533E533F4703F053411
:10105000789AE67819146012783214600D787D144D
:10106000600878FA146003753400C3E53498401DB5
:10107000120D201206E5153475330078998660C28A
:10108000AF120CCFD2AF789886601206F51206ED3B
:10109000E5317003020F46C3E54E9401500AC3E5E3
:1010A0004C940150160210471206F5E53170030208
:1010B0000F46754C00754D0002126DC3E54C94014E
:1010C0007017C2AF120D2078998660120CBD789807
:1010D0008660D2AF1206F5415FC3E54C94027017EB
:1010E000C2AF120D2078998660120CC37898866082
:1010F000D2AF1206F5415FC3E54C94037017C2AF3F
:10110000120D2078998660120CC978988660D2AF4B
:101110001206F5415FC3E54C94047017C2AF120D7F
:101120002078998660120CCF78988660D2AF12062C
:10113000F5415FC3E54C94057017C2AF120D2078DE
:10114000998660120CCF78988660D2AF1206F5416E
:101150005FC3E54C94077019C3E54D940650020136
:10116000977401302A0274037888F6C228C2294194
:101170005FC3E54C94087019C3E54D940650020115
:10118000977402302A0274047888F6D228D2294152
:101190005FC3E54C94097017C3E54D9406500201F6
:1011A00097302A0BC37888E69402F6C22A415FC3BF
:1011B000E54C940A7016C3E54D9406500201972041
:1011C0002A0A7888E62402F6D22A415FC3E54C94C5
:1011D00014702DC3E54D9406500201977400C2AF00
:1011E000C083C082901A0B93D082D083D2AF78880C
:1011F000F613C228C2294002D2284002D229805FB9
:10120000C3E54C94157040C3E54D940640577400F7
:10121000C2AFC083C082901A0B93D082D083D2AF6A
:10122000F8B801027402B802027401B8030274042F
:10123000B8040274037888F613C228C2294002D287
:10124000284002D2298018C3E54C940C70117563B4
:10125000A57564F1C3E54D9406400AB1DBD2AF75C4
:101260004C00754D007563007564000197C2AF12A4
:101270000D20E4D2AFE4F55EF522F523F539755E75
:10128000081206E512074E30EDFDA8BDA9BEE970B3
:1012900001F8885F120752755E08C2AF1207B98560
:1012A0005D5B855D5CD2AF75A71075C13075A70019
:1012B00075A903756201302A07C228302502D22899
:1012C000D218753500120C6B120C941207C8120755
:1012D000CF1209391209541207C81207CF1209395F
:1012E0001209541207C8120A59120B56120BC712D0
:1012F00007CF120939120954120A49201C03120798
:1013000008301C03120738120B56120BF01207CFCD
:10131000120939120954120A59120B56120C1912D9
:1013200007CF120939120954120A49120B56120C2E
:10133000421207CF120939120954120A59120B56D8
:10134000120C6B1207CF12093912095412074E12F0
:101350000A49120B56120C941207521207CF1209A7
:1013600039120954301827855D5B79187A0CC3E56A
:101370003599400EC218D2198A37855D5B855D5C50
:10138000800CC3E54E940140030212E6811430192B
:101390001F201B1CE537147006C219D21A41E6F54E
:1013A00037202A07C3E54E940140030212E6806409
:1013B000753800202A0F78FA79A4E760027803C311
:1013C000E54F98504FE531604B302A172028052013
:1013D0002507800F302502800A201B07D21B855D60
:1013E0005B612878F0301B05855D5B7820C3E52CB8
:1013F0009850030212E6301B1BC21BC22830250284
:10140000D228D219753712855D5B41E60538E54E65
:1014100060028117753800C2AF120D20752300D20B
:10142000AF1206F5120D2075220078A4E66006D2F0
:1014300091D293D295C3E53894044003020F46013C
:101440003C8322010203050C080409050C080D0960
:10145000050C832201020304050607093830282001
:1014600018100811093830282018101911093830BF
:10147000282018211911093830282029211911098B
:1014800038302831292119110938303931292119E9
:1014900011093883220102030405060708090A0B13
:1014A0000C0D0E0F11F0E0D0C0B0A0908070605015
:1014B000403020102111F0E0D0C0B0A090807060CA
:1014C00050403020312111F0E0D0C0B0A0908070A9
:1014D0006050403041312111F0E0D0C0B0A0908088
:1014E000706050405141312111F0E0D0C0B0A09067
:1014F00080706050615141312111F0E0D0C0B0A046
:101500009080706071615141312111F0E0D0C0B024
:10151000A09080708171615141312111F0E0D0C003
:10152000B0A09080918171615141312111F0E0D0E2
:10153000C0B0A090A1918171615141312111F0E0C1
:10154000D0C0B0A0B1A1918171615141312111F0A0
:10155000E0D0C0B0C1B1A19181716151413121117F
:10156000F0E0D0C0D1C1B1A191817161514131216F
:1015700011F0E0D0E1D1C1B1A1918171615141314E
:101580002111F0E0F1E1D1C1B1A19181716151412D
:10159000312111F0901A0D7820D114E520B4550AAC
:1015A000A3D114E520B4AA0280137563A57564F174
:1015B000120D30B1DB756300756400801D901A0355
:1015C00078807B0AD114A308DBFA901A0F788C7B01
:1015D0001AD114A308DBFA901A2922C2AFD157D12D
:1015E00034901A007410D119A3744FD119A3742127
:1015F000D119901A0378807B0AD118A308DBFA90DE
:101600001A0F788C7B1AD118A308DBFAD16AD1485B
:10161000901A2922E493F622E6438F01538FFDFFAF
:10162000C3E583941C400122EF8563B78564B7F05E
:10163000538FFE22438F02438F018563B78564B7C2
:10164000901A0DF0538FFC22901A0D7455D11990F9
:101650001A0E74AAD119227A3079D07820901A40C3
:10166000D114E520F709A3DAF7227A3079D0901A5D
:1016700040E7D11909A3DAF9227C051206F9DCFB4F
:1016800022C2AF120CBD120CC3120CC9120CCF1225
:1016900006ED120CBD120CC3120CC9120CCF1206AF
:1016A000ED120CBD120CC3120CC9120CCFD2AF221A
:1016B000C2AF120CCF120CC9120CC3120CBD120611
:1016C000ED120CCF120CC9120CC3120CBD1206ED98
:0F16D000120CCF120CC9120CC3120CBDD2AF22D8
:1019FD00020EC4104F21FFFFFFFFFFFF09FF01FF84
:101A0D0055AA01FFFFFFFFFF03FFFFFF25D0285061
:0D1A1D0004FF02FF7AFF0701FFFF0000FF3A
:101A400023455F485F3035232020202020202020A0
:101A500023424C48454C492445464D3842323123B7
:101A60002020202020202020202020202020202076
:101C0000C2AFC2D37597DE7597AD7581C075A90057
:101C100043FF80752438752503B1DB7529A5752A26
:101C2000F143F12053A4DFD28575D4FF75E3407DE5
:101C3000FA780379E67C10752200752300901DE880
:101C40007B0675249875250130850281482085081A
:101C5000D8FBD9F9DCF781BA308508D8FBD9F9DC93
:101C6000F781BAB19BE493A3C39A6004DDC381BA40
:101C7000DBDBB18D600281317B08E493FAA3B16EA6
:101C8000DBF87A30B16E752200752300B18DEAFC65
:101C9000EBFDC3ED94FE400EB18D8A278B28ED300D
:101CA000E0048A828B83B18D7AC270D8C3ED94FE32
:101CB000601950CEBD0029EC600F7520007521FF22
:101CC000752900752A000200008100A827A92808AC
:101CD00009D804D90281DDB191EAF281D10D81A642
:101CE000C3ED94035051EDA2E092007AC5C3E582A2
:101CF0009400E583941C508C200010438F02438F86
:101D0000018529B7852AB7F0300027A827A9280818
:101D100009438F01538FFDD804D902A132C3E58353
:101D2000941C4003A3A117E28529B7852AB7F0A325
:101D3000A117538FFC81827AC1BD030CE493A3FAEF
:101D4000B152DCF8B14A81828184AA22AB23B16E00
:101D5000EBFAEA6222752608C3E52313F523E52290
:101D600013F52250066323A0632201D526EAB1DBD6
:101D7000B1DB75260AEAF4200102D285300102C2E5
:101D800085B1DBC3134002C201D526EB22B191EA33
:101D9000FB208502A191308502A196752608AE240C
:101DA000AF25C3EF13FFEE13FEB1DFB1DBC3EA13C0
:101DB0003085024480FA30E703632201C3E5231330
:101DC000F523E52213F52250066323A0632201D5F3
:101DD00026D9E52265236523F52222AE24AF250E00
:101DE0000FDEFEDFFCD20122424C48656C693437BD
:061DF0003164E8B20601B7
:00000001FF
