:020000040000FA
:060000000219FD020706D3
:03000B0002032FBE
:03001300020713CE
:03001B0002051EBD
:03002B0002037B52
:03005B0002072574
:030073000203B0D5
:1000A00010182028303840506080A0D0FFC2AFC068
:1000B000829000B57301D501E601FA210E211F21BE
:1000C000332144215B216F2186219421A821B9216C
:1000D000D321E421FBD082D2AFA6F008A67208A6F5
:1000E00070088570F022D082D2AFA6F008A6700802
:1000F000A67108A670088570F022D082D2AFE57193
:10010000B5F002E572F608A672088570F022D0827A
:10011000D2AFA6F008A67008A672088570F022D0AB
:1001200082D2AFA6F008A67108A67008A67008854E
:1001300070F022D082D2AFA6F008A67108A671088E
:100140008570F022D082D2AFE571B5F002E572F68B
:1001500008A67008A671088570F022D082D2AFA6DA
:10016000F008A67008A67008A671088570F022D065
:1001700082D2AFE571B5F002E572F608A67108A665
:1001800070088570F022D082D2AFA6F008A672085F
:100190008571F022D082D2AFE571B5F002E572F63A
:1001A00008A671088571F022D082D2AFA6F008A609
:1001B0007008A671088571F022D082D2AFE571B5C2
:1001C000F002E572F608A67008A67008A670088509
:1001D00070F022D082D2AFA6F008A67108A67008EF
:1001E0008571F022D082D2AFE571B5F002E572F6EA
:1001F00008A67008A670088571F022D082D2AFA63A
:10020000F008A67008A67008A670088571F022E5AF
:100210002AA24F33F529752A0F8075E52AA24F339C
:10022000A24E33F529752A0D8066E52AA24F33A226
:100230004E33A24D33F529752A0B8054E52954F02D
:10024000C254452AC4F529752A098044E529A250DB
:1002500013A25113A25213F529752A078032E529FA
:10026000A25013A25113F529752A058023E529A26E
:100270005013F529752A03801720579320569C2088
:1002800055A82054B72053C42052D32051DFE5296C
:10029000C46529652AF4F57322C22E78E9302D024F
:1002A00078D18570F0E57323541E11AD85F0738805
:1002B00074228573F0A874E52923541E11AD85F0CE
:1002C000738874228573F0A874E529C423541E1121
:1002D000AD85F0738874228573F0A874E52A2354E1
:1002E0001E11ADA6F008E878E8302D0278D0F6C2ED
:1002F000AF202B05B22DD2AF22D22ED2AF22E52CC9
:10030000B4F00DE52B70097529FF752AFF5179228C
:10031000E52BA26013F529A261132529F529E52C07
:1003200003C2E7F52A03C2E7352AF52A51792220CC
:100330002B0132C0D0C0E075D01118E8B56F332062
:10034000810BD28185708A08D0E0D0D03275A4F8B4
:10035000D281C22B758E0C7589AAC2A9C289C28BA3
:10036000758A00758C00758200D2A8D2AAD0E0D020
:10037000D032B281868AD0E0D0D032C0D0C0E0C2C4
:10038000CF053DE5626009E5616005756100801B90
:10039000756101E53160021531C3E54E6005754FA9
:1003A000008008054FE54F7002154FD0E0D0D032E5
:1003B000C2AF53E67F7592FA7593FFC21053917FD7
:1003C000D2AF327582007526007527007528007837
:1003D0000075F000E0C0E0C395F0D0F0C395664032
:1003E00002D23B0582E0C0E0C395F0D0F0C3956631
:1003F0004002D23A0582E0C0E0C395F0D0F0C39548
:10040000664002D2390582E0C0E0C395F0D0F0C367
:1004100095664002D2380582E0C0E0C395F0D0F086
:10042000C395664002D2370582E0C0E0C395F0D0A4
:10043000F0C395664002D2360582E0C0E0C395F075
:10044000D0F0C395664002D2350582E0C0E0C39586
:10045000F0D0F0C395664002D2340582E0C0E0C31C
:1004600095F0D0F0C395664002D2330582E0C0E03B
:10047000C395F0D0F0C395664002D2320582E0C049
:10048000E0C395F0D0F0C395664002D2310582E01A
:10049000C0E0C395F0D0F0C395664002D23005822B
:1004A000E0C0E0C395F0D0F0C395664002D24305AA
:1004B00082E0C0E0C395F0D0F0C395664002D2421E
:1004C0000582E0C0E0C395F0D0F0C395664002D24B
:1004D000410582E0C0E0C395F0D0F0C395664002CC
:1004E000D2400582E526C465266527302701F465DC
:1004F00028540F22900000D2A8D2AA0530E530700F
:10050000021530C3E5309432400A754E00D0F0D069
:10051000E0D0D03275310AD0F0D0E0D0D032C2AFC6
:10052000C2A8C28EC0D0C0E0C0F075D010C2CAA8A8
:10053000CCA9CDD2CAD2AF758A00C3E89569F8E9D3
:10054000956AF9E970AEE8956B40A9956C50A5E500
:1005500082B410A071C3709C85266D85276ED22C45
:1005600020270E900000D2A8D2AAD0F0D0E0D0D0A0
:1005700032302E04B22DC22E756FD0302D03756F20
:10058000E878D0302D0278E8E6C28D758A36758E0F
:10059000097589A2D22BD2A9D28175A4FA75D0117E
:1005A000F8D0F0D0E0D0D032048322007EBDFCFC35
:1005B000C22CC2AFA96DE56DC39460FAE56ED2AFEF
:1005C0009400FB50177B007A00E96010C313500CB5
:1005D000B54C04054D8005F54C754D00302A27C3F8
:1005E000EA94D0F8EB9407F9400BE8FAE9FB2025F0
:1005F00009D225A1FA302502C225202902B225C33D
:10060000EA33FAEB33FBEB2B3B3BF9C3EB13FBEA8F
:1006100013FAEA29FAEB3400FB30E3047AFF7BFF9C
:10062000E5235403601D201A1AE55D33F9EB7007CA
:10063000C3E99A4002E9FAE5385403B1A82AFAEB73
:100640003400FBC3EA33C4540FF8EB33C454F0480E
:10065000F87005EA60027801E53060021530D220BA
:10066000884EE54E6003754F00AC5BC3E55B955C5F
:100670004002AC5CC3EC954E5008EC75F008A4FA4F
:10068000ABF08A5453540F8BF07900EAA2F013A216
:10069000F113A2F213F4F8C3E8941EFAE99400FBF4
:1006A00050047A007B00C3E89550F5F0E99551E5D8
:1006B000F02323501428F556740039F55754FF7071
:1006C0001A755600755700801228F556740039F5D2
:1006D0005754FF60067556FF755700C3E556941EC4
:1006E000F558E5579400F5595006755800755900AE
:1006F000E55A755A027003755A01885089518A5219
:100700008B5375310A22C0E0E58AF0058285688B3B
:10071000D0E032C2AA85688BD28EC2CA85CC6985E8
:10072000CD6AD2CA3253E6EF327901801479038060
:1007300010790A800C791E80087964800479C88059
:10074000007817E4D5E0FDE8C0E0E9C0E0302C0215
:10075000B1B0D0E0F9D0E0F8D8E9D9E52278FF20AF
:10076000182879A1E76023E52C601F74FF852CF021
:1007700084853BF030190375F005A4F8C5F06002DC
:1007800078FFC3E8955D5002A85D885C22C3E52B25
:1007900094A0E52C9400E55C5003148001046002F1
:1007A000F55C2275E89022055EC3E55E940840532F
:1007B00030EDF4A8BDA9BE755E00E9FA79A0E76046
:1007C00041EA7006E55F6018800CC3E8955F600E33
:1007D000E55F5005600A1480070460FA8002E55F57
:1007E000F55FC39565401B755BC0C39404401375EA
:1007F0005B80C39404400B755B40C3940440037555
:100800005B0022E55B2410500274FFF55B2274321A
:1008100079A687F0A4C5F0A2F733F55D22752B0009
:10082000752CF0F15522C2AFC2CAA8CCA9CDAA3D01
:1008300030CF010AD2CAD2AFC3EA13FAE913F9E8FA
:1008400013F8AB3EAC3F883E893FC3E89BF8E99C78
:1008500020180A547FF9301C0221438040AD408AA1
:1008600040F9EA9D547FFA600678FF79FF8013AE65
:1008700041AF428B418C42A83EA93FC3E89EF8E9B4
:100880009FF9C3E52C13FBE52B13FAE82AF52BE9B6
:100890003BF52C5006752BFF752CFF804DAA2BAB1A
:1008A0002CAC2BAD2C7E047F02C3EB9404400D1EB8
:1008B0001FC3EB940840052019021E1FC3ED13FD52
:1008C000EC13FCDEF7C3EA9CFAEB9DFBEF6009C377
:1008D000E913F9E813F8DFF7EA28FAEB39FB8A2B7A
:1008E0008B2C50067BFF8B2B8B2CC3EB940250027E
:1008F000D21C3018047F03801C7892E6FFC3E539D0
:10090000948240110FC3E53994A040010FC3EF94C6
:100910000640027F057E02E52CC4540FF9E52CC485
:1009200054F0F8E52BC4540F28F8C3E89EFAE99474
:1009300000FB400AC3EA9401EB94004001227A01D3
:10094000E4FB22AA2BAB2CEBC4FEEAC4540F4EFCF2
:10095000C3EA9CFAEB9400FBC3E813C313F8EA283C
:10096000FAEB3400FB8A2B8B2CC3EB94024002C2BF
:100970001C7802EBC4FE7B00EAC4540F4EFAC3EAB3
:1009800098FA4005C3940150027A017892E6FF225A
:100990003010022190854892854993D21043E68019
:1009A00022C3E49AF8E49BF9C3E833F8E933F92069
:1009B0001C6FE8FAE9FBD3E913FDE813FC884889CA
:1009C00049C3EF94036037EF20E00CE82CF8E93DD1
:1009D000F9ECFAEDFB8013E828F8E939F9C3E824CB
:1009E00001F8E93400F97AFF7BFFC3EF9403400E6E
:1009F0008A4A8B4B884489458C468D478057884A64
:100A0000894B8A448B458C468D47301812754AF0C5
:100A1000754BFF7546F07547FF7548F07549FF80C7
:100A200034E8FAD3E813FC8848C3EF94036020EF5E
:100A300020E007E82CF8ECFA4141E8282401F87A94
:100A4000FFC3EF940340088A4A88448C4680068896
:100A50004A8A448C463010024155753602D2104302
:100A6000E680E5235403602DA82BA92CC3E913F9D4
:100A7000E813F8301804E92440F9C2AF53E67F7553
:100A80009100C3E498F594E499F595759104D2101A
:100A900043E680D2AF22D211754300752000301B8F
:100AA0000375204041B4D211754300752040301BBE
:100AB0000375200078017901201C28E52354036088
:100AC00002C2117914E52CC313700104F8C3941405
:100AD00040027814301804781B791BC3E833F8C33C
:100AE000E933F9201010E543600C301803D53604C3
:100AF000D2126167515D0543E5BF5440B5200261E4
:100B00005130180908C3E89940011841E320110A3F
:100B100008C3E899400241B441E3C21153E67F752E
:100B20009100301C117594007595F0759104D210E8
:100B300043E680020AB4E52C7EFFC3334009C33389
:100B40004005C3334001FEC3E49E759400F59561F2
:100B50002BC3E5359401500241B430110241B4D8A1
:100B600002616541E3C212C2AF53E67F7591008511
:100B70004A94854B95759104854492854593D2108E
:100B800043E680D2AFE52354036007201902053500
:100B9000801030120D201B0A2011071581158102CB
:100BA00014DF2278003011027801E53975F007A4CE
:100BB000F9E5F028F5F0E9A2F013A2F113A2F2137F
:100BC000F539C394785003753978C3E539953A40BF
:100BD0000CC285C286C28775D4FF75D50771F03007
:100BE000100261DF854692854793D21043E680224A
:100BF000302C0A1205B0E52C54F870012230270C75
:100C0000202B09D575077575051202D722E575B435
:100C100004041202FE22B4030412029922B4020454
:100C20001202B2221202C422E55092E075D8008569
:100C300052F975FA00F5FBF5FC8552E98552EA7523
:100C4000D84022E55692E075D8008558F975FA002B
:100C5000F5FBF5FC8558E98558EA75D84022D21392
:100C6000D55A04055AC213E5554554121566F55573
:100C70005355FEA2E02013049128800291432220C4
:100C80002816C2AFC291C29275D47F75D503D29097
:100C9000D2AF915E75AA5322C2AFC290C29175D4F1
:100CA000DF75D506D292D2AF915E75AA5322202865
:100CB00016C2AFC291C29275D4BF75D505D290D27B
:100CC000AF915E75AA4322C2AFC290C29175D4BFE4
:100CD00075D505D292D2AF915E75AA6322202816EF
:100CE000C2AFC290C29175D4BF75D505D292D2AFB2
:100CF000915E75AA6322C2AFC291C29275D4BF75CC
:100D0000D505D290D2AF915E75AA4322202816C293
:100D1000AFC290C29175D4DF75D506D292D2AF9191
:100D20005E75AA5322C2AFC291C29275D47F75D5A7
:100D300003D290D2AF915E75AA5322202816C2AF7B
:100D4000C290C29275D4DF75D506D291D2AF915EB2
:100D500075AA4322C2AFC290C29275D47F75D503E3
:100D6000D291D2AF915E75AA6322202816C2AFC27B
:100D700090C29275D47F75D503D291D2AF915E7532
:100D8000AA6322C2AFC290C29275D4DF75D506D2D3
:100D900091D2AF915E75AA43227A147B7880127A41
:100DA000107B8C800C7A0D7BB480067A0B7BC8801C
:100DB00000E560D5E001227902E4C291D5E0FDD2E0
:100DC00086D5E0FDC286D5E0FDD291D5E0FDE920D3
:100DD000E002D28530E002D287E560D5E0FDE9206F
:100DE000E002C28530E002C2877496D5E0FDD9C921
:100DF000EAF8D5E0FDD8FBDBB8C29122C285C286F5
:100E0000C287C290C291C29275D4FF75D50722786D
:100E10008076FF0876FF0876FF0876FF0876FF08E1
:100E200076FF0876090876FF087601788C76010847
:100E300076FF0876FF0876FF0876FF0876FF0876CB
:100E4000030876FF0876FF0876FF0876250876D037
:100E50000876280876500876040876FF0876020897
:100E600076FF08767A0876FF087607087601087616
:100E7000FF0876FF087600087600227888E6C3949B
:100E800003D22A5002C22AC228E630E102D228A2A6
:100E90002892297886E614C2AFC083C0829000A051
:100EA00093D082D083D2AF78A6F67886E6F53BC39E
:100EB00094025003753B02789CE6753AFFB4020336
:100EC000753AA0B40303753A8278A0E6F860067418
:100ED000282409D8FCF565B1FC2278A5E6F954036D
:100EE000D2837002C283E9540CD2847002C284E9B6
:100EF00054307000E954C070002275688075662017
:100F0000756B6C756C147570FF7571EC7572DD2204
:100F1000756800756640756BD9756C287570EC75D1
:100F200071CB7572AB22741E208115C0D0C0E074E5
:100F30000AD5E0FDD0E0D0D02081EBD5E0EDC32292
:100F4000C0D0C0E0740AD5E0FDD0E0D0D03081D66A
:100F5000D5E0EDD3223027211202FE1202991202AF
:100F6000B21202C41202D71202FE1202991202B287
:100F70001202C41202D775750522756300756400EC
:100F80007597DE7597AD7581AF43FF8075EF067578
:100F9000A900B1FC75800275F1FF75A4F875800297
:100FA00075D4FF75900075F20775A50775900075EB
:100FB000D50775A60175E34075E202B1FCE478003F
:100FC000F6D8FDD10F12166778988660753201C287
:100FD000AF12073DB199120735B19F120735B1A580
:100FE000120735D1DAC2AF75630075640078FA79FB
:100FF000FA308116D9FBD8F775A91375A71075C1FA
:101000000075A700756200021C0075A71075C1303D
:1010100075A70075A903756201120E7B789886602A
:10102000120DFC75C80475910475D84075D9087502
:10103000F780759E03755580755A0175580075596E
:10104000007556FF7557FF75960275DA4275DB42DB
:1010500075BF8075AB0075D10C75BCB975BB1075CB
:10106000E88075B201C22C120729753800C220121F
:10107000073DD224120F26922775E491302703757D
:10108000E419C22BC22CC22DC22E7575057588516C
:10109000758E0C7589AA758C00758D00758E0C7512
:1010A000E68075B80375A828120F1012081DD2AF7C
:1010B00075300A120739754C00754D00C3E5309440
:1010C0000A4019120EFA75300A120739754C00756C
:1010D0004D00C3E530940A4003020FE512072D20AE
:1010E0002003020FE5C2AF120D99120D99120D994E
:1010F000D2AF12073D756300756400120739E54EE3
:10110000600280F1C2AF120DAB120DAB120DABD26B
:10111000AF12073D75320012081DE4F533F53405B2
:1011200033E533F4703F0534789AE6781914601289
:10113000783214600D787D14600878FA14600375B5
:101140003400C3E53498401D120DFC1207291534F4
:1011500075330078998660C2AF120DABD2AF789824
:101160008660120739120731E5317003020FE5304E
:101170002C031205B0C3E54E9401500AC3E54C940C
:1011800001501602111F120739E5317003020FE5F5
:10119000754C00754D0002134BC3E54C940170175C
:1011A000C2AF120DFC78998660120D99789886600E
:1011B000D2AF120739613DC3E54C94027017C2AF3C
:1011C000120DFC78998660120D9F78988660D2AFD8
:1011D000120739613DC3E54C94037017C2AF120D7D
:1011E000FC78998660120DA578988660D2AF1207B8
:1011F00039613DC3E54C94047017C2AF120DFC7801
:10120000998660120DAB78988660D2AF120739616B
:101210003DC3E54C94057017C2AF120DFC7899865A
:1012200060120DAB78988660D2AF120739613DC36A
:10123000E54C94077019C3E54D94065002216F7474
:1012400001302A0274037888F6C228C229613DC39E
:10125000E54C94087019C3E54D94065002216F7453
:1012600002302A0274047888F6D228D229613DC35C
:10127000E54C94097017C3E54D94065002216F3078
:101280002A0BC37888E69402F6C22A613DC3E54C76
:10129000940A7016C3E54D94065002216F202A0A65
:1012A0007888E62402F6D22A613DC3E54C94147096
:1012B0002DC3E54D94065002216F7400C2AFC08368
:1012C000C082901A0B93D082D083D2AF7888F61365
:1012D000C228C2294002D2284002D229805FC3E539
:1012E0004C94157040C3E54D940640577400C2AF4E
:1012F000C083C082901A0B93D082D083D2AFF8B84B
:1013000001027402B802027401B803027404B80442
:101310000274037888F613C228C2294002D22840FA
:1013200002D2298018C3E54C940C70117563A57521
:1013300064F1C3E54D9406400AD1AED2AF754C00BE
:10134000754D00756300756400216F120DFC755EAC
:1013500000752200752300753900755E0812072993
:101360001207A330EDFDA8BDA9BEE97001F8885FA2
:101370001207A7755E08C2AF12080E855D5B855D1A
:101380005CD2AF302A07C228302502D228D2187585
:101390003500302C031205B0120D3B120D6A1208F5
:1013A0001D1208261209901209A112081D12082602
:1013B0001209901209A112081D120AA6120BA312FB
:1013C0000C7F1208261209901209A1120A96201CFD
:1013D0000312075D301C0312078D120BA3120CAE13
:1013E0001208261209901209A1120AA6120BA312C2
:1013F0000CDD1208261209901209A1120A96120B8E
:10140000A3120D0C1208261209901209A1120AA6A5
:10141000120BA3120D3B1208261209901209A112F9
:1014200007A3120A96120BA3120D6A1207A712083D
:10143000261209901209A1301827855D5B79187A68
:101440000CC3E53599400EC218D2198A37855D5B09
:10145000855D5C800CC3E54E940140030213B981A5
:10146000E730191F201B1CE537147006C219D21A69
:1014700061B9F537202A07C3E54E940140030213F2
:10148000B98064753800202A0F78FA79A4E76002E1
:101490007803C3E54F98504FE531604B302A172051
:1014A0002805202507800F302502800A201B07D23F
:1014B0001B855D5B61FB78F0301B05855D5B7820EB
:1014C000C3E52C9850030213B9301B1BC21BC22862
:1014D000302502D228D219753712855D5B61B905B6
:1014E00038E54E600281EA753800C2AF120DFC7516
:1014F0002300D2AF120739120DFC75220078A4E642
:101500006006D290D291D292C3E53894044003028F
:101510000FE521178322010203050C080409050CBD
:10152000080D09050C83220102030405060709388A
:1015300030282018100811093830282018101911E7
:10154000093830282018211911093830282029217C
:101550001911093830283129211911093830393148
:1015600029211911093883220102030405060708FD
:10157000090A0B0C0D0E0F11F0E0D0C0B0A0908046
:10158000706050403020102111F0E0D0C0B0A09029
:1015900080706050403020312111F0E0D0C0B0A008
:1015A0009080706050403041312111F0E0D0C0B0E7
:1015B000A09080706050405141312111F0E0D0C0C6
:1015C000B0A09080706050615141312111F0E0D0A5
:1015D000C0B0A09080706071615141312111F0E084
:1015E000D0C0B0A09080708171615141312111F063
:1015F000E0D0C0B0A0908091817161514131211142
:10160000F0E0D0C0B0A090A1918171615141312131
:1016100011F0E0D0C0B0A0B1A19181716151413110
:101620002111F0E0D0C0B0C1B1A1918171615141EF
:10163000312111F0E0D0C0D1C1B1A19181716151CE
:1016400041312111F0E0D0E1D1C1B1A191817161AD
:101650005141312111F0E0F1E1D1C1B1A19181718C
:10166000615141312111F0901A0D7820D1E7E52028
:10167000B4550AA3D1E7E520B4AA0280137563A587
:101680007564F1120E0FD1AE756300756400801D94
:10169000901A0378807B0AD1E7A308DBFA901A0F2F
:1016A000788C7B1AD1E7A308DBFA901A2922C2AF03
:1016B000F12AF107901A007410D1ECA3745ED1ECFA
:1016C000A37421D1EC901A0378807B0AD1EBA30894
:1016D000DBFA901A0F788C7B1AD1EBA308DBFAF1B6
:1016E0003DF11B901A2922E493F622E6438F015321
:1016F0008FFDFFC3E583941C400122EF8563B7850E
:1017000064B7F0538FFE22438F02438F018563B786
:101710008564B7901A0DF0538FFC22901A0D745502
:10172000D1EC901A0E74AAD1EC227A3079D07820BC
:10173000901A40D1E7E520F709A3DAF7227A307949
:10174000D0901A40E7D1EC09A3DAF9227C05120700
:101750003DDCFB22C2AF120D99120D9F120DA51296
:101760000DAB120731120D99120D9F120DA5120D1E
:10177000AB120731120D99120D9F120DA5120DAB70
:10178000D2AF22C2AF120DAB120DA5120D9F120DDA
:1017900099120731120DAB120DA5120D9F120D9962
:1017A000120731120DAB120DA5120D9F120D99D219
:0217B000AF2266
:1019FD00020F7A105E21FFFFFFFFFFFF09FF01FFBE
:101A0D0055AA01FFFFFFFFFF03FFFFFF25D0285061
:0D1A1D0004FF02FF7AFF0701FFFF0000FF3A
:101A400023515F485F333023202020202020202096
:101A500023424C48454C492445464D3842323123B7
:101A60002020202020202020202020202020202076
:101C0000C2AFC2D37597DE7597AD7581C075A90057
:101C100043FF80752438752503B1DB7529A5752A26
:101C2000F143F10253A4FDD28175D4FF75E3407DE9
:101C3000FA780379E67C10752200752300901DE880
:101C40007B06752498752501308102814820810822
:101C5000D8FBD9F9DCF781BA308108D8FBD9F9DC97
:101C6000F781BAB19BE493A3C39A6004DDC381BA40
:101C7000DBDBB18D600281317B08E493FAA3B16EA6
:101C8000DBF87A30B16E752200752300B18DEAFC65
:101C9000EBFDC3ED94FE400EB18D8A278B28ED300D
:101CA000E0048A828B83B18D7AC270D8C3ED94FE32
:101CB000601950CEBD0029EC600F7520007521FF22
:101CC000752900752A000200008100A827A92808AC
:101CD00009D804D90281DDB191EAF281D10D81A642
:101CE000C3ED94035051EDA2E092007AC5C3E582A2
:101CF0009400E583941C508C200010438F02438F86
:101D0000018529B7852AB7F0300027A827A9280818
:101D100009438F01538FFDD804D902A132C3E58353
:101D2000941C4003A3A117E28529B7852AB7F0A325
:101D3000A117538FFC81827AC1BD030CE493A3FAEF
:101D4000B152DCF8B14A81828184AA22AB23B16E00
:101D5000EBFAEA6222752608C3E52313F523E52290
:101D600013F52250066323A0632201D526EAB1DBD6
:101D7000B1DB75260AEAF4200102D281300102C2E9
:101D800081B1DBC3134002C201D526EB22B191EA37
:101D9000FB208102A191308102A196752608AE2414
:101DA000AF25C3EF13FFEE13FEB1DFB1DBC3EA13C0
:101DB0003081024480FA30E703632201C3E5231334
:101DC000F523E52213F52250066323A0632201D5F3
:101DD00026D9E52265236523F52222AE24AF250E00
:101DE0000FDEFEDFFCD20122424C48656C693437BD
:061DF0003164E8B20601B7
:00000001FF
