:03000000021221C8
:03000B000200B43C
:03002B00020308C5
:03005B000204623A
:030073000204582C
:1000800002030406080C10182030406080020304AC
:1000900006080C101820304080FF0406080C1018C9
:1000A0002030406080A0C00505020D0505050D0645
:1000B00003030302C2AFC0D0C0E0205A292060026F
:1000C00041F4305D0241B4302F02E4730565C3741E
:1000D00005952540F5956540F1758A78E52570030D
:1000E000758A00020301306306C283C294C29585FB
:1000F000258AC25AE525F47002217B05662060023C
:100100002168206A10758B00D0E0D0D0C283C294E1
:10011000C295D2AF32D265E56D601AC3E56614951B
:100120006D4012C265C3E566956C500302016875A7
:100130006600020168C283C294C2957408D5E0FDCE
:10014000E5401420E21520E10D207502D2973075AC
:1001500002D280020178D282020178207502D28018
:10016000307502D297020178758B00D0E0D0D0C2F2
:1001700083C294C295D2AF32758B00D0E0D0D0D27A
:10018000AF3241F4E525600A207502D28330750252
:10019000D295C29441F4E5256002D294207502C242
:1001A00095307502C28341F4E525600A207502D2BC
:1001B00095307502D283207502C283307502C295D4
:1001C00041F4207502C280307502C297207502C2C8
:1001D00097307502C2807406D5E0FDE525600A20DF
:1001E0007502D283307502D295C29441F420750213
:1001F000C280307502C297C2827406D5E0FDE52543
:10020000600A207502D283307502D295C29441F4FF
:10021000C282207502C280307502C2977406D5E092
:10022000FDE5256002D294207502C295307502C2A8
:100230008341F4C282207502C297307502C2807475
:1002400006D5E0FDE5256002D294207502C2953006
:100250007502C28341F4207502C297307502C280D4
:10026000C2827406D5E0FDE525600A207502D295AC
:10027000307502D283207502C283307502C2954167
:10028000F4207502C297307502C280207502C280C8
:10029000307502C2977406D5E0FDE525600A207529
:1002A00002D295307502D283207502C28330750266
:1002B000C29541F4306A3DE54020E21A20E1292050
:1002C0007502C280307502C297207502C2973075E0
:1002D00002C2800202F420E1E6207502C28030757D
:1002E00002C297C2820202F4C282207502C2973013
:1002F0007502C280E525F4F58A758B00756500D21C
:100300005AD0E0D0D0D2AF32C2AFC2AD53E6EFC0C8
:10031000D0C0E0D2D3D2AFC2CEE528600A741F5558
:100320002E60491528616C78007900E580307601EF
:10033000F430E50278FF53DACF20760343DA203039
:10034000760343DA10C2D8C269E580307601F43012
:10035000E50279FFC3E89970CE3059037528187407
:100360001F552E6003752818885BD268E529600444
:100370001529617F741F552E600543DA01C2D8200C
:10038000680261FAE55BF8C268741F552E6031C3DC
:10039000E894F0400374F0F8E8C4540F28F8798426
:1003A000B7030261C0C313C3138721200802C3131C
:1003B000200A06C3C898F861C028F8500374FFF8F3
:1003C000C3E895645003E564F8E52C54067038885A
:1003D0002230630AC3E52295604003856022C3E5AD
:1003E000229524401278A396400DE52426F524504A
:1003F000097524FF0203FA852224A824C3E5249565
:10040000604002A8608825C3E52594404002D25B85
:1004100020CF0CD0E0D0D0C2D343E610D2AD32C250
:10042000CF7801E5286008741F552E70021528C387
:10043000E55B94014005755E00814C755F00756752
:1004400000E55E2401F55E5003755EFFD0E0D0D07C
:10045000C2D343E610D2AD32C2AF53917FC258D25D
:10046000AF32C2AF53E6EFC2ADC0D0C0E0C0F0D2F1
:0E047000D3D2AFA8FBA9FCC2D830690281CC60
:10047E0053DACF20760343DA1030760343DA20D2F4
:10048E0069E580307601F420E50281A0882689276F
:10049E00C1DC53DACF20760343DA2030760343DA19
:1004AE0010C2D8C269741F552E7002C1C27800E501
:1004BE0080307601F430E502C1C2885BC1B153DAF7
:1004CE00CF20760343DA2030760343DA10C2692058
:1004DE005902A19253DACF20760343DA1030760315
:1004EE0043DA20C2D8D26988568957C3E89554F8A2
:1004FE00E99555F9E4FB7E027A00C3E894C8E994C5
:10050E0000500AE4D2E4FB7E007A0AA165C3E894A7
:10051E0068E99401500AE4D2E3FB7E007A0FA165EC
:10052E00C3E894D0E99402500AE4D2E2FB7E007A4A
:10053E001EA165C3E894A0E99405500AE4D2E1FB3C
:10054E007E007A3CA165C3E89498E994085008E4CB
:10055E00D2E0FB7E007A78C3E89558FCE99559FD08
:10056E0030E708ECF42401FCEDF4FD755A00C3EC01
:10057E009AED9E5003755A0188588959A856A95765
:10058E0088548955C3E89526F8E99527F930740201
:10059E00C195307302C195307202C18EE9C313F951
:1005AE00E813F8307102C18EE9C313F9E813F8307D
:1005BE007002C18EE9C313FDE813FC205917C3EC7A
:1005CE00941CED94024002C1C2ED7009C3EC94C8B4
:1005DE0050030206C2740020770B7888E67896B432
:1005EE000302789EE624FAFEE43400FFC3EC9EFC80
:1005FE00ED9FFD92087888E6B40327A208500920E3
:10060E007520C2AFD275C11D307517C2AFC275C28B
:10061E0083C294C295C280C282C297206302D25E08
:10062E00D2AFA2085017E6B4030DECF42401FCED92
:10063E00F43400FD02064B78007900C1957888E607
:10064E00B40315EC33FCED33FDC3EC9405FCED94D3
:10065E0000FD50047C007D00C3EC94FFED9400403F
:10066E000678FF7900C195EC8574F0A4C5F0A2F769
:10067E0033F8790040030206B178FF79000206B123
:10068E00E9C313F9E813F830740EE9600278FFC37A
:10069E00E81338F8E43400F9C3E894FFE994004015
:1006AE000278FF885BD268205902C1C2741FF455CC
:1006BE002E4BF52E752818741F552E700375280AAB
:1006CE00305902C1DC741F552E600353DAFE7529B2
:1006DE0006741F552E700375290AD0F0D0E0D0D0C5
:1006EE00C2D3D2AD43E61032790102071479030268
:1006FE000714790A020714791E0207147964020797
:10070E001479C80207147817E4D5E0FDD8FAD9F6A3
:10071E00227A147B7802073B7A107B8C02073B7A95
:10072E000D7BB402073B7A0B7BC802073BAC2575E9
:10073E0025017902B275E4C282D5E0FDE52560029D
:10074E00D294D5E0FDC294D5E0FDD282D5E0FDE590
:10075E0025600A207502D283307502D295E575D5D3
:10076E00E0FD207502C283307502C2957496D5E005
:10077E00FDD9C1EAF8D5E0FDD8FBDBB1C2828C25EC
:10078E0022C37C007D0075F00005F0EA33FAEB33EE
:10079E00FB50F6EB13FBEA13FAC3E9FFE8FEE89A07
:1007AE00F8E99BF95004EFF9EEF8B3EC33FCED33B6
:1007BE00FDD5F0DFEDF9ECF822E889F08A20D2D4ED
:1007CE00F8A9F07B0030F70B7BFFF42401F8E9F475
:1007DE003400F9E88520F0A4ADF0F8E98520F0A406
:1007EE00AFF0FEED2EF974003FFA7C04C3EA13FA63
:1007FE00E913F9E813F8DCF48BF030F70AE8F42487
:10080E0001F8E9F43400F9E889F0C2D4F8A9F0222D
:10081E007882B604030208C0C3E55B9419401FE555
:10082E002C54187019E54B703878057994E71460DC
:10083E0007780A1460027812C3E53F984020E54B12
:10084E0060098563617567FF756801852224E4F58B
:10085E0042F543F544F545F546F54B0208C0754B98
:0F086E00017994E7147013E523F43333F913F889
:10087D00E9540104F9E854FE0208B4E714147014A5
:10088D00E523F4333333F913F8E9540304F9E85449
:10089D00FC0208BCE523F433333333F913F8E95480
:1008AD00070404F9E854F8C39440F8E99400F98872
:1008BD0042894322E54B603BC3E53F13F9E53E1307
:1008CD00F8C3E54298F8E54399F9500CC3E89480D4
:1008DD00E994FF40160208FCC3E8947FE9940050A8
:1008ED00030208FC787F79000208FC788079FF8884
:1008FD0047894822E54B6058E5472544F8E54835DA
:10090D0045F9854820E4300701F43546FA30E7090A
:10091D00C3EA94F0401502093EC3EA940F50030256
:10092D00093E78FF79FF7A0F02093E780079007A47
:10093D00F0C3E52495605006E52460092157E5488C
:10094D0020E70D2157E54830E706884489458A465A
:10095D0022E54B70030209C278A1E6FAC3E54733DD
:10096D00F8E54833F91207C7E930E70BC3E894807F
:10097D00E994FF40132199C3E8947FE99400500254
:10098D002199787F79002199788079FFE820E71502
:10099D00C3E52398F84009C3E8940140030209C058
:1009AD0078010209C0E8F424012523F84003020967
:1009BD00C078FF884922E54B7003020A2578A2E62C
:1009CD00FAA845A9461207C7E930E70CC3E8940118
:1009DD00E994FF40160209FCC3E894FFE994005026
:1009ED00030209FC78FF79000209FC780179FFE91F
:1009FD0020E715C3E54998F84009C3E89401400381
:100A0D00020A237800020A23E8F424012549F8405C
:100A1D0003020A2378FF88242278FFC25BE52C5459
:100A2D001E7028D25BC3E53F94084002C25BE53FD0
:100A3D00601974FF853FF084853BF0A4F8C5F06024
:100A4D000278FFC3E895635002A863886222020A08
:100A5D00F87883E6F520120FAC75E8901206F6755E
:100A6D00E890E5E820ECFBA8BDA9BE121045757015
:100A7D0055757100C3740013FD745513FC74552C1A
:100A8D00FC74003DFDECFAEDFBC3E89AE99B4014C4
:100A9D00E5702455F570E5713400F571EA2CFAEB2B
:100AAD003DFB80E5AE70AF71C3E57113F9E57013D1
:100ABD00F8C3E913F9E813F8E57028F56EE5713917
:100ACD00F56F7A03C3E913F9E813F8DAF7AA201AD8
:100ADD007009757000757100020AF81AEA6008EE67
:100AED0028FEEF39FFDAF88E708F712275E89022AB
:100AFD007883E6FFE5E820ECF7A8BDA9BE0572C333
:100B0D00E57294084052757200E9FA79A0E76044E5
:100B1D00EA7007E573601B020B33C3E89573601031
:100B2D00E5735006600C14020B3F0460F9020B3F95
:100B3D00E573F573C3946D401B7560C0C394044099
:100B4D0013756080C39404400B756040C3940440DA
:100B5D000375600075BB0922E560F460020560E570
:100B6D0072B4070375BB1022306102783230620215
:100B7D007878E52C5406601FE879A487F0A4C5F0B9
:100B8D00A2F733F8C3E895604002A8608822882454
:100B9D008825306102886322788FE6FFC3EF9405C4
:100BAD005018C3EF94045020C3EF94035028C3EFA3
:100BBD0094025030C3EF940150387533A075340F43
:100BCD0075353C753605810B7533C0753412753529
:100BDD0040753606810B7533707534177535D075C4
:100BED003607810B75334C75341D7535C475360953
:100BFD00810B7533287534237535B875360B8533F0
:100C0D0052853453753E00753F0822A852A95302F0
:100C1D000C23A84CA94D759100C3E498F594E49963
:100C2D00F595759104D25875C820A8CCA9CD75C875
:100C3D0024AA3CAB3D883C893DC3E89AF8E99BF971
:100C4D00AA3EAB3FAC3EAD3F7E047F02C3E53F9471
:100C5D000440021E1FC3E53F940840021E1FC3ED52
:0F0C6D0013FDEC13FCDEF7C3EA9CFAEB9DFBEFE3
:100C7C006009C3E913F9E813F8DFF7EA28FAEB394E
:100C8C00FB8A3E8B3F400122753EFF753FFF22756C
:100C9C009100C3E4954EF594E4954FF59575910448
:100CAC00D2582230580281AF919B227892E6FFC332
:100CBC00E539948240010FC3E53994A040010FC37C
:100CCC00EF940640027F057E0CC3E53F9403500869
:100CDC000E0EC3306A020E0EC3E53F940250080E8E
:100CEC000EC3306A020E0E3063047F037E00A93FF0
:100CFC00A83E7A04C3E913F9E813F8DAF7C3E89EBF
:100D0C00F8E99400F94009C3E89402E9940050040E
:100D1C007802E4F9E9FBE8FAC3E913FDE813FCC334
:100D2C00EF94036037EF20E00DE82CF8E93DF9EC87
:100D3C00FAEDFB020D55E828F8E939F9C3E89402FD
:100D4C00F8E99400F97A02E4FBC3EF9403400D8AAE
:100D5C00508B51884C894D8C4E8D4F228850895127
:100D6C008A4C8B4D8C4E8D4F22305802A175C3E5A9
:100D7C004E33F8E54F33F9E52C54186004A83EA91E
:100D8C003F759100C3E498F594E499F59575910439
:100D9C00D25822D25C754100752000020DB2D25C93
:100DAC00754100752040E52C54186002C25CD2AF2E
:100DBC00205805E541600122759D00E53FC313C332
:100DCC0013F8086027C3E8940640027806306B08D5
:100DDC00C3E8940340027803C3E53F9408400D75C3
:100DEC009D02C3E53F94104003759D03205807E511
:100DFC00416003D2AF22791E206B02790AD2AF0078
:100E0C0000C2AF205A07793C206B02791430630280
:100E1C007978C3E58B9940D40541E59BF4F45440B3
:100E2C00B5201F205C02A1B2C25C759100C3E49591
:100E3C003EF594E4953FF595759104D25853917F06
:100E4C00A1B2305C02A1B2D8A3D2AF2230630B05A1
:100E5C0038205816753800020E7620580D205C0A82
:100E6C00205E07158115810217D522759100C3E408
:100E7C009550F594E49551F595759104D25822D17D
:100E8C00777800305B05305C027801E53975F00746
:100E9C00A4F9E5F028F5F0E9A2F013A2F113A2F2FF
:100EAC0013F539C394785003753978C3E539953AFD
:100EBC004008D25DC283C294C295305802C1C6228A
:100ECC00C2AFC280C282C297306A0B9002563065A4
:100EDC00057406D5E0FD207502D280307502D297DC
:100EEC00759F4375400202102AC2AF207502C2954D
:100EFC00307502C283306A1A900233306517C28291
:100F0C00207502C297307502C2807406D5E0FD02CE
:100F1C000F21900196305A06E5256002D294207577
:100F2C0003759F53307503759F3375400302102A68
:100F3C00C2AFC280C282C297306A0B900210306579
:100F4C00057406D5E0FD207502D297307502D2806B
:100F5C00207503759F33307503759F5375400402DC
:100F6C00102AC2AFC294306A1A9001ED3065172076
:100F7C007502C280307502C297C2827406D5E0FD3C
:100F8C00020F92900184305A0EE525600A207502FA
:100F9C00D283307502D295759F4375400502102A95
:100FAC00C2AFC280C282C297306A0B9001C2306558
:100FBC00057406D5E0FDD282207503759F533075FC
:100FCC0003759F3375400602102AC2AF207502C20A
:100FDC0083307502C295306A2290028130651F20E1
:100FEC007502C280307502C297207502C2973075A7
:100FFC0002C2807406D5E0FD02100A9001A8305A96
:10100C000EE525600A207502D295307502D2832038
:10101C007503759F33307503759F53754001305EB2
:10102C00131210457406D5E0FD7408D5E0FDD2808E
:10103C00D282D297C25DD2AF22900182C283C29477
:10104C00C295C280C282C297C25A22C3E55295355C
:10105C00E55395365001227890E6FFC3EF94055086
:0F106C0018C3EF9404501BC3EF9403501EC3EF3F
:10107B0094025021C3EF94015024C3E552943CF8E1
:10108B000210B2C3E5529428F80210B2C3E5529491
:10109B001AF80210B2C3E5529412F80210B2C3E56B
:1010AB0052940AF80210B2E5539400F9885289530E
:1010BB002230580201BC22788076FF0876FF087632
:1010CB00FF0876FF0876030876040876090876038E
:1010DB00087601087601788C76010876FF0876FF92
:1010EB000876030876050876FF0876030876050868
:1010FB0076FF0876020876250876D00876FA087609
:10110B00FA08760408760D08760108760008767AD8
:10111B000876FF087601227893E6FF756C09756DEA
:10112B0001BF0206756C05756D01BF0306756C0575
:10113B00756D02BF0406756C05756D03BF050675ED
:10114B006C09756D07BF0606756C00756D007887A9
:10115B00E6FFC26ABF0302D26AC265BF0302D26551
:10116B007888E6C394036008C275E630E102D27555
:10117B00C2767889E630E102D276C3EF940260083A
:10118B00758E01D26B021198758E00C26B2278801E
:10119B00E6149000809378A1F67881E61490008095
:1011AB009378A2F6114522789BE61490008D9378E4
:1011BB00A3F61145227886E61490009A9378A4F64C
:1011CB0011452222789CE6753AFF753B0CB402065A
:1011DB00753AA0753B0AB40306753A82753B052236
:1011EB00D281789DE66002C281227896E6FA7897E2
:1011FB00E6FB3077047A007BFFC3EB9AFCC3948247
:10120B0050027C827574000574EC8574F0A4C3E500
:10121B00F0948040F222E5EF20E6037520000520D4
:10122B00903FFFE520146006901DFF1460009304AF
:10123B00600375EF12C2D353D9BF7581C043FF80D2
:10124B001206F675EF0243B203E5B324044002F530
:10125B00B311457580F075A40F75F13F75D4DF752B
:10126B00904F75A5B075F2F575D50075A60175E2B1
:10127B0041E4F8F6D8FD11C2121809312231993127
:10128B00B231C031CE31CF31EB31F5789886751153
:10129B004575885075890275C82475910475D840B9
:1012AB00C2AF12070F12071F1207051207261207EC
:1012BB000512072D120705121CA912070F12070F93
:1012CB0012070A75A82275B80275E690759B807592
:1012DB009D0375D10E75BC5875BB0975BA1175E8B0
:1012EB00801206F6D2AF120A5B43DA01C2D8C2698A
:1012FB0012070F753001D2597A05E55A70027A053B
:10130B001206FBE55BC3940240EEE52E541F855D90
:10131B005CF55DB55CE2DAE2C25953DACF207603B5
:10132B0043DA2030760343DA10C2D8C26912070AB7
:10133B001206FB7802741F552E70027800C3E55B12
:10134B009840EDC2AF12071F12071F12071FD2AF33
:10135B0012070F754A007888E6B40302813C120627
:10136B00FB788CE6C39401500302143CE530C39424
:10137B0001500302143C741F552E6035C3E55B947A
:10138B00FF500302143CC2AF120734D2AF12070A4C
:10139B00C3E55B940150EFC2AF12071F1207001297
:1013AB00071FD2AF12070AC3E55B94FF40E9021D8A
:1013BB002E7F05D27731F512070AC2AFC27731F50E
:1013CB00AE5BC3E55B947FD2AF40701206F6C2AF43
:1013DB00120734D2AFDFDCC3EE94057897F6120711
:1013EB000F12184B121CB17F0AD27731F512070A74
:1013FB00C2AFC27731F5AE5BC3E55B947FD2AF5022
:10140B00E61206F6C2AF12071F12070012071FD211
:10141B00AFDFD6EE24057896F612070F12184B1293
:10142B001CE012070A31F5C3E55B94FF40F4021D83
:10143B002EC3E55B954A4003855B4A12070A780188
:10144B007988E7B403027805C3E55B9840026161D4
:10145B00C2AF120734120734120734D2AF12070F80
:0F146B00753000E4F531F5320531E531F47039B3
:10147A000532789AE67819146012783214600D7879
:10148A007D14600878FA146003753200C3E5329857
:10149A00401715327531B478998675C2AF12073480
:1014AA00D2AF7898867512070A120700E5287008E5
:1014BA00741F552E70026101C3E55B940640AA7839
:1014CA0088E6C39403600312070AE52870026101E3
:1014DA00C2AF1145E4F522F523F524F525D2AF78FC
:1014EA00858664F542F543F544F545F546F572F50A
:1014FA004BF52BF52CF539120BA575720875BB1037
:10150A001206F6120AF9E5E820ECFBA8BDA9BEE925
:10151A007001F88873120AFD75720875BB10789508
:10152A00E630E0030215767887E6FE760231227805
:10153A0087EEF6D261C2AF7560FF120B7585226025
:10154A00852261852262D2AFC261752501855F67F6
:10155A00756801D260D263753800120FAC120FD6CB
:10156A00120C1F120BA5120CB70216A57887E6FEFD
:10157A0076037893E6FD760531227887EEF678933E
:10158A00EDF6D260D261D265120FAC120FD6756039
:10159A00FF120B757562FF1206F6120ECC1206F6D2
:1015AA001206F6120EF51206FB120F3C1206FB1279
:1015BA0006FB120F6E120700120FAC1206FB120680
:1015CA00F6C261D262120AF9120AFD120B7575721D
:1015DA000875BB10120FD6120C18120CB71157113E
:1015EA00BC120ECC120C18120CB7115711BC120EE9
:1015FA00F5120C18120CB7115711BC120F3C120C31
:10160A0018120CB7115711BC120F6E120C18120CCB
:10161A00B7115711BC120FAC120C18120CB7115794
:10162A00C3E5529535E5539536400C11BCC3E55BCD
:10163A00940150910217D511BCC2627887E6FE76F2
:10164A000231227887EEF6852260856361856325FB
:10165A00855F67756801D263753800C2AF2075026D
:10166A00C280307502C297207502C297307502C2D5
:10167A0080742DD5E0FDD2AF120FD6120C1F120CBA
:10168A00AF120CB7120D7575720075BB090216A55B
:10169A003122120FD675720075BB09120DAA120EED
:1016AA0058120E7712081E120E8B120ECC120C1F35
:1016BA00120CAF120CB7120D75120D9F120E5812A2
:1016CA000E771208C1120A26120E8B120EF5120C90
:1016DA001F120CAF120CB7120D75120DAA120E586A
:1016EA00120E77120901120E8B120F3C120C1F12E6
:1016FA000CAF120CB7120D75120D9F120E58120E66
:10170A007712095E120E8B120F6E120C1F120CAF9B
:10171A00120CB7120D75120DAA120E58120E77126C
:10172A0009C3120E8B120FAC120C1F120CAF120C43
:10173A00B7120D75120D9F120AF9120E58120E7772
:10174A00120AFD120E8B120FD6120C1F120CAF12B8
:10175A000CB7120D75306335205E32856360856380
:10176A0061855F6775680179647A14C3E5389940C1
:10177A000FC263D2648A377560FF7561FF021797DB
:10178A00C3E55B940140030216A50217D530641B1A
:10179A00205E18E537147004C264C19AF537C3E5B0
:1017AA005B940140030216A50217D5C3E55E948235
:1017BA005019741F552E7004E528600FC3E53F7851
:1017CA00F0305E027860985002C1A5C2AF11457828
:1017DA0087E6FE760231227887EEF6E4F522F523D3
:1017EA00F524F525F564C260D2AF1206F6114574E8
:1017FA001F552E7007E528700302130102146E901C
:10180A001A0D7820121C00E520B45A0CA3121C00F1
:10181A00E520B4A50302182B1210C212184B0218A5
:10182A004A901A0378807B0A121C00A308DBF990FD
:10183A001A0F788C7B15121C00A308DBF9901A2466
:10184A0022C2AF121C3F121C19901A00740C121CEF
:10185A0005A37400121C05A37412121C05901A0326
:0E186A0078807B0A121C04A308DBF9901A0F89
:10187800788C7B15121C04A308DBF9121C52121C6D
:0518880030901A24223B
:101A00000C0012FFFFFFFF0304090301015AA501A7
:101A1000FFFF0305FF0305FF0225D0FAFA040D01BD
:051A2000007AFF01FF48
:101A400023416C69676E424C33355023202020209F
:101A500023424C48454C4923463333302320202031
:101A60002020202020202020202020202020202076
:101C0000E493F622E6438F01538FFD75EF0275B71B
:101C1000A575B7F1F0538FFE22438F02438F0175F4
:101C2000EF0275B7A575B7F1901A0DF0538FFC222E
:101C3000901A0D745A9105901A0E74A59105227A86
:101C40003079D07820901A409100E520F709A3DA86
:101C5000F7227A3079D0901A40E7910509A3DAF992
:101C600022AB76A877BB01027984BB02027985BBDF
:101C700003027995BB04027986BB0502798FBB0606
:101C8000027990BB07027992BB0802799BBB0902DB
:101C90007993BB0A027987BB0B02799CBB0C027952
:101CA00088BB0D027989E8F7227C0512070FDCFB5F
:101CB00022C2AF12071F12072612072D1207341275
:101CC000070012071F12072612072D1207341207EA
:101CD0000012071F12072612072D120734D2AF2257
:101CE000C2AF12073412072D12072612071F120760
:101CF0000012073412072D12072612071F120700C1
:101D000012073412072D12072612071FD2AF22AE78
:101D100076AF77C2AF12071F12071F12071F1207F5
:101D200000DEF2120734120700DFF8D2AF2291B1C1
:101D300091A991A9757601757701757800B10F7C2D
:101D400005AD5B12070FC3ED955B70F5C3E55B94C2
:101D5000014009C3E55B94FF4032A16A916112180A
:101D60004B91B1C2AF75EF1291A9DCD50578C3E5EF
:101D7000789403500280C691A90577E57614900007
:101D8000A793F808C3E57798500280AE91A991A96E
:101D90000576C3E576940E5002809C1210C212188C
:081DA0004BC2AF75EF1291A9CF
:00000001FF
