:0300000002108B60
:03000B000200AA46
:03002B000201626D
:03005B000202FBA3
:030073000202E1A5
:1000800002030406080C10182030406080040608A3
:100090000C10182030406080A0C000070F1F3F0DDB
:1000A0000D04050D050305030302C2AFC0D0C0E077
:1000B000206217E5256002E473E525F4F58A758B67
:1000C00000D262D0E0D0D0D2AF3285268AC262E5BB
:1000D00026F46028306803207210758B00D0E0D0C1
:1000E000D0D292D291D290D2AF32D292D291D2903B
:1000F000206E09740AD5E0FDE57B4290758B00D037
:10010000E0D0D0D2AF3201B9306805206602C29289
:1001100001B9306805206602C29101B93068052036
:100120006602C29001B9C29330680D20660A206F42
:10013000057408D5E0FDC29201B9C29430680D2063
:10014000660A206F057408D5E0FDC29101B9C29519
:1001500030680D20660A206F057408D5E0FDC29056
:1001600001B9C2AFC2AD53E6EFC0D0C0E0D2D3D226
:10017000AFC2CEE52A6007207446152A21C0780058
:100180007900E580307E01F430E40278FF53DACF65
:10019000207E0343DA20307E0343DA10C2D8C271D6
:1001A000E580307E01F430E40279FFC3E89970CE37
:1001B000306103752A18207403752A18885CD27080
:1001C00020740DE52B6004152B21D043DA01C2D831
:1001D000207002412CA85C206102C2702074367924
:1001E00082B70431C3E894F0400374F0F8E8C454D3
:1001F0000F28F87984B703024115C313C31387216D
:10020000200802C313200A06C3C898F8411528F82D
:10021000500374FFF88822E52D5406600FE533C3C0
:1002200013C3132522F52250037522FF7882B604EA
:1002300062852224A824C3E52495614002A861C3F5
:10024000E895634002A8638825E5667002417DC396
:10025000E8AA669A5003E8FAE4F9EAC333FBE568D2
:10026000F45B29400D2567F8E56760021567400BD0
:10027000417D0AC3E5679A5002056778FF8826C268
:100280006EC26FC3E52694F54009D26EC394054053
:1002900002D26FC3E52594404002D26420CF0CD037
:1002A000E0D0D0C2D343E610D2AD32C2CF7801E560
:1002B0002A6005307402152AC3E55C940140057577
:1002C0005F0041D5756000756900E55F2401F55F49
:1002D0005003755FFFD0E0D0D0C2D343E610D2AD5B
:1002E00032C0D0C2AF53E67FC2607591008553948F
:1002F000855495759104D0D0D2AF32C2AF53E6EF9A
:10030000C2ADC0D0C0E0C0F0D2D3D2AFA8FBA9FC30
:10031000C2D8307102616253DACF207E0343DA1013
:10032000307E0343DA20D271E580307E01F420E490
:1003300002613988278928A18953DACF207E0343B7
:10034000DA20307E0343DA10C2D8C271307402A1C1
:10035000757800E580307E01F430E402A175885C98
:10036000A15D53DACF207E0343DA20307E0343DAE7
:1003700010C271206102813B53DACF207E0343DA41
:1003800010307E0343DA20C2D8D27188578958C30F
:10039000E89555F8E99556F97B007E087A00C3E8A0
:1003A000948CE994005005755B00812D882178A21A
:1003B000E6A8216055C3E894C8E994005008E4D247
:1003C000E4FB7A0A8108C3E89468E994015008E4E0
:1003D000D2E3FB7A0F8108C3E894D0E99402500875
:1003E000E4D2E2FB7A1E8108C3E894A0E9940550A8
:1003F00008E4D2E1FB7A3C8108C3E89498E99408C8
:100400005008E4D2E0FB7A787E00C3E89559FCE915
:10041000955AFD30E70AECF42401FCEDF43400FDBC
:10042000755B00C3EC9AED9E5003755B018859899A
:100430005A8557558558567802A15DC3E89527F827
:10044000E99528F9307C02A141307B02A141307A44
:1004500002A13A207502815EE9FDE8FC817DE9C3D5
:1004600013F9E813F8307902A13AE9C313F9E81354
:0D047000F8307802A13AE9C313FDE813FC4F
:10047D00206126C3EC941CED940240028194ED7032
:10048D0018C3EC94C850120529C3E529940A5002EB
:10049D00A175755C00D270A175E5296002152978EA
:1004AD0088E6F97400207F087896B90302789EE6F5
:1004BD0024FAFEE43400FFC3EC9EFCED9FFD920890
:1004CD00B90310A2085007207609D27681E0307664
:1004DD0002C276A2085016B9030DECF42401FCED0E
:1004ED00F43400FD0204FA78007900A141B9031536
:1004FD00EC33FCED33FDC3EC940AFCED9400FD50A0
:10050D00047C007D00C3EC94FFED9400400678FF61
:10051D007900A141EC8572F0A4C5F0A2F733F8790A
:10052D0000400302055D78FF790002055DE9C31304
:10053D00F9E813F8307C0EE9600278FFC3E8133850
:10054D00F8E43400F9C3E894FFE99400400278FF21
:10055D00885CD270206102A175741FF4552F4BF584
:10056D002FC274EB7002D274752A18307403752A79
:10057D000A306102A18920740353DAFE20740375D9
:10058D002B06D0F0D0E0D0D0C2D3D2AD43E610329E
:10059D0079010205BB79030205BB790A0205BB7916
:1005AD001E0205BB79640205BB79C80205BB78172D
:1005BD00E4D5E0FDD8FAD9F6227A147B780205E26B
:1005CD007A107B8C0205E27A0D7BB40205E27A0B80
:1005DD007BC80205E27902B27DE4C294D5E0FDC28A
:1005ED0091D5E0FDD291D5E0FDD294D5E0FDC2923A
:1005FD00E573D5E0FDD2927496D5E0FDD9D9EAF830
:10060D00D5E0FDD8FBDBCEC29422C37C007D007506
:10061D00F00005F0EA33FAEB33FB50F6EB13FBEA8F
:10062D0013FAC3E9FFE8FEE89AF8E99BF95004EFE5
:10063D00F9EEF8B3EC33FCED33FDD5F0DFEDF9EC6D
:10064D00F822E889F08A20D2D4F8A9F07B0030F79F
:10065D000B7BFFF42401F8E9F43400F9E88520F070
:10066D00A4ADF0F8E98520F0A4AFF0FEED2EF974FD
:10067D00003FFA7C04C3EA13FAE913F9E813F8DC36
:10068D00F48BF030F70AE8F42401F8E9F43400F9BA
:10069D00E889F0C2D4F8A9F0227882B604030207E3
:1006AD0001C3E55C940140030206CB852224E4F5E9
:1006BD0042F543F544F545F546C26D0207017882D2
:1006CD00E6FCD26DE522F523783879C7AA3DAB3E1D
:1006DD00C3EB13FBEA13FAEC146013C3EB13FBEA41
:1006ED0013FAEC14146007C3EB13FBEA13FAD117DA
:1006FD008842894322C3E5429523F8E5439400F9E6
:10070D00500CC3E89480E994FF4016020732C3E809
:10071D00947FE994005003020732787F7900020735
:10072D0032788079FF8847894822E5472544F8E5E6
:10073D00483545F9854820E4300701F43546FA304F
:10074D00E709C3EA94F04015020770C3EA940F500D
:10075D000302077078FF79FF7A0F0207707800792E
:10076D00007AF0C3E5249561500AC37401952450B5
:10077D000B02078EE54820E70E02078EE54830E7AD
:10078D0006884489458A462278A4E6FAC3E54733AC
:10079D00F8E54833F9D14FE930E70BC3E89480E928
:1007AD0094FF4013E1C8C3E8947FE994005002E13F
:1007BD00C8787F7900E1C8788079FFE820E715C314
:1007CD00E52398F84009C3E8940140030207EF7848
:1007DD00010207EFE8F424012523F840030207EF97
:1007ED0078FF88492278A5E6FAA845A946D14FE9B0
:1007FD0030E70CC3E89401E994FF4016020823C3C7
:10080D00E894FFE99400500302082378FF79000271
:10081D000823780179FFE920E715C3E54998F840E9
:10082D0009C3E89401400302084A780102084AE826
:10083D00F424012549F8400302084A78FF88242250
:10084D0078FFC26420693D206A12D264C3E53E94EC
:10085D000A4009C3E52594405002C26479A1E760BE
:0E086D0023E53E601F74FF853EF0848538F061
:10087B00306A0375F005A4F8C5F0600278FFC3E891
:10088B0095645002A864886322C3E53D9440E53E1D
:10089B009401E56350031401A5046002F563220281
:1008AB0008AD2275E890227883E6FFE5E820ECF7A7
:1008BB00A8BDA9BE0570C3E57094084052757000C1
:1008CB00E9FA79A0E76044EA7007E571601B02085A
:1008DB00E8C3E895716010E5715006600C140208CE
:1008EB00F40460F90208F4E571F571C39458401BE8
:1008FB007561C0C394044013756180C39404400BAD
:10090B00756140C39404400375610075BB0322E518
:10091B00612410500274FFF5617982B70402214102
:10092B00C3A861E524985002A824C3E8956340024C
:10093B00A86388258826E570B4070375BB1022745D
:10094B003279A687F0A4C5F0A2F733F8C3E8956116
:10095B004002A8618822882488258826886422750D
:10096B003D00753EF02275C820A8CCA9CD75C824D2
:10097B00AA39AB3A8839893AC3E89AF8E99BF93036
:10098B006702417830692FAC3BAD3C8A3B8B3CC353
:10099B00EB9DFBC3E99BF53FA839A93AC3E89CF84B
:1009AB00E99DF9C3E53E13FBE53D13FAE82AF53D56
:1009BB00E93BF53E410BAA3DAB3EAC3DAD3E7E0463
:1009CB007F02C3EB940440021E1FC3EB940840024A
:1009DB001E1FC3ED13FDEC13FCDEF7C3EA9CFAEB11
:1009EB009DFBEF6009C3E913F9E813F8DFF7EA2879
:1009FB00FAEB39FB8A3D8B3E50067BFF8B3D8B3EE2
:100A0B00C3EB94025002D2673069047F03413678FE
:100A1B0092E6FFC3E536948240110FC3E53694A0EE
:100A2B0040010FC3EF940640027F057E0430720134
:100A3B000EC3E53E940350010EC3E53E94025002F3
:100A4B000E0EE53EC4540FF9E53EC454F0F8E53DF7
:100A5B00C4540F28F8C3E89EFAE99400FB4009C37D
:100A6B00EA9402EB940050047A02E4FB22AA3DAB19
:100A7B003EEBC4FEEAC4540F4EFCC3EA9CFAEB9463
:100A8B0000FBC3E813C313F8EA28FAEB3400FB8A24
:100A9B003D8B3EC3EB94024002C267780430720177
:100AAB0008E82403F8EBC4FE7B00EAC4540F4EFAAB
:100ABB00C3EA98FA4005C3940250027A027892E690
:100ACB00FF2230600241CD854F53855054D2604395
:100ADB00E68022C3E49AF8E49BF93067026166E88A
:100AEB00FAE9FBD3E913FDE813FC884F8950C3EFF8
:100AFB0094036037EF20E00DE82CF8E93DF9ECFAB0
:100B0B00EDFB020B23E828F8E939F9C3E82402F8D6
:100B1B00E93400F97AFE7BFFC3EF9403400D8A5151
:100B2B008B52884B894C8C4D8D4E22885189528A21
:100B3B004B8B4C8C4D8D4E306920C3E53394034069
:100B4B0019E53FA2E713F8E552F4240138400B20D6
:100B5B00E7087551FFF42401F55222E8FAD3E813A4
:100B6B00FC884FC3EF9403601FEF20E007E82CF8DD
:100B7B00ECFA6186E8282402F87AFEC3EF9403406E
:100B8B00078A51884B8C4D2288518A4B8C4D22E51C
:100B9B0068C3335002646BF56830600261A4D260A5
:100BAB0043E680E52D54066022A83DA93EC3E91318
:100BBB00F9E813F853E67F759100C3E498F594E4D4
:100BCB0099F595759104D26043E68022D265754103
:100BDB0000752000306B03752040020BF6D2657553
:100BEB004100752040306B03752000D2AF78012097
:100BFB006722E52D54066002C265C3E53E940540AD
:100C0B001378029405400878039405400278063067
:100C1B006902780A206009E5416005D2AFD26C22E7
:100C2B00D2AF0000C2AF206726E53EC3FB940F4056
:100C3B00027B0FEB240530730123306A02742820EA
:100C4B00620123F93069027982E58BC39940C505AE
:100C5B0041E59BF45440B5200281AC30691408C3C4
:0E0C6B00E8940A400261F6C3E5339406500295
:100C790061F6811F20650261F6C26553E67F7591B1
:100C8900003067107594007595FE759104D2604324
:100C9900E68061F6AE3DAF3EC3E49EF594E49FF570
:100CA900958193C3E5339402500261F63065026180
:100CB900F6D80281C0811FC26C22E52D5406600856
:100CC900206A020533020CE1306C0D206B0A2065A5
:100CD90007158115810215CF2253E67F759100858D
:100CE9005194855295759104854B53854C54D26026
:100CF90043E680D2AF22780030640530650278017E
:100D0900E53675F007A4F9E5F028F5F0E9A2F01346
:100D1900A2F113A2F213F536C3947850037536780D
:100D2900C3E53695374008D266D292D291D2903037
:100D39006002A138854D53854E54D26043E6802226
:100D4900D2A0207D11C2AF754002C294D293D2AF16
:100D5900759F10020F24C2AF754002C294D295D27A
:100D6900AF759F10020F24C2A0307243207D20C2AC
:100D7900AF75400390013A757B10D290C2953062ED
:100D890004C291A190D294D2AF759F20020F24C2C0
:100D9900AF75400390013A757B10D292C2933062CD
:100DA90004C291A1B0D294D2AF759F00020F242042
:100DB9007D17C2AF754003900112D290306202C212
:100DC90091D2AF759F20020F24C2AF7540039001E5
:100DD90012D292306202C291D2AF759F00020F24E3
:100DE900D2A0207D11C2AF754004C293D295D2AF73
:100DF900759F00020F24C2AF754004C295D293D2E9
:100E0900AF759F20020F24C2A0307243207D20C2FB
:100E1900AF754005900126757B08D291C294306266
:100E290004C292C130D293D2AF759F10020F24C26F
:100E3900AF75400590014E757B20D291C294306206
:100E490004C290C150D295D2AF759F10020F2420D1
:100E59007D17C2AF754005900108D291306202C278
:100E690092D2AF759F10020F24C2AF754005900151
:100E79001CD2913062EBC290D2AF759F10020F2441
:100E8900D2A0207D11C2AF754006C295D294D2AFCF
:100E9900759F20020F24C2AF754006C293D294D227
:100EA900AF759F00020F24C2A0307242207D20C27C
:100EB900AF75400190014E757B20D292C29330628A
:100EC90004C290C1D0D295D2AF759F00020F24C23F
:100ED900AF754001900126757B08D290C2953062AA
:100EE90004C292C1F0D293D2AF759F20E124207D34
:100EF90016C2AF75400190011CD292306202C290B5
:100F0900D2AF759F00E124C2AF754001900108D2AC
:100F190090306202C292D2AF759F20C266229001C0
:100F290006757B00D292D291D290C293C294C29597
:100F3900C26222788076090876090876040876FF65
:100F49000876030876FF08760A087601087601080C
:100F59007601788C76010876FF0876FF0876FF0817
:100F690076FF0876FF0876030876FF0876FF08768D
:100F7900FF0876250876D008762808765008760482
:100F89000876FF08760208760008767A0876FF0860
:100F99007601087601087600087603227887E6FF4D
:100FA900C272BF0302D2727888E6C394036008C292
:100FB9007DE630E102D27DC27E7889E630E102D257
:100FC9007EC3EF94026008758E01D273020FDD753E
:100FD9008E00C273227880E6149000809378A4F67C
:100FE9007881E6149000809378A5F67886E61490C7
:100FF900008D9378A6F6789CE67537FF75380CB4A2
:1010090002067537A075380AB40306753782753834
:101019000578A3E61490009A93F566120F27222209
:101029007896E6FA7897E6FB7888E6B40305C3EB89
:10103900940EFB307F047A007BFFC3EB9AFCC394C8
:101049008250027C827572000572EC8572F0A4C32D
:10105900E5F0947D40F222D27F11291205AC7A0085
:0F1069007B007C101205A2E55C2AFA74003BFBA9
:10107800DCF37C04C3EB13FBEA13FADCF7FEC27F54
:10108800112922E5EF20E6037520000520903FFF97
:10109800E520146006901DFF14600093046003753A
:1010A800EF12C2D353D9BF7581C043FF8012059D8B
:1010B80075EF0243B203E5B3240420E70DF521E5FB
:1010C800E320E0068521B343E301120F277580FF73
:1010D80075A40075F1D475D4EF75908775A5407522
:1010E800F2FF75D5BF75A60175E24275DB4675EA54
:1010F80002120F3C12161778988673C2AF1205B603
:101108001205C61205AC1205CD1205AC1205D41293
:1011180005ACC2AFE4F8F6D8FD78FA79FA3084075E
:10112800D9FBD8F7021C00756801120F3C1216177C
:10113800120FA5120FDE1128112978988673120F45
:101148002775885075891275C82475910475D8401B
:1011580075A82275B80275E690759B80759D007517
:10116800D10E75BC5875BB0375BA1175E8801205A8
:101178009DD2AF1208AA43DA01C2D8C2711205B6CD
:10118800753001D2617B037A0CE55B70077A0CDB62
:101198000302111A1205AC20700302111AC270E57D
:1011A8005CC3940240E1E52F541F855E5DF55EB592
:1011B8005DD5DAD5C26153DACF207E0343DA203019
:1011C8007E0343DA10C2D8C27178A2E67008D274DE
:1011D800E52F54E0F52FC2757529001205B130745A
:1011E80009C3E529940A4002D2751205A278023093
:1011F80074027800C3E55C9840F0C2AF1205C612CD
:1012080005C61205C6D2AF1205B6754A007888E63B
:10121800B4030241F11205A2788CE6C3940150038D
:101228000212F1E530C3940150030212F120743523
:10123800C3E55C94FF50030212F1C2AF1205DBD282
:10124800AF1205B1C3E55C940150EFC2AF1205C6F9
:101258001205A71205C6D2AF1205B1C3E55C94FF0B
:1012680040E90217BF7F02D27F11291205B1C2AF30
:10127800C27F1129AE5CC3E55C947FD2AF40741283
:10128800059DC2AF1205DBD2AFDFDC1160C3EE945F
:10129800057897F61205B61216591217427F0AD228
:1012A8007F11291205B1C2AFC27F1129AE5CC3E517
:1012B8005C947FD2AF50E612059DC2AF1205C612EC
:1012C80005A71205C6D2AFDFD61160EE24057896C1
:1012D800F61205B61216591217711205B11129C363
:1012E800E55C94FF40F40217BFC3E55C954A4003F0
:1012F800855C4A1205B178017988E7B4030278055C
:10130800C3E55C9840024115C2AF1205DB1205DB4C
:101318001205DBD2AF1205B6753000E4F531F532AF
:101328000531E531F470390532789AE67819146098
:1013380012783214600D787D14600878FA1460030E
:10134800753200C3E53298401715327531B4789973
:101358008673C2AF1205DBD2AF789886731205B1D7
:101368001205A7E52A7005307402211A7801207445
:10137800027806C3E55C9840A77888E6C3940360C2
:10138800031205B1E52A700302111AC2AF120F2722
:10139800E4F522F523F524F525F526F567D2AF788F
:1013A80085E6C333F565E4F542F543F544F545F5BF
:1013B80046F570F52CF52DF53675700875BB1012CD
:1013C800059D1208AEE5E820ECFBA8BDA9BEE970B2
:1013D80001F888711208B275700875BB107887E635
:1013E800FE7602120FA57887EEF6C2AF7561FF127E
:1013F800094A852261852262852263D2AF7522015E
:10140800752401752501752601856069756A01785D
:1014180088E6B40307C27D307602D27DD268D269ED
:10142800753300120E89120EB01209711209711269
:10143800096A120971120ADE12096A120B9A021459
:1014480056C2AF120FA5D2AF75700075BB03120B51
:10145800E8120CE2120CC31206A6120CFF120D4978
:0F146800120971120ACD120ADE120B9A120BD75B
:10147700120CE2120CC3306D03120702206703122D
:10148700084D306703120894120CFF120D701209F1
:1014970071120ACD120ADE120B9A120BE8120CE235
:1014A700120CC3306D03120737120CFF120DE9122D
:1014B7000971120ACD120ADE120B9A120BD7120CFF
:1014C700E2120CC3306D03120795120CFF120E10B7
:1014D700120971120ACD120ADE120B9A120BE812C8
:1014E7000CE2120CC3306D031207F2120CFF120E3E
:1014F70089120971120ACD120ADE120B9A1208AE6E
:10150700120BD7120CE2120CC3120CFF120EB01200
:1015170008B2120971120ACD120ADE120B9A30694B
:1015270035206B32856461856462856069756A01FF
:1015370079187A0CC3E53399400FC269D26A8A34A5
:1015470085646185646302155DC3E55C94014003AE
:101557000214560215D7306A1B206B18E534147035
:1015670004C26A8149F534C3E55C9401400302145F
:10157700560215D7C3E55F78FA985054307404E5DE
:101587002A604D7888E6B40317207D05207607A1E9
:10159700A7307602A1A7206B07D26B85646181C251
:1015A70078F0306B058564617820C3E53E9850027A
:1015B7008156306B1BC26BC27D307602D27DD26AF8
:1015C70075341285646181560535E55C6002A1DAE0
:1015D700753500C2AF120F277887E6FE7602120F25
:1015E700A57887EEF6E4F522F523F524F525F5260B
:1015F700F565C268D2AF12059D120F2730740FC36D
:10160700E535940A4008211AE52A7002211A612358
:10161700901A0D782012169BE520B4550CA31216CC
:101627009BE520B4AA03021639120F3C1216590281
:101637001658901A0378807B0A12169BA308DBF9C9
:10164700901A0F788C7B1812169BA308DBF9901A57
:101657002722C2AF1216DA1216B4901A00740E12AD
:1016670016A0A374021216A0A374141216A0901A3F
:101677000378807B0A12169FA308DBF9901A0F786C
:101687008C7B1812169FA308DBF91216ED1216CBE6
:10169700901A2722E493F622E6438F01538FFD75B4
:1016A700EF0275B7A575B7F1F0538FFE22438F028E
:1016B700438F0175EF0275B7A575B7F1901A0DF055
:1016C700538FFC22901A0D7455D1A0901A0E74AA4C
:1016D700D1A0227A3079D07820901A40D19BE5208A
:1016E700F709A3DAF7227A3079D0901A40E7D1A028
:1016F70009A3DAF922AB74A875BB01027980BB0292
:10170700027981BB03027982BB04027984BB05029B
:101717007986BB06027992BB07027987BB080279F3
:10172700A3BB0902799CBB0A027988BB0B027989A2
:10173700E8F7227C051205B6DCFB22C2AF1205C60C
:101747001205CD1205D41205DB1205A71205C61224
:1017570005CD1205D41205DB1205A71205C6120521
:10176700CD1205D41205DBD2AF22C2AF1205DB12B0
:1017770005D41205CD1205C61205A71205DB120501
:10178700D41205CD1205C61205A71205DB1205D422
:101797001205CD1205C6D2AF22AE74AF75C2AF1215
:1017A70005C61205C61205C61205A7DEF21205DB2D
:1017B7001205A7DFF8D2AF22F142F13AF13A757478
:1017C70001757501757600F1A07C05AD5C1205B653
:1017D700C3ED955C70F5C3E55C9401400AC3E55C15
:1017E70094FF40330217FBD1FCD159F142C2AF75C8
:1017F700EF12F13ADCD50576C3E576940350028003
:10180700C612173A0575E5741490009F93F808C33C
:10181700E57598500280AD12173A12173A0574C34E
:10182700E574940C50028099120F3C121659C2AFFE
:0618370075EF1212173AD2
:101A00000E0214090904FF03FF0A01010155AA018E
:101A1000FFFFFFFFFF03FFFFFF25D0285004FF0259
:081A2000007AFF01010003FF41
:101A400023484B696E67323041232020202020201C
:101A500023424C48454C4923463333302320202031
:101A60002020202020202020202020202020202076
:101C0000C2AFC2D353D9BF7581C043B20343FF8073
:101C1000752438752503B1C975EF0275E24043F1AB
:101C20001053A4EF75D400D2847DFA780379E67C52
:101C300010752200752300901DD67B0675249875BB
:101C400025013084028142208408D8FBD9F9DCF7D1
:101C500081B4308408D8FBD9F9DCF781B4B189E4C8
:101C600093A3C39A6004DDC381B4DBDBB17B600264
:101C7000812B7B08E493FAA3B15CDBF87A30B15C8A
:101C8000752200752300B17BEAFCEBFDC3ED94FEE9
:101C9000400EB17B8A278B28ED30E0048A828B834B
:101CA000B17B7AC270D8C3ED94FE601350CEBD00F4
:101CB00025EC60097520007521FF0200008100A855
:101CC00027A9280809D804D90281D3B17FEA89AAB3
:101CD000F281C50D81A0C3ED94035049EDA2E092BD
:101CE000007AC5C3E5829400E583941C50902000DF
:101CF00010438F02438F0175B7A575B7F1F030001F
:101D00001FA827A9280809438F01538FFDD804D99C
:101D100002A12089AAE275B7A575B7F1F0A3A10DBC
:101D2000538FFC817C7AC1BD030CE493A3FAB140CC
:101D3000DCF8B138817C817EAA22AB23B15CEBFA5E
:101D4000EA6222752608C3E52313F523E52213F57D
:101D50002250066323A0632201D526EAB1C9B1C986
:101D600075260AEAF4200102D284300102C284B14D
:101D7000C9C3134002C201D526EB22B17FEAFB2082
:101D80008402A17F308402A184752608AE24AF2589
:101D9000C3EF13FFEE13FEB1CDB1C9C3EA13308414
:101DA000024480FA30E703632201C3E52313F523DD
:101DB000E52213F52250066323A0632201D526D91C
:101DC000E52265236523F52222AE24AF250E0FDE22
:101DD000FEDFFCD20122424C48656C693437316326
:041DE000F3300601D5
:00000001FF
