:030000000219FDE5
:03000B000200AA46
:03002B0002018748
:03005B000203336A
:0300730002032065
:1000800002030406080C10182030406080040608A3
:100090000C10182030406080A0C00003070F1F0D17
:1000A0000D0403060D0503030202C2AF306308C24C
:1000B0006385798AD2AF32C0D0C0E0206221E525C5
:1000C0006016E473E525F4C3334009758A00D263F2
:1000D000F57901D6F58AD262D0E0D0D0D2AF32C362
:1000E000E526334009758A00D263F57901F0F58A77
:1000F000C262E526F4602F30682520720DD0E0D072
:10010000D0C292C294C296D2AF32C292C294C29668
:10011000206F0C206509740AD5E0FDE57B4290D084
:10012000E0D0D0D2AF32758A00D263757900C28D2B
:10013000D262211F01C4306805206502D29201C439
:10014000306805206502D29401C43068052065023C
:10015000D29601C4C29330680A2065077408D5E0BE
:10016000FDD29201C4C29530680A2065077408D593
:10017000E0FDD29401C4C29730680A206507740874
:10018000D5E0FDD29601C4C2AFC2AD53E6EFC0D0F8
:10019000C0E0D2D3D2AFE57A6009E5776005757724
:1001A000004123757701C2CEE52A60072074491506
:1001B0002A21F87800790020742EE580307E01F441
:1001C00030E60278FF53DACF207E0343DA20307E18
:1001D0000343DA10C2D8C271E580307E01F430E604
:1001E0000279FFC3E89970CB306103752A4020740F
:1001F00003752A40885CD27020740DE52B600415CD
:100200002B410843DA01C2D8207002411BA85C20B0
:100210006102C270207402411988227882B60403F8
:1002200085222420CF0AD0E0D0D043E610D2AD32D0
:10023000C2CF053AE57A6009E57860057578006116
:10024000167578017802E52A6005307402152AC314
:10025000E55C94014005755F00416C75600075694F
:1002600000E55F2401F55F5003755FFF7982B702F7
:100270000D306E1DC3E52294324016854C227982E2
:10028000B7030E306E0BC3E52294324004798E879B
:1002900022C3E523952260084004152341A00523CD
:1002A000D8CA0569E56970021569D56A69756A0178
:1002B0007808E56B60497805C3E569956B4057C3DD
:1002C000E569956C50087801756A030202DAC3E5A6
:1002D00069956D50057801756A01C3E56295244002
:1002E0001E7982B70402610B206E14852462E569D1
:1002F000046003856B69756A0175233C020316E58A
:10030000622850057562FF610BF562E562047006B4
:100310007560FF7569FFD0E0D0D043E610D2AD32F2
:10032000C2AF53E67F7592FA7593FFC26075910470
:10033000D2AF32C2AF53E6EFC2ADC0D0C0E0C0F022
:10034000D2D3D2AFA8FBA9FCE57A6007C3E913F9C1
:10035000E813F8C2D830710261A553DACF207E03CA
:1003600043DA10307E0343DA20D271E580307E011B
:10037000F420E602617C88278928A18A53DACF20FD
:100380007E0343DA20307E0343DA10C2D8C27130D4
:100390007402A1767800E580307E01F430E602A197
:1003A00076885CA15E53DACF207E0343DA20307E6C
:1003B0000343DA10C271206102817E53DACF207EBE
:1003C0000343DA10307E0343DA20C2D8D271885753
:1003D0008958C3E89555F8E99556F97B007E087A67
:1003E00000C3E8948CE994005005755B0081708827
:1003F0002178A2E6A8216055C3E894C8E99400508A
:1004000008E4D2E4FB7A0A814BC3E89468E99401DA
:100410005008E4D2E3FB7A0F814BC3E894D0E9940F
:10042000025008E4D2E2FB7A1E814BC3E894A0E9B3
:1004300094055008E4D2E1FB7A3C814BC3E89498E0
:10044000E994085008E4D2E0FB7A787E00C3E8958E
:1004500059FCE9955AFD30E70AECF42401FCEDF46F
:100460003400FD755B00C3EC9AED9E5003755B0193
:0F0470008859895A8557558558567802A15EC319
:10047F00E89527F8E99528F9307C02A142307B02F4
:10048F00A142307A02A13B20750281A1E9FDE8FC6F
:10049F0081C0E9C313F9E813F8307902A13BE9C32E
:1004AF0013F9E813F8307802A13BE9C313FDE81301
:1004BF00FC20612CC3EC941CED9402400281D7ED1B
:1004CF00701EC3EC94C850180529E5297002152930
:1004DF00C3E529940A5002A176755C00D270A1760B
:1004EF00E529600215297400207F037896E624FA27
:1004FF00FEE43400FFC3EC9EFCED9FFD5006780038
:10050F007900A142C3EC94FFED9400400678FF7987
:10051F0000A142EC8572F0A4C5F0A2F733F8790080
:10052F00400302055E78FF790002055EE9C313F907
:10053F00E813F8307C0EE9600278FFC3E81338F84F
:10054F00E43400F9C3E894FFE99400400278FF888F
:10055F005CD270206102A176741FF4552F4BF52FDA
:10056F00C274EB7002D274752A40307403752A0A74
:10057F00306102A18A20740353DAFE207403752BB5
:10058F0020D0F0D0E0D0D0D2AD43E61032790102C6
:10059F0005BA79030205BA790A0205BA791E02056E
:1005AF00BA79640205BA79C80205BA7817E4D5E0BA
:1005BF00FDD8FAD9F6227A147B780205E17A107BFE
:1005CF008C0205E17A0D7BB40205E17A0B7BC80240
:1005DF0005E1E573D5E001227902E4C295D5E0FD8E
:1005EF00D294D5E0FDC294D5E0FDD295D5E0FDE9DA
:1005FF0020E002D29230E002D296E573D5E0FDE919
:10060F0020E002C29230E002C2967496D5E0FDD986
:10061F00C9EAF8D5E0FDD8FBDBB8C29522C37C0050
:10062F007D0075F00005F0EA33FAEB33FB50F6EB83
:10063F0013FBEA13FAC3E9FFE8FEE89AF8E99BF91E
:10064F005004EFF9EEF8B3EC33FCED33FDD5F0DFEA
:10065F00EDF9ECF822E889F08A20D2D4F8A9F07BE2
:10066F000030F70B7BFFF42401F8E9F43400F9E8CC
:10067F008520F0A4ADF0F8E98520F0A4AFF0FEEDF1
:10068F002EF974003FFA7C04C3EA13FAE913F9E870
:10069F0013F8DCF48BF030F70AE8F42401F8E9F4EE
:1006AF003400F9E889F0C2D4F8A9F0227882B604B0
:1006BF000302075AC3E55C9419401EE52D540670DA
:1006CF0018206E3678057994E7146007780A14605D
:1006DF00027812C3E54198401F306E098564627538
:1006EF0069FF756A01852224E4F544F545F546F561
:1006FF0047F548C26E02075AD26E7994E714701309
:10070F00E523F43333F913F8E9540104F9E854FEFF
:10071F0002074EE714147014E523F4333333F9133F
:10072F00F8E9540304F9E854FC020756E523F433BF
:10073F00333333F913F8E954070404F9E854F8C3D1
:10074F009440F8E99400F98844894522C3E54113A0
:10075F00F9E54013F8C3E54498F8E54599F9500CCD
:10076F00C3E89480E994FF4016020792C3E8947F90
:10077F00E994005003020792787F7900020792787C
:10078F008079FF8849894A22E5492546F8E54A35A7
:10079F0047F9854A20E4300701F43548FA30E70974
:1007AF00C3EA94F040150207D0C3EA940F50030236
:1007BF0007D078FF79FF7A0F0207D0780079007A97
:1007CF00F0C3E5249561500AC374019524500B02C0
:1007DF0007EEE54A20E70E0207EEE54A30E7068806
:1007EF004689478A482278A5E6FAC3E54933F8E5F2
:1007FF004A33F9120664E930E70BC3E89480E994B1
:10080F00FF40130129C3E8947FE9940050020129A6
:10081F00787F79000129788079FFE820E715C3E513
:10082F002398F84009C3E894014003020850780167
:10083F00020850E8F424012523F8400302085078F9
:10084F00FF884B2278A6E6FAA847A948120664E962
:10085F0030E70CC3E89401E994FF4016020885C302
:0F086F00E894FFE99400500302088578FF7900B0
:10087E00020885780179FFE920E715C3E54B98F862
:10088E004009C3E8940140030208AC78010208ACA9
:10089E00E8F42401254BF840030208AC78FF8824C5
:1008AE002278FF20692879A1E76023E541601F7453
:1008BE00FF8541F0848539F0306A0375F005A4F8A0
:1008CE00C5F0600278FFC3E895645002A86488639F
:1008DE0022C3E54094C8E5419400E563500314013A
:1008EE00F0046002F563227883E6F520120F92750C
:1008FE00E89012059C75E89030EDFDA8BDA9BE12DA
:10090E00103C756E55756F00C3740013FD74556001
:10091E006613FC74552CFC74003DFDECFAEDFBC324
:10092E00E89AE99B4014E56E2455F56EE56F3400A8
:10093E00F56FEA2CFAEB3DFB80E5AE6EAF6FC3E5CB
:10094E006F13F9E56E13F8C3E913F9E813F87A0398
:10095E00C3E913F9E813F8DAF7AA201A7009756ECD
:10096E0000756F000209851AEA6008EE28FEEF395D
:10097E00FFDAF88E6E8F6F2275E890227883E6FF8D
:10098E0030EDF9A8BDA9BE0570C3E57094084052BC
:10099E00757000E9FA79A0E76044EA7007E57160C6
:1009AE001B0209BEC3E895716010E5715006600C1C
:1009BE00140209CA0460F90209CAE571F571C394FB
:1009CE0072401B7561C0C394044013756180C3945B
:1009DE0004400B756140C39404400375610075BB00
:1009EE000922EFC39401601F7455601BC3E894FF86
:1009FE00E994035012C3E8956EE9956F5009E561CD
:100A0E00600C1561020A1CE561F460020561A861C3
:100A1E00C3E524985002A824C3E89562400AA86250
:100A2E00E562F4600385626188258826E570B40767
:100A3E000375BB1022743279A787F0A4C5F0A2F714
:100A4E0033F8C3E895614002A8618822882488257E
:100A5E0088268864227540007541F022C2AF75C8A1
:100A6E0020A8CCA9CDAA3A30CF010A75C824D2AF9E
:100A7E00C3EA13FAE913F9E813F8AB3BAC3C883B35
:100A8E00893CC3E89BF8E99C20690A547FF93066DB
:100A9E0002618741E1AD3D8A3DF9EA9D547FFA60DE
:100AAE000478FF79FFAE3EAF3F8B3E8C3FA83BA94B
:100ABE003CC3E89EF8E99FF9C3E54113FBE54013FB
:100ACE00FAE82AF540E93BF54150067540FF7541BD
:100ADE00FF612EAA40AB41AC40AD417E047F02C304
:100AEE00EB9404400D1E1FC3EB94084005206A02D0
:100AFE001E1FC3ED13FDEC13FCDEF7C3EA9CFAEBED
:100B0E009DFBEF6009C3E913F9E813F8DFF7EA2854
:100B1E00FAEB39FB8A408B4150067BFF8B408B41B1
:100B2E00C3EB94025002D2663069047F0361597898
:100B3E0092E6FFC3E537948240110FC3E53794A0C8
:100B4E0040010FC3EF940640027F057E02E541C4CB
:100B5E00540FF9E541C454F0F8E540C4540F28F899
:100B6E00C3E89EFAE99400FB4009C3EA9402EB94B1
:100B7E000050047A02E4FB61D3AA40AB41EBC4FE01
:100B8E00EAC4540F4EFCC3EA9CFAEB9400FBC3E894
:100B9E0013C313F8EA28FAEB3400FB8A408B41C3E7
:100BAE00EB94024002C2667802EBC4FE7B00EAC4FC
:100BBE00540F4EFAC3EA98FA4005C3940250027AD3
:100BCE00027892E6FF30600261D38551928552938E
:100BDE00D26043E680C3E49AF8E49BF9C3E833F8A5
:100BEE00E933F93066028166E8FAE9FBD3E913FDD1
:100BFE00E813FC88518952C3EF94036038EF20E06C
:100C0E000DE82CF8E93DF9ECFAEDFB020C2FE82883
:100C1E00F8E939F9C3E82402F8E93400F97AFE7BE1
:100C2E00FFC3EF9403400E8A538B54884D894E8C2C
:100C3E004F8D50819A885389548A4D8B4E8C4F8D8F
:100C4E00503069127553F07554FF754FF07550FFA3
:100C5E007551F07552FF819AE8FAD3E813FC88516A
:0F0C6E00C3EF94036020EF20E007E82CF8ECFAC6
:100C7D008186E8282402F87AFEC3EF940340088A9F
:100C8D0053884D8C4F819A88538A4D8C4FE568C39C
:100C9D00335002646BF56830600281A4753402D262
:100CAD006043E680E52D5406602DA840A941C3E9B7
:100CBD0013F9E813F8306904E92440F9C2AF53E69B
:100CCD007F759100C3E498F594E499F595759104B9
:100CDD00D26043E680D2AF22D26475430075200006
:100CED00306C03752040020D04D2647543007520ED
:100CFD0040306C0375200078017901206620E52DC8
:100D0D0054066002C2647914E541C313700104F8FE
:100D1D00C3941440027814306904781B791BC3E81E
:100D2D0033F8C3E933F9206010E543600C306903F3
:100D3D00D53404D26DA1BA91AC0543E59B5440B5B1
:100D4D002002A1A430690908C3E899400118A13314
:100D5D0020640A08C3E8994002A104A133C264C209
:100D6D00AF53E67F7591003066127594007595F05E
:100D7D00759104D26043E680D2AFA104E5417EFFB8
:100D8D00C3334009C3334005C3334001FEC3E49E62
:100D9D00759400F595A17DC3E53394015002A1042E
:100DAD00306402A104D802A1B8A133C26DC2AF5301
:100DBD00E67F759100855394855495759104854D05
:100DCD0092854E93D26043E680D2AFE52D540660F6
:100DDD0008206A020533020DF6306D0D206C0A20D5
:100DED006407158115810216C822780030640278D7
:100DFD0001E53775F007A4F9E5F028F5F0E9A2F063
:100E0D0013A2F113A2F213F537C39478500375377B
:100E1D0078C3E53795384008D265C292C294C29620
:100E2D00306002C12D854F92855093D26043E6808C
:100E3D0022D287207D16C2AF754202C295D2933061
:100E4D006202D296D2AF759F80021039C2AF754241
:100E5D0002C295D297306202D292D2AF759F8002B4
:100E6D001039C287307243207D20C2AF7542039086
:100E7D000165757B20C296C297306204D294C18FF2
:100E8D00D295D2AF759F89021039C2AF75420390CA
:100E9D000165757B20C292C293306204D294C1AFBA
:100EAD00D295D2AF759F81021039207D17C2AF75D3
:100EBD004203900140C296306202D294D2AF759F28
:100ECD0089021039C2AF754203900140C29230625F
:100EDD0002D294D2AF759F81021039D287207D1630
:100EED00C2AF754204C293D297306202D294D2AF90
:100EFD00759F81021039C2AF754204C297D29330EB
:100F0D006202D294D2AF759F89021039C2873072B6
:100F1D0043207D20C2AF754205900154757B08C2F8
:100F2D0094C295306204D292E139D293D2AF759FBB
:100F3D0080021039C2AF754205900176757B80C273
:100F4D0094C295306204D296E159D297D2AF759F73
:100F5D0080021039207D17C2AF754205900136C24F
:100F6D0094306202D292D2AF759F80021039C2AF17
:100F7D0075420590014AC2943062EBD296D2AF759C
:100F8D009F80021039D287207D16C2AF754206C2EE
:100F9D0097D295306202D292D2AF759F89021039E5
:100FAD00C2AF754206C293D295306202D296D2AFCD
:100FBD00759F81021039C287307243207D20C2AFE8
:100FCD00754201900176757B80C292C293306204A6
:100FDD00D296E1E3D297D2AF759F81021039C2AF9D
:100FED00754201900154757B08C296C29730620418
:100FFD00D2920103D293D2AF759F89021039207D11
:10100D0017C2AF75420190014AC292306202D29668
:10101D00D2AF759F81021039C2AF75420190013672
:10102D00C296306202D292D2AF759F89C26522906C
:10103D000134757B00C292C294C296C293C295C20E
:10104D0097C26222788076070876070876010876BF
:10105D00040876FF0876FF087609087602087601FF
:0E106D00087601788C76010876000876B408C3
:10107B0076FF0876FF0876FF0876030876FF08767A
:10108B00010876FF0876250876D00876780876C8AA
:10109B000876040876FF08760108760008767A0849
:1010AB00760A0876010876010876000876FF08763E
:1010BB0000227887E6FFC272BF0302D2727888C221
:1010CB007DE630E102D27DC27E7889E630E102D244
:1010DB007EC3EF94026008758E01D2730210EF7518
:1010EB008E00C273227880E6149000809378A5F668
:1010FB007881E6149000809378A6F67886E61490B3
:10110B00008D9378A7F6789FE6F87005756B002134
:10111B0036C3E8941140027811E82828F56B256B4B
:10112B00256B28F56C256B2828F56D7886E6F53947
:10113B00C394025003753902789CE67538FFB402EC
:10114B00037538A0B4030375388278A3E6149000B6
:10115B009A93F566113C22C2A4C2A0789DE6B40115
:10116B0004D2A4C2A0B40204C2A4D2A0227896E6F0
:10117B00FA7897E6FB7888E6B40305C3EB940EFB8D
:10118B00307F047A007BFFC3EB9AFCC3948250023E
:10119B007C827572000572EC8572F0A4C3E5F09445
:1011AB007D40F222D27F31781205AB1205AB7A006B
:1011BB007B007C101205A1E55C2AFA74003BFBDC7A
:1011CB00F37C04C3EB13FBEA13FADCF7FEC27F31AB
:1011DB007822757C00757D00E5EF20E60375200015
:1011EB000520903FFFE520146006901FFF14600060
:1011FB009304600375EF1653D9BF7581C043FF800D
:10120B0012059C75EF0643B203E5B3240220E70DEC
:10121B00F521E5E320E0068521B343E301113C759D
:10122B0080FF75A48075F1F075D4BF75900275A51C
:10123B00FC75F2FD75D50275A61175A0EE75F3F16F
:10124B0075E241113CE4F8F6D8FD756801115112B5
:10125B00172678988673753001C2AF1205B5120543
:10126B00C51205AB1205CC1205AB1205D31205AB9B
:10127B0012184D1205B51205B51205B0C2AF757C2B
:10128B0000757D0078FA79FA308607D9FBD8F7021A
:10129B001C0011BD11F03162317878988673113CC6
:1012AB0075A90075B680757A0075881075890275F9
:1012BB00C82475910475D84075A82275B80275E6D7
:1012CB0090759B80759D0075D10E75BCC075BB0963
:1012DB0075BA1175E88012059CD2AF1208F57536F8
:1012EB000053DACF207E0343DA20307E0343DA103B
:1012FB0043DA01C2D8C2711205B5D2617B037A0CF5
:10130B00E55B70077A0CDB030212871205AB2070CA
:10131B0003021287C270E55CC3940240E1E52F54CF
:10132B001F855E5DF55EB55DD5DAD5C26153DACF4B
:10133B00207E0343DA20307E0343DA10C2D8C27119
:10134B0078A2E67008D274E52F54E0F52FC27575BC
:10135B0029001205B0307409C3E529940A4002D262
:10136B00751205A178023074027800C3E55C9840D1
:10137B00F0C2AF1205C51205C51205C5D2AF1205D5
:10138B00B5754C001205A1788CE6C394015003028D
:10139B00147CE530C39401500302147C757CA57555
:1013AB007DF1207435C3E55C94FF500302147CC2BD
:1013BB00AF1205DAD2AF1205B0C3E55C940150EF62
:1013CB00C2AF1205C51205A61205C5D2AF1205B0E4
:1013DB00C3E55C94FF40E90218D27F05D27F3178D8
:1013EB001205B0C2AFC27F3178AE5CC3E55C947FAF
:1013FB00D2AF5002818C12059CC2AF1205DAD2AF6C
:10140B00DFDA31AFC3EE94057897F61205B51218F3
:10141B00557F0AD27F31781205B0C2AFC27F3178C7
:10142B00AE5CC3E55C947FD2AF50E612059CC2AFB5
:10143B001205C51205A61205C5D2AFDFD631AFEE28
:10144B0024037896F6F87997E7C394824003985073
:10145B0006E824827897F61205B5121767121884DE
:0E146B001205B03178C3E55C94FF500261A712
:101479000218D2757C00757D00C3E55C954C40036C
:10148900855C4C1205B078017988E7B403027805C8
:10149900C3E55C984002618FC2AF1205DA1205DA22
:1014A9001205DAD2AF1205B5753000E4F531F5321F
:1014B9000531E531F4703E0532789AE67819146001
:1014C90012783214600D787D14600878FA1460037C
:1014D900753200C3E53298401C113C12059C153247
:1014E90075310078998673C2AF1205DAD2AF789850
:1014F90086731205B01205A6E52A700530740241FB
:101509008778012074027806C3E55C9840A2120529
:10151900B0E52A7003021287C2AF113CE4F522F547
:1015290023F524F525F526F567D2AF7885E6C3338B
:10153900F565E4F544F545F546F547F548F570F5E3
:101549002CF52DF53775700875BB1012059C12091D
:101559008630EDFDA8BDA9BEE97001F888711209B0
:101569008A75700875BB1011BDC2AF7561FF120A8B
:1015790043852261852262852263D2AF7522017576
:101589002401752501752601856069756A0175B69D
:101599009075A903757A017888E6B40307C27D308E
:1015A9007602D27DD268D269753300120F92120F7A
:1015B900C3120A63120A6A120A63120A6A120A63D6
:1015C900120CF61206BB120DF7120E3E120A6A121F
:1015D9000CE5306E0312075B2066031208AF306614
:1015E900031208DF120DF7120E6F120A6A120CF6B7
:1015F900306E03120797120DF7120EE8120A6A12DB
:101609000CE5306E031207F5120DF7120F19120AC5
:101619006A120CF6306E03120853120DF7120F926C
:10162900120A6A120986120CE5120DF7120FC3127B
:10163900098A120A6A30692C856461856462856049
:1016490069756A0179187A0CC3E533994009C26949
:10165900D26A8A3502166DC3E55C9401400302150E
:10166900C90216D0306A1D206C1AE535147006C2FD
:101679006AD26BA1C9F535C3E55C94014003021533
:10168900C90216D0753600C3E55F94014009856427
:1016990062856069756A0178FA79A4E7600278035E
:1016A900C3E55F985021307404E52A601A78F03058
:1016B9006C058564617820C3E541985002A1C9058C
:1016C90036E55C6002C1D3753600C2AF113C78873C
:1016D900E6FE760211BD7887EEF6E4F522F523F5EC
:1016E90024F525F526F565752C00752D0075A900DD
:1016F90075B680757A00D2AF1205B0113C78A4E6B0
:101709006006D292D294D296307406E52A700241CC
:1017190087788DE6C394014002616C81B4901A0DFB
:1017290078201217A9E520B4A50CA31217A9E52062
:10173900B45A030217471151121767021766901A14
:101749000378807B0A1217A9A308DBF9901A0F788E
:101759008C7B191217A9A308DBF9901A2822C2AFAA
:101769001217EC1217C9901A00740E1217AEA3744F
:10177900071217AEA374151217AE901A0378807B5F
:101789000A1217ADA308DBF9901A0F788C7B19128E
:1017990017ADA308DBF91217FF1217DD901A2822DB
:1017A900E493F622E6438F01538FFDFFC3E583944B
:1017B9001C400122EF857CB7857DB7F0538FFE224F
:1017C900438F02438F01857CB7857DB7901A0DF051
:1017D900538FFC22901A0D74A5F1AE901A0E745A0B
:1017E900F1AE227A3079D07820901A40F1A9E5201B
:1017F900F709A3DAF7227A3079D0901A40E712175D
:10180900AE09A3DAF822AB74A875BB01027980BBD3
:1018190002027981BB03027982BB04027994BB0578
:10182900027983BB06027986BB07027992BB08025B
:101839007987BB0902799CBB0A027988BB0B0279BB
:1018490089E8F7227C051205B5DCFB22C2AF120537
:10185900C51205CC1205D31205DA1205A61205C563
:0F1869001205CC1205D31205DA1205A61205C519
:101878001205CC1205D31205DAD2AF22C2AF120577
:10188800DA1205D31205CC1205C51205A61205DA1F
:101898001205D31205CC1205C51205A61205DA12D7
:1018A80005D31205CC1205C5D2AF22AE74AF75C2EE
:1018B800AF1205C51205C51205C51205A6DEF2123E
:1018C80005DA1205A6DFF8D2AF221155114D114DD8
:1018D80075740175750175760011B37C05AD5C12E0
:1018E80005B5C3ED955C70F5C3E55C9401400AC38A
:1018F800E55C94FF403302190F110F121767115559
:10190800C2AF75EF16114DDCD40576C3E5769403A6
:10191800500280C5114D0575E5741490009F93F829
:1019280008C3E57598500280AD114D114D0574C37B
:10193800E574940C5002809B121051121767C2AFC5
:0519480075EF16114DC2
:0319FD000211DDF7
:101A00000E071507070104FFFF09020101A55A018E
:101A100000B4FFFFFF03FF01FF25D078C804FF01DA
:091A200000FF0A010100FF00FFB4
:101A400023506C6174696E756D3530417633232097
:101A500023424C48454C492346333930232020202B
:101A60002020202020202020202020202020202076
:101C0000C2AFC2D353D9BF7581C043B20343FF8073
:101C1000752438752503B1DC7529A5752AF175E29F
:101C20004043F14053A4BF75D4FFD2867DFA7803B8
:101C300079E67C10752200752300901DE97B0675FE
:101C400024987525013086028145208608D8FBD965
:101C5000F9DCF781B7308608D8FBD9F9DCF781B712
:101C6000B19CE493A3C39A6004DDC381B7DBDBB10D
:101C70008E6002812E7B08E493FAA3B16FDBF87AC1
:101C800030B16F752200752300B18EEAFCEBFDC305
:101C9000ED94FE400EB18E8A278B28ED30E0048A49
:101CA000828B83B18E7AC270D8C3ED94FE601950D6
:101CB000CEBD002BEC600F7520007521FF7529004B
:101CC000752A000200008100A827A9280809D80465
:101CD000D90281DCB192EA89AAF281CE0D81A3C337
:101CE000ED94035053EDA2E092007AC5C3E58294CF
:101CF00000E583941C508A200010438F02438F011B
:101D00008529B7852AB7F0300029A827A92808090E
:101D1000438F01538FFDD804D902A133C3E58394C7
:101D20001C4003A3A11689AAE28529B7852AB7F02A
:101D3000A3A116538FFC817F7AC1BD030CE493A34A
:101D4000FAB153DCF8B14B817F8181AA22AB23B178
:101D50006FEBFAEA6222752608C3E52313F523E543
:101D60002213F52250066323A0632201D526EAB18F
:101D7000DCB1DC75260AEAF4200102D286300102C9
:101D8000C286B1DCC3134002C201D526EB22B19258
:101D9000EAFB208602A192308602A197752608AE42
:101DA00024AF25C3EF13FFEE13FEB1E0B1DCC3EAAD
:101DB000133086024480FA30E703632201C3E5232F
:101DC00013F523E52213F52250066323A0632201B5
:101DD000D526D9E52265236523F52222AE24AF2539
:101DE0000E0FDEFEDFFCD20122424C48656C6934E6
:071DF000373163F390060197
:00000001FF
