:0300000002108E5D
:03000B000200A24E
:03002B000202C806
:03005B0002040F8D
:030073000203E99C
:1000800002030406080C10182030406080040608A3
:100090000C10182030406080A0C005050D0502033B
:1000A0000302C2AFC0D0C0E020622920680241B480
:1000B0003065024174302F02E4730563C374059503
:1000C0002540F5956340F1758A78E5257003758ABA
:1000D000000202C185258AC262E525F47002213B37
:1000E0002068022128758B00D0E0D0D0D297D2951D
:1000F000D293D2AF32D297D295D2937406D5E0FD87
:10010000E53C1420E21520E10D207D02D292307DE5
:1001100002D296020138D294020138207D02D29692
:10012000307D02D292020138758B00D0E0D0D0D25F
:1001300097D295D293D2AF32758B00D0E0D0D0D287
:10014000AF3241B4E525600A207D02C297307D02BE
:10015000C293D29541B4E5256002C295207D02D2BA
:1001600093307D02D29741B4E525600A207D02C21A
:1001700093307D02C297207D02D297307D02D293C8
:1001800041B4207D02C296307D02C292207D02C21F
:1001900092307D02C2967406D5E0FDE525600A2006
:1001A0007D02C297307D02C293D29541B4207D0278
:1001B000C296307D02C292C2947406D5E0FDE52558
:1001C000600A207D02C297307D02C293D29541B46D
:1001D000C294207D02C296307D02C2927406D5E0A0
:1001E000FDE5256002C295207D02D293307D02D2CA
:1001F0009741B4C294207D02C292307D02C29674AF
:1002000006D5E0FDE5256002C295207D02D293303F
:100210007D02D29741B4207D02C292307D02C29607
:10022000C2947406D5E0FDE525600A207D02C293E4
:10023000307D02C297207D02D297307D02D2934159
:10024000B4207D02C292307D02C296207D02C29609
:10025000307D02C2927406D5E0FDE525600A207D5E
:1002600002C293307D02C297207D02D297307D0278
:10027000D29341B430723DE53C20E21A20E12920BE
:100280007D02C296307D02C292207D02C292307DF4
:1002900002C2960202B420E1E6207D02C296307DC1
:1002A00002C292C2940202B4C294207D02C2923071
:1002B0007D02C296E525F4F58A758B00756300D240
:1002C00062D0E0D0D0D2AF32C2AFC2AD53E6EFC001
:1002D000D0C0E0D2D3D2AFC2CEE5296007207446A9
:1002E0001529612678007900E580307E01F430E53B
:1002F0000278FF53DACF207E0343DA20307E0343B7
:10030000DA10C2D8C271E580307E01F430E502799E
:10031000FFC3E89970CE3061037529182074037506
:1003200029188859D270E52A6004152A613620748C
:100330000543DA01C2D8207002618EA859C270202C
:100340007431C3E894F0400374F0F8E8C4540F2803
:10035000F87984B703026173C313C313872120089C
:1003600002C313200A06C3C898F8617328F8500323
:1003700074FFF8C3E895625003E562F8882230699B
:100380000AC3E522955E4003855E22852224A824C7
:10039000C3E524955E4002A85E8825C3E525944008
:1003A0004002D26320CF0CD0E0D0D0C2D343E610BD
:1003B000D2AD32C2CF7801E529600530740215292B
:1003C000C3E55994014005755C0061DD755D0075FC
:1003D0006400E55C2401F55C5003755CFFD0E0D05F
:1003E000D0C2D343E610D2AD32C0D0C0E0C2AF53CA
:1003F000917F53E67FC260759100C3E49550F594F8
:10040000E49551F595759104D0E0D0D0D2AF32C2C9
:10041000AF53E6EFC2ADC0D0C0E0C0F0D2D3D2AF90
:10042000A8FBA9FCC2D8307102817653DACF207EB6
:100430000343DA10307E0343DA20D271E580307E48
:1004400001F420E502814D88268927C1AE53DACF19
:10045000207E0343DA20307E0343DA10C2D8C27113
:10046000307402C19A7800E580307E01F430E502F4
:0F047000C19A8859C18153DACF207E0343DA2025
:10047F00307E0343DA10C271206102A14253DACFFA
:10048F00207E0343DA10307E0343DA20C2D8D271C4
:10049F0088548955C3E89552F8E99553F9E4FB7EE2
:1004AF00027A00C3E8948CE994005005755800A1B6
:1004BF0036C3E894C8E994005008E4D2E4FB7A0A02
:1004CF00A113C3E89468E994015008E4D2E3FB7ADE
:1004DF000FA113C3E894D0E994025008E4D2E2FBD1
:1004EF007A1EA113C3E894A0E994055008E4D2E161
:1004FF00FB7A3CA113C3E89498E994085008E4D21E
:10050F00E0FB7A787E00C3E89556FCE99557FD30FD
:10051F00E708ECF42401FCEDF4FD755800C3EC9AE8
:10052F00ED9E500375580188568957A854A95588D0
:10053F00528953C3E89526F8E99527F9307C02C113
:10054F0065307B02C165307A02C15E207502A165FC
:10055F00E9FDE8FCA184E9C313F9E813F830790247
:10056F00C15EE9C313F9E813F8307802C15EE9C33D
:10057F0013FDE813FC206126C3EC941CED9402409C
:10058F0002A19BED7018C3EC94C850120528C3E567
:10059F0028940A5002C19A755900D270C19AE52861
:1005AF00600215287400207F0B7888E67896B403D4
:1005BF0002789EE624FAFEE43400FFC3EC9EFCEDC5
:1005CF009FFD92087888E6B40327A2085009207D82
:1005DF0020C2AFD27DA1ED307D17C2AFC27DD297C1
:1005EF00D295D293C296C294C292206902D266D299
:1005FF00AFA2085017E6B4030DECF42401FCEDF4A0
:10060F003400FD02061B78007900C1657888E6B4D6
:10061F000315EC33FCED33FDC3EC9405FCED9400B6
:10062F00FD50047C007D00C3EC94FFED9400400668
:10063F0078FF7900C165EC856FF0A4C5F0A2F733A0
:10064F00F87900400302068178FF7900020681E9FC
:10065F00C313F9E813F8307C0EE9600278FFC3E8A2
:10066F001338F8E43400F9C3E894FFE9940040022A
:10067F0078FF8859D270206102C19A741FF4552FE8
:10068F004BF52FC274E42B7002D274752918307495
:10069F000375290A306102C1AE20740353DAFE7567
:1006AF002A06307403752A0AD0F0D0E0D0D0C2D316
:1006BF00D2AD43E6103279010206E379030206E375
:1006CF00790A0206E3791E0206E379640206E379EA
:1006DF00C80206E37817E4D5E0FDD8FAD9F6227AF6
:1006EF00147B7802070A7A107B8C02070A7A0D7B3B
:1006FF00B402070A7A0B7BC802070AAC25752501DD
:10070F007902B27DE4C294D5E0FDE5256002C29581
:10071F00D5E0FDD295D5E0FDD294D5E0FDE525607D
:10072F000A207D02C297307D02C293E570D5E0FDAD
:10073F00207D02D297307D02D2937496D5E0FDD9F9
:10074F00C1EAF8D5E0FDD8FBDBB1C2948C2522C3FA
:10075F007C007D0075F00005F0EA33FAEB33FB50B7
:10076F00F6EB13FBEA13FAC3E9FFE8FEE89AF8E9A0
:10077F009BF95004EFF9EEF8B3EC33FCED33FDD5F4
:10078F00F0DFEDF9ECF822E889F08A20D2D4F8A94D
:10079F00F07B0030F70B7BFFF42401F8E9F4340011
:1007AF00F9E88520F0A4ADF0F8E98520F0A4AFF0CA
:1007BF00FEED2EF974003FFA7C04C3EA13FAE91335
:1007CF00F9E813F8DCF48BF030F70AE8F42401F8B9
:1007DF00E9F43400F9E889F0C2D4F8A9F02222E54F
:1007EF0047603BC3E53B13F9E53A13F8C3E53E9881
:1007FF00F8E53F99F9500CC3E89480E994FF40164F
:10080F00020829C3E8947FE994005003020829786D
:10081F007F7900020829788079FF8843894422E58F
:10082F00476058E5432540F8E5443541F9854420B4
:10083F00E4300701F43542FA30E709C3EA94F04097
:10084F001502086BC3EA940F500302086B78FF7907
:10085F00FF7A0F02086B780079007AF0C3E52495D0
:0E086F005E5006E52460090184E54420E70D93
:10087D000184E54430E706884089418A4222E547F4
:10088D0070030208EF78A1E6FAC3E54333F8E544B7
:10089D0033F9120796E930E70BC3E89480E994FF2A
:1008AD00401301C6C3E8947FE99400500201C67855
:1008BD007F790001C6788079FFE820E715C3E5232D
:1008CD0098F84009C3E8940140030208ED7801024D
:1008DD0008EDE8F424012523F840030208ED78FF24
:1008ED00884522E547700302095278A2E6FAA8412D
:1008FD00A942120796E930E70CC3E89401E994FF89
:10090D004016020929C3E894FFE994005003020937
:10091D002978FF7900020929780179FFE920E71587
:10092D00C3E54598F84009C3E89401400302095016
:10093D007800020950E8F424012545F84003020926
:10094D005078FF88242278FFC263E52D5406702F5E
:10095D00D263C3E53B940A4009C3E5259440500298
:10096D00C263E53B601974FF853BF0848537F0A4C5
:10097D00F8C5F0600278FFC3E895615002A8618860
:10098D006022020A2C7883E6F520120E9C75E89001
:10099D001206C575E890E5E820ECFBA8BDA9BE12CE
:1009AD000F4A756B55756C00C3740013FD745513A8
:1009BD00FC74552CFC74003DFDECFAEDFBC3E89A7C
:1009CD00E99B4014E56B2455F56BE56C3400F56C33
:1009DD00EA2CFAEB3DFB80E5AE6BAF6CC3E56C1317
:1009ED00F9E56B13F8C3E913F9E813F8E56B28F58E
:1009FD0069E56C39F56A7A03C3E913F9E813F8DA96
:100A0D00F7AA201A7009756B00756C00020A2C1A72
:100A1D00EA6008EE28FEEF39FFDAF88E6B8F6C2254
:100A2D0075E890227883E6FFE5E820ECF7A8BDA9EC
:100A3D00BE056DC3E56D94084052756D00E9FA79F8
:100A4D00A0E76044EA7007E56E601B020A67C3E821
:100A5D00956E6010E56E5006600C14020A7304600A
:100A6D00F9020A73E56EF56EC3946D401B755EC099
:100A7D00C394044013755E80C39404400B755E40AF
:100A8D00C394044003755E0075BB0822E55EF460F7
:100A9D0002055EE56DB4070375BB1022743279A3B0
:100AAD0087F0A4C5F0A2F733F8C3E8955E4002A81D
:100ABD005E882288248825886122753A00753B0856
:100ACD002275C820A8CCA9CD75C824AA38AB398801
:100ADD00388939C3E89AF8E99BF9AA3AAB3BAC3AA5
:100AED00AD3B7E047F02C3EB940440021E1FC3EB9B
:100AFD00940840021E1FC3ED13FDEC13FCDEF7C37B
:100B0D00EA9CFAEB9DFBEF6009C3E913F9E813F8D2
:100B1D00DFF7EA28FAEB39FB8A3A8B3B4001227565
:100B2D003AFF753BFF223060026133854C50854D95
:100B3D0051D26043E680227892E6FFC3E535948278
:100B4D0040010FC3E53594A040010FC3EF9406405B
:100B5D00027F057E023072010EC3E53B9403500700
:100B6D000E0E3072020E0EC3E53B940250070E0EB0
:100B7D003072020E0EA93BA83A7A04C3E913F9E8C4
:100B8D0013F8DAF7C3E89EF8E99400F94009C3E8D1
:100B9D009402E9940050047802E4F9E9FBE8FAC301
:100BAD00E913FDE813FC884C894DC3EF94036037BE
:100BBD00EF20E00DE82CF8E93DF9ECFAEDFB020B26
:100BCD00E1E828F8E939F9C3E89402F8E99400F965
:100BDD007A02E4FBC3EF9403400D8A4E8B4F884895
:100BED0089498C4A8D4B22884E894F8A488B498C76
:100BFD004A8D4B223060028101D26043E680E52DA3
:100C0D005406601BA83AA93B759100C3E498F5946E
:100C1D00E499F595759104D26053917F43E6802256
:100C2D00D264753D00752000020C40D264753D0004
:100C3D00752040E52D54066002C264D2AF206005D8
:100C4D00E53D600122759D0078017A02C3E53B9474
:100C5D000540027802C3E53B940A40027803C3E5E0
:0E0C6D003B940F40027A0330690778087A043E
:100C7B00759D03206007E53D6003D2AF22D2AF0024
:100C8B0000C2AFC3E53BFB940F40027B0FEB04307C
:100C9B0073012320620123F93069027978C3E58B54
:100CAB009940D0053DEAFBE59B5440B52004DBF7AA
:100CBB0081DF2064028140C264759100C3E4953AE0
:100CCB00F594E4953BF595759104D26053917F4370
:100CDB00E68081403064028140D898D2AF223069DF
:100CEB000B0534206016753400020D0720600D20B3
:100CFB00640A2066071581158102152E2275910055
:100D0B0053917FC3E4954EF594E4954FF59575910A
:100D1B0004854850854951D26043E68022780030E3
:100D2B0063053064027801E53575F007A4F9E5F049
:100D3B0028F5F0E9A2F013A2F113A2F213F535C3D3
:100D4B0094785003753578C3E53595364008D265F0
:100D5B00D297D295D293306002A161854A50854BD0
:100D6B0051D26043E68022C2AFC296C294C2923087
:100D7B00720B9002167406D5E0FD020DB0E53B54E4
:100D8B00F86022E525600A207D02C297307D02C201
:100D9B0093740FD5E0FD207D02D297307D02D29364
:100DAB007406D5E0FD207D02D296307D02D292757D
:100DBB009F10753C02020F2FC2AF207D02D29330E1
:100DCB007D02D2973072179001F3C294207D02C23C
:100DDB0092307D02C2967406D5E0FD020DEC9001B7
:100DEB0056306206E5256002C295207D03759F1380
:100DFB00307D03759F11753C03020F2FC2AFC29656
:100E0B00C294C29230720B9001D07406D5E0FD02F1
:100E1B000E45E53B54F86022E525600A207D02C2B1
:100E2B0093307D02C297740FD5E0FD207D02D293E3
:100E3B00307D02D2977406D5E0FD207D02D2923030
:100E4B007D02D296207D03759F11307D03759F1314
:100E5B00753C04020F2FC2AFD2953072179001ADC3
:100E6B00207D02C296307D02C292C2947406D5E0F8
:100E7B00FD020E8290014430620EE525600A207D52
:100E8B0002C297307D02C293759F10753C05020F0D
:100E9B002FC2AFC296C294C29230720B9001827471
:100EAB0006D5E0FD020ECAE53B54F86012E525605D
:100EBB0002C295740FD5E0FDD2957406D5E0FDD234
:100ECB0094207D03759F13307D03759F11753C0630
:100EDB00020F2FC2AF207D02D297307D02D293300A
:100EEB00721F900241207D02C296307D02C2922079
:100EFB007D02C292307D02C2967406D5E0FD020FD0
:100F0B000F90016830620EE525600A207D02C293C6
:100F1B00307D02C297207D03759F11307D03759F35
:100F2B0013753C01306613120F4A7406D5E0FD743D
:100F3B0006D5E0FDD296D294D292C265D2AF229062
:100F4B000142D297D295D293C296C294C292C262F8
:100F5B0022788076FF0876FF0876FF0876FF087602
:100F6B0003087604087609087601087601087601ED
:100F7B00788C76010876FF0876FF0876FF0876FFF7
:100F8B000876FF0876030876FF0876FF0876FF08D9
:100F9B0076250876D00876FA0876FA08760408766D
:100FAB00FF08760108760008767A0876FF08760146
:100FBB00227887E6FFC2727888E6C394036008C282
:100FCB007DE630E102D27DC27E7889E630E102D245
:100FDB007EC3EF94026008758E01D273020FEF751A
:100FEB008E00C273227880E6149000809378A1F66D
:100FFB007881E6149000809378A2F6120F4A22783B
:10100B0086E61490008D9378A3F6120F4A2222786D
:10101B009CE67536FF75370CB402067536A075372E
:10102B000AB4030675368275370522227896E6FADE
:10103B007897E6FB307F047A007BFFC3EB9AFCC307
:10104B00948250027C82756F00056FEC856FF0A463
:10105B00C3E5F0948040F222D27F11371206D47A86
:0F106B00007B007C101206CAE5592AFA74003B7C
:10107A00FBDCF37C04C3EB13FBEA13FADCF7FEC2D6
:10108A007F113722E5EF20E6037520000520903F07
:10109A00FFE520146006901DFF14600093046003AE
:1010AA0075EF12C2D353D9BF7581C043FF801206B0
:1010BA00C575EF0243B203E5B324044002F5B31247
:1010CA000F4A7580FF75A40075F1B275D4DF75906B
:1010DA00A975A5FC75F2FC75D50175A60175E241E5
:1010EA00E4F8F6D8FD120F5C121560120FBC120F4D
:1010FA00F0110A1119111A113611377898867012DF
:10110A000F4A75885075890275C82475910475D877
:10111A0040C2AF1206DE1206EE1206D41206F5120D
:10112A0006D41206FC1206D4121C901206DE12060F
:10113A00DE1206D975A82275B80275E690759B80ED
:10114A00759D0075D10E75BC5875BB0875BA1175B9
:10115A00E8801206C5D2AF12098F43DA01C2D8C29B
:10116A00711206DE753001D2617A19E55870027A79
:10117A00193070FDC270E559C3940240ECE52F5452
:10118A001F855B5AF55BB55AE0DAE0C26153DACFE4
:10119A00207E0343DA20307E0343DA10C2D8C271BC
:1011AA00C2757528001206D9307409C3E528940A55
:1011BA004002D2751206CA78023074027800C3E57A
:1011CA00599840F0C2AF1206EE1206EE1206EED29F
:1011DA00AF1206DE7546007888E6B4030241BD12F6
:1011EA0006CA788CE6C3940150030212BDE530C3E7
:1011FA00940150030212BD207435C3E55994FF507F
:10120A00030212BDC2AF120703D2AF1206D9C3E559
:10121A0059940150EFC2AF1206EE1206CF1206EE33
:10122A00D2AF1206D9C3E55994FF40E9021D157FD2
:10123A0005D27F11371206D9C2AFC27F1137AE5914
:10124A00C3E559947FD2AF40741206C5C2AF1207E4
:10125A0003D2AFDFDC1163C3EE94057897F612066A
:10126A00DE1215A2121C987F0AD27F11371206D9F4
:10127A00C2AFC27F1137AE59C3E559947FD2AF507E
:10128A00E61206C5C2AF1206EE1206CF1206EED25B
:10129A00AFDFD61163EE24057896F61206DE121534
:1012AA00A2121CC71206D91137C3E55994FF40F49C
:1012BA00021D15C3E559954640038559461206D9BC
:1012CA0078017988E7B403027805C3E559984002A2
:1012DA0021E1C2AF120703120703120703D2AF12AA
:1012EA0006DE753000E4F531F5320531E531F4708A
:1012FA00390532789AE67819146012783214600D3A
:10130A00787D14600878FA146003753200C3E532F8
:10131A0098401715327531B478998670C2AF1207A2
:10132A0003D2AF789886701206D91206CFE52970D3
:10133A0005307402217178012074027806C3E559D8
:10134A009840A77888E6C3940360031206D9E52972
:10135A0070022171C2AF120F4AE4F522F523F52477
:10136A00F525D2AF78858662F53EF53FF540F54121
:10137A00F542F56DF547F52CF52DF535120AC775C9
:10138A006D0875BB101206C5120A2DE5E820ECFBA4
:10139A00A8BDA9BEE97001F8886E120A31756D08F8
:1013AA0075BB107887E6FE7602120FBC7887EEF6D8
:1013BA00C2AF755EFF120AA985225E85225F852269
:1013CA0060D2AF752201752401752501855D6475AA
:1013DA006501D268D269753400120E9C120EDE12B3
:1013EA000ACE120AC7120B44021401120F4A120F34
:1013FA00BC756D0075BB08120C38120CE9120D0889
:10140A001207ED120D28120D72120ACE120B3312A8
:10141A000B44120C01120C2D120CE9120D081207C2
:10142A00EE120953120D28120DC3120ACE120B33F3
:10143A00120B44120C01120C38120CE9120D08128C
:10144A00082E120D28120E07120ACE120B33120B97
:10145A0044120C01120C2D120CE9120D0812088B01
:0F146A00120D28120E61120ACE120B33120B4410
:10147900120C01120C38120CE9120D081208F012A4
:101489000D28120E9C120ACE120B33120B44120CA9
:1014990001120C2D120A2D120CE9120D08120A3133
:1014A900120D28120EDE120ACE120B33120B441241
:1014B9000C0130693520663285615E85615F855D25
:1014C9006475650179647A14C3E53499400FC2697A
:1014D900D26A8A33755EFF755FFF0214F3C3E5595B
:1014E9009401400302140102152E306A1B2066186C
:1014F900E533147004C26A61F5F533C3E559940103
:10150900400302140102152EC3E55C948250163083
:101519007404E529600FC3E53B78F0306602786012
:101529009850028101C2AF120F4A7887E6FE76020F
:10153900120FBC7887EEF6E4F522F523F524F5259C
:10154900F562C268D2AF1206C5120F4A307406E5B9
:10155900297002217141EF901A0D7820121C00E5C3
:1015690020B45A0CA3121C00E520B4A5030215826D
:10157900120F5C1215A20215A1901A0378807B0A3A
:10158900121C00A308DBF9901A0F788C7B15121C2A
:1015990000A308DBF9901A2422C2AF121C3F121CC7
:1015A90019901A00740D121C05A37400121C05A3CE
:1015B9007413121C05901A0378807B0A121C04A369
:1015C90008DBF9901A0F788C7B15121C04A308DB31
:0B15D900F9121C52121C30901A242240
:101A00000D0013FFFFFFFF0304090101015AA501A7
:101A1000FFFFFFFFFF03FFFFFF25D0FAFA04FF01DE
:051A2000007AFF01FF48
:101A400023536B79494949333041232020202020FA
:101A500023424C48454C4923463333302320202031
:101A60002020202020202020202020202020202076
:101C0000E493F622E6438F01538FFD75EF0275B71B
:101C1000A575B7F1F0538FFE22438F02438F0175F4
:101C2000EF0275B7A575B7F1901A0DF0538FFC222E
:101C3000901A0D745A9105901A0E74A59105227A86
:101C40003079D07820901A409100E520F709A3DA86
:101C5000F7227A3079D0901A40E7910509A3DAF992
:101C600022AB71A872BB01027984BB02027985BBE9
:101C700003027986BB04027992BB05027987BB0611
:101C800002799CBB07027988BB08027989E8F722B0
:101C90007C051206DEDCFB22C2AF1206EE1206F550
:101CA0001206FC1207031206CF1206EE1206F512F8
:101CB00006FC1207031206CF1206EE1206F51206F4
:101CC000FC120703D2AF22C2AF1207031206FC12A6
:101CD00006F51206EE1206CF1207031206FC1206D4
:101CE000F51206EE1206CF1207031206FC1206F5D5
:101CF0001206EED2AF22AE71AF72C2AF1206EE1272
:101D000006EE1206EE1206CFDEF21207031206CF1F
:101D1000DFF8D2AF22919891909190757101757210
:101D20000175730091F67C05AD591206DEC3ED9581
:101D30005970F5C3E55994014009C3E55994FF4032
:101D400032A15191611215A29198C2AF75EF129113
:101D500090DCD50573C3E5739403500280C691905F
:101D60000572E5711490009A93F808C3E5729850D3
:101D70000280AE919091900571C3E5719409500273
:0F1D8000809C120F5C1215A2C2AF75EF129190EA
:00000001FF
