:030000000211C327
:03000B000200BB35
:03002B000203BE0F
:03005B000205504B
:030073000205463D
:1000800002030406080C10182030406080020304AC
:1000900006080C101820304080FF2030406080A0FF
:1000A000C0000000010100030202010D0D04020660
:1000B00002070505050D0503050202C2AFC0D0C049
:1000C000E0205A0D302F02E47330600280F9020301
:1000D000AA306306C2B1C287C28185258AC25AE5A9
:1000E00025F47002219D0561306013206A19758B1B
:1000F00000D0E0D0D0C2B1C287C281D2AF32C2B18B
:10010000C287C28102018DD26EC26FC3E5611495B0
:10011000654011C26ED26FC3E5619564406F756131
:100120000002018D206C14C2B1C287C281740AD54D
:10013000E0FDD282D286D28002018DC2B1C287C2D6
:1001400081E53D20E22520E10D207402D282307449
:1001500002D28002018D20E005D28602018D20743A
:1001600002D280307402D28202018D20E11520E09B
:100170000D207402D282307402D28002018DD286A8
:1001800002018D207402D280307402D282758B00FD
:10019000D0E0D0D0C2B1C287C281D2AF32D0E0D0DD
:1001A000D0D2AF3261AAE525600A207402D2B13004
:1001B0007402D281C28761AAE5256002D2872074C9
:1001C00002C281307402C2B161AAE525600A2074BE
:1001D00002D281307402D2B1207402C2B1307402F2
:1001E000C28161AA207402C282307402C280E525F5
:1001F000600A207402D2B1307402D281207402C22B
:1002000080307402C282C28761AA207402C2823026
:100210007402C280207402C280307402C282740AE6
:10022000D5E0FDE525600A207402D2B1307402D217
:1002300081C28761AA207402C282307402C280E542
:1002400025600A207402D2B1307402D281C286C203
:100250008761AA207402C282307402C280C286748E
:100260000AD5E0FDE525600A207402D2B13074029F
:10027000D281C28761AAC286E5256002D287207436
:1002800002C282307402C280207402C281307402C1
:10029000C2B161AAC286207402C282307402C280D6
:1002A000740AD5E0FDE5256002D287207402C28180
:1002B000307402C2B161AAC286E5256002D28720ED
:1002C0007402C280307402C282207402C28130740F
:1002D00002C2B161AAC286207402C280307402C216
:1002E00082740AD5E0FDE5256002D287207402C23F
:1002F00081307402C2B161AA207402C280307402DB
:10030000C282E525600A207402D281307402D2B123
:10031000C286207402C2B1307402C28161AA207404
:1003200002C280307402C282C286740AD5E0FDE542
:1003300025600A207402D281307402D2B120740286
:10034000C2B1307402C28161AA207402C2803074CA
:1003500002C282E525600A207402D281307402D282
:10036000B1207402C282307402C280207402C2B111
:10037000307402C28161AA207402C280307402C249
:1003800082207402C282307402C280740AD5E0FDF9
:10039000E525600A207402D281307402D2B1207443
:1003A00002C2B1307402C28161AAE525F4F58A75F2
:1003B0008B00756000D25AD0E0D0D0D2AF32C2AF3D
:1003C000C0D0C0E0D2D3C2CEE528600A740F552E4B
:1003D00060491528811B78007900E580307501F4AB
:1003E00030E50278FF53DACF20750343DA20307509
:1003F0000343DA10C2D8C269E580307501F430E5F4
:100400000279FFC3E89970CE305903752840740F04
:10041000552E60037528408858D268E52960041578
:1004200029812E740F552E600543DA01C2D8206849
:100430000281B3E558F8C268740F552E6036798290
:10044000B70431C3E894F0400374F0F8E8C4540FE3
:1004500028F87984B703028174C313C3138721205A
:100460000802C313200A06C3C898F8817428F850FC
:0F0470000374FFF8C3E8955F5003E55FF8E52CD0
:10047F0054067030882230630AC3E522955C40032E
:10048F00855C227882B6041CC3E52295244012783D
:10049F009F96400DE52426F52450097524FF02048C
:1004AF00B385222420CF09D0E0D0D0C2D3D2AF322F
:1004BF00C2CF7801E5286008740F552E70021528F9
:1004CF00C3E55894014005755B0081E2E55B04606C
:1004DF0002055B7982E7B4020EE548601FC3E5228F
:1004EF00943240188547227982E7B4030FE54860BC
:1004FF000BC3E52294324004798E8722C3E52395FE
:10050F0022600840041523A11A0523D8C60562D519
:10051F00631C756301C3E562941E4012C3E56294C8
:10052F00825003756303E55D04700114F55DD0E03F
:10053F00D0D0C2D3D2AF32C2AF53917FC258D2AF55
:10054F0032C2AFC0D0C0E0C0F0D2D3A8FBA9FCC26A
:10055F00D8306902A1B353DACF20750343DA1030D4
:10056F00750343DA20D269E580307501F420E50286
:10057F00A18788268927E11453DACF20750343DA40
:10058F002030750343DA10C2D8C269740F552E702C
:10059F0002C1FA7800E580307501F430E502C1FA46
:1005AF008858C1FA53DACF20750343DA2030750328
:1005BF0043DA10C269205902C15353DACF207503B1
:1005CF0043DA1030750343DA20C2D8D269885389D1
:1005DF0054C3E89551F8E99552F9E4FBC3E89468E0
:1005EF00E994015006E4D2E3FBC125C3E894D0E9B6
:1005FF0094025006E4D2E2FBC125C3E894A0E9942B
:10060F00055006E4D2E1FBC125C3E89498E99408AC
:10061F005004E4D2E0FBC3E89555FCE99556FD3054
:10062F00E708ECF42401FCEDF4FD7557007009C3E5
:10063F00EC940A500375570188558956A853A9544D
:10064F0088518952C3E89526F8E99527F930730246
:10065F00C1DE307202C1D7E9C313F9E813F8307164
:10066F0002C1D7E9C313F9E813F8307002C1D7E913
:10067F00C313FDE813FCED7009C3EC94C8500302DB
:10068F00071474002076037896E624FAFEE434000B
:10069F00FFC3EC9EFCED9FFD500678007900C1DE94
:1006AF00C3EC94FFED9400400678FF7900C1DEECB7
:1006BF00856BF0A4C5F0A2F733F87900400302066A
:1006CF00E978FF79000206E9E9C313F9E813F8C3E3
:1006DF00E894FFE99400400278FF8858D2682059C7
:1006EF0002C1FA740FF4552E4BF52E752840740F76
:1006FF00552E700375280A305902E114740F552EC8
:10070F00600353DAFE752920740F552E7003752977
:10071F000AD0F0D0E0D0D0C2D3D2AF327901E143CA
:10072F007903E143790AE143791EE1437964E143B7
:10073F0079C8E1437817E4D5E0FDD8FAD9F6227AE3
:10074F00147B78E1667A107B8CE1667A0D7BB4E1DD
:10075F00667A0B7BC8E166AC257525017902B27408
:10076F00E4E4C286D5E0FDE5256002D287D5E0FD41
:10077F00C287D5E0FDD286D5E0FDE525600A20745D
:10078F0002D2B1307402D281E56CD5E0FD20740243
:10079F00C2B1307402C2817496D5E0FDD9C0EAF8B7
:1007AF00D5E0FDD8FBDBB0C2868C2522E889F08A24
:1007BF0020D2D4F8A9F07B0030F70B7BFFF4240193
:1007CF00F8E9F43400F9E88520F0A4ADF0F8E985F4
:1007DF0020F0A4AFF0FEED2EF974003FFA7C04C3B5
:1007EF00EA13FAE913F9E813F81CEC70F28BF03006
:1007FF00F70AE8F42401F8E9F43400F9E889F0C2C3
:10080F00D4F8A9F0227882B60403020892C3E558FF
:10081F0094014019E548702B7805C37994E7B40229
:10082F00027812C3E53B9400E53C984013852224DF
:10083F00E4F53FF540F541F542F543F548020892DE
:10084F00754801C3E79402601BE523F43333F913B2
:10085F00F8E9540104F9E854FEC39440F8E9940010
:0F086F00F902088EE523F433333333F913F8E934
:10087E0054070404F9E854F8C39440F8E99400F9D5
:10088E00883F894022E548603CC3E53C13F9E53BCF
:10089E0013F8C3E53F98F8E54099F930E70CC3E843
:1008AE009480E994FF40160208CFC3E8947FE99440
:1008BE000050030208CF787F79000208CF78807944
:1008CE00FF8844894522E5486055E5412544F8E511
:1008DE00423545F9E5433545FA30E709C3EA94F068
:1008EE00401502090BC3EA940F500302090B78FF5F
:1008FE0079FF7A0F02090B780079007AF0C3E524AC
:10090E00955C5009C3E524940140092127E5442054
:10091E00E70D2127E54430E706884189428A4322C4
:10092E00E548700302099A789DE6FA854420E43082
:10093E000701F4F9C3E54433F8E933F91207BBE9CB
:10094E0030E70BC3E89480E994FF40132171C3E8AC
:10095E00947FE9940050022171787F79002171789B
:10096E008079FFE820E715C3E52398F84009C3E82E
:10097E00940140030209987801020998E8F42401D1
:10098E002523F8400302099878FF884622E548702F
:10099E0003020A00789EE6FAA842A9431207BBE9B1
:1009AE0030E70CC3E89400E994FF40160209D4C363
:1009BE00E894FFE9940050030209D478FF7900020D
:1009CE0009D4780079FFE920E715C3E54698F84089
:1009DE0009C3E8940140030209FE78010209FEE80A
:1009EE00F424012546F8E9340040030209FE78FF9D
:1009FE008824227883E6F520120F3475E890E5E816
:100A0E0020ECF0A8BDA9BE120FD875685575690007
:100A1E00C3740013FD745513FC74552CFC74003D07
:100A2E00FDECFAEDFBC3E89AE99B4014E56824550A
:100A3E00F568E5693400F569EA2CFAEB3DFB80E5D3
:100A4E00AE68AF69C3E56913F9E56813F8C3E91336
:100A5E00F9E813F8E56828F566E56939F5677A036C
:100A6E00C3E913F9E813F8DAF7AA201A70097568C2
:100A7E0000756900020A951AEA6008EE28FEEF3941
:100A8E00FFDAF88E688F692275E890227883E6FF88
:100A9E00E5E820ECF7A8BDA9BE056AC3E56A94088F
:100AAE004032756A00C3E894F6F8E9940140217566
:100ABE005CC0C3E89406F84017755C80C3E89406E2
:100ACE00F8400D755C40C3E89406F84003755C0071
:100ADE0075BB0622EFC39401601BC3E894FFE99433
:100AEE00035012C3E89568E995695009E55C600CFE
:100AFE00155C020B0AE55CF46002055CA85CC3E5BC
:100B0E0024985002A8248825C3E525955D400B85C1
:100B1E005D25E55DF46003855D5CC3E56AB407039E
:100B2E0075BB1E2230610278323062027850E52C9D
:100B3E0054066021E879A087F0A4C5F0A2F733F837
:100B4E00C3E8955C4002A85C882288248825306121
:100B5E0004C3E8F55E22788FE6FFC3EF94055018C4
:100B6E00C3EF94045020C3EF94035028C3EF9402B4
:100B7E005030C3EF940150387533A075340F75356E
:100B8E003C75360561CC7533C075341275354075BC
:100B9E00360661CC7533707534177535D0753607DA
:100BAE0061CC75334C75341D7535C475360961CC01
:100BBE007533287534237535B875360B61CC85338E
:100BCE004F853450753B00753C0822A84FA9500242
:100BDE000BE4A849A94A759100C3E498F594E499E9
:100BEE00F595759104D25875C820A8CCA9CD75C8B5
:100BFE0024AA39AB3A8839893AC3E89AF8E99BF9BD
:100C0E00AA3BAB3CC3EB13FDEA13FCC3ED13FDECA7
:100C1E0013FCC3EA9CFAEB9DFBEA28FAEB39FB8A3C
:100C2E003B8B3C400122753BFF753CFF2230580246
:100C3E00813B759100C3E4954BF594E4954CF59585
:100C4E00759104D258227892E6FF7E0A305B027FBD
:100C5E00053063047F037E00A93CA83B7A04C3E9F8
:0F0C6E0013F9E813F8DAF7C3E89EF8E99400F9F0
:100C7D004009C3E8940AE994005004780AE4F9E9BC
:100C8D00FBE8FAC3E913FDE813FCC3EF9403602EF0
:100C9D00EF20E00DE82CF8E93DF9ECFAEDFB020C44
:100CAD00B8E828F8E939F97A0AE4FBC3EF94034070
:100CBD000D8A4D8B4E8849894A8C4B8D4C22884D1F
:100CCD00894E8A498B4A8C4B8D4C2230580281D8E3
:100CDD00759100C3E4953BF594E4953CF5957591BC
:100CED0004D25822753E00752000020D00753E009D
:100CFD00752040D2AF053E20580122E53CC313C3F9
:100D0D0013F808306A06C313C313F808C3E8940A2E
:100D1D004002780A306D08C3E894044002780475E7
:100D2D009D00C3E53C9408400D759D02C3E53C94C0
:100D3D00104003759D03205803D2AF22791E206DFC
:100D4D0002790AD2AF0000C2AF205A0A793C206D59
:100D5D00027914306FE03063027978C3E58B9940E6
:100D6D00D5E59B5440B5208BD8CCD2AF22C25B7851
:100D7D009CE6146007E53E147002D25B30630B05F0
:100D8D0038205810753800020DA12058071581150F
:100D9D008102171122759100C3E4954DF594E495E8
:100DAD004EF595759104D25822AE25305B5078A240
:100DBD00E6FFBF010BD25C752500C2B1C287C281AF
:100DCD009140305C03752500305802A1CFBF020B56
:100DDD00D25C752500C2B1C287C28178A1E6B4018B
:100DED000D9140305C03752500305802A1F0BF0312
:100DFD000BD25C752500C2B1C287C281B1A2305C35
:100E0D0003752500305802C10B305B04C25C8E2582
:100E1D0022C2AFC286206A03020E469002F8306BE2
:100E2D000390031E206C12306E0F207402C28030AE
:100E3D007402C282740AD5E0FD207402D28230742D
:100E4D0002D280759F02753D02D2AF22C2AF206AD9
:100E5D0003020E819002B7306B039002D5306E17EE
:100E6D00C286207402C280307402C282740AD5E038
:100E7D00FD020E849001B8207402C281307402C24A
:100E8D00B1305A06E5256002D287207403759F03A1
:100E9D00307403759F01753D03D2AF22C2AF20742C
:100EAD0002C282307402C280206A03020ED1900207
:100EBD0076306B03900294206C0A306E07C28674F4
:100ECD000AD5E0FD207402D280307402D2822074E3
:100EDD0003759F01307403759F03753D04D2AF22D6
:100EED00C2AF206A03020F15900235306B039002DA
:100EFD0053306E17207402C282307402C280C286D3
:100F0D00740AD5E0FD020F189001A6C287305A0E63
:100F1D00E525600A207402D2B1307402D281759F2A
:100F2D0002753D05D2AF22C2AF207402C28030746B
:100F3D0002C282206A03020F649001E4306B0390B9
:100F4D00020A206C12306E0F207402C282307402BD
:100F5D00C280740AD5E0FDD286207403759F0330DC
:100F6D007403759F01753D06D2AF22C2AF206A038F
:100F7D00020FA8900349306B03900377306E1F204A
:100F8D007402C282307402C280207402C280307436
:100F9D0002C282740AD5E0FD020FAB9001CA207423
:100FAD0002C2B1307402C281305A0EE525600A20AA
:100FBD007402D281307402D2B1207403759F013056
:100FCD007403759F03753D01D2AF229001A4C2B188
:100FDD00C287C281C282C286C28022C3E54F9535C7
:100FED00E55095365001227890E6FFC3EF940550F9
:100FFD0018C3EF9404501BC3EF9403501EC3EF941A
:10100D00025021C3EF94015024C3E54F943CF802E4
:10101D001043C3E54F9428F8021043C3E54F941ACB
:10102D00F8021043C3E54F9412F8021043C3E54F85
:10103D00940AF8021043E5509400F9884F89502224
:10104D0030580302104D2278807607788176077824
:10105D0082760178947601788376047886760378A3
:0F106D008F7603789076017895760278927603E5
:10107C00789B760D7893760178877602789C76014A
:10108C00788876017889760178857600788C760177
:10109C00788D7600788E76B478967625789776D09B
:1010AC0078987678789976C8789A7601227893E64B
:1010BC00FF756409756501C3EFB4020975640575A4
:1010CC0065010210F8C3EFB4030975640575650278
:1010DC000210F8C3EFB404097564057565030210BA
:1010EC00F8C3EFB405067564097565077887E6FFE4
:1010FC00C26CC3EFB40302D26CC26BC26A741855D3
:10110C002D6002D26AC26E6002D26ED26F6002C2D1
:10111C006FC2747888E630E102D274C2757889E6C1
:10112C0030E102D275C3EF94026008758E01D26D66
:10113C00021144758E00C26D227880E614900080F6
:10114C0093789DF67881E61490008093789EF61241
:10115C000FD822789BE61490008D93789FF6120F8F
:10116C00D8227886E61490009A9378A0F6120FD8BD
:10117C0022789CE6149000A19378A1F6789CE61452
:10118C009000A69378A2F6120FD8227896E6FA78F9
:10119C0097E6FB3076047A007BFFC3EB9AFCC39492
:1011AC008250027C82756B00056BEC856BF0A4C3DE
:1011BC00E5F0948040F222C2D353D9BF7581C0436D
:1011CC00FF8012072B43B203E5B324044002F5B3AE
:1011DC0075803875A4C775F1FF75D4DF7590FF75F0
:1011EC00A50075F20075D50075A0FF75A60075F306
:1011FC000075D60075B0E475A71B75F4FF75E24158
:10120C00120FD8E4F8F6D8FD115412175A11B9314F
:10121C0045315F316E317D31977898866C120FD8DD
:10122C0075885075890275C82475910475D840125B
:10123C00073F12074E1207371207541207371207CF
:10124C005A120737121CE5121CE575A82275B80254
:10125C0075E69075F610759B80759D0375D10E75AE
:10126C00BCB875BB0675BA1F75E88012072BD2AFD8
:10127C00120A0143DA01C2D8C26912073F75300164
:10128C00D2597A0AE55770027A0A12072FE558C329
:10129C00940240EEE52E540F855A59F55AB559E291
:1012AC00DAE2C25953DACF20750343DA20307503E2
:1012BC0043DA10C2D8C26912073B12072F780274A6
:1012CC000F552E70027800C3E5589840EDC2AF124E
:1012DC00074E12074E12074ED2AF12073F7547004A
:1012EC0012072F788CE6C3940150030213B5E53036
:1012FC00C3940150030213B5740F552E6035C3E52A
:10130C005894FF50030213B5C2AF120760D2AF124C
:10131C00073BC3E558940150EFC2AF12074E1207BA
:10132C003312074ED2AF12073BC3E55894FF40E986
:10133C00021D6A7F1ED276319712073BC2AFC2766E
:10134C003197C3E558947FD2AF4068C2AF120760A3
:10135C00D2AFDFE1C3E55894057897F612073F1238
:10136C001804121CED7F1ED276319712073BC2AFC8
:10137C00C2763197C3E558947FD2AF50E8C2AF1212
:10138C00074E12073312074ED2AFDFDBE5582405A8
:10139C007896F612073F121804121D1C12073BC355
:1013AC00E55894FF40F6021D6AC3E5589547400383
:1013BC0085584712073BC3E5589401400241ECC2E3
:1013CC00AF120760120760120760D2AF12073F75A9
:1013DC003000E4F531F5320531E531F47036053283
:1013EC00789AE67828146012785014600D78A0145E
:1013FC00600878F0146003753200C3E5329840142D
:10140C0015327899866CC2AF120760D2AF78988685
:10141C006C12073B12072FC3E558940640B9E52818
:10142C00700302128C12073BE528700302128C1217
:10143C000FD8E4F522F523F524F525755CFF7885A6
:10144C00865FF53FF540F541F542F543F56AF54801
:10145C00F52BF52CF55B120B64756A0875BB1E1227
:0E146C00072B120A96120A9A756A0875BB1EA3
:10147A007895E630E0030214C87887E6FE76021112
:10148A00B97887EEF6D261C2AF120B3285225C853B
:10149A00225DD2AFC261752500756200756301D203
:1014AA0060D263753800120F34120F78120BE012F3
:1014BA000B6412072F120BE0120C540215F77887EF
:1014CA00E6FE76037893E6FD760511B97887EEF69F
:1014DA007893EDF6D260D261D26E120F34120F7881
:1014EA00120B3212072B120E1E12072B12072B1287
:1014FA000E5912072F120EA912072F12072F120EBA
:10150A00ED120733120F3412072F12072BC261D2C2
:10151A0062120A96120A9A120B32756A0875BB1E73
:10152A00120F78120BD9120C54120FE8114D120E29
:10153A001E120BD9120C54120FE8114D120E591229
:10154A000BD9120C54120FE8114D120EA9120BD915
:10155A00120C54120FE8114D120EED120BD9120C87
:10156A0054120FE8114D120F34120BD9120C5412E7
:10157A000FE8C3E54F9535E5509536400C114DC33C
:10158A00E5589401508B021711114DC2627887E613
:10159A00FE760211B97887EEF685225C855E5D8556
:1015AA005E25756200756301D263753800C2AF208B
:1015BA007402C282307402C280207402C280307403
:1015CA0002C282742DD5E0FDD2AF120F78120BE061
:1015DA00120C3B120C54120CD8756A0075BB060229
:1015EA0015F711B9120F78756A0075BB06120CFA55
:1015FA00120D7A120DA2120814120DB6120E1E1234
:10160A000BE0120C3B120C54120CD8120CF1120DF6
:10161A007A120DA2120893120DB6120E59120BE08D
:10162A00120C3B120C54120CD8120CFA120D7A122C
:10163A000DA21208D4120DB6120EA9120BE0120C4A
:10164A003B120C54120CD8120CF1120D7A120DA284
:10165A0012092E120DB6120EED120BE0120C3B12ED
:10166A000C54120CD8120CFA120D7A120DA212098D
:10167A009B120DB6120F34120BE0120C3B120C54D3
:10168A00120CD8120CF1120A96120D7A120DA2122D
:10169A000A9A120DB6120F78120BE0120C3B120CBA
:1016AA0054120CD830632A855E5C855E5D756200D3
:1016BA00756301C3E5389464400AC263D26475371E
:1016CA00140216DBC3E558940140030215F702170A
:1016DA0011306419E537147005C2640215ECF53748
:1016EA00C3E558940140030215F7021711C3E55BDD
:1016FA0094035013740F552E7004E5286009C3E54E
:10170A003C94F05002A1F7120FD87887E6FE7602D1
:10171A0011B97887EEF6E4F522F523F524F525F5D7
:10172A005FC26012072B120FD8740F552E7006E590
:10173A00287002418C7895E630E009121CE5121CEB
:10174A00E5121CE5788DE6C39401400241C661DECC
:10175A00901A0D7820121C00E520B4A50CA3121CC7
:10176A0000E520B45A0302177B1154121804021818
:10177A0003901A037880121C00A308121C00A30805
:10178A00121C00A308121C00A308A308A308121C19
:10179A0000A308121C00A308121C00A308121C00B4
:1017AA00A308A308A308121C00A308121C00A3087C
:1017BA00121C00A308121C00A308121C00A308A3F1
:1017CA0008121C00A308121C00A308121C00A3087C
:1017DA00121C00A308121C00A308121C00A3081262
:1017EA001C00A308121C00A308121C00A308121C48
:1017FA0000A308121C00901A2022C2AF121C3F122A
:10180A001C19901A007409121C05A37401121C05F4
:10181A00A3740F121C05901A037880121C04A308E3
:10182A00121C04A308121C04A308121C04A308A374
:10183A0008A308121C04A308121C04A308121C04FF
:10184A00A308121C04A308A308A308121C04A308D3
:10185A00121C04A308121C04A308121C04A30812D5
:0F186A001C04A308A308121C04A308121C04A347
:1018790008121C04A308121C04A308121C04A308C0
:10188900121C04A308121C04A308121C04A30812A6
:101899001C04A308121C04A308121C04121C5212D3
:0618A9001C30901A202201
:101A000009010F07070104FFFF03020101A55A01A5
:101A100000B40301FF0301010225D078C8010D01C4
:011A2000FFC6
:101A4000235475726E696779343041232020202039
:101A500023424C48454C4923463331302320202033
:101A60002020202020202020202020202020202076
:101C0000E493F622E6438F01538FFD75EF0275B71B
:101C1000A575B7F1F0538FFE22438F02438F0175F4
:101C2000EF0275B7A575B7F1901A0DF0538FFC222E
:101C3000901A0D74A59105901A0E745A9105227A86
:101C40003079D07820901A409100E520F709A3DA86
:101C5000F7227A3079D0901A40E7910509A3DAF992
:101C600022AB6DA86EBB01057980021CE2BB0205A8
:101C70007981021CE2BB03057982021CE2BB0405E8
:101C80007994021CE2BB05057983021CE2BB0605C0
:101C90007995021CE2BB07057986021CE2BB0805A8
:101CA000798F021CE2BB09057990021CE2BB0A0590
:101CB0007992021CE2BB0B05799B021CE2BB0C056E
:101CC0007993021CE2BB0D057987021CE2BB0E056D
:101CD000799C021CE2BB0F057988021CE27989021B
:101CE0001CE2E8F7227C0512073FDCFB22C2AF12A0
:101CF000074E12075412075A1207601207331207D1
:101D00004E12075412075A12076012073312074E79
:101D100012075412075A120760D2AF22C2AF12073D
:101D20006012075A12075412074E12073312076047
:101D300012075A12075412074E1207331207601285
:101D4000075A12075412074ED2AF22AE6DAF6EC2C1
:101D5000AF12074E12074E12074E120733DEF21271
:101D60000760120733DFF8D2AF2291ED91E591E5DC
:101D7000756D01756E01756F00B14B7C05AD581224
:101D8000073FC3ED955870F5C3E55894014009C36A
:101D9000E55894FF4035A1A9916112180491EDC254
:101DA000AF75EF0043EF1091E5DCD2056FC3E56F2F
:101DB0009403500280C391E5056EE56D149000AB6D
:101DC00093F808C3E56E98500280AB91E591E50564
:101DD0006DC3E56D941150028099C2AF75EF004359
:041DE000EF1091E58A
:00000001FF
