:030000000219FDE5
:03000B000200A848
:03002B0002015778
:03005B000202E0BE
:030073000202CDB9
:1000800002030406080C10182030406080040608A3
:100090000C10182030406080A0C00003070F1F051F
:1000A000050D050205030302C2AFC0D0C0E0206207
:1000B00014E5256009E473E525F4F58AD262D0E001
:1000C000D0D0D2AF3285268AC262E526F4602AD02B
:1000D000E0D0D0C295C294C293D2AF32C295C2943E
:1000E000C293206F0D20660A7405D5E0FDE57BF410
:1000F0005290D0E0D0D0D2AF32758A00C28DD26299
:1001000001F201B7306805206602D29501B7306868
:1001100005206602D29401B7306805206602D293AA
:1001200001B7D29230680A2066077403D5E0FDD289
:100130009501B7D29130680A2066077403D5E0FDB7
:10014000D29401B7D290D29230680A206607740325
:10015000D5E0FDD29301B7C2AFC2AD53E6EFC0D038
:10016000C0E0D2D3D2AFC2CEE52A600720744915D1
:100170002A21B87800790020742EE580307E01F4C1
:1001800030E70278FF53DACF207E0343DA20307E57
:100190000343DA10C2D8C271E580307E01F430E743
:1001A0000279FFC3E89970CB306103752A18207477
:1001B00003752A18885CD27020740DE52B60041535
:1001C0002B21C843DA01C2D8207002413BA85C2031
:1001D0006102C270207431C3E894F0400374F0F8F7
:1001E000E8C4540F28F87984B703024108C313C345
:1001F000138721200802C313200A06C3C898F841B8
:100200000828F8500374FFF8C3E895655003E565C6
:10021000F88822E52D54066022206B1FE536C33393
:10022000C333F8E564C313C313F9C39522400289AD
:1002300022E82522F52250037522FF852224A824D6
:10024000C3E52495614002A8618825E566700241F6
:100250007FC3E8AA669A5003E8FAE4F9EAC333FBDD
:10026000E568F45B29400D2567F8E56760021567CE
:10027000400B417F0AC3E5679A5002056778FF8803
:1002800026C3E52594404002D26420CF0AD0E0D0B6
:10029000D043E610D2AD32C2CF053A7801E52A60EC
:1002A00005307402152AC3E55C94014005755F00B2
:1002B00041C3756000756900E55F2401F55F500377
:1002C000755FFFD0E0D0D043E610D2AD32C2AF535D
:1002D000E67F7592FA7593FFC260759104D2AF32D2
:1002E000C2AF53E6EFC2ADC0D0C0E0C0F0D2D3D2AF
:1002F000AFA8FBA9FCC2D8307102614753DACF2006
:100300007E0343DA10307E0343DA20D271E5803079
:100310007E01F420E702611E88278928A17453DA40
:10032000CF207E0343DA20307E0343DA10C2D8C2E6
:1003300071307402A1607800E580307E01F430E70E
:1003400002A160885CA14853DACF207E0343DA2003
:10035000307E0343DA10C271206102812053DACF6C
:10036000207E0343DA10307E0343DA20C2D8D271F4
:1003700088578958C3E89555F8E99556F97B007E6A
:10038000087A00C3E8948CE994005005755B0081FD
:1003900012882178A2E6A8216055C3E894C8E994A0
:1003A000005008E4D2E4FB7A0A61EDC3E89468E9FE
:1003B00094015008E4D2E3FB7A0F61EDC3E894D0D6
:1003C000E994025008E4D2E2FB7A1E61EDC3E8949E
:1003D000A0E994055008E4D2E1FB7A3C61EDC3E862
:1003E0009498E994085008E4D2E0FB7A787E00C340
:1003F000E89559FCE9955AFD30E70AECF42401FC34
:10040000EDF43400FD755B00C3EC9AED9E5003756E
:100410005B018859895A8557558558567802A148F5
:10042000C3E89527F8E99528F9307C02A12C307BA8
:1004300002A12C307A02A1252075028143E9FDE852
:10044000FC8162E9C313F9E813F8307902A125E9C8
:10045000C313F9E813F8307802A125E9C313FDE8C6
:1004600013FC20612CC3EC941CED940240028179B2
:0F047000ED701EC3EC94C850180529E5297002E1
:10047F001529C3E529940A5002A160755C00D2705A
:10048F00A160E529600215297888E6F97400207FBC
:10049F00087896B90302789EE624FAFEE43400FF4A
:1004AF00C3EC9EFCED9FFD9208B90310A208500704
:1004BF00207609D27681CB307602C276A20850160A
:1004CF00B9030DECF42401FCEDF43400FD0204E556
:1004DF0078007900A12CB90315EC33FCED33FDC383
:1004EF00EC940AFCED9400FD50047C007D00C3ECFD
:1004FF0094FFED9400400678FF7900A12CEC8572F3
:10050F00F0A4C5F0A2F733F879004003020548784C
:10051F00FF7900020548E9C313F9E813F8307C0EA0
:10052F00E9600278FFC3E81338F8E43400F9C3E850
:10053F0094FFE99400400278FF885CD2702061023A
:10054F00A160741FF4552F4BF52FC274EB7002D2BC
:10055F0074752A18307403752A0A306102A1742049
:10056F00740353DAFE207403752B06D0F0D0E0D05D
:10057F00D0D2AD43E6103279010205A4790302050A
:10058F00A4790A0205A4791E0205A479640205A4C0
:10059F0079C80205A47817E4D5E0FDD8FAD9F62278
:1005AF007A147B780205CB7A107B8C0205CB7A0DFF
:1005BF007BB40205CB7A0B7BC80205CB7902E4D260
:1005CF0091D5E0FDD294D5E0FDC294D5E0FDC29166
:1005DF00D5E0FDE920E002D29530E002D293E57339
:1005EF00D5E0FDE920E002C29530E002C293749697
:1005FF00D5E0FDD9C9EAF8D5E0FDD8FBDBBED29135
:10060F0022C37C007D0075F00005F0EA33FAEB336E
:10061F00FB50F6EB13FBEA13FAC3E9FFE8FEE89A87
:10062F00F8E99BF95004EFF9EEF8B3EC33FCED3336
:10063F00FDD5F0DFEDF9ECF822E889F08A20D2D46D
:10064F00F8A9F07B0030F70B7BFFF42401F8E9F4F5
:10065F003400F9E88520F0A4ADF0F8E98520F0A486
:10066F00AFF0FEED2EF974003FFA7C04C3EA13FAE3
:10067F00E913F9E813F8DCF48BF030F70AE8F42407
:10068F0001F8E9F43400F9E889F0C2D4F8A9F022AE
:10069F0022C3E54113F9E54013F8C3E54498F8E5A3
:1006AF004599F9500CC3E89480E994FF401602066F
:1006BF00D7C3E8947FE9940050030206D7787F7977
:1006CF00000206D7788079FF8849894A22E54925B3
:1006DF0046F8E54A3547F9854A20E4300701F435F5
:1006EF0048FA30E709C3EA94F04015020715C3EA48
:1006FF00940F500302071578FF79FF7A0F02071541
:10070F00780079007AF0C3E5249561500AC374012B
:10071F009524500B020733E54A20E70E020733E515
:10072F004A30E706884689478A482278A5E6FAC301
:10073F00E54933F8E54A33F9D148E930E70BC3E827
:10074F009480E994FF4013E16DC3E8947FE994002E
:10075F005002E16D787F7900E16D788079FFE820B4
:10076F00E715C3E52398F84009C3E8940140030255
:10077F0007947801020794E8F424012523F8400335
:10078F0002079478FF884B2278A6E6FAA847A94873
:10079F00D148E930E70CC3E89401E994FF40160211
:1007AF0007C8C3E894FFE9940050030207C878FF15
:1007BF0079000207C8780179FFE920E715C3E54BF7
:1007CF0098F84009C3E8940140030207EF7801024B
:1007DF0007EFE8F42401254BF840030207EF78FFF9
:1007EF0088242278FFC26420693D206A12D264C334
:1007FF00E541940A4009C3E52594405002C264794B
:10080F00A1E76023E541601F74FF8541F0848539BE
:10081F00F0306A0375F005A4F8C5F0600278FFC3E5
:10082F00E895645002A864886322C3E5409440E5CC
:10083F00419401E563500314014A046002F56322F9
:10084F000208522275E890227883E6FFE5E820EC53
:10085F00F7A8BDA9BE0570C3E57094084052757026
:0F086F0000E9FA79A0E76044EA7007E571601BC1
:10087E0002088DC3E895716010E5715006600C1486
:10088E000208990460F9020899E571F571C3946D37
:10089E00401B7561C0C394044013756180C39404FA
:1008AE00400B756140C39404400375610075BB062F
:1008BE0022E561F460020561E570B4070375BB10B3
:1008CE0022743279A787F0A4C5F0A2F733F8C3E8F3
:1008DE0095614002A861882288248825882688642C
:1008EE00227540007541F022C2AF75C820A8CCA970
:1008FE00CDAA3A30CF010A75C824D2AFAB3BAC3C7F
:10090E00883B893CC3E89BF8E99C206908F930676D
:10091E00024102215FAD3D8A3DF9EA9DFA600478FD
:10092E00FF79FFAE3EAF3F8B3E8C3FA83BA93CC349
:10093E00E89EF8E99FF9C3E54113FBE54013FAE899
:10094E002AF540E93BF54150067540FF7541FF2100
:10095E00A9AA40AB41AC40AD417E047F02C3EB94EB
:10096E000440021E1FC3EB940840021E1FC3ED136A
:10097E00FDEC13FCDEF7C3EA9CFAEB9DFBEF60097E
:10098E00C3E913F9E813F8DFF7EA28FAEB39FB8A23
:10099E00408B4150067BFF8B408B41C3EB94025042
:1009AE0002D2673069047F0321D47892E6FFC3E553
:1009BE0037948240110FC3E53794A040010FC3EF67
:1009CE00940640027F057E02E541C4540FF9E541CD
:1009DE00C454F0F8E540C4540F28F8C3E89EFAE971
:1009EE009400FB4009C3EA9402EB940050047A028F
:1009FE00E4FB414EAA40AB41EBC4FEEAC4540F4E99
:100A0E00FCC3EA9CFAEB9400FBC3E813C313F8EAA9
:100A1E0028FAEB3400FB8A408B41C3EB9402400270
:100A2E00C2677802EBC4FE7B00EAC4540F4EFAC3D1
:100A3E00EA98FA4005C3940250027A027892E6FFD1
:100A4E00306002414E855192855293D26043E680CA
:100A5E00C3E49AF8E49BF930670241DAE8FAE9FB5D
:100A6E00D3E913FDE813FC88518952C3EF94036058
:100A7E0038EF20E00DE82CF8E93DF9ECFAEDFB0239
:100A8E000AA3E828F8E939F9C3E82402F8E93400A2
:100A9E00F97AFE7BFFC3EF9403400E8A538B548882
:100AAE004D894E8C4F8D50610E885389548A4D8BD3
:100ABE004E8C4F8D503069127553F07554FF754F33
:100ACE00F07550FF7551F07552FF610EE8FAD3E8DC
:100ADE0013FC8851C3EF94036020EF20E007E82C4D
:100AEE00F8ECFA41FAE8282402F87AFEC3EF9403F0
:100AFE0040088A53884D8C4F610E88538A4D8C4F17
:100B0E00E568C3335002646BF56830600261187596
:100B1E003402D26043E680E52D54066034A840A925
:100B2E0041C3E913F9E813F8C3E913F9E813F830F0
:100B3E006904E92440F9C2AF53E67F759100C3E41E
:100B4E0098F594E499F595759104D26043E680D2B8
:100B5E00AF22D265754300752000306C03752040BE
:100B6E00020B7FD265754300752040306C037520F3
:100B7E000078017901206720E52D54066002C265D8
:100B8E007914E541C313700104F8C394144002783C
:100B9E0014306904781B791B206010E543600C301B
:100BAE006903D53404D26D812171200543E59B5430
:100BBE0040B52002810B30690908C3E8994001183D
:100BCE0061A620650A08C3E8994002617F61A6C24A
:100BDE0065C2AF53E67F759100306712759400754C
:100BEE0095FE759104D26043E680D2AF617FAE4030
:100BFE00AF41C3E49EF594E49FF59561F0C3E533F0
:100C0E0094015002617F306502617FD802811F61BD
:100C1E00A6C26DC2AF53E67F75910085539485547D
:100C2E0095759104854D92854E93D26043E680D2A0
:100C3E00AFE52D54066008206A020533020C5D30C4
:100C4E006D0D206C0A206507158115810214FC229A
:100C5E0078003064053065027801E53775F007A439
:0F0C6E00F9E5F028F5F0E9A2F013A2F113A2F2D4
:100C7D0013F537C394785003753778C3E537953836
:100C8D004008D266C295C294C293306002819785A6
:100C9D004F92855093D26043E68022207D16C2AFDD
:100CAD00754202D291C292306202D293D2AF759F39
:100CBD0011020E9FC2AF754202D291C290306202F4
:100CCD00D295D2AF759F11020E9F307245207D22B5
:100CDD00C2AF754203900133757B02C293D290D29D
:100CED0092306204D29481F7C291D2AF759F010206
:100CFD000E9FC2AF754203900133757B02C295D230
:100D0D0092306204D294A117C291D2AF759F210285
:100D1D000E9F207D17C2AF75420390010EC2933016
:100D2D006202D294D2AF759F01020E9FC2AF75427F
:100D3D000390010EC295306202D294D2AF759F21FD
:100D4D00020E9F207D16C2AF754204D292C2903022
:100D5D006202D294D2AF759F21020E9FC2AF75422F
:100D6D0004D290D292C292306202D294D2AF759FC9
:100D7D0001020E9F307243207D20C2AF7542059057
:100D8D000122757B04C294D291306204D295A19F49
:100D9D00C292D2AF759F11020E9FC2AF75420590E0
:100DAD000144757B01C294D291306204D293A1BFEC
:100DBD00C290D2AF759F11020E9F207D17C2AF75E5
:100DCD004205900104C294306202D295D2AF759F54
:100DDD0011020E9FC2AF754205900118C294306288
:100DED00EBD293D2AF759F11020E9F207D18C2AF2B
:100DFD00754206D290D292C291306202D295D2AF94
:100E0D00759F01020E9FC2AF754206D292C29130FC
:100E1D006202D293D2AF759F21020E9F3072452090
:100E2D007D20C2AF754201900144757B01C295D200
:100E3D0092306204D293C147C290D2AF759F210206
:100E4D000E9FC2AF754201900122757B04C293D2F1
:100E5D0090D292306204D295C169C292D2AF759F81
:100E6D0001020E9F207D17C2AF754201900118C27D
:100E7D0095306202D293D2AF759F21020E9FC2AF01
:100E8D00754201900104C293306202D295D2AF75C2
:100E9D009F01C26622900102757B00C295C294C269
:100EAD0093D292D291D290C26222788076FF087648
:100EBD00FF0876FF0876FF08760308760408760AA1
:100ECD00087601087601087601788C76010876FFA0
:100EDD000876FF0876FF0876FF0876FF0876030888
:100EED0076FF0876FF0876FF0876250876D0087617
:100EFD00FA0876FA0876040876FF08760108760077
:100F0D0008767A0876FF08760108760108760008DB
:100F1D007603087600227887E6FFC2727888E6C3EA
:100F2D0094036008C27DE630E102D27DC27E7889ED
:100F3D00E630E102D27EC3EF94026008758E01D2D5
:100F4D0073020F56758E00C273227880E6149000DE
:100F5D00809378A5F67881E6149000809378A6F6B4
:100F6D007886E61490008D9378A7F67886E6F539A5
:100F7D00C394025003753902789CE67538FFB402AC
:100F8D00037538A0B4030375388278A3E614900076
:100F9D009A93F566D1A222227896E6FA7897E6FB27
:100FAD007888E6B40305C3EB940EFB307F047A001A
:100FBD007BFFC3EB9AFCC3948250027C8275720056
:100FCD000572EC8572F0A4C3E5F0947D40F222D257
:100FDD007FF1A51205957A007B007C1012058BE53B
:100FED005C2AFA74003BFBDCF37C04C3EB13FBEAD5
:100FFD0013FADCF7FEC27F120FA522E5EF20E60300
:10100D007520000520903FFFE520146006901DFF20
:10101D001460009304600375EF1253D9BF7581C03E
:10102D0043FF8012058675EF0243B203E5B3240238
:10103D0020E70DF521E5E320E0068521B343E3012B
:10104D00120EA27580FF75A40075F19075D47F7591
:10105D00908775A5BF75F2BF75D50075A60175E2B0
:0F106D0041120EA2E4F8F6D8FD756801120EB715
:10107C0012154D78988673753001C2AF12059F1208
:10108C0005AF1205951205B61205951205BD120590
:10109C009512166612059F12059F12059AC2AF781B
:1010AC00FA79FA308707D9FBD8F7021C00120F2304
:1010BC00120F57120FA4120FA578988673120EA256
:1010CC0075881075890275C82475910475D840759A
:1010DC00A82275B80275E690759B80759D0075D138
:1010EC000E75BC5875BB0675BA1175E8801205866D
:1010FC00D2AF12084F75360053DACF207E0343DA95
:10110C0020307E0343DA1043DA01C2D8C2711205D3
:10111C009FD2617B037A0CE55B70077A0CDB0302D0
:10112C0010A91205952070030210A9C270E55CC3CA
:10113C00940240E1E52F541F855E5DF55EB55DD5EB
:10114C00DAD5C26153DACF207E0343DA20307E0336
:10115C0043DA10C2D8C27178A2E67008D274E52FB7
:10116C0054E0F52FC27575290012059A307409C325
:10117C00E529940A4002D27512058B78023074026C
:10118C007800C3E55C9840F0C2AF1205AF1205AF12
:10119C001205AFD2AF12059F754C007888E6B403E8
:1011AC0002418C12058B788CE6C394015003021219
:1011BC008CE530C39401500302128C207435C3E5C6
:1011CC005C94FF500302128CC2AF1205C4D2AF1252
:1011DC00059AC3E55C940150EFC2AF1205AF12053E
:1011EC00901205AFD2AF12059AC3E55C94FF40E9AB
:1011FC000216EB7F05D27F120FA512059AC2AFC261
:10120C007F120FA5AE5CC3E55C947FD2AF407B121E
:10121C000586C2AF1205C4D2AFDFDA120FDCC3EE03
:10122C0094057897F612059F12158F12166E7F0A89
:10123C00D27F120FA512059AC2AFC27F120FA5AEB4
:10124C005CC3E55C947FD2AF50E4120586C2AF124A
:10125C0005AF1205901205AFD2AFDFD4120FDCEE42
:10126C0024037896F612059F12158F12169D1205FF
:10127C009A120FA5C3E55C94FF500221C70216EB2E
:10128C00C3E55C954C4003855C4C12059A7801795A
:10129C0088E7B403027805C3E55C98400221A7C235
:1012AC00AF1205C41205C41205C4D2AF12059F7546
:1012BC003000E4F531F5320531E531F4703F05329B
:1012CC00789AE67819146012783214600D787D14CF
:1012DC00600878FA146003753200C3E53298401D3B
:1012EC00120EA2120586153275310078998673C2DA
:1012FC00AF1205C4D2AF7898867312059A12059076
:10130C00E52A700530740201A97801207402780670
:10131C00C3E55C9840A17888E6C39403600312058A
:10132C009AE52A70030210A9C2AF120EA2E4F522AC
:10133C00F523F524F525F526F567D2AF7885E6C3B8
:10134C0033F565E4F544F545F546F547F548F57094
:10135C00F52CF52DF53775700875BB101205861236
:10136C000853E5E820ECFBA8BDA9BEE97001F8889C
:10137C007112085775700875BB10120F23C2AF7528
:10138C0061FF1208CF852261852262852263D2AF6C
:10139C007522017524017525017526018560697515
:1013AC006A017888E6B40307C27D307602D27DD21A
:1013BC0068D269753300120DF8120E291208EF125B
:1013CC0008F61208EF1208F61208EF120B7112064B
:1013DC009F120C5E120CA81208F6120B60306E03F2
:1013EC001206A02067031207F230670312083912A5
:1013FC000C5E120CD71208F6120B71306E0312062B
:10140C00DC120C5E120D501208F6120B60306E03DB
:10141C0012073A120C5E120D811208F6120B713083
:10142C006E03120797120C5E120DF81208F61208D2
:10143C0053120B60120C5E120E291208571208F68A
:10144C0030692F856461856462856069756A01798C
:10145C00187A0CC3E53399400CC269D26A8A357587
:0F146C0061FF02147EC3E55C940140030213D7B5
:10147B00021504306A1D206C1AE535147006C26A19
:10148B00D26B61D7F535C3E55C940140030213D7EA
:10149B00021504753600788279A4E760027803C3DD
:1014AB00E55F985054307404E52A604D7888E6B4B3
:1014BB000317207D0520760781D430760281D42056
:1014CB006C07D26C856461811678F0306C0585648D
:1014DB00617820C3E54198500261D7306C1BC26C18
:1014EB00C27D307602D27DD26A7535128564616118
:1014FB00D70536E55C6002A107753600C2AF120E48
:10150B00A27887E6FE7602120F237887EEF6E4F5D3
:10151B0022F523F524F525F526F565752C00752D9B
:10152B0000D2AF12059A120EA278A4E66006C29200
:10153B00C291C290307409C3E5369404400201A9EC
:10154B0041BE901A0D78201215D1E520B45A0CA388
:10155B001215D1E520B4A50302156F120EB71215A3
:10156B008F02158E901A0378807B0A1215D1A3086F
:10157B00DBF9901A0F788C7B191215D1A308DBF9C4
:10158B00901A2822C2AF1216101215EA901A007484
:10159B000E1215D6A374061215D6A374151215D6F2
:1015AB00901A0378807B0A1215D5A308DBF9901AE1
:1015BB000F788C7B191215D5A308DBF912162312A1
:1015CB001601901A2822E493F622E6438F01538FDB
:1015DB00FD75EF0275B7A575B7F1F0538FFE22437A
:1015EB008F02438F0175EF0275B7A575B7F1901A8E
:1015FB000DF0538FFC22901A0D745AB1D6901A0E1F
:10160B0074A5B1D6227A3079D07820901A40B1D116
:10161B00E520F709A3DAF7227A3079D0901A40E760
:10162B00B1D609A3DAF922AB74A875BB0102798490
:10163B00BB02027985BB03027986BB04027992BB9C
:10164B0005027987BB060279A3BB0702799CBB080D
:10165B00027988BB09027989E8F7227C0512059F7C
:10166B00DCFB22C2AF1205AF1205B61205BD120587
:10167B00C41205901205AF1205B61205BD1205C4B2
:10168B001205901205AF1205B61205BD1205C4D294
:10169B00AF22C2AF1205C41205BD1205B61205AFBB
:1016AB001205901205C41205BD1205B61205AF1234
:1016BB0005901205C41205BD1205B61205AFD2AFC7
:1016CB0022AE74AF75C2AF1205AF1205AF1205AFE4
:1016DB00120590DEF21205C4120590DFF8D2AF228C
:1016EB00D16ED166D166757401757501757600D1B1
:1016FB00CC7C05AD5C12059FC3ED955C70F5C3E525
:10170B005C9401400AC3E55C94FF4032021727D179
:10171B0032B18FD16EC2AF75EF12D166DCD50576C3
:10172B00C3E5769403500280C6D1660575E5741443
:10173B0090009F93F808C3E57598500280AED16670
:10174B00D1660574C3E574940A5002809C120EB7DF
:09175B00B18FC2AF75EF12D16627
:0319FD00021008CD
:101A00000E0615FFFFFFFF03040A0101015AA5019D
:101A1000FFFFFFFFFF03FFFFFF25D0FAFA04FF01DE
:091A2000007AFF0101000300FF40
:101A400023585032354123202020202020202020E0
:101A500023424C48454C4923463333302320202031
:101A60002020202020202020202020202020202076
:101C0000C2AFC2D353D9BF7581C043B20343FF8073
:101C1000752438752503B1C975EF0275E24043F1AB
:101C20008053A47F75D4FFD2877DFA780379E67C50
:101C300010752200752300901DD67B0675249875BB
:101C400025013087028142208708D8FBD9F9DCF7CB
:101C500081B4308708D8FBD9F9DCF781B4B189E4C5
:101C600093A3C39A6004DDC381B4DBDBB17B600264
:101C7000812B7B08E493FAA3B15CDBF87A30B15C8A
:101C8000752200752300B17BEAFCEBFDC3ED94FEE9
:101C9000400EB17B8A278B28ED30E0048A828B834B
:101CA000B17B7AC270D8C3ED94FE601350CEBD00F4
:101CB00025EC60097520007521FF0200008100A855
:101CC00027A9280809D804D90281D3B17FEA89AAB3
:101CD000F281C50D81A0C3ED94035049EDA2E092BD
:101CE000007AC5C3E5829400E583941C50902000DF
:101CF00010438F02438F0175B7A575B7F1F030001F
:101D00001FA827A9280809438F01538FFDD804D99C
:101D100002A12089AAE275B7A575B7F1F0A3A10DBC
:101D2000538FFC817C7AC1BD030CE493A3FAB140CC
:101D3000DCF8B138817C817EAA22AB23B15CEBFA5E
:101D4000EA6222752608C3E52313F523E52213F57D
:101D50002250066323A0632201D526EAB1C9B1C986
:101D600075260AEAF4200102D287300102C287B147
:101D7000C9C3134002C201D526EB22B17FEAFB2082
:101D80008702A17F308702A184752608AE24AF2583
:101D9000C3EF13FFEE13FEB1CDB1C9C3EA13308711
:101DA000024480FA30E703632201C3E52313F523DD
:101DB000E52213F52250066323A0632201D526D91C
:101DC000E52265236523F52222AE24AF250E0FDE22
:101DD000FEDFFCD20122424C48656C693437316326
:041DE000F3300601D5
:00000001FF
