:0300000002105794
:03000B000200AA46
:03002B000201854A
:03005B0002033E5F
:0300730002031075
:1000800002030406080C10182030406080040608A3
:100090000C10182030406080A0C000070F1F3F0DDB
:1000A0000D04050D050305030302C2AF306308C24A
:1000B00063857A8AD2AF32C0D0C0E0206227E525BE
:1000C0006002E473E525F4C3334009758A00D26306
:1000D000F57A01D6F58A758B00758D00D262D0E075
:1000E000D0D0D2AF32C3E526334009758A00D2633F
:1000F000F57A01F6F58AC262E526F46028306803D5
:10010000207213758B00758D00D0E0D0D0D293D2C1
:1001100097D295D2AF32D293D297D2957410D5E0C0
:10012000FDE57C4290758B00758D00D0E0D0D0D27B
:10013000AF3201C4306805206602C29301C4306842
:1001400005206602C29501C4306805206602C29788
:1001500001C4C29230680A2066077416D5E0FDC259
:100160009301C4C29430680A2066077416D5E0FD76
:10017000C29501C4C29630680A2066077416D5E09D
:10018000FDC29701C4C2AFC2AD53E6EFC0D0C0E01C
:10019000D2D3D2AFE57B6009E57860057578004180
:1001A000BB757801C2CEE52A6007207446152A2166
:1001B000F378007900E580307E01F430E50278FFC5
:1001C00053DACF207E0343DA20307E0343DA10C2B5
:1001D000D8C271E580307E01F430E50279FFC3E8D2
:1001E0009970CE306103752A18207403752A188817
:1001F0005BD27020740DE52B6004152B410343DAAC
:1002000001C2D82070024167A85B206102C2702041
:1002100074367982B70431C3E894F0400374F0F87F
:10022000E8C4540F28F87984B703024148C313C3C4
:10023000138721200802C313200A06C3C898F84177
:100240004828F8500374FFF88822E52D5406600F03
:10025000E533C313C3132522F52250037522FF781B
:1002600082B6044E852224A824C3E524956040026A
:10027000A860C3E895624002A8628825E56570021F
:1002800041B0C3E8AA659A5003E8FAE4F9EAC33337
:10029000FBE567F45B29400D2566F8E5666002150D
:1002A00066400B41B00AC3E5669A5002056678FFC6
:1002B0008826C3E52594404002D26420CF0CD0E0CC
:1002C000D0D0C2D343E610D2AD32E57B6009E579E8
:1002D00060057579006104757901C2CF7801E52A5E
:1002E0006005307402152AC3E55B94014005755E14
:1002F000006104755F00756800E55E2401F55E50DD
:1003000003755EFFD0E0D0D0C2D343E610D2AD3249
:10031000C0D0C0E0C2AF53E67FC260C3E55233F540
:1003200052E55333F553759100C3E49552F594E4C7
:100330009553F595759104D0E0D0D0D2AF32C2AFCD
:1003400053E6EFC2ADC0D0C0E0C0F0D2D3D2AFA868
:10035000FBA9FCE57B6007C3E913F9E813F8C2D8F1
:1003600030710261B053DACF207E0343DA10307E61
:100370000343DA20D271E580307E01F420E502618A
:100380008788278928A1DF53DACF207E0343DA202C
:10039000307E0343DA10C2D8C271307402A1CB7828
:1003A00000E580307E01F430E502A1CB885BA1B38B
:1003B00053DACF207E0343DA20307E0343DA10C2C3
:1003C00071206102818053DACF207E0343DA10303E
:1003D0007E0343DA20C2D8D27188568957C3E89584
:1003E00054F8E99555F9E4FB7E087A00C3E8948C4B
:1003F000E994005005755A008170C3E894C8E994E7
:10040000005008E4D2E4FB7A0A814DC3E89468E91D
:1004100094015008E4D2E3FB7A0F814DC3E894D0F5
:10042000E994025008E4D2E2FB7A1E814DC3E894BD
:10043000A0E994055008E4D2E1FB7A3C814DC3E881
:100440009498E994085008E4D2E0FB7A787E00C3DF
:10045000E89558FCE99559FD30E708ECF42401FCD7
:10046000EDF4FD755A00C3EC9AED9E5003755A01E8
:0E04700088588959A856A9578854895578028A
:10047E00A1B3C3E89527F8E99528F9307C02A19736
:10048E00307B02A197307A02A19020750281A3E9F8
:10049E00FDE8FC81C2E9C313F9E813F8307902A133
:1004AE0090E9C313F9E813F8307802A190E9C31369
:1004BE00FDE813FC206126C3EC941CED940240026F
:1004CE0081D9ED7018C3EC94C850120529C3E529E3
:1004DE00940A5002A1CB755B00D270A1CBE52960C6
:1004EE000215297400207F0C7888E6F97896B903F6
:1004FE0002789EE624FAFEE43400FFC3EC9EFCED87
:10050E009FFD9208B9031FA2085009207D18C2AFA3
:10051E00D27DA129307D0FC2AFC27D206B06120E97
:10052E00FF757D00D26BD2AFA2085016B9030DEC49
:10053E00F42401FCEDF43400FD020550780079003E
:10054E00A197B90315EC33FCED33FDC3EC940AFC13
:10055E00ED9400FD50047C007D00C3EC94FFED94FF
:10056E0000400678FF7900A197EC8573F0A4C5F0E2
:10057E00A2F733F8790040030205B378FF79000241
:10058E0005B3E9C313F9E813F8307C0EE96002787D
:10059E00FFC3E81338F8E43400F9C3E894FFE99494
:1005AE0000400278FF885BD270206102A1CB741FDD
:1005BE00F4552F4BF52FC274EB7002D274752A18B6
:1005CE00307403752A0A306102A1DF20740353DAF6
:1005DE00FE207403752B06D0F0D0E0D0D0C2D3D25B
:1005EE00AD43E61032790102061179030206117944
:1005FE000A020611791E020611796402061179C8E3
:10060E000206117817E4D5E0FDD8FAD9F6227A144D
:10061E007B780206387A107B8C0206387A0D7BB412
:10062E000206387A0B7BC80206387902B27DE4C224
:10063E0094D5E0FDC295D5E0FDD295D5E0FDD294DE
:10064E00D5E0FDC293E574D5E0FDD2937496D5E066
:10065E00FDD9D9EAF8D5E0FDD8FBDBCEC29422C392
:10066E007C007D0075F00005F0EA33FAEB33FB50A9
:10067E00F6EB13FBEA13FAC3E9FFE8FEE89AF8E992
:10068E009BF95004EFF9EEF8B3EC33FCED33FDD5E6
:10069E00F0DFEDF9ECF822E889F08A20D2D4F8A93F
:1006AE00F07B0030F70B7BFFF42401F8E9F4340003
:1006BE00F9E88520F0A4ADF0F8E98520F0A4AFF0BC
:1006CE00FEED2EF974003FFA7C04C3EA13FAE91327
:1006DE00F9E813F8DCF48BF030F70AE8F42401F8AB
:1006EE00E9F43400F9E889F0C2D4F8A9F02278824E
:1006FE00B60403020757C3E55B94014003020721CA
:10070E00852224E4F541F542F543F544F545C26DE5
:10071E000207577882E6FCD26DE522F52378387908
:10072E00C7AA3CAB3DC3EB13FBEA13FAEC14601300
:10073E00C3EB13FBEA13FAEC14146007C3EB13FBC1
:10074E00EA13FAD16D8841894222C3E5419523F817
:10075E00E5429400F9500CC3E89480E994FF4016EA
:10076E00020788C3E8947FE9940050030207887853
:10077E007F7900020788788079FF8846894722E5CD
:10078E00462543F8E5473544F9854720E43007010F
:10079E00F43545FA30E709C3EA94F040150207C66E
:1007AE00C3EA940F50030207C678FF79FF7A0F024F
:1007BE0007C6780079007AF0C3E52495605007E506
:1007CE0024600B0207E1E54720E70E0207E1E5474B
:1007DE0030E706884389448A452278A4E6FAC3E5C1
:1007EE004633F8E54733F9D1A5E930E70BC3E89472
:1007FE0080E994FF4013011BC3E8947FE9940050F5
:10080E0002011B787F7900011B788079FFE820E7D1
:10081E0015C3E52398F84009C3E894014003020884
:10082E00427801020842E8F424012523F84003022D
:10083E00084278FF88482278A5E6FAA844A945120E
:10084E0006A5E930E70CC3E89401E994FF401602CF
:10085E000877C3E894FFE99400500302087778FF05
:0E086E007900020877780179FFE920E715C3C9
:10087C00E54898F84009C3E89401400302089E78C3
:10088C000002089EE8F424012548F8400302089E63
:10089C0078FF88242278FFC264E52D54067034D288
:1008AC0064C3E53D940A4009C3E52594405002C257
:1008BC006479A1E7601DE53D601974FF853DF08406
:1008CC008537F0A4F8C5F0600278FFC3E895635053
:1008DC0002A8638862220208E52275E890227883D8
:1008EC00E6FFE5E820ECF7A8BDA9BE0571C3E571EC
:1008FC0094084052757100E9FA79A0E76044EA70F7
:10090C0007E572601B020920C3E895726010E5725E
:10091C005006600C1402092C0460F902092CE572D3
:10092C00F572C39472401B7560C0C3940440137578
:10093C006080C39404400B756040C39404400375FD
:10094C00600075BB08227982B7040CE56024105056
:10095C000274FFF560216FC3E895624002A86288BB
:10096C00258826E571B4070375BB1022743279A66D
:10097C0087F0A4C5F0A2F733F8C3E895604002A84D
:10098C00608822882488258826886322753C007517
:10099C003DF02275C820A8CCA9CD75C824C3E91395
:1009AC00F9E813F8AA38AB3988388939C3E89AF8CA
:1009BC00E99B547FF9306933AC3AAD3B8A3A8B3BB7
:1009CC00C3EB9D547FFBC3E99BF53EA838A939C303
:1009DC00E89CF8E99D547FF9C3E53D13FBE53C1316
:1009EC00FAE82AF53CE93BF53D4141AA3CAB3DAC6C
:1009FC003CAD3D7E047F02C3EB940440021E1FC33A
:100A0C00EB940840021E1FC3ED13FDEC13FCDEF744
:100A1C00C3EA9CFAEB9DFBEF6009C3E913F9E813F9
:100A2C00F8DFF7EA28FAEB39FB8A3C8B3D50067568
:100A3C003CFF753DFF3069047F0341647892E6FF0B
:100A4C00C3E535948240110FC3E53594A040010FE6
:100A5C00C3EF940640027F057E043072010EC3E59D
:100A6C003D940350060E0E3072010EC3E53D940208
:100A7C0050060E0E3072010EE53DC4540FF9E53DE3
:100A8C00C454F0F8E53CC4540F28F8C3E89EF8E9C8
:100A9C009400F94009C3E89402E9940050047802E8
:100AAC00E4F92230600241AF854E52854F53D2603B
:100ABC0043E68022E9FBE8FAC3E913FDE813FC885E
:100ACC004E894FC3EF94036037EF20E00DE82CF80C
:100ADC00E93DF9ECFAEDFB020AF9E828F8E939F9F5
:100AEC00C3E89402F8E99400F97A02E4FBC3EF94AA
:100AFC0003400D8A508B51884A894B8C4C8D4D226A
:100B0C00885089518A4A8B4B8C4C8D4D306919C356
:100B1C00E53394034012E53E33E53E13255140087E
:100B2C0020E705755000F55122E567C33350026488
:100B3C006BF567306002613FD26043E680E52D546F
:100B4C00066029A83CA93DC3E913F9E813F8C3E8EA
:100B5C0033F8E933F953E67F759100C3E498F594C3
:100B6C00E499F595759104D26043E68022D26575BF
:100B7C004000752000020B8CD2657540007520403A
:100B8C00306B02C292E52D54066002C265D2AF787A
:100B9C0001C3E53D940540137802940540087803A1
:100BAC00940540027806306902780A206009E54015
:100BBC006005D2AFD26C22D2AF0000C2AFE53DC30C
:100BCC00FB940F40027B0FEB240530730123206252
:100BDC000123F93069027982306A027941E58D137B
:100BEC00E58B13C39940C40540E59B5440B52002E6
:100BFC00814030691408C3E8940A4002618CC3E553
:100C0C003394065002618C61B7206502618CC26519
:100C1C0053E67F759100AE3CAF3DC3EE33FEEF3330
:100C2C00FFC3E49EF594E49FF595759104D260435F
:100C3C00E680618CC3E53394025002618C3065020E
:100C4C00618CD802815461B7C26C22306B27C2927E
:100C5C00C296C2947416D5E0FDC293C295C2977425
:0F0C6C0014D5E0FDD293D297D2957410D5E0FD48
:100C7B00D292D296D294E52D54066008206A0205D2
:100C8B0033020C9C306C0A20650715811581021507
:100C9B006122A850A951C3E833F8E933F953E67F31
:100CAB00759100C3E498F594E499F59575910485D5
:100CBB004A52854B53D26043E680D2AF2278003044
:100CCB0064053065027801E53575F007A4F9E5F0A8
:100CDB0028F5F0E9A2F013A2F113A2F213F535C334
:100CEB0094785003753578C3E53595364008D26650
:100CFB00D293D297D295306002A101854C52854D8B
:100D0B0053D26043E68022206B25207D11C2AF7544
:100D1B003F02C294D292D2AF759F40020EFCC2AF7B
:100D2B00753F02C294D296D2AF759F40020EFC75EE
:100D3B009F43020EFC206BF7307241207D1FC2AF28
:100D4B00753F03900163757C10D297C29630620495
:100D5B00C295A161D294D2AF759F41C1FCC2AF7550
:100D6B003F03900163757C10D293C292306204C230
:100D7B0095A180D294D2AF759F43C1FC207D16C242
:100D8B00AF753F0390013ED297306202C295D2AF4E
:100D9B00759F41C1FCC2AF753F0390013ED29330AA
:100DAB006202C295D2AF759F43C1FC206B25207D9B
:100DBB0011C2AF753F04C292D296D2AF759F430258
:100DCB000EFCC2AF753F04C296D292D2AF759F4153
:100DDB00020EFC759F43020EFC206BF73072412014
:100DEB007D1FC2AF753F05900152757C04D295C231
:100DFB0094306204C293C105D292D2AF759F40C1A9
:100E0B00FCC2AF753F05900174757C40D295C294BE
:100E1B00306204C297C124D296D2AF759F40C1FCF9
:100E2B00207D16C2AF753F05900134D2953062021A
:100E3B00C293D2AF759F40C1FCC2AF753F05900105
:100E4B0048D2953062ECC297D2AF759F40C1FC205F
:100E5B006B25207D11C2AF753F06C296D294D2AFDF
:100E6B00759F41020EFCC2AF753F06C292D294D25F
:100E7B00AF759F43020EFC759F43020EFC206BF770
:100E8B00307241207D1FC2AF753F01900174757C9C
:100E9B0040D293C292306204C297C1A9D296D2AF0C
:100EAB00759F43C1FCC2AF753F01900152757C0425
:100EBB00D297C296306204C293C1C8D292D2AF7598
:100ECB009F41C1FC207D16C2AF753F01900148D2F6
:100EDB0093306202C297D2AF759F43C1FCC2AF750C
:100EEB003F01900134D297306202C293D2AF759F0B
:100EFB0041C26622900132757C00D293D297D29573
:100F0B00C292C296C294C262227880760908760990
:100F1B000876040876FF0876030876FF08760B0838
:100F2B007601087601087601788C76010876FF0841
:100F3B0076FF0876FF0876FF0876FF0876030876BB
:100F4B00FF0876FF0876FF0876250876D008762806
:100F5B000876500876040876FF08760208760008B3
:100F6B00767A0876FF08760108760108760008760F
:100F7B0003227887E6FFC272BF0302D2727888E63B
:100F8B00C394036008C27DE630E102D27DC27E7855
:100F9B0089E630E102D27EC3EF94026008758E01C0
:100FAB00D273020FB5758E00C273227880E614904F
:100FBB0000809378A4F67881E6149000809378A54E
:100FCB00F67886E61490008D9378A6F6789CE675F5
:100FDB0036FF75370CB402067536A075370AB403A5
:100FEB000675368275370578A3E61490009A93F54B
:100FFB0065D1FF22227896E6FA7897E6FB307F04DC
:10100B007A007BFFC3EB9AFCC3948250027C8275FF
:10101B0073000573EC8573F0A4C3E5F0948040F284
:10102B0022D27F11001206027A007B007C1012057F
:10103B00F8E55B2AFA74003BFBDCF37C04C3EB138F
:10104B00FBEA13FADCF7FEC27F110022E5EF20E684
:10105B00037520000520903FFFE520146006901FCC
:0D106B00FF1460009304600375EF12C2D300
:1010780053D9BF7581C043FF801205F375EF024352
:10108800B203E521F46009E5B3240420E702F5B3CF
:10109800120EFF7580FF75A40075F13075D4DF75E9
:1010A80090AB75A5FC75F2FC75D50175A60175E2C6
:1010B80041120F141215AA78988674C2AF12060C42
:1010C80012061C12060212062312060212062A1221
:1010D8000602C2AFE4F8F6D8FD78FA79FA30850747
:1010E800D9FBD8F7021C00756701120F141215AA54
:1010F800120F7D120FB6120FFF1100789886741226
:101108000EFF75B68075A900757B007588507589C6
:101118001275C82475910475D84075A82275B8024F
:1011280075E690759B80759D0075D10E75BC5875D8
:10113800BB0875BA1175E8801205F3D2AF1208E240
:1011480043DA01C2D8C27112060C753001D2617B34
:10115800037A0CE55A70077A0CDB030210DA1206E0
:10116800022070030210DAC270E55BC3940240E10A
:10117800E52F541F855D5CF55DB55CD5DAD5C26198
:1011880053DACF207E0343DA20307E0343DA10C2DD
:10119800D8C27178A2E67008D274E52F54E0F52F12
:1011A800C275752900120607307409C3E529940A27
:1011B8004002D2751205F878023074027800C3E54F
:1011C8005B9840F0C2AF12061C12061C12061CD215
:1011D800AF12060C7549007888E6B4030241BB12C9
:1011E80005F8788CE6C3940150030212BBE530C3BE
:1011F800940150030212BB207435C3E55B94FF5081
:10120800030212BBC2AF120631D2AF120607C3E502
:101218005B940150EFC2AF12061C1205FD12061CAA
:10122800D2AF120607C3E55B94FF40E90217527F6D
:1012380002D27F1100120607C2AFC27F1100AE5B57
:10124800C3E55B947FD2AF40741205F3C2AF1206B8
:1012580031D2AFDFDC112CC3EE94057897F6120675
:101268000C1215EC1216D57F0AD27F110012060750
:10127800C2AFC27F1100AE5BC3E55B947FD2AF50B3
:10128800E61205F3C2AF12061C1205FD12061CD2A7
:10129800AFDFD6112CEE24057896F612060C12153F
:1012A800EC1217041206071100C3E55B94FF40F423
:1012B800021752C3E55B95494003855B491206074F
:1012C80078017988E7B403027805C3E55B984002A2
:1012D80021DFC2AF120631120631120631D2AF1227
:1012E800060C753000E4F531F5320531E531F4705E
:1012F800390532789AE67819146012783214600D3C
:10130800787D14600878FA146003753200C3E532FA
:1013180098401715327531B478998674C2AF1206A1
:1013280031D2AF789886741206071205FDE52A7047
:101338000530740201DA78012074027806C3E55B8F
:101348009840A77888E6C394036003120607E52A45
:1013580070030210DAC2AF120EFFE4F522F523F58E
:1013680024F525F526F566D2AF7885E6C333F5640E
:10137800E4F541F542F543F544F545F571F52CF5ED
:101388002DF53575710875BB101205F31208E6E5E1
:10139800E820ECFBA8BDA9BEE97001F88872120824
:1013A800EA75710875BB107887E6FE7602120F7D24
:1013B8007887EEF6C2AF7560FF12097885226085DE
:1013C8002261852262D2AF7522017524017525013B
:1013D800752601855F6875690175B69075A90375ED
:1013E8007B01D268D269753300120E5A120E881228
:1013F800099F12099F12099812099F120AC012091F
:1014080098120B3502141CC2AF120F7DD2AF757142
:101418000075BB08120B84120C9D120C571206FCA7
:10142800120CC8120D1212099F120AAF120AC0122A
:101438000B35120B79120C9D120C57306D031207E5
:10144800581208A1120CC8120D4012099F120AAFB7
:10145800120AC0120B35120B84120C9D120C573055
:0E1468006D0312078D120CC8120DB612099FEB
:10147600120AAF120AC0120B35120B79120C9D120A
:101486000C57306D031207E8120CC8120DE412094E
:101496009F120AAF120AC0120B35120B84120C9D52
:1014A600120C57306D03120845120CC8120E5A1250
:1014B600099F120AAF120AC0120B351208E6120B68
:1014C60079120C9D120C57120CC8120E881208EADB
:1014D60012099F120AAF120AC0120B353069382062
:1014E6006B35856360856361855F68756901791809
:1014F6007A0CC3E533994012C269D26A8A3485638D
:10150600608563627561FF02151DC3E55B9401404A
:101516000302141C021561306A1B206B18E5341493
:101526007004C26A810FF534C3E55B94014003027F
:10153600141C021561C3E55E9405501F307404E562
:101546002A601878F0306B0B057DC3E57D949650C4
:101556000A7850C3E53D985002811C306B09D2923F
:10156600D296D294120602C2AF120EFF7887E6FE1A
:101576007602120F7D7887EEF6E4F522F523F52440
:10158600F525F526F564C26875B68075A900757BE4
:1015960000D2AF1205F3120EFF307406E52A700270
:1015A60001DA41ED901A0D782012162EE520B45579
:1015B6000CA312162EE520B4AA030215CC120F14A2
:1015C6001215EC0215EB901A0378807B0A12162E80
:1015D600A308DBF9901A0F788C7B1812162EA30835
:1015E600DBF9901A2722C2AF12166D121647901A0F
:1015F60000740E121633A37400121633A374141259
:101606001633901A0378807B0A121632A308DBF988
:10161600901A0F788C7B18121632A308DBF9121673
:101626008012165E901A2722E493F622E6438F0173
:10163600538FFD75EF0275B7A575B7F1F0538FFEA1
:1016460022438F02438F0175EF0275B7A575B7F177
:10165600901A0DF0538FFC22901A0D7455D13390C9
:101666001A0E74AAD133227A3079D07820901A4093
:10167600D12EE520F709A3DAF7227A3079D0901A2D
:1016860040E7D13309A3DAF922AB75A876BB01028C
:101696007980BB02027981BB03027982BB0402799D
:1016A60084BB05027986BB06027992BB070279875D
:1016B600BB080279A3BB0902799CBB0A027988BBE5
:1016C6000B027989E8F7227C0512060CDCFB22C2A4
:1016D600AF12061C12062312062A1206311205FD47
:1016E60012061C12062312062A1206311205FD12D4
:1016F600061C12062312062A120631D2AF22C2AFE8
:1017060012063112062A12062312061C1205FD12B3
:10171600063112062A12062312061C1205FD1206AF
:101726003112062A12062312061CD2AF22AE75AF5C
:1017360076C2AF12061C12061C12061C1205FDDE2E
:10174600F21206311205FDDFF8D2AF22D1D5D1CD86
:10175600D1CD757501757601757700F1337C05ADD0
:101766005B12060CC3ED955B70F5C3E55B94014017
:101776000AC3E55B94FF403202178ED18FB1ECD1DC
:10178600D5C2AF75EF12D1CDDCD50577C3E5779419
:1017960003500280C6D1CD0576E5751490009F935F
:1017A600F808C3E57698500280AED1CDD1CD057547
:1017B600C3E575940C5002809C120F14B1ECC2AFB5
:0517C60075EF12D1CD0A
:101A00000E0014090904FF03FF0B01010155AA018F
:101A1000FFFFFFFFFF03FFFFFF25D0285004FF0259
:081A2000007AFF01010003FF41
:101A40002358526F746F72313041232020202020A0
:101A500023424C48454C492346333930232020202B
:101A60002020202020202020202020202020202076
:101C0000C2AFC2D353D9BF7581C043B20343FF8073
:101C1000752438752503B1C975EF0275E24043F1AB
:101C20002053A4DF75D400D2857DFA780379E67C51
:101C300010752200752300901DD67B0675249875BB
:101C400025013085028142208508D8FBD9F9DCF7CF
:101C500081B4308508D8FBD9F9DCF781B4B189E4C7
:101C600093A3C39A6004DDC381B4DBDBB17B600264
:101C7000812B7B08E493FAA3B15CDBF87A30B15C8A
:101C8000752200752300B17BEAFCEBFDC3ED94FEE9
:101C9000400EB17B8A278B28ED30E0048A828B834B
:101CA000B17B7AC270D8C3ED94FE601350CEBD00F4
:101CB00025EC60097520007521FF0200008100A855
:101CC00027A9280809D804D90281D3B17FEA89AAB3
:101CD000F281C50D81A0C3ED94035049EDA2E092BD
:101CE000007AC5C3E5829400E583941C50902000DF
:101CF00010438F02438F0175B7A575B7F1F030001F
:101D00001FA827A9280809438F01538FFDD804D99C
:101D100002A12089AAE275B7A575B7F1F0A3A10DBC
:101D2000538FFC817C7AC1BD030CE493A3FAB140CC
:101D3000DCF8B138817C817EAA22AB23B15CEBFA5E
:101D4000EA6222752608C3E52313F523E52213F57D
:101D50002250066323A0632201D526EAB1C9B1C986
:101D600075260AEAF4200102D285300102C285B14B
:101D7000C9C3134002C201D526EB22B17FEAFB2082
:101D80008502A17F308502A184752608AE24AF2587
:101D9000C3EF13FFEE13FEB1CDB1C9C3EA13308513
:101DA000024480FA30E703632201C3E52313F523DD
:101DB000E52213F52250066323A0632201D526D91C
:101DC000E52265236523F52222AE24AF250E0FDE22
:101DD000FEDFFCD20122424C48656C693437316326
:041DE000F390060175
:00000001FF
