:020000040000FA
:060000000219FD02074396
:03000B000203BE2F
:0300130002075091
:03001B000205AD2E
:03002B0002040AC2
:03005B0002076237
:0300730002043F45
:1000A0000406080C10182030406080A0C0C2AFC009
:1000B000829000B57301D501E601FA210E211F21BE
:1000C000332144215B216F2186219421A821B9216C
:1000D000D321E421FBD082D2AFA6F008A67208A6F5
:1000E00070088570F022D082D2AFA6F008A6700802
:1000F000A67108A670088570F022D082D2AFE57193
:10010000B5F002E572F608A672088570F022D0827A
:10011000D2AFA6F008A67008A672088570F022D0AB
:1001200082D2AFA6F008A67108A67008A67008854E
:1001300070F022D082D2AFA6F008A67108A671088E
:100140008570F022D082D2AFE571B5F002E572F68B
:1001500008A67008A671088570F022D082D2AFA6DA
:10016000F008A67008A67008A671088570F022D065
:1001700082D2AFE571B5F002E572F608A67108A665
:1001800070088570F022D082D2AFA6F008A672085F
:100190008571F022D082D2AFE571B5F002E572F63A
:1001A00008A671088571F022D082D2AFA6F008A609
:1001B0007008A671088571F022D082D2AFE571B5C2
:1001C000F002E572F608A67008A67008A670088509
:1001D00070F022D082D2AFA6F008A67108A67008EF
:1001E0008571F022D082D2AFE571B5F002E572F6EA
:1001F00008A67008A670088571F022D082D2AFA63A
:10020000F008A67008A67008A670088571F022E5AF
:100210002AA24F33F529752A0F8075E52AA24F339C
:10022000A24E33F529752A0D8066E52AA24F33A226
:100230004E33A24D33F529752A0B8054E52954F02D
:10024000C254452AC4F529752A098044E529A250DB
:1002500013A25113A25213F529752A078032E529FA
:10026000A25013A25113F529752A058023E529A26E
:100270005013F529752A03801720579320569C2088
:1002800055A82054B72053C42052D32051DFE5296C
:10029000C46529652AF4F57322C22E78E9302D024F
:1002A00078D18570F0E57323541E11AD85F0738805
:1002B00074228573F0A874E52923541E11AD85F0CE
:1002C000738874228573F0A874E529C423541E1121
:1002D000AD85F0738874228573F0A874E52A2354E1
:1002E0001E11ADA6F008E878E8302D0278D0F6C2ED
:1002F000AF202B05B22DD2AF22D22ED2AF22E52CC9
:10030000B4F00DE52B70097529FF752AFF5179228C
:10031000E52BA26013F529A261132529F529E52C07
:1003200003C2E7F52A03C2E7352AF52A517922C22A
:1003300085C0D0C0E0740FD5E0FDD0E0D0D0D2852C
:10034000C0D0C0E07405D5E0FDD0E0D0D022C28599
:10035000C0D0C0E07405D5E0FDD0E0D0D0D285C0DB
:10036000D0C0E0740FD5E0FDD0E0D0D022C0D0C026
:10037000E0C0F0C2A8C28CD28575A420C0D0C0E075
:100380007402D5E0FDD0E0D0D075F00830E70471FC
:100390002F8002714E23D5F0F375A400D285C0D012
:1003A000C0E07405D5E0FDD0E0D0D0D28C758A00D5
:1003B000758C00C289D2A8D0F0D0E0D0D022202BFA
:1003C0000132C0D0C0E075D01118E8B56F33208578
:1003D0000BD28585708A08D0E0D0D03275A400D2C7
:1003E00085C22B758E0C7589AAC2A9C289C28B756C
:1003F0008A00758C00758200D2A8D2AAD0E0D0D035
:1004000032B285868AD0E0D0D032C0D0C0E0C2CF30
:10041000053DE5626009E5616005756100801B7559
:100420006101E53160021531C3E54E6005754F008D
:100430008008054FE54F7002154FD0E0D0D032C292
:10044000AF53E67F7592FA7593FFC21053917FD236
:10045000AF32758200752600752700752800780078
:1004600075F000E0C0E0C395F0D0F0C3956640029F
:10047000D23B0582E0C0E0C395F0D0F0C395664062
:1004800002D23A0582E0C0E0C395F0D0F0C3956691
:100490004002D2390582E0C0E0C395F0D0F0C395A8
:1004A000664002D2380582E0C0E0C395F0D0F0C3C8
:1004B00095664002D2370582E0C0E0C395F0D0F0E7
:1004C000C395664002D2360582E0C0E0C395F0D005
:1004D000F0C395664002D2350582E0C0E0C395F0D6
:1004E000D0F0C395664002D2340582E0C0E0C395E7
:1004F000F0D0F0C395664002D2330582E0C0E0C37D
:1005000095F0D0F0C395664002D2320582E0C0E09B
:10051000C395F0D0F0C395664002D2310582E0C0A9
:10052000E0C395F0D0F0C395664002D2300582E07A
:10053000C0E0C395F0D0F0C395664002D243058277
:10054000E0C0E0C395F0D0F0C395664002D242050A
:1005500082E0C0E0C395F0D0F0C395664002D2417E
:100560000582E0C0E0C395F0D0F0C395664002D2AA
:10057000400582E526C465266527302701F46528F5
:10058000540F22900000D2A8D2AA0530E5307002A4
:100590001530C3E5309432400A754E00D0F0D0E0FB
:1005A000D0D03275310AD0F0D0E0D0D032C2AFC254
:1005B000A8C28EC0D0C0E0C0F075D010C2CAA8CC0E
:1005C000A9CDD2CAD2AF758A00C3E89569F8E9957A
:1005D0006AF9E970AEE8956B40A9956C50A5E58283
:1005E000B410A09152709C85266D85276ED22C2068
:1005F000270E900000D2A8D2AAD0F0D0E0D0D032FE
:10060000302E04B22DC22E756FD0302D03756FE8D9
:1006100078D0302D0278E8E6C28D758A55758E093E
:100620007589A2D22BD2A9D28575A42075D011F8D4
:10063000D0F0D0E0D0D032048322007EBDFCFCC2DA
:100640002CC2AFA96DE56DC39460FAE56ED2AF948C
:1006500000FB50177B007A00E96010C313500CB503
:100660004C04054D8005F54C754D00302A27C3EA32
:1006700094D0F8EB9407F9400BE8FAE9FB20250940
:10068000D225C189302502C225202902B225C3EA1C
:1006900033FAEB33FBEB2B3B3BF9C3EB13FBEA13D6
:1006A000FAEA29FAEB3400FB30E3047AFF7BFFE53A
:1006B000235403601D201A1AE55D33F9EB7007C35C
:1006C000E99A4002E9FAE5385403D1372AFAEB34C3
:1006D00000FBC3EA33C4540FF8EB33C454F048F8BA
:1006E0007005EA60027801E53060021530D220889A
:1006F0004EE54E6003754F00AC5BC3E55B955C4017
:1007000002AC5CC3EC954E5008EC75F008A4FAAB53
:10071000F08A54535407EB131392D5A2E7F4540113
:10072000F9EA13A2D513F4F8C3E89432FAE9940075
:10073000FB50047A007B00885089518A528B537594
:10074000310A22C0E0E58AF0058285688BD0E0326C
:10075000C2AA85688BD28EC2CA85CC6985CD6AD281
:10076000CA3253E6EF327901801479038010790A96
:10077000800C791E80087964800479C8800078171D
:10078000E4D5E0FDE8C0E0E9C0E0302C02D13FD084
:10079000E0F9D0E0F8D8E9D9E52278FF20182879E7
:1007A000A1E76023E52C601F74FF852CF084853B56
:1007B000F030190375F005A4F8C5F0600278FFC3A6
:1007C000E8955D5002A85D885C22C3E52B94A0E506
:1007D0002C9400E55C5003148001046002F55C2257
:1007E00075E89022055EC3E55E9408405330EDF451
:1007F000A8BDA9BE755E00E9FA79A0E76041EA707C
:1008000006E55F6018800CC3E8955F600EE55F50F9
:1008100005600A1480070460FA8002E55FF55FC393
:100820009565401B755BC0C394044013755B80C322
:100830009404400B755B40C394044003755B002235
:10084000E55B2410500274FFF55B22743279A687B1
:10085000F0A4C5F0A2F733F55D22752B00752CF0DE
:10086000F18522C2AFC2CAA8CCA9CDAA3D30CF0122
:100870000AD2CAD2AFC3EA13FAE913F9E813F8AB04
:100880003EAC3F883E893FC3E89BF8E99C20180AAC
:10089000547FF9301C0221808040AD408A40F9EA43
:1008A0009D547FFA600678FF79FF8013AE41AF4216
:1008B0008B418C42A83EA93FC3E89EF8E99FF9C34B
:1008C000E52C13FBE52B13FAE82AF52BE93BF52C75
:1008D0005006752BFF752CFF804DAA2BAB2CAC2B33
:1008E000AD2C7E047F02C3EB9404400D1E1FC3EBAE
:1008F000940840052019021E1FC3ED13FDEC13FCE4
:10090000DEF7C3EA9CFAEB9DFBEF6009C3E913F93C
:10091000E813F8DFF7EA28FAEB39FB8A2B8B2C5027
:10092000067BFF8B2B8B2CC3EB94025002D21C3026
:1009300018047F03801C7892E6FFC3E53994824057
:10094000110FC3E53994A040010FC3EF9406400294
:100950007F057E02E52CC4540FF9E52CC454F0F851
:10096000E52BC4540F28F8C3E89EFAE99400FB4035
:100970000AC3EA9401EB94004001227A01E4FB22CD
:10098000AA2BAB2CEBC4FEEAC4540F4EFCC3EA9C6A
:10099000FAEB9400FBC3E813C313F8EA28FAEB342C
:1009A00000FB8A2B8B2CC3EB94024002C21C780202
:1009B000EBC4FE7B00EAC4540F4EFAC3EA98FA4037
:1009C00005C3940150027A017892E6FF22301002AA
:1009D00021CD854892854993D21043E68022C3E415
:1009E0009AF8E49BF9C3E833F8E933F9201C6FE87F
:1009F000FAE9FBD3E913FDE813FC88488949C3EF02
:100A000094036037EF20E00CE82CF8E93DF9ECFAAC
:100A1000EDFB8013E828F8E939F9C3E82401F8E987
:100A20003400F97AFF7BFFC3EF9403400E8A4A8BB0
:100A30004B884489458C468D478057884A894B8A24
:100A4000448B458C468D47301812754AF0754BFF24
:100A50007546F07547FF7548F07549FF8034E8FA30
:100A6000D3E813FC8848C3EF94036020EF20E0072D
:100A7000E82CF8ECFA417EE8282401F87AFFC3EF6D
:100A8000940340088A4A88448C468006884A8A44EF
:100A90008C463010024192753602D21043E680E552
:100AA000235403602DA82BA92CC3E913F9E813F8EC
:100AB000301804E92440F9C2AF53E67F759100C3B2
:100AC000E498F594E499F595759104D21043E68085
:100AD000D2AF22D211754300752000301B03752060
:100AE0004041F1D211754300752040301B03752041
:100AF0000078017901201C28E52354036002C2110B
:100B00007914E52CC313700104F8C39414400278DF
:100B100014301804781B791BC3E833F8C3E933F9A0
:100B2000201010E543600C301803D53604D2126152
:100B3000A5519A0543E59BF45440B52002618F30DE
:100B4000180908C3E899400118612020110A08C358
:100B5000E899400241F16120C21153E67F7591008E
:100B6000301C117594007595F0759104D21043E610
:100B700080020AF1E52C7EFFC3334009C3334005F0
:100B8000C3334001FEC3E49E759400F5956169C3CB
:100B9000E5359401500241F130110241F1D8026172
:100BA000A36120C212C2AF53E67F759100854A94BB
:100BB000854B95759104854492854593D21043E603
:100BC00080D2AFE523540360072019020535801059
:100BD00030120D201B0A201107158115810214FA0D
:100BE0002278003011027801E53975F007A4F9E5A3
:100BF000F028F5F0E9A2F013A2F113A2F213F539EF
:100C0000C394785003753978C3E539953A4009C2E1
:100C100090C292C29475D53F912B301002811A85F3
:100C20004692854793D21043E68022302C0A120662
:100C30003FE52C54F870012230270C202B09D57584
:100C4000077575051202D722E575B404041202FE79
:100C500022B4030412029922B402041202B2221234
:100C600002C422E55092E075D8008552F98553FA06
:100C700053F77FF5FB8551FC8552E98553EA43F72D
:100C800080F5FB8551FC8552E98553EA75D84022F1
:100C9000E55692E075D8008558F98559FA53F77FE3
:100CA000F5FB8557FC8558E98559EA43F780F5FB44
:100CB0008557FC8558E98559EA75D84022D213D565
:100CC0005A04055AC213E555455412153FF55553BC
:100CD00055FEA2E020130491638002919022202807
:100CE00013C2AFD293D29575D50FC291D2AF91BD39
:100CF000759F0322C2AFD291D29375D53CC295D2D3
:100D0000AF91BD759F0322202813C2AFD293D29515
:100D100075D533C291D2AF91BD759F1322C2AFD2A8
:100D200091D29375D533C295D2AF91BD759F2322D1
:100D3000202813C2AFD291D29375D533C295D2AFCA
:100D400091BD759F2322C2AFD293D29575D533C280
:100D500091D2AF91BD759F1322202813C2AFD291BB
:100D6000D29375D53CC295D2AF91BD759F0322C277
:100D7000AFD293D29575D50FC291D2AF91BD759F69
:100D80000322202813C2AFD291D29575D53CC293CD
:100D9000D2AF91BD759F1322C2AFD291D29575D5B6
:100DA0000FC293D2AF91BD759F2322202813C2AFEB
:100DB000D291D29575D50FC293D2AF91BD759F23B5
:100DC00022C2AFD291D29575D53CC293D2AF91BD1C
:100DD000759F13227A147B7880127A107B8C800C9A
:100DE0007A0D7BB480067A0B7BC88000E560D5E085
:100DF00001227902E4D293D5E0FDD292D5E0FDC282
:100E000092D5E0FDC293D5E0FDE920E002D290301A
:100E1000E002D294E560D5E0FDE920E002C2903026
:100E2000E002C2947496D5E0FDD9C9EAF8D5E0FD98
:100E3000D8FBDBB8D29322C290C292C294D291D294
:100E400093D29575D53F22788076FF0876FF087695
:100E5000FF0876FF0876FF0876FF0876090876FF18
:100E6000087601788C76010876FF0876FF0876FF11
:100E70000876FF0876FF0876030876FF0876FF08F5
:100E800076FF0876250876D008762808765008760A
:100E9000040876FF0876020876FF08767A0876FF5F
:100EA0000876070876010876FF0876FF08760008BE
:100EB0007600227888E6C39403D22A5002C22AC25E
:100EC00028E630E102D228A22892297886E614C2C8
:100ED000AFC083C0829000A093D082D083D2AF787D
:100EE000A6F67886E6F53BC394025003753B02787C
:100EF0009CE6753AFFB40203753AA0B40303753A51
:100F00008278A0E6F8600674282409D8FCF565D13B
:100F1000372278A5E6F954037000E9540C7000E913
:100F200054307000E954C0700022756880756620E6
:100F3000756B6C756C147570FF7571EC7572DD22D4
:100F4000756800756640756BD9756C287570EC75A1
:100F500071CB7572AB22741E208515C0D0C0E074B1
:100F60000AD5E0FDD0E0D0D02085EBD5E0EDC3225E
:100F7000C0D0C0E0740AD5E0FDD0E0D0D03085D636
:100F8000D5E0EDD3223027211202FE12029912027F
:100F9000B21202C41202D71202FE1202991202B257
:100FA0001202C41202D775750522756300756400BC
:100FB0007597DE7597AD7581AF43FF8075EF067548
:100FC000A900D1377580FF75F1F075A4007580FF19
:100FD00075D4FF75902A75F23F75A53F75902A75F7
:100FE000D53F75A60175E34075E202D137E478007C
:100FF000F6D8FDD14712168178988660753201C205
:10100000AF12077A120DD4120772120DDA1207729C
:10101000120DE0120772120F12C2AF7563007564F1
:101020000078FA79FA308516D9FBD8F775A91375C7
:10103000A71075C10075A700756200021C0075A796
:101040001075C13075A70075A903756201120EB342
:1010500078988660120E3775C80475910475D8406B
:1010600075D90875F781759E03755520755A0175F8
:1010700058007559007556FF7557FF75960075DA5B
:101080004275DB42759B80759D0075D10C75BCB9AE
:1010900075BB1075E88075B201C22C1207667538F1
:1010A00000C22012077AD224120F56922775E4D577
:1010B00030270375E45DC22BC22CC22DC22E75757C
:1010C00005758851758E0C7589AA758C00758D0013
:1010D000758E0C75E68075B80375A828120F40123E
:1010E000085AD2AF75300A120776754C00754D005C
:1010F000C3E530940A4002011912076A2020020158
:1011000019C2AF120DD4120DD4120DD4D2AF1207E2
:101110007A756300756400120776E54E600280F10F
:10112000C2AF120DE6120DE6120DE6D2AF12077A2B
:1011300075320012085AE4F533F5340533E533F41B
:10114000703F0534789AE67819146012783214608A
:101150000D787D14600878FA146003753400C3E5D7
:101160003498401D120E3712076615347533007817
:10117000998660C2AF120DE6D2AF789886601207EA
:101180007612076EE53170020119302C0312063F0A
:10119000C3E54E9401500AC3E54C94015016021168
:1011A0003B120776E5317003021019754C00754D3E
:1011B00000021366C3E54C94017017C2AF120E37DC
:1011C00078998660120DD478988660D2AF1207762F
:1011D0006158C3E54C94027017C2AF120E3778996C
:1011E0008660120DDA78988660D2AF120776615861
:1011F000C3E54C94037017C2AF120E37789986601E
:10120000120DE078988660D2AF1207766158C3E578
:101210004C94047017C2AF120E3778998660120D85
:10122000E678988660D2AF1207766158C3E54C9491
:10123000057017C2AF120E3778998660120DE678E6
:10124000988660D2AF1207766158C3E54C94077058
:1012500019C3E54D94065002218A7401302A0274A4
:10126000037888F6C228C2296158C3E54C940870F7
:1012700019C3E54D94065002218A7402302A027483
:10128000047888F6D228D2296158C3E54C940970B5
:1012900017C3E54D94065002218A302A0BC3788883
:1012A000E69402F6C22A6158C3E54C940A7016C34C
:1012B000E54D94065002218A202A0A7888E6240205
:1012C000F6D22A6158C3E54C9414702DC3E54D94B1
:1012D000065002218A7400C2AFC083C082901A0BEC
:1012E00093D082D083D2AF7888F613C228C2294027
:1012F00002D2284002D229805FC3E54C9415704089
:10130000C3E54D940640577400C2AFC083C08290BD
:101310001A0B93D082D083D2AFF8B801027402B80E
:1013200002027401B803027404B8040274037888DA
:10133000F613C228C2294002D2284002D2298018BE
:10134000C3E54C940C70117563A57564F1C3E54D4C
:101350009406400AD1C8D2AF754C00754D00756334
:1013600000756400218A120E37755E0075220075C3
:101370002300753900755E081207661207E030ED2C
:10138000FDA8BDA9BEE97001F8885F1207E4755E8B
:1013900008C2AF12084B855D5B855D5CD2AF302A19
:1013A00007C228302502D228D218753500302C0308
:1013B00012063F120D82120DAB12085A1208631268
:1013C00009CD1209DE12085A1208631209CD12095A
:1013D000DE12085A120AE3120BE1120CDE12086345
:1013E0001209CD1209DE120AD3201C0312079A300B
:1013F0001C031207CA120BE1120D0712086312092F
:10140000CD1209DE120AE3120BE1120D301208634D
:101410001209CD1209DE120AD3120BE1120D591274
:1014200008631209CD1209DE120AE3120BE1120D54
:10143000821208631209CD1209DE1207E0120AD3E4
:10144000120BE1120DAB1207E41208631209CD1260
:1014500009DE301827855D5B79187A0CC3E535996C
:10146000400EC218D2198A37855D5B855D5C800CA1
:10147000C3E54E940140030213D4A10230191F208A
:101480001B1CE537147006C219D21A61D4F5372037
:101490002A07C3E54E940140030213D480647538D3
:1014A00000202A0F78FA79A4E760027803C3E54F99
:1014B00098504FE531604B302A172028052025072A
:1014C000800F302502800A201B07D21B855D5B81BF
:1014D0001678F0301B05855D5B7820C3E52C9850AD
:1014E000030213D4301B1BC21BC228302502D22892
:1014F000D219753712855D5B61D40538E54E6002FF
:10150000A105753800C2AF120E37752300D2AF1295
:101510000776120E3775220078A4E66006C291C2E3
:1015200093C295C3E5389404400201192133832204
:10153000010203050C080409050C080D09050C83BC
:101540002201020304050607093830282018100874
:10155000110938302820181019110938302820189E
:10156000211911093830282029211911093830286A
:101570003129211911093830393129211911093836
:1015800083220102030405060708090A0B0C0D0E4D
:101590000F11F0E0D0C0B0A09080706050403020BB
:1015A000102111F0E0D0C0B0A090807060504030A9
:1015B00020312111F0E0D0C0B0A090807060504088
:1015C0003041312111F0E0D0C0B0A0908070605067
:1015D000405141312111F0E0D0C0B0A09080706046
:1015E00050615141312111F0E0D0C0B0A090807025
:1015F0006071615141312111F0E0D0C0B0A0908004
:10160000708171615141312111F0E0D0C0B0A090E2
:1016100080918171615141312111F0E0D0C0B0A0C1
:1016200090A1918171615141312111F0E0D0C0B0A0
:10163000A0B1A1918171615141312111F0E0D0C07F
:10164000B0C1B1A1918171615141312111F0E0D05E
:10165000C0D1C1B1A1918171615141312111F0E03D
:10166000D0E1D1C1B1A1918171615141312111F01C
:10167000E0F1E1D1C1B1A1918171615141312111FB
:10168000F0901A0D7820F101E520B4550AA3F1017C
:10169000E520B4AA0280137563A57564F1120E47A4
:1016A000D1C8756300756400801D901A0378807B33
:1016B0000AF101A308DBFA901A0F788C7B1AF1016A
:1016C000A308DBFA901A2922C2AFF144F121901A43
:1016D000007410F106A37450F106A37421F1069072
:1016E0001A0378807B0AF105A308DBFA901A0F78B9
:1016F0008C7B1AF105A308DBFAF157F135901A2912
:1017000022E493F622E6438F01538FFDFFC3E58366
:10171000941C400122EF8563B78564B7F0538FFEB8
:1017200022438F02438F018563B78564B7901A0DFA
:10173000F0538FFC22901A0D7455F106901A0E7416
:10174000AAF106227A3079D07820901A40F101E58A
:1017500020F709A3DAF7227A3079D0901A40E7F11E
:101760000609A3DAF9227C0512077ADCFB22C2AF54
:10177000120DD4120DDA120DE0120DE612076E12E0
:101780000DD4120DDA120DE0120DE612076E120DD5
:10179000D4120DDA120DE0120DE6D2AF22C2AF1252
:1017A0000DE6120DE0120DDA120DD412076E120DB5
:1017B000E6120DE0120DDA120DD412076E120DE6CC
:0C17C000120DE0120DDA120DD4D2AF228F
:1019FD00020FAA105021FFFFFFFFFFFF09FF01FF9C
:101A0D0055AA01FFFFFFFFFF03FFFFFF25D0285061
:0D1A1D0004FF02FF7AFF0701FFFF0000FF3A
:101A4000234F5F485F353023202020202020202096
:101A500023424C48454C492445464D3842323123B7
:101A60002020202020202020202020202020202076
:101C0000C2AFC2D37597DE7597AD7581C075A90057
:101C100043FF80752438752503B1DB7529A5752A26
:101C2000F143F12053A4DFD28575D4FF75E3407DE5
:101C3000FA780379E67C10752200752300901DE880
:101C40007B0675249875250130850281482085081A
:101C5000D8FBD9F9DCF781BA308508D8FBD9F9DC93
:101C6000F781BAB19BE493A3C39A6004DDC381BA40
:101C7000DBDBB18D600281317B08E493FAA3B16EA6
:101C8000DBF87A30B16E752200752300B18DEAFC65
:101C9000EBFDC3ED94FE400EB18D8A278B28ED300D
:101CA000E0048A828B83B18D7AC270D8C3ED94FE32
:101CB000601950CEBD0029EC600F7520007521FF22
:101CC000752900752A000200008100A827A92808AC
:101CD00009D804D90281DDB191EAF281D10D81A642
:101CE000C3ED94035051EDA2E092007AC5C3E582A2
:101CF0009400E583941C508C200010438F02438F86
:101D0000018529B7852AB7F0300027A827A9280818
:101D100009438F01538FFDD804D902A132C3E58353
:101D2000941C4003A3A117E28529B7852AB7F0A325
:101D3000A117538FFC81827AC1BD030CE493A3FAEF
:101D4000B152DCF8B14A81828184AA22AB23B16E00
:101D5000EBFAEA6222752608C3E52313F523E52290
:101D600013F52250066323A0632201D526EAB1DBD6
:101D7000B1DB75260AEAF4200102D285300102C2E5
:101D800085B1DBC3134002C201D526EB22B191EA33
:101D9000FB208502A191308502A196752608AE240C
:101DA000AF25C3EF13FFEE13FEB1DFB1DBC3EA13C0
:101DB0003085024480FA30E703632201C3E5231330
:101DC000F523E52213F52250066323A0632201D5F3
:101DD00026D9E52265236523F52222AE24AF250E00
:101DE0000FDEFEDFFCD20122424C48656C693437BD
:061DF0003164E8B20601B7
:00000001FF
