:020000040000FA
:060000000219FD02023BA3
:03000B0002008D63
:0300130002045391
:03001B0002009050
:03002B00020205C9
:03005B0002045844
:030073000202285E
:100080000406080C10182030406080A0C0054032E3
:10009000C2AFC2A8C28EC0D0D2D3C0E0C0F0D2AF2F
:1000A000758A00E582B410177C007B007A0079081D
:1000B000900000A868E5647004C3E813F801C890D4
:1000C00000007B007A006103E0FDC39CC39840EF11
:1000D00098EB33FB0582E0FCC39DC39840E198EBAD
:1000E00033FB0582E0FDC39CC39840D398EB33FB00
:1000F0000582E0FCC39DC39840C598EB33FB0582A5
:10010000E0FDC39CC39840B798EB33FB0582E0FC4D
:10011000C39DC39840A998EB33FB0582E0FDC39CC7
:10012000C398409B98EB33FB0582E0FCC39DC398CA
:10013000408D98EB33FB058221439000007B007AD1
:10014000006103E0FDC39CC39840EF98EA33FA05D1
:1001500082E0FCC39DC39840E198EA33FA0582E04F
:10016000FDC39CC39840D398EA33FA0582E0FCC3F0
:100170009DC39840C598EA33FA0582E0FDC39CC34D
:100180009840B798EA33FA0582E0FCC39DC39840D3
:10019000A998EA33FA0582E0FDC39CC398409B9876
:1001A000EA33FA0582E0FCC39DC398408D98EA3398
:1001B000FA0582EBC46B6A54F0F9EAC454F0C399AF
:1001C000703AEBF4C454F0F9EAF4C4540E49FAEB73
:1001D000F4C4540FFBEB2B3BF9EA24A0FAEB340FE9
:1001E000FB50067B007A007900C3EB13FBEA13FA9D
:1001F000EA29FAEB3400FB900000611D9000007BBF
:10020000007A006103C0D0C0E0C2CF0541E5646060
:1002100009E56360057563004123756301E52360AB
:10022000021523D0E0D0D032C2AF53E67F7592FAE8
:100230007593FFC22053917FD2AF3230340CC0E0AF
:10024000E58A85698BF0A3D0E032C2AFC2A8C0D0E6
:10025000C0E0C0F0D2D3D2AF5388EFA88AA98CAA4D
:1002600040308D010A758A00758C00754000438806
:1002700010E564700AC3E833F8E933F9EA33FA3079
:10028000331FE8C4540FFAE9C454F04AFAC3132ADE
:10029000FAC3E833F8E933F9E82AFAE93406FB410E
:1002A000F430320FC3E833E933FAE82AFAE93400CC
:1002B000FB41F4303115E875F056A4AAF0E975F069
:1002C00056A42AFAC5F03400FB41F4C3EA13FAE954
:1002D00013F9E813F8E875F056A4AAF0E975F0569A
:1002E000A42AFAC5F03400C313FBEA13FAC3EB13D4
:1002F000FBEA13FAC3EB94125009C3EA9434EB946B
:1003000007501A0522E52270021522C3E522940A3D
:10031000500281427552007A007B008110E5226014
:100320000215223036067C007D086137AC31AD32D3
:10033000303A04AC33AD34C3EA9CFAEB9DFB92082F
:10034000AE5EAF5F303A425007203509D235615575
:10035000303502C235303504AE60AF61203902B2AB
:1003600035C3EA33FAEB33FBA208500AEAF424015E
:10037000FAEBF43400FBC3EA9450FAEB9400FB5020
:100380001478007A007B006195A208500878007A02
:10039000007B0061F4E5255403601B202A18E55B0F
:1003A00033F9EB7007C3E99A4002E9FAE53CC4333C
:1003B0002AFAEB3400FBEA8EF0A4F9AAF0EB8EF0F7
:1003C000A42AFAC5F03400FBC3EB13FDEA13F8C30B
:1003D000ED13FDE813F80FEF146004C3E833F8C31E
:1003E000E933EA33FAEB33FBDFEDEB30E30678FF7A
:1003F0007AFF7B078852D230C3E559FC955A4002F8
:10040000AC5AC3EC95525008EC75F008A4FAABF066
:10041000EAF4F8EBF45407F9C3E89464FAE99400B9
:10042000FB50047A007B00885489558A568B577597
:10043000230AD0F0D0E0D0D053F7DF43F74043E6B3
:10044000103275230AD0F0D0E0D0D0D2A8303402D8
:10045000D2AA32C2AAD28E32C2AFC0D0C0E0D2D3AA
:10046000A8F9E55830E20AE5FA20E24C20E149819A
:1004700079E5FA30E24220E13FC3E55513F8E5544F
:1004800013F5FB88FCC3E55713F8E55613F5E98827
:10049000EA85555853F7BFD2A8303402D2AA53E6A2
:1004A000EFC3E5529401400575530081B8E553242C
:1004B00001F55350037553FF53F7DFD0E0D0D0D28E
:1004C000AF327901801479038010790A800C791E8B
:1004D00080087964800479C880007817E4D5E0FD4D
:1004E000D8FAD9F6227A147B7880127A107B8C8025
:1004F0000C7A0D7BB480067A0B7BC88000E562D550
:10050000E001227902E4C291D5E0FDD290D5E0FD70
:10051000C290D5E0FDD291D5E0FDE920E002D2867F
:1005200030E002D292E562D5E0FDE920E002C28629
:1005300030E002C2927496D5E0FDD9C9EAF8D5E060
:10054000FDD8FBDBB8C2912278FF20282879A1E7EB
:100550006023E548601F74FF8548F084853FF030D4
:10056000290375F005A4F8C5F0600278FFC3E8958B
:100570005B5002A85B885A22C3E54794A0E54894E3
:1005800000E55A500314A189046002F55A2275E867
:100590009022055CC3E55C9408405330EDF4A8BD9F
:1005A000A9BE755C00E9FA79A0E76041EA7006E54A
:1005B0005D6018800CC3E8955D600EE55D500560D8
:1005C0000A1480070460FA8002E55DF55DC3956753
:1005D000401B7559C0C394044013755980C39404DB
:1005E000400B755940C39404400375590022E559E6
:1005F0002410500274FFF55922743279A687F0A4B2
:10060000C5F0A2F733F8C3E895594002A859885BB2
:10061000227547007548F022C2AF75C800A8CCA962
:10062000CDAA4130CF010A75C804D2AFC3EA13FA8C
:10063000E913F9E813F8AB42AC4388428943C3E8B5
:100640009BF8E99C20280A547FF9302C02E137C13D
:1006500091AD448A44F9EA9D547FFA600678FF79A7
:10066000FFC176AE45AF468B458C46A842A943C331
:10067000E89EF8E99FF9C3E54813FBE54713FAE85C
:100680002AF547E93BF54850067547FF7548FFC115
:10069000DEAA47AB48AC47AD487E047F02C3EB946B
:1006A00004400D1E1FC3EB940840052029021E1FA5
:1006B000C3ED13FDEC13FCDEF7C3EA9CFAEB9DFBE4
:1006C000EF6009C3E913F9E813F8DFF7EA28FAEB5A
:1006D00039FB8A478B4850067BFF8B478B48C3EB1F
:1006E00094025002D22C3028047F03E1097892E66C
:1006F000FFC3E53D948240110FC3E53D94A0400146
:100700000FC3EF940640027F057E02E548C4540FF4
:10071000F9E548C454F0F8E547C4540F28F8C3E895
:100720009EFAE99400FB4009C3EA9401EB9400505F
:10073000047A01E4FBE183AA47AB48EBC4FEEAC4B8
:10074000540F4EFCC3EA9CFAEB9400FBC3E813C3BE
:1007500013F8EA28FAEB3400FB8A478B48C3EB9482
:10076000024002C22C7802EBC4FE7B00EAC4540FA4
:100770004EFAC3EA98FA4005C3940150027A017810
:1007800092E6FF302002E183854E92854F93D2207E
:1007900043E680C3E49AF8E49BF9C3E833F8E9330D
:1007A000F9302C03020818E8FAE9FBD3E913FDE855
:1007B00013FC884E894FC3EF94036038EF20E00CA0
:1007C000E82CF8E93DF9ECFAEDFB8013E828F8E9AC
:1007D00039F9C3E82401F8E93400F97AFF7BFFC353
:1007E000EF9403400F8A508B51884A894B8C4C8D73
:1007F0004D02084D885089518A4A8B4B8C4C8D4D47
:100800003028127550F07551FF754CF0754DFF751D
:100810004EF0754FFF02084DE8FAD3E813FC884EFE
:10082000C3EF94036021EF20E007E82CF8ECFA0115
:1008300038E8282401F87AFFC3EF940340098A506E
:10084000884A8C4C02084D88508A4A8C4C302002D1
:10085000014D753A02D22043E680E5255403602D10
:10086000A847A948C3E913F9E813F8302804E92494
:1008700040F9C2AF53E67F759100C3E498F594E464
:1008800099F595759104D22043E680D2AF22D2210A
:10089000754900752000302B0375204001ACD22132
:1008A000754900752040302B0375200078017901CF
:1008B000202C20E52554036002C2217914E548C3A9
:1008C00013700104F8C3941440027814302804789B
:1008D0001B791BC3E833F8C3E933F9202010E5493D
:1008E000600C302803D53A04D223215F1155054905
:1008F000E59B5440B52002214930280908C3E899F6
:1009000040011801DB20210A08C3E899400201AC2C
:1009100001DBC22153E67F759100302C11759400E4
:100920007595F0759104D22043E6800208ACE54845
:100930007EFFC3334009C3334005C3334001FEC3C8
:10094000E49E759400F5952123C3E5399401500286
:1009500001AC30210201ACD802215D01DBC223C20F
:10096000AF53E67F7591008550948551957591043C
:10097000854A92854B93D22043E680D2AFE5255439
:100980000360072029020539801030230D202B0A2F
:10099000202107158115810211462278003021029D
:1009A0007801E53D75F007A4F9E5F028F5F0E9A236
:1009B000F013A2F113A2F213F53DC394785003751E
:1009C0003D78C3E53D953E400ED222C286C290C21C
:1009D0009275D4FF75D50F30200221D7854C9285B2
:1009E0004D93D22043E68022203813C2AFC291D269
:1009F0008775D4FF75D503D2AF759F4241DCC2AF76
:100A0000C291D29375D43F75D50FD2AF759F424135
:100A1000DC203813C2AFC29275D4FF75D50CD287D3
:100A2000D2AF759F5241DCC2AFC28675D4FF75D577
:100A30000CD293D2AF759F3241DC203813C2AFC2C3
:100A400087D29375D4FF75D50CD2AF759F3241DC38
:100A5000C2AFC293D28775D4FF75D50CD2AF759F44
:100A6000528079203813C2AFC29075D43F75D50F2C
:100A7000D293D2AF759F428063C2AFC29075D4FF4C
:100A800075D503D287D2AF759F428050203813C2EC
:100A9000AFC293D29175D43F75D50FD2AF759F5227
:100AA000803AC2AFC287D29175D4FF75D503D2AF59
:100AB000759F328027203813C2AFC28675D4FF7568
:100AC000D503D291D2AF759F328011C2AFC2927559
:100AD000D43F75D50FD291D2AF759F52C22222C298
:100AE00086C290C292C287C291C29375D4FF75D557
:100AF0000F22788076FF0876FF0876FF0876FF08D9
:100B000076FF0876FF0876090876FF087601788C6C
:100B100076010876FF0876FF0876FF0876FF0876EC
:100B2000FF0876030876FF0876FF0876FF0876252B
:100B30000876D00876280876500876040876FF08EC
:100B400076020876FF08767A0876FF087607087638
:100B5000010876FF0876FF08760008760022FA750D
:100B6000F00CA4ABF0EAC333F8740133F9E8C333F3
:100B7000F8E933F9E8C32BF8E93400F9E8C333F8AE
:100B8000E933F9227888E6C39403D23A5002C23A94
:100B9000C238E630E102D238A23892397886E614BB
:100BA0009000809378A6F67886E6F53FC3940250CD
:100BB00003753F02789CE6753EFFB40203753EA0C4
:100BC000B40303753E8278A0E6F860067428240911
:100BD000D8FCF5677896E6715E88318932789EE6B2
:100BE000715E883389347897E6715E88358936512D
:100BF000DF223036117A007B007CFF7D007E009181
:100C0000598B5F8A5E22303A227896E6FA7B00782A
:100C10009EE6FC7D00C3EA33FAEB33FBC3EC33FC06
:100C2000ED33FD7E0A91598B618A607896303A02E5
:100C3000789EE6FA7B007897E6FC7D007E00303AED
:100C400010C3EA33FAEB33FBC3EC33FCED33FD7E28
:100C50000A91598B5F8A5E2222C3EC9EFCED9400C0
:100C6000FDC3EC9AFCED9BFDC3EC9423ED94005086
:100C7000047C237D00C3EC94FFED940140047CFFD1
:100C80007D017BFF0B7A000AEA7009C3EC33FCEDAF
:100C900033FD8184EC8AF0A4AEF0ED8AF0A42E94AA
:100CA0007C40E4EAF460DD22D23671F21204CE1206
:100CB00004CE7A007B007C101204C6E5522AFA7436
:100CC000003BFBDCF37C04C3EB13FBEA13FADCF719
:100CD000FFEB60027FFFC23671F22278A5E6F9547D
:100CE000037000E9540C7000E954307000E954C0FE
:100CF0007000227565007566007597DE7597AD7595
:100D000081C043FF8075EF0675A90051DF75803FF4
:100D100075F1C375A4C075803F75D4FF75900075DB
:100D2000F20F75A50F75900075D50F75A60175E3C7
:100D30004075E20251DFE4F8F6D8FD51F212118B52
:100D400078988662753001C2AF1204D61204E5129B
:100D500004CE1204EB1204CE1204F11204CE91DB85
:100D6000C2AF75650075660078FA79FA308007D9E8
:100D7000FBD8F7021C00718471F27898866251DF0B
:100D800075A91375A71075C10075A7007564007566
:100D9000E400758811758E0475890975C80475910C
:100DA0000475D84075D90875F782759E037596024B
:100DB00075DA4275DB4275A82375E69075B8017542
:100DC0009B80759D0075D10C75BCB975BB1075E81D
:100DD0008075B2011204C2D2AF753C00C230120459
:100DE000D6C231C232C233C2347522001204D2C319
:100DF000E522940A5002C18CD2317522001204D22D
:100E0000C3E522940A5002C18CC231D2327522004D
:100E10001204D2C3E522940A5002C18C75E4807595
:100E20008851758E017589AA758C00758D00C2A9CF
:100E3000D2ABD2AA756980756814C232D2347522D9
:100E4000001204D2756810C3E522940A403E758EE4
:100E50000C7569007568287522001204D275682027
:100E6000C3E522940A402575E400758811758E0447
:100E7000758909D2A9C2ABC2AAC234D23375220085
:100E80001204D2C3E522940A4002A1601204C620D3
:100E90003003020D60C2AF1204E51204E51204E54E
:100EA000D2AF1204D6303A02E14B1204C6788CE677
:100EB000C394015002E14BE530C394015002E14B71
:100EC0007565A57566F17F02D23671F21204D2C241
:100ED000AFC23671F2C3E552947FD2AF406D1204B7
:100EE000C2C2AF1204F7D2AFDFDE91A8C3EF78978A
:100EF000F61204D61212787F0AD23671F21204D298
:100F0000C2AFC23671F2C3E552947FD2AF50E8123D
:100F100004C2C2AF1204E51204CA1204E5D2AFDF64
:100F2000D891A8EF24037896F6F87997E7C394232D
:100F30004003985006E824237897F61204D612113D
:100F4000D21212A71204D271F2A160756500756603
:100F5000001204D27801303A027805C3E552984075
:100F600002C1A5C2AF1204F71204F71204F7D2AF00
:100F70001204D6753000E4F537F5380537E537F457
:100F8000703E0538789AE678191460127832146049
:100F90000D787D14600878FA146003753800C3E595
:100FA0003898401C51DF1204C21538753700789903
:100FB0008662C2AF1204F7D2AF789886621204D26A
:100FC0001204CAE5237002A1607801C3E55298407B
:100FD000AA1204D2E5237003020D60C2AF51DFE410
:100FE000D2AFE4F55CF524F525F53D755C081204F7
:100FF000C212058E30EDFDA8BDA9BEE97001F888CA
:101000005D120592755C08C2AF7559FF1205F9852E
:101010005B59855B5AD2AF75A71075C13075A700B3
:1010200075A903756401303A07C238303502D238E9
:10103000D228753900120A8C120AB512061112064E
:101040001812061112061812061112089E12099B98
:101050001209E812061812088E202C0312054830D7
:101060002C0312057812099B120A11120618120895
:101070009E12099B120A3A12061812088E12099B38
:10108000120A6312061812089E12099B120A8C1289
:10109000061812058E12088E12099B120AB5120547
:1010A00092120618302827855B5979187A0CC3E507
:1010B0003999400EC228D2298A3B855B59855B5AF3
:1010C000800CC3E5529401400302104A214E30299E
:1010D0001C202B19E53B147006C229D22A014AF5BF
:1010E0003BC3E5529401400302104A8061753C0005
:1010F00078FA79A4E760027803C3E55398504FE586
:1011000023604B303A17203805203507800F3035E3
:1011100002800A202B07D22B855B59017A78F030A8
:101120002B05855B597820C3E54898500302104A87
:10113000302B1BC22BC238303502D238D229753B36
:1011400012855B59014A053CE55260022151753C0C
:1011500000C2AF120ADF75240075250075A913754A
:10116000A71075C10075A700756400D2AF1204D234
:10117000120ADF78A4E66006D287D291D293C3E543
:101180003C94044003020D60020F76901A0D782003
:10119000510BE520B4550AA3510BE520B4AA0280F7
:1011A000137565A57566F1120AF231D27565007581
:1011B0006600801D901A0378807B0A510BA308DB20
:1011C000FA901A0F788C7B1A510BA308DBFA901A4D
:1011D0002922C2AF514E512B901A0074105110A306
:1011E000742A5110A374215110901A0378807B0A3D
:1011F000510FA308DBFA901A0F788C7B1A510FA3BA
:1012000008DBFA5161513F901A2922E493F622E655
:10121000438F01538FFDFFC3E583941C400122EFF0
:101220008565B78566B7F0538FFE22438F02438FE3
:10123000018565B78566B7901A0DF0538FFC229033
:101240001A0D74555110901A0E74AA5110227A304A
:1012500079D07820901A40510BE520F709A3DAF7EE
:10126000227A3079D0901A40E7511009A3DAF92296
:101270007C051204D6DCFB22C2AF1204E51204EB9B
:101280001204F11204F71204CA1204E51204EB125C
:1012900004F11204F71204CA1204E51204EB12045A
:1012A000F11204F7D2AF22C2AF1204F71204F11206
:1012B00004EB1204E51204CA1204F71204F112043A
:1012C000EB1204E51204CA1204F71204F11204EB43
:0612D0001204E5D2AF227A
:1019FD00020CF3102A21FFFFFFFFFFFF09FF01FF7C
:101A0D0055AA01FFFFFFFFFF03FFFFFF25D0285061
:0D1A1D0004FF02FF7AFF0701FFFF0000FF3A
:101A400023435F485F3530232020202020202020A2
:101A500023424C48454C492445464D3842323123B7
:101A60002020202020202020202020202020202076
:101C0000C2AFC2D37597DE7597AD7581C075A90057
:101C100043FF80752438752503B1DB7529A5752A26
:101C2000F143F10153A4FED28075D4FF75E3407DEA
:101C3000FA780379E67C10752200752300901DE880
:101C40007B06752498752501308002814820800824
:101C5000D8FBD9F9DCF781BA308008D8FBD9F9DC98
:101C6000F781BAB19BE493A3C39A6004DDC381BA40
:101C7000DBDBB18D600281317B08E493FAA3B16EA6
:101C8000DBF87A30B16E752200752300B18DEAFC65
:101C9000EBFDC3ED94FE400EB18D8A278B28ED300D
:101CA000E0048A828B83B18D7AC270D8C3ED94FE32
:101CB000601950CEBD0029EC600F7520007521FF22
:101CC000752900752A000200008100A827A92808AC
:101CD00009D804D90281DDB191EAF281D10D81A642
:101CE000C3ED94035051EDA2E092007AC5C3E582A2
:101CF0009400E583941C508C200010438F02438F86
:101D0000018529B7852AB7F0300027A827A9280818
:101D100009438F01538FFDD804D902A132C3E58353
:101D2000941C4003A3A117E28529B7852AB7F0A325
:101D3000A117538FFC81827AC1BD030CE493A3FAEF
:101D4000B152DCF8B14A81828184AA22AB23B16E00
:101D5000EBFAEA6222752608C3E52313F523E52290
:101D600013F52250066323A0632201D526EAB1DBD6
:101D7000B1DB75260AEAF4200102D280300102C2EA
:101D800080B1DBC3134002C201D526EB22B191EA38
:101D9000FB208002A191308002A196752608AE2416
:101DA000AF25C3EF13FFEE13FEB1DFB1DBC3EA13C0
:101DB0003080024480FA30E703632201C3E5231335
:101DC000F523E52213F52250066323A0632201D5F3
:101DD00026D9E52265236523F52222AE24AF250E00
:101DE0000FDEFEDFFCD20122424C48656C693437BD
:061DF0003164E8B20601B7
:00000001FF
