:020000040000FA
:060000000219FD020703D6
:03000B0002036687
:03001300020710D1
:03001B0002046B71
:03002B000203B617
:03005B0002071F7A
:030073000203EB9A
:1000C0000406080C10182030406080A0C09000D1B9
:1000D0007301F101FE210E211E212B213B2148211C
:1000E0005B216B217E2188219821A521BB21C8217C
:1000F000DBA6F008A67108A66F08856FF022A6F0AF
:1001000008A66F08A67008A66F08856FF022E57034
:10011000B5F002E571F608A67108856FF022A6F029
:1001200008A66F08A67108856FF022A6F008A670D1
:1001300008A66F08A66F08856FF022A6F008A670C3
:1001400008A67008856FF022E570B5F002E571F63B
:1001500008A66F08A67008856FF022A6F008A66FA3
:1001600008A66F08A67008856FF022E570B5F0024A
:10017000E571F608A67008A66F08856FF022A6F054
:1001800008A671088570F022E570B5F002E571F6F9
:1001900008A670088570F022A6F008A66F08A67061
:1001A000088570F022E570B5F002E571F608A66FDB
:1001B00008A66F08A66F08856FF022A6F008A67043
:1001C00008A66F088570F022E570B5F002E571F6BB
:1001D00008A66F08A66F088570F022A6F008A66F23
:1001E00008A66F08A66F088570F022C285C0D0C02F
:1001F000E0740FD5E0FDD0E0D0D0D285C0D0C0E013
:100200007405D5E0FDD0E0D0D022C285C0D0C0E0DA
:100210007405D5E0FDD0E0D0D0D285C0D0C0E07468
:100220000FD5E0FDD0E0D0D022C0D0C0E0C0F0C2F9
:10023000A8C28CD28575A420C0D0C0E07405D5E0DA
:10024000FDD0E0D0D075F00830E70431EB800251EA
:100250000A23D5F0F375A400D285C0D0C0E0741491
:10026000D5E0FDD0E0D0D0D28C758A00758C00C26C
:1002700089D2A8D0F0D0E0D0D022C0D0C0E0C0F069
:10028000D28575A420C0D0C0E07405D5E0FDD0E0D3
:10029000D0D075F00830E70431EB8002510A23D545
:1002A000F0F375A400D285C0D0C0E07414D5E0FD91
:1002B000D0E0D0D0D0F0D0E0D0D022E529A2473392
:1002C000F52875290F8075E529A24733A24633F535
:1002D0002875290D8066E529A24733A24633A24539
:1002E00033F52875290B8054E52854F0C24C452974
:1002F000C4F5287529098044E528A24813A24913AA
:10030000A24A13F5287529078032E528A24813A2CE
:100310004913F5287529058023E528A24813F528F7
:100320007529038017204F93204E9C204DA8204C08
:10033000B7204BC4204AD32049DFE528C46528658F
:1003400029F478D0856FF023541E11CDE52823546D
:100350001E11CDE528C423541E11CDE52923541EBA
:1003600011CDA6F008220540203B0132C0D0C0E0EC
:1003700075D01018B8CF3620850BD285856F8A08C6
:10038000D0E0D0D03275A400D285C23B758E0C75FA
:1003900089AAC2A9C289C28B758A00758C00758230
:1003A00000D2A8D2AA43E610D0E0D0D032B28586DF
:1003B0008AD0E0D0D032C0D0C0E0C2CF0541E566DF
:1003C0006009E5656005756500801B756501E523BD
:1003D00060021523C3E55460057555008008055576
:1003E000E55570021555D0E0D0D032C2AF53E67F4C
:1003F0007592FA7593FFC22053917FD2AF32C0D06D
:1004000075D010E52B7004E52A601EE52AA258136A
:10041000F528A259132528F528E52B03C2E7F5296D
:1004200003C2E73529F52980067528FF7529FF7174
:1004300025758AFF758E097589A2C28DD23BD2A916
:10044000D28575A420D0D0320522E5227002152273
:10045000C3E52294325002815E7554008161752398
:100460000AD0F0D0E0D0D043E61032C2AFC2A853D9
:10047000E6EFC28E856B8BC0D0C0E0C0F075D008AF
:10048000C2CAA8CCA9CDD2CAD2AF758A00C3E8959A
:100490006CF8E9956DF9C3E913F9E813F8E56660BE
:1004A00007C3E913F9E813F8E97025E8956E4020D1
:1004B000956E501CE582B410177C007B007A0079A1
:1004C00008900000A86AE5667004C3E813F881D9B3
:1004D000900000D2A8D2AA8148E0FDC39CC39840F6
:1004E000EF98EB33FB0582E0FCC39DC39840E19895
:1004F000EB33FB0582E0FDC39CC39840D398EB33FC
:10050000FB0582E0FCC39DC39840C598EB33FB0517
:1005100082E0FDC39CC39840B798EB33FB0582E0B3
:10052000FCC39DC39840A998EB33FB0582E0FDC353
:100530009CC398409B98EB33FB0582E0FCC39DC3B2
:1005400098408D98EB33FB0582A154900000D2A80F
:10055000D2AA8148E0FDC39CC39840EF98EA33FAE1
:100560000582E0FCC39DC39840E198EA33FA058216
:10057000E0FDC39CC39840D398EA33FA0582E0FCBF
:10058000C39DC39840C598EA33FA0582E0FDC39C39
:10059000C39840B798EA33FA0582E0FCC39DC3983C
:1005A00040A998EA33FA0582E0FDC39CC398409BBA
:1005B00098EA33FA0582E0FCC39DC398408D98EA1F
:1005C00033FA0582EBC46B6A54F0F9EAC4303701A0
:1005D000F454F0C3996009900000D2A8D2AA8148CF
:1005E00030370271FEEBF4C454F0F9EAF4C4540F4E
:1005F00049FAEBF4C4540FFBC3EAF99460FAEB94A4
:1006000000FB5020C3E97B007A0079006016C31319
:100610005006F9C39552600AE9F552755300790006
:1006200080020553303A27C3EA94D0F8EB9407F9D7
:10063000400BE8FAE9FB203509D235C142303502DA
:10064000C235203902B235C3EA33FAEB33FBEB2B68
:100650003B3BF9C3EB13FBEA13FAEA29FAEB34004C
:10066000FB30E3047AFF7BFFE5255403601B202A5F
:1006700018E55D33F9EB7007C3E99A4002E9FAE542
:100680003CC4332AFAEB3400FBC3EA33C4540FF8FA
:10069000EB33C454F048F87005EA60027801D522C3
:1006A0000205228854D230E86003755500C3E55B2B
:1006B000FC955C4002AC5CC3EC95545008EC75F0C2
:1006C00008A4FAABF0EAF4F8EBF45407F9C3E894A1
:1006D0003CFAE99400FB50047A007B008856895765
:1006E0008A588B5975230A53F7DF43F7408000205F
:1006F000370A900000D2A8D2AA43E610D0F0D0E08A
:10070000D0D032C0E0856B8BE58AF00582D0E03234
:10071000C2AAD28EC2CA85CC6C85CD6DD2CA32C275
:10072000AFC0D0C0E075D008A8F9E55A30E20AE5BC
:10073000FA20E22E20E12B8008E5FA30E22420E1C5
:1007400021C3E55713F8E55613F5FB88FCC3E559BB
:1007500013F8E55813F5E988EA85575A53F7BF535C
:10076000E6EF53F7DFD0E0D0D0D2AF32790180147A
:1007700079038010790A800C791E800879648004DE
:1007800079C880007817E4D5E0FDD8FAD9F6227848
:10079000FF20282879A1E76023E548601F74FF85C2
:1007A00048F084853FF030290375F005A4F8C5F0C2
:1007B000600278FFC3E8955D5002A85D885C22C3A3
:1007C000E54794A0E5489400E55C500314E1D004AB
:1007D0006002F55C2275E89022055EC3E55E940830
:1007E000405330EDF4A8BDA9BE755E00E9FA79A0CA
:1007F000E76041EA7006E55F6018800CC3E8955F2A
:10080000600EE55F5005600A1480070460FA8002FC
:10081000E55FF55FC39569401B755BC0C3940440F9
:1008200013755B80C39404400B755B40C394044014
:1008300003755B0022E55B2410500274FFF55B2218
:10084000743279A687F0A4C5F0A2F733F55D22755E
:1008500047007548F022C2AFC2CAA8CCA9CDAA41B0
:1008600030CF010AD2CAD2AFC3EA13FAE913F9E8CA
:1008700013F8AB42AC4388428943C3E89BF8E99C38
:1008800020280A547FF9302C0221748040AD448A1C
:1008900044F9EA9D547FFA600678FF79FF8013AE31
:1008A00045AF468B458C46A842A943C3E89EF8E96C
:1008B0009FF9C3E54813FBE54713FAE82AF547E932
:1008C0003BF54850087547FF7548FF804DAA47AB78
:1008D00048AC47AD487E047F02C3EB9404400D1E34
:1008E0001FC3EB940840052029021E1FC3ED13FD12
:1008F000EC13FCDEF7C3EA9CFAEB9DFBEF6009C347
:10090000E913F9E813F8DFF7EA28FAEB39FB8A472D
:100910008B4850067BFF8B478B48C3EB94025002F9
:10092000D22C3028047F03801C7892E6FFC3E53D7B
:10093000948240110FC3E53D94A040010FC3EF9492
:100940000640027F057E02E548C4540FF9E548C41D
:1009500054F0F8E547C4540F28F8C3E89EFAE99428
:1009600000FB4009C3EA9401EB940050047A01E4CF
:10097000FB0209C0AA47AB48EBC4FEEAC4540F4EC1
:10098000FCC3EA9CFAEB9400FBC3E813C313F8EA38
:1009900028FAEB3400FB8A478B48C3EB94024002F1
:1009A000C22C7802EBC4FE7B00EAC4540F4EFAC39B
:1009B000EA98FA4005C3940150027A017892E6FF62
:1009C000C2AF85472A85482BD2AF30200221C0858F
:1009D0004E92854F93D22043E680C3E49AF8E49B7D
:1009E000F9C3E833F8E933F9302C03020A5FE8FA77
:1009F000E9FBD3E913FDE813FC884E894FC3EF945C
:100A0000036038EF20E00CE82CF8E93DF9ECFAED52
:100A1000FB8013E828F8E939F9C3E82401F8E93440
:100A200000F97AFF7BFFC3EF9403400F8A508B518C
:100A3000884A894B8C4C8D4D020A94885089518A82
:100A40004A8B4B8C4C8D4D3028127550F07551FFF0
:100A5000754CF0754DFF754EF0754FFF020A94E826
:100A6000FAD3E813FC884EC3EF94036021EF20E033
:100A700007E82CF8ECFA417FE8282401F87AFFC354
:100A8000EF940340098A50884A8C4C020A9488509B
:100A90008A4A8C4C3020024194753A02D22043E6B7
:100AA00080E5255403602DA847A948C3E913F9E858
:100AB00013F8302804E92440F9C2AF53E67F75915A
:100AC00000C3E498F594E499F595759104D2204318
:100AD000E680D2AF22D221754900752000302B0369
:100AE00075204041F3D221754900752040302B0319
:100AF00075200078017901202C20E525540360023F
:100B0000C2217914E548C313700104F8C39414405A
:100B1000027814302804781B791BC3E833F8C3E942
:100B200033F9202010E549600C302803D53A04D26F
:100B30002261A6519C0549E59B5440B52002619075
:100B400030280908C3E899400118612220210A08C9
:100B5000C3E899400241F36122C22153E67F7591B7
:100B600000302C117594007595F0759104D22043D6
:100B7000E680020AF3E5487EFFC3334009C33340F1
:100B800005C3334001FEC3E49E759400F595616A88
:100B9000C3E5399401500241F330210241F3D802F8
:100BA00061A46122C222C2AF53E67F7591008550D5
:100BB00094855195759104854A92854B93D2204333
:100BC000E680D2AFE525540360072029020539806D
:100BD0001030220D202B0A202107158115810215C6
:100BE000BA2278003021027801E53D75F007A4F9BA
:100BF000E5F028F5F0E9A2F013A2F113A2F213F543
:100C00003DC394785003753D78C3E53D953E40095A
:100C1000C290C292C29475D53F3020028119854C92
:100C200092854D93D22043E68022203810C2AFC275
:100C300093D29175D50FD2AF759F2081FAC2AFC202
:100C400093D29575D53CD2AF759F2081FA2038108C
:100C5000C2AFC29475D533D291D2AF759F3081FAAD
:100C6000C2AFC29075D533D295D2AF759F1081FABD
:100C7000203810C2AFC291D29575D533D2AF759FCF
:100C8000108077C2AFC295D29175D533D2AF759F20
:100C9000308067203810C2AFC29275D53CD295D251
:100CA000AF759F208054C2AFC29275D50FD291D23A
:100CB000AF759F208044203810C2AFC295D2937583
:100CC000D53CD2AF759F308031C2AFC291D29375FF
:100CD000D50FD2AF759F108021203810C2AFC290BF
:100CE00075D50FD293D2AF759F10800EC2AFC2944C
:100CF00075D53CD293D2AF759F30227A147B788021
:100D0000127A107B8C800C7A0D7BB480067A0B7B78
:100D1000C88000E564D5E001227902E4C293D5E001
:100D2000FDD292D5E0FDC292D5E0FDD293D5E0FD93
:100D3000E920E002D29030E002D294E564D5E0FDF3
:100D4000E920E002C29030E002C2947496D5E0FD42
:100D5000D9C9EAF8D5E0FDD8FBDBB8C29322C2902E
:100D6000C292C294C291C293C29575D53F22788037
:100D700076FF0876FF0876FF0876FF0876FF08768C
:100D8000FF0876090876FF087601788C76010876E8
:100D9000FF0876FF0876FF0876FF0876FF087603DF
:100DA0000876FF0876FF0876FF0876250876D008D3
:100DB00076280876500876040876FF0876020876CA
:100DC000FF08767A0876FF0876070876010876FF2E
:100DD0000876FF08760008760022FA75F00CA4ABBE
:100DE000F0EAC333F8740133F9E8C333F8E933F9AF
:100DF000E8C32BF8E93400F9E8C333F8E933F92202
:100E00007888E6C39403D23A5002C23AC238E63038
:100E1000E102D238A23892397886E6149000C09365
:100E200078A6F67886E6F53FC394025003753F0234
:100E3000789CE6753EFFB40203753EA0B4030375CB
:100E40003E8278A0E6F8600674282409D8FCF5698B
:100E50007896E6B1DA88318932789EE6B1DA88335D
:100E600089347897E6B1DA88358936B15E22303632
:100E7000117A007B007CFF7D007E00D1D48B618ADB
:100E80006022303A227896E6FA7B00789EE6FC7D76
:100E900000C3EA33FAEB33FBC3EC33FCED33FD7EE6
:100EA0000AD1D48B638A627896303A02789EE6FA49
:100EB0007B007897E6FC7D007E00303A10C3EA3371
:100EC000FAEB33FBC3EC33FCED33FD7E0AD1D48B5C
:100ED000618A6022C3EC9EFCED9400FDC3EC9AFC99
:100EE000ED9BFDC3EC9423ED940050047C237D0026
:100EF000C3EC94FFED940140047CFF7D017BFF0B6C
:100F00007A000AEA7009C3EC33FCED33FD80F0ECA3
:100F10008AF0A4AEF0ED8AF0A42E947C40E4EAF4CA
:100F200060DD22D236D16E1207781207787A007B04
:100F3000007C10120770E5542AFA74003BFBDCF3C6
:100F40007C04C3EB13FBEA13FADCF7FFEB60027FD0
:100F5000FFC236D16E2278A5E6F954037000E95439
:100F60000C7000E954307000E954C070002275889C
:100F700051758E0C7589AA758C00758D00758E0C57
:100F8000756B80756A10756E14756FFF7570EC75F2
:100F900071DD22758851758E0C7589AA758C007566
:100FA0008D00758E0C756B00756A20756E28756FD7
:100FB000EC7570CD7571AF22C0E07414208517C038
:100FC000D0C0E0740AD5E0FDD0E0D0D02085EBD5CC
:100FD000E0EDC3D0E022C0D0C0E0740AD5E0FDD07F
:100FE000E0D0D03085D4D5E0EDD3D0E022756700D5
:100FF0007568007597DE7597AD7581AF43FF807595
:10100000EF0675A900120D5E7580FF75F1F075A4ED
:10101000007580FF75D4FF75900075F23F75A53F90
:1010200075900075D53F75A60175E34075E2021213
:101030000D5EE4F8F6D8FD120D6EB1EE7898866478
:10104000753001C2AF120780120CFB120778120D27
:1010500001120778120D07120778120F56C2AF75EA
:10106000670075680078FA79FA308516D9FBD8F7E9
:1010700075A91375A71075C10075A70075660002E4
:101080001C00120E00120E6E78988664120D5E75AA
:10109000A71075C13075A70075A90375660175C8DD
:1010A0000475910475D84075D90875F782759E034B
:1010B00075960275DA4275DB4275A82375E6907560
:1010C000B803759B80759D0075D10C75BCB975BB57
:1010D0001075E88075B20112076C753C00C23012C1
:1010E0000780C231C232C233C23475520075530018
:1010F000D234120FB89237C23B752A00752B007597
:10110000E4D530370375E45D120F6EC2A9D2ABD2BD
:10111000AAD2AF75220A12077C755200755300C31C
:10112000E522940A4018120F9375220A12077C7563
:101130005200755300C3E522940A4002015D120774
:101140007020300302105DC2AF120CFB120CFB12B8
:101150000CFBD2AF120780203403303A0302120690
:10116000120770788CE6C3940150024106E530C343
:101170009401500241067567A57568F17F02D23669
:10118000120E6E12077CC2AFC236120E6EC3E55449
:10119000947FD2AF407012076CC2AF120D0DD2AF68
:1011A000DFDC120F23C3EF7897F6120780D1DB7FC5
:1011B0000AD236120E6E12077CC2AFC236120E6E03
:1011C000C3E554947FD2AF50E612076CC2AF120C45
:1011D000FB120774120CFBD2AFDFD6120F23EF24E1
:1011E000037896F6F87997E7C3942340039850065E
:1011F000E824237897F6120780D135F10A12077C8C
:10120000120E6E02105D75670075680012077CC3D0
:10121000E554940140022157C2AF120D0D120D0D7D
:10122000120D0DD2AF120780753000752A00752B94
:1012300000E4F537F5380537E537F4703F053878C1
:101240009AE67819146012783214600D787D146073
:101250000878FA146003753800C3E53898401D1209
:101260000D5E12076C153875370078998664C2AF29
:10127000120D0DD2AF7898866412077C120774E5C0
:10128000237002015DC3E5549401500AC3E55294F2
:1012900001501602123612077CE523700302105D1E
:1012A00075520075530002144BC3E5529401701738
:1012B000C2AF120D5E78998664120CFB7898866432
:1012C000D2AF12077C813DC3E55294027017C2AFC2
:1012D000120D5E78998664120D0178988664D2AFFB
:1012E00012077C813DC3E55294037017C2AF120D03
:1012F0005E78998664120D0778988664D2AF1207DB
:101300007C813DC3E55294047017C2AF120D5E7824
:10131000998664120D0D78988664D2AF12077C818D
:101320003DC3E55294057017C2AF120D5E789986E1
:1013300064120D0D78988664D2AF12077C813DC38C
:10134000E55294077019C3E5539406500241857421
:1013500001303A0274037888F6C238C239813DC33D
:10136000E55294087019C3E5539406500241857400
:1013700002303A0274047888F6D238D239813DC3FB
:10138000E55294097017C3E5539406500241853025
:101390003A0BC37888E69402F6C23A813DC3E5521F
:1013A000940A7016C3E553940650024185203A0A08
:1013B0007888E62402F6D23A813DC3E5529414704F
:1013C00025C3E553940650024185C2AF901A0B74B1
:1013D0000093D2AF7888F613C238C2394002D238AF
:1013E0004002D2398057C3E55294157038C3E55393
:1013F0009406404FC2AF901A0B740093D2AFF8B866
:1014000001027402B802027401B803027404B80441
:101410000274037888F613C238C2394002D23840C9
:1014200002D2398018C3E552940C70117567A57506
:1014300068F1C3E5539406400AD135D2AF75520026
:101440007553007567007568004185C2AF120D5E67
:10145000E4D2AFE4F55EF524F525F53D755E08129E
:10146000076C1207D530EDFDA8BDA9BEE97001F8E3
:10147000885F1207D9755E08C2AF120840855D5BB0
:10148000855D5CD2AF75A71075C13075A70075A9D1
:1014900003756601303A07C238303502D238D22897
:1014A000753900120CB6120CD912084F12085612D8
:1014B000084F12085612084F120AE5120BE2120CDE
:1014C0002A120856120AD5202C0312078F302C033B
:1014D0001207BF120BE2120C4D120856120AE51247
:1014E0000BE2120C70120856120AD5120BE2120C03
:1014F00093120856120AE5120BE2120CB6120856A5
:101500001207D5120AD5120BE2120CD91207D91202
:101510000856302827855D5B79187A0CC3E5399920
:10152000400EC228D2298A3B855D5B855D5C800CBC
:10153000C3E554940140030214B8A1C230291F200E
:101540002B1CE53B147006C229D22A81B8F53B203A
:101550003A07C3E554940140030214B88064753C13
:1015600000203A0F78FA79A4E760027803C3E555C2
:1015700098504FE523604B303A1720380520350747
:10158000800F303502800A202B07D22B855D5B81CE
:10159000E878F0302B05855D5B7820C3E5489850EE
:1015A000030214B8302B1BC22BC238303502D2389C
:1015B000D229753B12855D5B81B8053CE55460021C
:1015C000A1C5753C00C2AF120D5E752500D2AF12E9
:1015D000077C120D5E75240078A4E66006D291D2D5
:1015E00093D295C3E53C94044002015D412B901ACF
:1015F0000D7820D16EE520B4550AA3D16EE520B454
:10160000AA0280137567A57568F1120D6ED1357544
:101610006700756800801D901A0378807B0AD16E80
:10162000A308DBFA901A0F788C7B1AD16EA308DB23
:10163000FA901A2922C2AFD1B1D18E901A0074103B
:10164000D173A37447D173A37421D173901A037813
:10165000807B0AD172A308DBFA901A0F788C7B1A70
:10166000D172A308DBFAD1C4D1A2901A2922E49343
:10167000F622E6438F01538FFDFFC3E583941C40A0
:101680000122EF8567B78568B7F0538FFE22438F3D
:1016900002438F018567B78568B7901A0DF0538FA5
:1016A000FC22901A0D7455D173901A0E74AAD1733E
:1016B000227A3079D07820901A40D16EE520F7094F
:1016C000A3DAF7227A3079D0901A40E7D17309A3D0
:1016D000DAF9227C05120780DCFB22C2AF120CFB78
:1016E000120D01120D07120D0D120774120CFB12D0
:1016F0000D01120D07120D0D120774120CFB120DC5
:1017000001120D07120D0DD2AF22C2AF120D0D1234
:101710000D07120D01120CFB120774120D0D120DA4
:1017200007120D01120CFB120774120D0D120D079A
:09173000120D01120CFBD2AF22D4
:1019FD00020FED104721FFFFFFFFFFFF09FF01FF62
:101A0D0055AA01FFFFFFFFFF03FFFFFF25D0285061
:0D1A1D0004FF02FF7AFF0701FFFF0000FF3A
:101A400023415F485F3330232020202020202020A6
:101A500023424C48454C492445464D3842323123B7
:101A60002020202020202020202020202020202076
:101C0000C2AFC2D37597DE7597AD7581C075A90057
:101C100043FF80752438752503B1DB7529A5752A26
:101C2000F143F12053A4DFD28575D4FF75E3407DE5
:101C3000FA780379E67C10752200752300901DE880
:101C40007B0675249875250130850281482085081A
:101C5000D8FBD9F9DCF781BA308508D8FBD9F9DC93
:101C6000F781BAB19BE493A3C39A6004DDC381BA40
:101C7000DBDBB18D600281317B08E493FAA3B16EA6
:101C8000DBF87A30B16E752200752300B18DEAFC65
:101C9000EBFDC3ED94FE400EB18D8A278B28ED300D
:101CA000E0048A828B83B18D7AC270D8C3ED94FE32
:101CB000601950CEBD0029EC600F7520007521FF22
:101CC000752900752A000200008100A827A92808AC
:101CD00009D804D90281DDB191EAF281D10D81A642
:101CE000C3ED94035051EDA2E092007AC5C3E582A2
:101CF0009400E583941C508C200010438F02438F86
:101D0000018529B7852AB7F0300027A827A9280818
:101D100009438F01538FFDD804D902A132C3E58353
:101D2000941C4003A3A117E28529B7852AB7F0A325
:101D3000A117538FFC81827AC1BD030CE493A3FAEF
:101D4000B152DCF8B14A81828184AA22AB23B16E00
:101D5000EBFAEA6222752608C3E52313F523E52290
:101D600013F52250066323A0632201D526EAB1DBD6
:101D7000B1DB75260AEAF4200102D285300102C2E5
:101D800085B1DBC3134002C201D526EB22B191EA33
:101D9000FB208502A191308502A196752608AE240C
:101DA000AF25C3EF13FFEE13FEB1DFB1DBC3EA13C0
:101DB0003085024480FA30E703632201C3E5231330
:101DC000F523E52213F52250066323A0632201D5F3
:101DD00026D9E52265236523F52222AE24AF250E00
:101DE0000FDEFEDFFCD20122424C48656C693437BD
:061DF0003164E8B20601B7
:00000001FF
