:020000020000FC
:100000002DCA91C20000000025C000004FC10000B1
:10001000000052C1000000000000000002030406BE
:10002000080C101820304060800002030406080C01
:10003000101820304080FF000406080C10182030F3
:10004000406080A0C0000D0D0403060D050D0603E1
:10005000030202004FB662FD1EC070FF1AC165FDAB
:10006000FAC00994C0919700C395C0939700C5E06A
:10007000C519B8F3D0919700CD1B98F3C8E7089441
:1000800083FDC795C4BDC52DCC2321F4C0E083FDFD
:10009000C0E8C4BD09C171FF03C09598AC98C09871
:1000A000C52D089483FDC795C4BDC09399006B7F8F
:1000B000C52DCF3F09F443C0C0919800C395C093AC
:1000C000980070FF37C082FD05C09598AC98C09825
:1000D0004FBE18957860C091A000CC2391F0C091DC
:1000E0009800CA95D091A000CD1B58F0777FC091A1
:1000F0009800D0919F00CD1B08F41CC0209298005E
:1001000019C09598AC98C098C5E0CA95F1F7C09110
:100110007500CA95C2FD09C0C1FD05C095FFAB9829
:1001200095FD94980EC0AD980CC095FF949895FDE0
:10013000AB9807C09598AC98C0984FBE1895209280
:1001400099004FBE1895A5C0552021F095FF959AAE
:1001500095FDC09AAC989DC0552009F0AC9A95FFCA
:10016000C09895FD959895C0552021F095FFC09AAF
:1001700095FD959A95FF959895FDC0988AC095FF35
:10018000949A95FDAB9A95FFAB9A95FD949AC5E02C
:10019000CA95F1F7552021F095FF959A95FDC09AE3
:1001A000AC9877C095FF949A95FDAB9AAD9AC5E04F
:1001B000CA95F1F7552021F095FF959A95FDC09AC3
:1001C000AC9867C0AD9A95FF949A95FDAB9AC5E03F
:1001D000CA95F1F7552009F0AC9A95FFC09895FDA6
:1001E000959857C0AD9A95FFAB9A95FD949AC5E046
:1001F000CA95F1F7552009F0AC9A95FFC09895FD86
:10020000959847C095FFAB9A95FD949AAD9AC5E035
:10021000CA95F1F7552021F095FFC09A95FD959A62
:1002200095FF959895FDC09834C095FFAB9A95FDC4
:10023000949A95FF949A95FDAB9AC5E0CA95F1F70B
:10024000552021F095FFC09A95FD959A95FF9598B8
:1002500095FDC0981EC082FF1CC0C0917500C2FDF4
:100260000BC0C1FD11C095FF949A95FDAB9A95FF07
:10027000AB9A95FD949A0DC0C1FDF5CF95FF949A68
:1002800095FDAB9AAD9A05C0AD9A95FFAB9A95FDD9
:10029000949AC52DC095089483FDC795C4BDC0939D
:1002A00099002092970064604FBE18954FB6C0E148
:1002B000C8BF6E7F4FBE18953FB68F7EABB7A07498
:1002C000A2118061A0E0ABBFA9B7AE7FA9BF7894AF
:1002D000A0916600AA2349F0A92FAF7151F1A09116
:1002E0006600AA95A093660024C040E050E0A0B349
:1002F00096FDA095A2FD4FEF96FFA3E096FDA2E02C
:10030000A5BFAA27A064AABF8D7FA0B396FDA09524
:10031000A2FD5FEF451749F7A0E461FDA0936600D9
:10032000A92FAF7119F0A0E4A093660040938D004F
:100330008160A0916700AA2331F0A0916700AA957F
:10034000A093670007C0A92FAF7121F08061AA2791
:10035000A064AABF80FF30C0A0918D004A2F8E7F7D
:10036000A92FAF7109F000C04093610071FF08C070
:10037000A091610050919200A51710F05093610078
:100380004091AE004430C1F4A091610040916300FF
:10039000A41B70F04091CF00A40B50F0A09163001B
:1003A000A40FA093630040F4AFEFA093630004C0D8
:1003B000A0916100A0936300A52DA03408F06860AF
:1003C000A0916000A395A093600051F0F894A9B7A4
:1003D000A160A9BF84FF02C0A0E4ABBF3FBE1895D7
:1003E00042E050916600552331F0A92FAF7119F406
:1003F0005A9550936600A0918D00A13018F020927C
:1004000090000DC02092910020929A00A09190003F
:10041000AF5FA093900018F0AFEFA0939000B09062
:1004200061005091AE00523049F466FF91F0A2E3B2
:10043000BA1678F0A0917F00A0936100533049F480
:1004400066FF39F0A2E3BA1620F0A091BA00A0939B
:100450006100509162005B1521F010F05A9501C0C7
:100460005395509362004A95D1F650919A00539556
:1004700009F45A9550939A00A0919B00AA95A093D5
:100480009B0009F046C0A1E0A0939B0045E0A0912D
:100490009C005A17F0F1A0919D005A1728F441E0F2
:1004A000A3E0A0939B0007C0A0919E005A1718F4E8
:1004B00041E040939B00D0909300C0906300DC1417
:1004C000A8F0A091AE00A430D9F066FD0FC0C09294
:1004D0009300539519F0A0919C00A0939A00A1E07D
:1004E000A0939B00ACE3A093620013C0A091930083
:1004F000A40F20F45FEF5093930002C0A0939300E9
:10050000A0919300AF3F29F4AFEFA0939100A09387
:100510009A00F894A9B7A160A9BF84FF02C0A0E423
:10052000ABBF3FBE18953FB64CB55DB58F7EABB740
:10053000A074A2118061A0E0ABBFA9B7AE7FA9BF34
:10054000789481FD26C096FFA2E096FDA3E0A5BFAA
:100550008260A0B396FDA095A2FF05C04093640001
:1005600050936500FDC096FFA3E096FDA2E0A5BFF5
:10057000AA27A064AABF8D7FA92FAF7109F4E1C09B
:1005800040E0A0B396FDA095A2FDDBC040938D0096
:10059000CEC096FFA3E096FDA2E0A5BF8D7F61FFD0
:1005A0006BC096FFA2E096FDA3E0A5BFAA27A064BA
:1005B000AABF82604093880050938900A090860073
:1005C0004A19B09087005B09BB24A2E0EA2EA22C56
:1005D000483CA0E05A0730F4A0E1BA2EE22CAAE091
:1005E000AA2E27C04836A1E05A0730F4A8E0BA2E58
:1005F000E22CAFE0AA2E1DC0403DA2E05A0730F425
:10060000A4E0BA2EE22CAEE1AA2E13C0403AA5E037
:100610005A0730F4A2E0BA2EE22CACE3AA2E09C0AD
:100620004839A8E05A0728F4A1E0BA2EE22CA8E73E
:10063000AA2EC42EA0918A00CA1AD52EA0918B0092
:10064000DA0ADD202AF4AFEFC094D094CA1ADA0A8D
:1006500020928C00CA14DE0418F4A1E0A0938C0050
:1006600040938A0050938B004091880050918900FC
:100670004093860050938700A09164004A1BA0918C
:1006800065005A0B94FD46C093FD44C092FD40C0E6
:100690005695479591FD3CC05695479590FD38C0BD
:1006A000D52EC42ED694C79461FD0CC0AC2DAC5190
:1006B000AD2DA24008F045C0DD2021F4AC2DA85C92
:1006C00008F43FC0A0E0EA2E97FD02C0E090C2000F
:1006D000AAEFEA0EF22CF21CCE18DF084FB74170D9
:1006E000442319F040E050E015C0AFEFCA16D20421
:1006F00018F04FEF50E00EC0F090A700CF9C412DB6
:10070000000C441F50E008F012C04FEF50E00FC043
:100710005695479594FF07C0552309F04FEFA42F36
:10072000A6954A0F521D4F3F520508F04FEF4093D8
:100730008D00816061FF05C0AFE1A095A923AB29C1
:100740009A2FA0E4A0936600A92FAF7119F4AAE034
:10075000A093660061FD04C0A92FAF7109F08F7EE0
:10076000A0E2A0936700A92FAF7119F4AAE0A093AB
:100770006700F894A9B7A160A9BF84FF02C0A0E4F4
:10078000ABBF3FBE189511E00AC013E008C01AE0E5
:1007900006C01EE104C014E602C018EC00C005E16A
:1007A000BB27BA95F1F70A95D9F71A95C1F70895BD
:1007B0002AE338E709C020E33CE806C02AE234EB2C
:1007C00003C025E238EC00C0652CB1E05B2E12E0DE
:1007D00095FD9F7D95FF9062BB27AD9ABA95F1F785
:1007E000552009F0AC9ABA95F1F7AC98BA95F1F7A3
:1007F000AD98BA95F1F7552021F095FF959A95FDA2
:10080000C09AB091A800BA95F1F795FF959895FD1B
:10081000C098B7E8BA95F1F71A95D1F6022FB22F22
:10082000BA95F1F70A95D9F73A9571F6AD9A562C23
:100830000895221B39E0001F3A9509F40895221FFC
:10084000211B18F4210F8894F6CF0894F4CF622C62
:10085000722CB0E08894B395221F331FE0F73795D0
:1008600027958894912E802E020B130B10F4192DCE
:10087000082D10F4889401C00894661C771CBA9562
:1008800071F7172D062D0895322D11232AF43A956C
:1008900000951095031B130BF894029F712C002DEB
:1008A000129F912C802C7894780C172D921C292D56
:1008B000B4E06B2E2695179507956A94D9F73323E4
:1008C00021F000951095031B130B08950091AE00C5
:1008D000043009F474C0B0918D00B95198F0B72F6D
:1008E000B67081F466FD2BC005E09090C000B92D74
:1008F000BA9521F00AE0BA9509F002E1B0917400CE
:10090000B01BE0F066FF0AC0B0919500B093930071
:10091000BFEFB0939A00B1E0B0939B00B09161003B
:10092000B0936300209277002092780020927900A3
:1009300020927A0020927B006F7B41C0606490908F
:10094000C000B92DBA9579F4B0916200B095BB1F83
:10095000BB1F1B2FB7950B2FB12FB170B3951B2F5A
:10096000B02FBE7F25C0B92DBA95BA9581F4B0914C
:100970006200B095BB1FBB1FBB1F1B2FB7950B2F72
:10098000B12FB370B3951B2FB02FBC7F14C0B091A3
:100990006200B095BB1FBB1FBB1FBB1F1B2FB795B2
:1009A0000B2FB12FB770B395B3951B2FB02FB87F16
:1009B000B0540B2F1209009377001093780008951C
:1009C00066FF21C010917400169500917300079581
:1009D000B0917700B01B0B2FB0917800B10B1B2F9B
:1009E00028F40038BFEF1B0740F009C00F3712058D
:1009F00008F405C00FE710E002C000E81FEF009305
:100A00007C0010937D00089566FF39C000917C0042
:100A1000B09179000B0F10917D00B0917A001B1FEF
:100A200020E030917D0033230AF42A95B0917B00B9
:100A30002B1F1AF4203F40F00AC02F3008F407C0E3
:100A40000FEF1FEF2FE003C000E010E020EF309128
:100A50006300B09192003B1718F4332331F009C0C2
:100A6000B0917D00BB235AF004C0B0917D00BB2340
:100A700032F40093790010937A0020937B0008955C
:100A800066FF2FC02091CD0000917C00000F1091D7
:100A90007D00111FF9DE11232AF40038BFEF1B0778
:100AA00040F009C00F37120508F405C00FE710E049
:100AB00002C000E81FEF002352F0B0916200B01BAB
:100AC0000B2F18F0013008F00AC001E008C00095B3
:100AD0000F5FB09162000B0F08F001C00FEF0093A1
:100AE0007E00089566FF2DC02091CE0000917A000F
:100AF00010917B00C9DE11232AF40130BFEF1B07E0
:100B000040F009C00F3F120508F405C00FEF10E0D8
:100B100002C001E01FEF112352F0B0917E00B01B24
:100B20000B2F18F0013008F00AC000E008C0009553
:100B30000F5FB0917E000B0F08F001C00FEF009324
:100B4000630008950FEF677FB72FB670E9F4686010
:100B5000B0917400B83008F0677FB0917400A1F0D4
:100B60000FEF1091740065DEF894B09170000B9F48
:100B7000112D002D7894112309F00FEFB0919500FD
:100B80000B1710F4009195000093940008952ED354
:100B900074FFB2E074FDB1E0B7B9B6B1B068B0644B
:100BA000B6B9F1DD74FFB2E074FDB1E0B7B9B6B12A
:100BB000B068B064B6B9B6B1B6FDFDCF04B115B139
:100BC000B6B1BF77B6B959D324E72093A30030E07C
:100BD0003093A400732E7694622E6694620E731E78
:100BE000262D372D0217130778F08090A300B4E765
:100BF000B80DB093A3008090A400B0E0B81DB093EE
:100C0000A400260D371DEECF8090A3009090A40085
:100C10001091A40016950091A300079516950795CD
:100C2000B091A300B00FB093A100B091A400B11F88
:100C3000B093A20023E0169507952A95E1F720913D
:100C4000AF002A9529F42092A3002092A4000AC0A4
:100C50002A9521F0800E911E2A95E1F78092A3003B
:100C60009092A40008952091AF00B6B1B6FDFBCFDD
:100C700004B115B1B6B1BF77B6B9B091A500B395BF
:100C8000B093A500B83060F12092A500B091CC00DF
:100C9000BB2321F1112329F0B091A600BF3F61F0E1
:100CA00009C0B091A6000B1739F020F4BB2321F046
:100CB000BA9502C0B395E1F300919200B093A600FB
:100CC000BA3750F400ECBF3638F400E8B43620F4FC
:100CD00000E4B93508F400E0009392007F7E0895A7
:100CE000213099F00F3FB3E01B0778F4B091A300D7
:100CF0000B17B091A4001B0740F4B0919200BB23E6
:100D000059F0BA95B093920007C0B0919200BF3FDE
:100D100019F0B395B093920000919200B0916300E6
:100D2000B01B10F400916300B09193000B1750F0CA
:100D300000919300B0919300BF3F21F0B0919300D8
:100D4000B0939200502EB091A500B73009F47061B5
:100D5000089502E3F894B091D0000B9F012D000C90
:100D6000001F7894B09192000B1710F00091920040
:100D70000093610000936300502E00939500089546
:100D800020927300B8E0B093740008952091800021
:100D900030918100F8940CB51DB5200F311F3BBD7B
:100DA0002ABD6160B0E1B8BF7894209171003091A4
:100DB00072000093710010937200021B130B2091BC
:100DC000730030917400622E732EB4E08B2EB2E06B
:100DD0009B2EB0917400B43010F08A949A94B8307D
:100DE00010F08A949A94769467948A94E1F726197D
:100DF0003709992021F0169507959A94E1F7200F6D
:100E0000311F209373003093740008F00895BFEFF2
:100E1000B0937300B09374000895209182003091D4
:100E20008300F8940CB51DB5020F131F1BBD0ABD3E
:100E30006160B0E1B8BF7894089560FDFECFEDDF4A
:100E40000895B091BE0000916E00023808F0B3958D
:100E5000003A08F0B395B63008F0B5E09B2EBCE040
:100E60008B2EB0917400B33030F48394839482FF5E
:100E700002C083948394B23030F48394839482FFCD
:100E800002C08394839471FF03C0B3E09B2E822C35
:100E9000109174000091730024E0169507952A952F
:100EA000E1F70819120928F0B02FB250B12FB2099A
:100EB00010F402E010E0312F202F712E602E769476
:100EC0006794B92DB330E9F0B0FD05C0060D171DCC
:100ED000262D372D06C0000F111F0250120922E0E7
:100EE00030E0B92DB33068F0209384003093850052
:100EF00000938000109381006092820070928300C2
:100F0000089500938400109385002093800030930F
:100F100081006092820070928300089560FDFECF90
:100F200020918200220F30918300331FB72FB670BB
:100F300021F02091730030917400F8940CB51DB528
:100F4000020F131F1BBD0ABD6160B0E1B8BF7894EA
:100F5000089560612092760020E004C060612092D4
:100F6000760020E2B72FB67009F06F7E789460FDAE
:100F700005C0B0917600BB2309F0089501E063FF3E
:100F80000AC0B0917400B33008F002E0B091740070
:100F9000B63008F003E071FF01C006E060FD06C056
:100FA000B0917600BB2311F0789408951AE083FF86
:100FB0001AE0789400000000F89462FD03C014E188
:100FC00083FF14E171FF01C018E7B4B530919900B7
:100FD000B31BB10B18F3B0917600B395B0937600C4
:100FE000B5E03B2F6B2E722CB8B1B072B21709F07E
:100FF00073943A95C9F77394761488F464FFB2CF6A
:101000006F7E3CB56DB47090730080907400370DA6
:10101000681C6BBC3ABD6160B0E1B8BFA3CF64FD92
:10102000A1CF0A9509F0BACF7894089571FF0AC04C
:10103000B0916D00B395B0936D0060FD0CC020922F
:101040006D0009C060FD07C064FD05C067FD03C0F9
:10105000BF91BF9199C4089520918400309185007B
:10106000F8940CB51DB5020F131F1BBD0ABD6160BE
:10107000B0E1B8BF78940895EFDF00E063FF03C0EC
:1010800064FF01C001E0F89410916E00B7E01B9F6F
:10109000212D102D7894200F2695179526951795BC
:1010A0002695179510936E00183718F4B8E7B0938B
:1010B0006E0000916E00B0916F000B1720F060621F
:1010C0009598AC98C09860FDFECF0895F894949AD6
:1010D000AD9AAB9A82FF07C0E2E0F1E073FF03C074
:1010E000B5E0BA95F1F7B0917400BC7F81F055205E
:1010F00021F095FF959A95FDC09AB6E0BA95F1F763
:1011000095FF959895FDC098B5E0BA95F1F795FFD4
:10111000949895FDAB98B2E0B0937500ABC0F8948D
:1011200095FFC09895FD959882FF0DC0E2EFF0E025
:1011300073FF0BC0AD9A95FFAB9A95FD949AB5E0FD
:10114000BA95F1F702C0ECEAF0E062FF03C0552067
:1011500009F0AC9AB3E0B09375008CC0F894949AFF
:10116000AD9AAB9A82FF07C0E2EEF0E073FF03C0D6
:10117000B5E0BA95F1F7B0917400BC7F81F05520CD
:1011800021F095FFC09A95FD959AB6E0BA95F1F7D2
:1011900095FFC09895FD9598B5E0BA95F1F795FF44
:1011A000AB9895FD9498B4E0B093750063C0F89443
:1011B000AC9882FF0DC0E2EDF0E073FF0BC095FF2D
:1011C000949A95FDAB9AAD9AB5E0BA95F1F702C045
:1011D000E4EAF0E062FF06C0552021F095FF959A01
:1011E00095FDC09AB5E0B093750044C0F894949A08
:1011F000AD9AAB9A82FF07C0EFEBF0E073FF03C03C
:10120000B5E0BA95F1F7B0917400BC7F51F055206C
:1012100009F0AC9AB6E0BA95F1F7AC98B5E0BA959A
:10122000F1F7AD98B6E0B093750024C0F89495FF3F
:10123000959895FDC09882FF10C0E5E1F1E073FF3D
:101240000EC095FF949A95FDAB9A95FFAB9A95FDCC
:10125000949AB5E0BA95F1F702C0E4EBF0E062FFD2
:1012600006C0552021F095FFC09A95FD959AB1E0F2
:10127000B09375006F7D7894089523EA30E0F9010A
:101280009598AC98C098949AAD9AAB9A6B7F089554
:10129000ACEAB0E007E00D9307E00D9301E00D9399
:1012A00004E00D930FEF0D930D9309E00D9302E011
:1012B0000D9301E00D9301E00D93A8EBB0E001E088
:1012C0000D9300E00D9304EB0D930FEF0D930D9331
:1012D0000D9303E00D9301E00D9301E00D930FEFEB
:1012E0000D9305E20D9300ED0D9308E70D9308ECC7
:1012F0000D9304E00D930DE00D9301E00D9300E0DC
:101300000D930AE70D930AE00D9301E00D93089504
:101310002091BF0009E011E0223011F405E011E056
:10132000233011F405E012E0243011F405E013E05D
:10133000253011F409E017E0263011F400E010E048
:1013400000939F001093A0002091B3008B7F233067
:1013500009F48460777F233009F47860B091B40099
:101360009F7DB1FD90629F7BB091B500B1FD90640F
:10137000B22FB23011F0886001C0877F0895ECE190
:10138000F0E00091AC000A95E00FF21DB491B0932B
:10139000CD000091AD000A95E00FF21DB491B0931D
:1013A000CE006BDF0895EAE2F0E00091C7000A95F5
:1013B000E00FF21DB491B093CF005FDF0895E8E332
:1013C000F0E00091B2000A95E00FF21DB491B093E5
:1013D000D00053DF08950091CB00002309F403955A
:1013E000013108F001E1B02FB00FB00FB0939C00B5
:1013F0001B2FB10FB10FB00FB0939D00B10FB00F05
:10140000B00FB0939E000895B091C8000FEF1CE09C
:10141000B23011F400EA1AE0B33011F402E815E03A
:1014200000936F0010937000089508952091C200FA
:101430003091C30097FF02C020E03FEFB32FB21BF3
:101440006B2EB25810F4B2E86B2E00E00395609E4C
:10145000B12DB058D8F30093A7000895F894E3E0B5
:10146000F0E0B9E0B7BFB491B078C1F3F894A895B3
:10147000B1B5B861B1BDB0E0B1BDB4E0BEBFBFE5CC
:10148000BDBFFBDEB0E0B8BBB1E1B7BBB8E2B5BBF6
:10149000B8E3B4BBB0E1B2BBB0E3B1BB2224A0E07F
:1014A000B0E02D92AA31E9F7A0E6B0E00FEF2D925F
:1014B0000A95E9F7EDDE8DD22BDF61DF74DF7FDF88
:1014C0008ADFA2DFB2DFB2DF0091C4000093A80080
:1014D000D4DEB2E0B3BFB2E0BEBDB2E0B5BDF894B9
:1014E0005CD966D956D967D954D968D952D908D3A5
:1014F00054D953D950D9B1E5B8BFB9BFB0B7B86066
:10150000B0BFB6B1B460B6B93ED9789440DBB0E4B0
:10151000BBBFBB27B064BABF8D7F3FD9B1E0B093EA
:101520006900626025E0B0918C00BB2309F425E0DE
:101530002CD9B0918D00B230A8F3B92FBF710091B2
:101540008F0000938E00B0938F00B01759F72A9543
:1015500051F76D7F96FFB3E096FDB2E0B5BFBB27B4
:10156000B064BABF8D7F17D910D902E0B92FBF710F
:1015700009F400E0B0918D00B017B0F3F89418D9D9
:1015800017D916D9789409D920927F00FED8B09146
:10159000B800B13008F46CC0B0916900B13008F403
:1015A00067C0B92FBF71C1F0B0918D00BF3F08F483
:1015B0005FC0F89406D97894EED8B0918D00B13020
:1015C000C0F7F894F5D8E3D8F3D87894E4D8B0917C
:1015D0008D00BF3FB0F3C6C2B8E09B2E9068F89470
:1015E00025DF7894D8D8F8949F7720DF80908D00FD
:1015F000B0918D00BF37789408F442C0C4D8F894F5
:10160000E0D878949A9451F7B82DB550B093C300B0
:10161000C4D8F8940BD279D27894BAE09B2E906813
:10162000F89404DF7894B7D8F8949F77FFDE809021
:101630008D00B0918D00BF37789478F7A4D8F894D6
:10164000B7D8A5D8B5D878949A9449F7B82DBB5F88
:10165000B093C200A2D8F894E9D166D278949BD80E
:10166000F894E4DE7894B0918D00BF3FC0F37AC265
:1016700000918D00B0917F000B1710F000937F0058
:101680008AD801E0B091B400B35009F405E0B091FC
:101690008D00B01708F07ACFF89493D892D891D8EB
:1016A00078947BD82092690020926A0020926B0087
:1016B000B0916A00B395B0936A00BF3F69F5B091ED
:1016C0006B00B395B0936B00B091C60009E1BA9579
:1016D00059F002E3BA9541F00DE7BA9529F00AEF07
:1016E000BA9511F020926B00B0916B00B017A0F08A
:1016F000B0916B00BA95B0936B00B4EBB0936A00F5
:10170000B091C500B093A800F8945BD87894B091DC
:10171000C400B093A8003FD83AD8B0916600BB236C
:1017200021F4B92FBF7109F4FCCEB0918D00B63011
:1017300008F4BECF30D8B0916600BB2309F4F1CED7
:10174000F8949BDD20926100209262002092630059
:10175000522C7894B091B100B0939600209277000B
:10176000209278002092790020927A0020927B00CB
:101770002092A50060E070E020926E0001DBB8E0EE
:10178000B093A5007061FFD774FFB2E074FDB1E0C3
:10179000B7B9B6B1B068B064B6B9B6B1B6FDFDCFF1
:1017A00004B115B1B6B1BF77B6B9112309F00FEF87
:1017B0000093A60058DAB8E0B093A500706180905D
:1017C000B300B2E0B093B300A3DD8092B300F8940D
:1017D000BFEFB0939200BDDAB0916100B093920078
:1017E000B0939300B09394007894B1E0B09361000B
:1017F000B09363005B2EB0939B00B0919100B093C7
:101800009A007160726020926D00F0DC0FDDBEDA2C
:10181000B7DA17DB04C07CDD2092A5007F7E95FF40
:10182000B6E095FDB0E0B7B999DB00DC15DC4ED829
:1018300023DC4CDCABDA01DB04DB70DBB7E0B7B9EF
:1018400088DBF4DB09DCBCD87DD916DC68DC9EDAE9
:10185000F4DAF7DA63DB95FFB0E095FDB6E0B7B9EF
:101860007DDBE4DBF9DBD0D807DC78DC8FDAE5DA86
:10187000E8DA54DB95FFB6E095FDB0E0B7B969DB77
:10188000D5DBEADBFDD8F8DB92DC80DAD6DAD9DA10
:1018900045DBB7E0B7B962DBC9DBDEDB23D9ECDBC4
:1018A000A5DC74DACADACDDA39DB95FFB0E095FD54
:1018B000B6E0B7B94EDB74FFB2E074FDB1E0B7B982
:1018C000B6B1B068B064B6B9B1DBC6DBD5DBAEDCAF
:1018D0005DDAB3DAB6DAC7D921DB71FF20C067FD64
:1018E0001EC0B0919500B0939200B0939300B09158
:1018F0009100B0939A00B1E0B0939B0014E624E10C
:10190000B0916D00B11728F07D7F746020936C005A
:1019100006C0B0918D00B13008F081CF35C072FFA4
:1019200010C067FD0EC0B0916C00BA9511F47B7FBA
:1019300072CFB0936C00B0918D00B13008F06FCFD2
:1019400023C0B0919000B13058F0B0919500B093A1
:101950009300B0919100B0939A00B1E0B0939B00D6
:10196000B0919000BA3F80F4B92FBF7121F4B091CB
:101970006600BB2349F0B091740000EF67FF01C01F
:1019800000E6B01708F44BCFF89477DC8090B300F2
:10199000B2E0B093B300BCDC8092B300209261004F
:1019A0002092620020926300522C209296007E7F4B
:1019B0007894E9D662DCB92FBF7129F4B091660042
:1019C000BB2309F4AECDB091B900B13008F0CCCD55
:1019D0006BCEEDE0F0E023D0053A09F01BC0EEE05D
:1019E000F0E01DD00A3509F015C03AE0ACEAB0E0ED
:1019F000E3E0F0E014D00D9331963A95D9F735E154
:101A0000A8EBB0E0EFE0F0E00AD00D9331963A9504
:101A1000D9F702C03DDC0AD0E4E2F0E00895E19994
:101A2000FECFEEBBFFBBE09A0DB308951ED03AE0A7
:101A3000ACEAB0E0E3E0F0E00D910FD031963A95DA
:101A4000D9F735E1A8EBB0E0EFE0F0E00D9105D07B
:101A500031963A95D9F712D00895E199FECF0DBB92
:101A6000EEBBFFBBE29AE19A0895EDE0F0E00FEFE4
:101A7000F4DFEEE0F0E00FEFF0DF0895EDE0F0E0EE
:101A800005EAEBDFEEE0F0E00AE5E7DF08953091EC
:101A9000A9000091AA00313011F40093AC0032305B
:101AA00011F40093AD00333011F40093AE003430E4
:101AB00011F40093C000353011F40093AF003630BC
:101AC00011F40093B200373011F40093BE003830A7
:101AD00011F40093C700393011F40093BF003A307D
:101AE00011F40093B3003B3011F40093C8003C3074
:101AF00011F40093B4003D3011F40093B500089543
:101B000025E04BD62A95E9F7089552D654D656D6F5
:101B100058D63DD64DD64FD651D653D638D648D6C0
:101B20004AD64CD64ED608954CD648D644D640D642
:101B30002ED647D643D63FD63BD629D642D63ED61A
:101B40003AD636D608958090A9009090AA0030D653
:101B50002FD62ED61CD68A94D1F733D618D69A947F
:101B6000E1F70895F894D1DF7894CADFC9DFB1E0D6
:101B7000B093A900B1E0B093AA002092AB00F89412
:101B8000E2DF7894B5E06B2E70908D0006D6B091B0
:101B90008D007B16C9F7B13018F0BF3F40F107C088
:101BA00076DFF89443DFB1DFB8E0B1BDA9DF6A9416
:101BB00059F7B091AB00B395B093AB00B33008F4D4
:101BC000DECF9EDFB091AA00B395B093AA00F8943F
:101BD000B091A900BA95E6E4F0E0EB0FF21D049194
:101BE00078940395B091AA00B01708F4C6CF88DFA7
:101BF00087DFB091A900B395B093A900B091A90077
:101C0000BE3008F4B7CF44DBF89410DFB8E0B1BDC4
:021C100077DF7C
:00000001FF
