:020000020000FC
:1000000014CAB9C10000000020C000008AC000006E
:1000100000009CC000000000000000000203040675
:10002000080C10182030406080000406080C1018DE
:100030002030406080A0C00000070F1F3F000D0D62
:100040000403060D0503030202004FB662FD0EC055
:10005000552009F00994C52DC095089483FDC795D6
:10006000C4BDC093A00064604FBE1895C0916500E8
:10007000089483FDC795C4BDC093A0006B7FC09159
:100080006500CF3F09F418C070FF02C082FD05C0B3
:100090004FBE9198909893981895C091B400C0FD68
:1000A0009498C1FD9798C2FD9598CAEFC095CA95DE
:1000B000F1F79198909893982092A0004FBE1895D0
:1000C000CACF70FFC8CF65FDC6CF919AC4CF70FF6D
:1000D000C2CF65FDC0CF909ABECF70FFBCCF65FD8B
:1000E000BACF939AB8CF949A70FFB5CF65FDB3CFCE
:1000F000C7E0CA95F1F7919AAECF979A70FFABCF50
:1001000065FDA9CFC7E0CA95F1F7909AA4CF959A5B
:1001100070FFA1CF65FD9FCFC7E0CA95F1F7939A15
:100120009ACF4FB6C9B7CF7EC9BF6E7FD0918D0031
:10013000CCB5DC0FD0936000D0918E00CDB5DC1F24
:10014000DBBDC0916000CABD4FBE18953FB68F7E23
:10015000ABB7A074A2118061A0E0ABBFA9B7AE7F1E
:10016000A9BF7894A0916900AA2341F085FD29C018
:10017000A0916900AA95A093690023C040E050E0D7
:10018000A0B396FDA095A2FD4FEF96FFA3E096FDCC
:10019000A2E0A5BFAA27A064AABF8D7FA0B396FD49
:1001A000A095A2FD5FEF451749F7A0E461FDA0937C
:1001B000690085FD03C0A0E4A09369004093960008
:1001C000816085FD0EC0A0916A00AA2331F0A09144
:1001D0006A00AA95A0936A0004C08061AA27A0645F
:1001E000AABF80FF12C0A09196004A2F61FF8E7FA8
:1001F00085FD01C000C0409362004091B8004430CA
:1002000021F4A0916200A0936400A52DA03408F011
:100210006860A0916100A395A093610051F0F894EB
:10022000A9B7A160A9BF84FF02C0A0E4ABBF3FBED5
:10023000189542E050916900552329F085FF03C0CD
:100240005A9550936900A0919600A13018F0209221
:1002500099000DC020929A002092A400A0919900CC
:10026000AF5FA093990018F0AFEFA0939900B09002
:1002700062005091B800523049F466FF91F0A2E359
:10028000BA1678F0A0918400A0936200533049F42C
:1002900066FF39F0A2E3BA1620F0A091C400A09343
:1002A0006200509163005B1521F010F05A9501C077
:1002B0005395509363004A95D1F65091A4005395FD
:1002C00009F45A955093A400A091A500AA95A09373
:1002D000A50009F046C0A1E0A093A50045E0A091CB
:1002E000A6005A17F0F1A091A7005A1728F441E090
:1002F000A3E0A093A50007C0A091A8005A1718F486
:1003000041E04093A500D0909C00C0906400DC14B4
:10031000A8F0A091B800A430D9F066FD0FC0C0923B
:100320009C00539511F0A091A600A093A400A1E019
:10033000A093A500ACE3A093630013C0A0919C0020
:10034000A40F20F45FEF50939C0002C0A0939C0088
:10035000A0919C00AF3F29F4AFEFA0939A00A09327
:10036000A400F894A9B7A160A9BF84FF02C0A0E4CB
:10037000ABBF3FBE18953FB64CB55DB58F7EABB7F2
:10038000A074A2118061A0E0ABBFA9B7AE7FA9BFE6
:10039000789481FD25C096FFA2E096FDA3E0A5BF5D
:1003A0008260A0B396FDA095A2FF05C040936600B1
:1003B0005093670018C196FFA3E096FDA2E0A5BF89
:1003C000AA27A064AABF8D7F85FF01C0FFC040E0BF
:1003D000A0B396FDA095A2FDF9C040939600E8C099
:1003E00096FFA3E096FDA2E0A5BF8D7F61FF6EC0E2
:1003F00096FFA2E096FDA3E0A5BFAA27A064AABF2E
:1004000082604093910050939200A0908F004A190F
:10041000B09090005B09BB24A8E0EA2EA22C4C38D7
:10042000520518F42092950043C0483C520528F428
:10043000A0E1BA2EAAE0AA2E23C04836A1E05A07AE
:1004400028F4A8E0BA2EAFE0AA2E1AC0403DA2E0E0
:100450005A0728F4A4E0BA2EAEE1AA2E11C0403A01
:10046000A5E05A0728F4A2E0BA2EACE3AA2E08C0F1
:100470004839A8E05A0728F4A1E0BA2EA8E7AA2E26
:10048000E22CC42EA0919300CA1AD52EA0919400FC
:10049000DA0ADD202AF4AFEFC094D094CA1ADA0A3F
:1004A00020929500CA14DE0418F4A1E0A0939500F0
:1004B000409393005093940040919100509192008A
:1004C00040938F005093900002E072C0A0916600AC
:1004D0004A1BA09167005A0B94FD5DC093FD5BC061
:1004E00092FD57C086FF03C0D52EC42E0CC0569572
:1004F000479591FD4EC05695479590FD4AC0D52E23
:10050000C42ED694C79461FD17C0AC2DAC51AD2D4F
:10051000A24008F005C0DD2079F4AC2DA85C60F4A1
:10052000A0916800A395A0936800AA3008F44EC07B
:100530002092960081604AC0A0916800AA2319F019
:10054000AA95A0936800A0E0EA2E97FD02C0E09073
:10055000CC00AAEFEA0EF22CF21CCE18DF084FB73F
:100560004170442319F040E050E015C0AFEFCA16C7
:10057000D20418F04FEF50E00EC0F090AF00CF9CC7
:10058000412D000C441F50E008F012C04FEF50E026
:100590000FC05695479594FF07C0552309F04FEFBC
:1005A000A42FA6954A0F521D4F3F520508F04FEF5A
:1005B00040939600816061FF09C0AFE1A095A92337
:1005C000AB299A2F8F7DBB2009F48062A0E4A09311
:1005D000690085FF03C0AAE0A093690061FD03C024
:1005E00085FD01C08F7E85FD03C0A0E2A0936A0057
:1005F000F894A9B7A160A9BF84FF02C0A0E4ABBF73
:100600003FBE189511E00AC013E008C01AE006C00A
:100610001EE104C014E602C018EC00C005E1BB27CF
:10062000BA95F1F70A95D9F71A95C1F708952AE313
:1006300038E709C020E33CE806C02AE234EB03C0F7
:1006400025E238EC00C012E095FD9F7D95FF906299
:10065000BB27979ABA95F1F7909ABA95F1F79098C7
:10066000BA95F1F79798BA95F1F7919AB091B000D1
:10067000BA95F1F79198B7E8BA95F1F71A9521F77D
:10068000022FB22FBA95F1F70A95D9F73A95D9F614
:10069000979A0895221B39E0001F3A9509F40895AE
:1006A000221F211B18F4210F8894F6CF0894F4CF51
:1006B000622C722CB0E08894B395221F331FE0F7B0
:1006C000379527958894912E802E020B130B10F4EA
:1006D000192D082D10F4889401C00894661C771C0D
:1006E000BA9571F7172D062D0895322D11232AF48E
:1006F0003A9500951095031B130BF894029F712CEB
:10070000002D129F912C802C7894780C172D921C20
:10071000292DB4E06B2E2695179507956A94D9F785
:10072000332321F000951095031B130B08950091BE
:10073000B800043009F474C0B0919600B95198F033
:10074000B72FB67081F466FD2BC005E09090CA000B
:10075000B92DBA9521F00AE0BA9509F002E1B091FD
:100760007800B01BE0F066FF0AC0B0919E00B09325
:100770009C00BFEFB093A400B1E0B093A500B0918E
:100780006200B093640020927C0020927D00209251
:100790007E0020927F00209280006F7B41C06064C9
:1007A0009090CA00B92DBA9579F4B0916300B095D4
:1007B000BB1FBB1F1B2FB7950B2FB12FB170B3956C
:1007C0001B2FB02FBE7F25C0B92DBA95BA9581F4E5
:1007D000B0916300B095BB1FBB1FBB1F1B2FB7950C
:1007E0000B2FB12FB370B3951B2FB02FBC7F14C04C
:1007F000B0916300B095BB1FBB1FBB1FBB1F1B2F5E
:10080000B7950B2FB12FB770B395B3951B2FB02FA2
:10081000B87FB0540B2F120900937C0010937D0019
:100820000895109178001695009177000795B09182
:100830007C00B01B0B2FB0917D00B10B1B2F28F457
:100840000038BFEF1B0740F009C00F37120508F44E
:1008500005C00FE710E002C000E81FEF0093810021
:1008600010938200089500918100B0917E000B0FDB
:1008700010918200B0917F001B1F20E03091820018
:1008800033230AF42A95B09180002B1F1AF4203FDD
:1008900040F00AC02F3008F407C00FEF1FEF2FE021
:1008A00003C000E010E020EF30916400B0919B00A5
:1008B0003B1718F4332331F009C0B0918200BB23F9
:1008C0005AF004C0B0918200BB2332F400937E0042
:1008D00010937F002093800008952091DA0000910A
:1008E0008100000F10918200111FFFDE11232AF4F6
:1008F0000038BFEF1B0740F009C00F37120508F49E
:1009000005C00FE710E002C000E81FEF002352F01F
:10091000B0916300B01B0B2F18F0013008F00AC033
:1009200001E008C000950F5FB09163000B0F08F065
:1009300001C00FEF0093830008952091DB00009128
:100940007F0010918000D1DE11232AF40130BFEF27
:100950001B0740F009C00F3F120508F405C00FEF58
:1009600010E002C001E01FEF112352F0B0918300AC
:10097000B01B0B2F18F0013008F00AC000E008C0CF
:1009800000950F5FB09183000B0F08F001C00FEFCF
:100990000093640008950FEF677FB72FB67029F5B5
:1009A0006860B0917800BA3020F0B52DB03408F40A
:1009B000677FB091D700BB23C1F0B0917800BB2313
:1009C000A1F00FEF1091780065DEF894B0917200FD
:1009D0000B9F112D002D7894112309F00FEFB0918A
:1009E0009E000B1710F400919E0000939D00089547
:1009F000B9D373FFB7E073FDB7E0B068B064B7B9BF
:100A0000B6B1B068B064B6B9FDDD73FFB7E073FD91
:100A1000B7E0B068B064B7B9B6B1B068B064B6B9A1
:100A2000B6B1B6FDFDCF04B115B1B6B1BF77B6B959
:100A300018D42DE62093AB00222309F44BC030E0FC
:100A40003093AC00732E7694622E6694620E731E01
:100A5000262D372D0217130778F08090AB00BDE6E6
:100A6000B80DB093AB008090AC00B0E0B81DB0936F
:100A7000AC00260D371DEECF8090AB009090AC00FF
:100A80001091AC0016950091AB000795169507954F
:100A9000B091AB00B00FB093A900B091AC00B11F02
:100AA000B093AA0023E0169507952A95E1F72091C7
:100AB000B9002A9529F42092AB002092AC000AC01C
:100AC0002A9521F0800E911E2A95E1F78092AB00C5
:100AD0009092AC0008952091B900B6B1B6FDFBCF5D
:100AE00004B115B1B6B1BF77B6B9B091AD00B39549
:100AF000B093AD00B83060F12092AD00B091D60057
:100B0000BB2321F1112329F0B091AE00BF3F61F06A
:100B100009C0B091AE000B1739F020F4BB2321F0CF
:100B2000BA9502C0B395E1F300919B00B093AE007B
:100B3000B03050F400ECB03038F400E8B03020F4BD
:100B400000E4B03008F400E000939B00777F089544
:100B50002130B1F00F3FB3E01B0790F4BDE6BB239B
:100B600079F0B091AB000B17B091AC001B0740F4CB
:100B7000B0919B00BB2359F0BA95B0939B0007C07E
:100B8000B0919B00BF3F19F0B395B0939B000091CB
:100B90009B00B0916400B01B10F400916400B09110
:100BA0009C000B1750F000919C00B0919C00BF3F3F
:100BB00021F0B0919C00B0939B00502E00936500F3
:100BC000B091AD00B73009F47860089502E3F8946D
:100BD000B091DC000B9F012D000C001F7894B091A8
:100BE0009B000B1710F000919B0000936200009394
:100BF0006400502E0093650000939E00089520929B
:100C00007700B0EFB09378000895F8940CB51DB557
:100C100078942091730030917400009373001093C6
:100C20007400021B130B71FF1FC060907500709061
:100C3000760020937500309376003719131B1093BC
:100C40007900009173001091740006191709309112
:100C500078002091770036952795020F131F009397
:100C60007700109378002AC02091770030917800A7
:100C7000622E732EB4E08B2EB2E09B2E343010F037
:100C80008A949A94383010F08A949A94769467945F
:100C90008A94E1F726193709992021F016950795CE
:100CA0009A94E1F7200F311F20937700309378005A
:100CB00028F4BFEFB0937700B093780071FF03C0C2
:100CC000B3E09B2E0EC0B091C800009170000238B6
:100CD00040F0B395003A08F0B395B63008F0B5E0AF
:100CE0009B2EB4E08B2E82FF01C08394B0917800DC
:100CF000B33028F48394839482FF01C08394B2308C
:100D000028F48394839482FF01C083941091780027
:100D10000091770024E0169507952A95E1F70819C8
:100D2000120928F0B02FB250B12FB20910F402E02E
:100D300010E0089560FDFECFB0918900B0938D0062
:100D4000B0918A00B0938E006160B9B7B061B9BF4D
:100D50000895312F202F712E602E76946794009382
:100D6000890010938A00B92DB330E9F0B0FD05C0B9
:100D7000060D171D262D372D06C0000F111F02501E
:100D8000120922E030E0B92DB33068F020938B00D7
:100D900030938C000093850010938600609287004A
:100DA00070928800089500938B0010938C0020931C
:100DB000850030938600609287007092880071FFF2
:100DC00010C0B0916E00B33060F000918C001091B3
:100DD00079001595010F28F022F020928B000093E6
:100DE0008C0008950091A300000F10F4BBE60B27C0
:100DF0000093A30060FDFECF6160B9B7B061B9BFD9
:100E0000B72FB670A1F02091770030917800369519
:100E10002795F8940CB51DB5020F131F1BBD0ABD15
:100E20006160B0E1B8BFB9B7B061B9BF7894089557
:100E3000606120927B0020E004C0606120927B0012
:100E400020E267FF01C0949AB72FB67009F06F7E59
:100E5000789401E0B0917800B55048F002E0B550C8
:100E600020F003E0B55008F006E071FD0AE060FDF7
:100E700007C0B0917B00BB2319F07894706108958E
:100E8000789400000000F89410917800173008F072
:100E900017E0B5E01B0F62FF110F71FD12E872FD44
:100EA00011E4B4B56090A000B61908F3B10BF8F2E4
:100EB000B0917B00B395B0937B00B8B171FD04C0D5
:100EC000B4E0BA95F1F7B8B1B072B21709F020C02A
:100ED00071FF0AC003950A3008F0B3CFB0916E00DD
:100EE000B63008F4AECFC3CF64FFABCF6F7E3CB556
:100EF0006DB47090770080907800370D681C6BBCE3
:100F00003ABD6160B0E1B8BFB9B7B061B9BF99CFC0
:100F1000B0916E00B23008F494CF64FD92CF0A9580
:100F200009F0A5CF7F7E089567FF12C0949A979A23
:100F3000959AB7E0BA95F1F7919A909A939AB4E19D
:100F4000BA95F1F791989098939894989798959866
:100F5000B72FB67039F0B0916E0072FFB395B093B1
:100F60006E0007C074FF05C064FD03C0BF91BF9150
:100F700043C5089520918B0030918C00F894B0E126
:100F8000B8BF0CB51DB5020F131F1BBD0ABDB09134
:100F90008500B0938D00B0918600B0938E006160A3
:100FA000B9B7B061B9BF7894089500E063FF03C09A
:100FB00064FF01C001E0F89410917000B7E01B9F3E
:100FC000212D102D7894200F26951795269517958D
:100FD0002695179510937000183718F4B8E7B0935A
:100FE000700000917000B09171000B1720F06062EA
:100FF00091989098939860FDFECFB0918700B09340
:101000008D00B0918800B0938E006160B9B7B06177
:10101000B9BF089567FDF9C0B2E095FD07C0F89427
:10102000B0937A00979A94987894EFC0F894B0931C
:101030007A00979A95987894E8C067FDE6C0B3E087
:1010400082FF24C095FD11C002E0F894B0937A00AD
:10105000EDE7F0E00093B4009398959A62FF02C028
:10106000909A01C097987894D0C002E0F894B09319
:101070007A00EDE7F0E00093B4009198949A62FF53
:1010800002C0909A01C097987894BFC095FD0BC09C
:10109000F894B0937A00E7E6F0E0939862FF01C01D
:1010A000909A7894B2C0F894B0937A00E7E6F0E0B2
:1010B000919862FF01C0909A7894A7C067FDA5C07F
:1010C000B4E095FD07C0F894B0937A00949A95988F
:1010D00078949BC0F894B0937A00959A94987894F9
:1010E00094C067FD92C0B5E082FF24C095FD11C099
:1010F00001E0F894B0937A00E3E7F0E00093B400E5
:101100009098979A62FF02C0919A01C0949878943F
:101110007CC004E0F894B0937A00E7E8F0E0009334
:10112000B4009098979A62FF02C0939A01C0959874
:1011300078946BC095FD0BC0F894B0937A00E1E60B
:10114000F0E0909862FF01C0919A78945EC0F894A4
:10115000B0937A00EDE6F0E0909862FF01C0939AB8
:10116000789453C067FD51C0B6E095FD07C0F89470
:10117000B0937A00959A9798789447C0F894B09372
:101180007A00949A9798789440C067FD3EC0B1E089
:1011900082FF24C095FD11C004E0F894B0937A005A
:1011A000E7E8F0E00093B4009198949A62FF02C0DF
:1011B000939A01C09598789428C001E0F894B09370
:1011C0007A00E3E7F0E00093B4009398959A62FF09
:1011D00002C0919A01C09498789417C095FD0BC0F5
:1011E000F894B0937A00EDE6F0E0919862FF01C0C8
:1011F000939A78940AC0F894B0937A00E1E6F0E00C
:10120000939862FF01C0919A78946F7D089567FF6B
:1012100005C0B2E0B068B064B7B9089500917A0033
:1012200002FD0350013059F495FFB2E0B068B0649C
:10123000B7B995FDB4E0B068B064B7B911C0023079
:1012400029F4B3E0B068B064B7B90AC095FFB4E060
:10125000B068B064B7B995FDB2E0B068B064B7B932
:10126000089520E630E0F9012092B400919890981A
:101270009398949A979A959A6B7F0895A6EBB0E00D
:1012800007E00D9307E00D9301E00D9304E00D934B
:101290000FEF0D930D930AE00D9302E00D9301E023
:1012A0000D9301E00D93A2ECB0E001E00D9300E09E
:1012B0000D9304EB0D930FEF0D930D930D9303E03E
:1012C0000D930FEF0D9301E00D930FEF0D9305E2DA
:1012D0000D9300ED0D9308E70D9308EC0D9304E0DA
:1012E0000D930FEF0D9301E00D9300E00D930AE7CE
:1012F0000D930AE00D9300E00D9301E00D9300E0E3
:101300000D930FEF0D9308952091BD008B7F233037
:1013100009F48460B091BE009F7DB1FD90629F7B17
:10132000B091BF00B1FD9064223011F0886001C01F
:10133000877F08950A95E00FF21DB4910895ECE1BE
:10134000F0E00091B600F6DFB093DA00ECE1F0E0F7
:101350000091B700EFDFB093DB00EAE2F0E000912C
:10136000BC00E8DFB093DC000091D500002309F455
:101370000395013108F001E1B02FB00FB00FB09329
:10138000A6001B2FB10FB10FB00FB093A700B10F84
:10139000B00FB00FB093A800B091D2000FEF1CE0D7
:1013A000B23011F400EA1AE0B33011F402E815E0AB
:1013B0000093710010937200E8E3F0E00091D9000F
:1013C000B9DFB093A100089508952091CC00309129
:1013D000CD0097FF02C020E03FEFB32FB21B6B2E72
:1013E000B25810F4B2E86B2E00E00395609EB12D68
:1013F000B058D8F30093AF0008959068E6DF08D99D
:1014000020E030E0B0E16B2EFFD8B09196002B0FBA
:10141000B0E03B1F6A94C1F7B4E036952795BA95C2
:10142000E1F7822E9F77D1DF0895F894E3E0F0E0B2
:10143000B9E0B7BFB491B078C1F3F894A895B1B54D
:10144000B861B1BDB0E0B1BDB4E0BEBFBFE5BDBFE6
:1014500008DFB0E0B8BBB0E1B7BBB0E0B5BBB0E00F
:10146000B4BBB0EBB2BBBBEBB1BB08DFF1D20091B8
:10147000CE000093B000F894CFD8D9D8C9D8DAD824
:10148000C7D8DBD8C5D873D3C7D8C6D8C3D8F894C3
:101490002224A0E0B0E02D92AA31E9F7A0E6B0E066
:1014A0000FEF2D920A95E9F70AEF1AEFA0B396FD18
:1014B000A095A2FF1FC01A95C9F70A95B1F7E0E001
:1014C000FCE1B591B43E39F4B591B03E21F4B5914B
:1014D000BF3F09F40CC0E0E0F395F395B591B83F38
:1014E00049F4B591B43931F4B591BA3A19F4EE270B
:1014F000F6950994B1E0B093A300C0DEA9D204DF51
:101500001EDF62DF62DF0091CE000093B000A9DE33
:10151000B2E0B3BFB2E0BEBDB2E0B5BDB1E5B8BFA9
:10152000B9BFB0B7B860B0BFB6B1B460B6B96AD829
:1015300078945EDAB0E4BBBFBB27B064BABF8D7FDE
:101540006BD8B1E0B0936B00626033E02CE0B091F7
:101550009500BB2321F42CE03A9509F498CF58D894
:1015600080FF95CF8E7FB0919600B23078F3B92F7F
:10157000BF710091980000939700B0939800B01746
:1015800029F72A9521F76D7F96FFB3E096FDB2E02B
:10159000B5BFBB27B064BABF8D7FB091D800BB2365
:1015A00021F48062B92FB0709B2F8F7B209268004E
:1015B00031D885FF05C0B0916800BA3008F080646A
:1015C00023D802E085FF01C000E0B0919600B0177B
:1015D000B8F3F8942CD82BD82AD878941DD8209218
:1015E000840012D8B091C200B13008F46DC0B0913F
:1015F0006B00B13008F468C085FD18C0B09196004A
:10160000BF3F08F461C0F8941BD8789403D8B09118
:101610009600B130C0F7F8940AD8F8D708D8789473
:10162000F9D7B0919600BF3FB0F3D3C2B8E09B2E7C
:101630009068F894CADE7894EDD7F8949F77C5DE69
:1016400080909600B0919600BF37789408F444C01B
:10165000D9D7F894F5D778949A9451F7CEDEB82D6F
:10166000B550B093CD00D8D7F8941FD285D27894D6
:10167000BAE09B2E9068F894A8DE7894CBD7F894C3
:101680009F77A3DE80909600B0919600BF37789444
:1016900078F7B8D7F894CBD7B9D7C9D778949A94B4
:1016A00049F7ABDEB82DBB5FB093CC00B5D7F8944B
:1016B000FCD171D27894AED7F89487DE7894B0914B
:1016C0009600BF3FC0F385C200919600B0918400A0
:1016D0000B1710F0009384009DD701E0B091BE007D
:1016E000B35009F405E0B0919600B01708F079CF37
:1016F000F894A6D7A5D7A4D778948ED720926B005C
:1017000020926C0020926D00B0916C00B395B09364
:101710006C00BF3F69F5B0916D00B395B0936D005B
:10172000B091D00009E1BA9559F002E3BA9541F0C1
:101730000DE7BA9529F00AEFBA9511F020926D00E5
:10174000B0916D00B017A0F0B0916D00BA95B09354
:101750006D00B4EBB0936C00B091CF00B093B000CB
:10176000F8946ED77894B091CE00B093B00052D771
:101770004DD7B0916900BB2319F485FF01C087CE16
:1017800001E085FD01C006E0B0919600B01708F4B5
:10179000BBCF40D7B0916900BB2309F478CEF89451
:1017A00060DD209262002092630020926400522C3F
:1017B000209265002092A2007894B091BB00BB0FEC
:1017C000B0939F0020927C0020927D0020927E00AA
:1017D00020927F00209280002092AD0060E070E0B7
:1017E00020927000B8E0B093AD0078600BD773FF23
:1017F000B7E073FDB7E0B068B064B7B9B6B1B06830
:10180000B064B6B9B6B1B6FDFDCF04B115B1B6B18D
:10181000BF77B6B9112309F00FEF0093AE005BD983
:10182000B8E0B093AD0078608090BD00B2E0B093B6
:10183000BD006ADD8092BD00F894BFEFB0939B00BD
:10184000C5D9B0916200B0939B00B0939C00B09357
:101850009D007894B1E0B0936200B09364005B2E79
:10186000B0936500B093A500B0919A00B093A40026
:101870007160726020926E0075DC87DCC6D9C5D9B4
:10188000BED9C3D966DABBD9C2DCACDA06C0F894DB
:101890003BDD78942092AD00777FCFDA6BDB44DBC1
:1018A00046D783DBB7DBB1D945DA53DAB0DC9ADA55
:1018B000BFDA60DB39DB66FDB4D76DD876DBBDDB24
:1018C000A4D938DA46DAA3DC8DDAB7DA53DB2CDBBD
:1018D00066FDC9D76ADBF2DB98D92CDA3ADA97DCF5
:1018E00081DAA6DA47DB20DB66FDF7D75EDBF9DBC2
:1018F0008CD920DA2EDA8BDC75DA9FDA3BDB14DB4D
:1019000066FD1BD852DB2EDC80D914DA22DA7FDCAC
:1019100069DA8EDA73FFB7E073FDB7E0B068B064E0
:10192000B7B9B6B1B068B064B6B924DBFDDA3DDB57
:101930002CDC6BD9FFD90DDACED869DC53DA71FF14
:1019400020C067FD1EC0B0919E00B0939B00B09375
:101950009C00B0919A00B093A400B1E0B093A500B0
:1019600018E12CE0B0916E00B11728F07D7F746013
:1019700020936F0006C0B0919600B13008F08DCF73
:101980003BC072FF10C067FD0EC0B0916F00BA95EA
:1019900011F47B7F7CCFB0936F00B0919600B13093
:1019A00008F07BCF29C0B0919900B13058F0B091C8
:1019B0009E00B0939C00B0919A00B093A400B1E057
:1019C000B093A500B0919900B530B0F485FF04C084
:1019D000B0916900BB2381F000EF67FF08C0B091B0
:1019E000B500B395B093B500B63930F400E5B091C9
:1019F0007800B01708F451CF67FF04C09498979807
:101A0000959806D6F8942DDC8090BD00B2E0B09396
:101A1000BD007ADC8092BD002092620020926300BB
:101A200020926400522C2092650020929F007E7FBD
:101A30007894E8D516DC85FF05C0B0916900BB231A
:101A400009F425CDB091C300B13008F0B9CD58CE1E
:101A5000EDE0F0E023D0053A09F01BC0EEE0F0E045
:101A60001DD00A3509F015C03AE0A6EBB0E0E3E07E
:101A7000F0E014D00D9331963A95D9F738E1A2EC05
:101A8000B0E0EFE0F0E00AD00D9331963A95D9F747
:101A900002C0F4DB0AD0E7E2F0E00895E199FECF5E
:101AA000EEBBFFBBE09A0DB308951ED03AE0A6EB63
:101AB000B0E0E3E0F0E00D910FD031963A95D9F720
:101AC00038E1A2ECB0E0EFE0F0E00D9105D0319606
:101AD0003A95D9F712D00895E199FECF0DBBEEBB30
:101AE000FFBBE29AE19A0895EDE0F0E00FEFF4DF3A
:101AF000EEE0F0E00FEFF0DF0895EDE0F0E005EA52
:101B0000EBDFEEE0F0E00AE5E7DF08953091B100A9
:101B10000091B200313011F40093B600323011F46C
:101B20000093B700333011F40093B800343011F44F
:101B30000093CA00353011F40093B900363011F427
:101B40000093BC00373011F40093C800383011F412
:101B50000093BD00393011F40093D2003A3011F4F3
:101B60000093BE003B3011F40093BF00089525E0C0
:101B700053D52A95E9F708955AD55CD55ED560D539
:101B800045D555D557D559D55BD540D550D552D526
:101B900054D556D5089554D550D54CD548D536D5BD
:101BA0004FD54BD547D543D531D54AD546D542D566
:101BB0003ED508958090B1009090B20038D537D5C9
:101BC00036D524D58A94D1F73BD520D59A94E1F720
:101BD0000895F894D1DF7894CADFC9DFB1E0B093FB
:101BE000B100B1E0B093B2002092B300F894E2DF0C
:101BF0007894B5E06B2E709096000ED5B09196005B
:101C00007B16C9F7B13018F0BF3F40F107C07EDF47
:101C1000F8944BDFB1DFB8E0B1BDA9DF6A9459F7A2
:101C2000B091B300B395B093B300B33008F4DECFF6
:101C30009EDFB091B200B395B093B200F894B0912A
:101C4000B100BA95EEE3F0E0EB0FF21D0491789449
:101C50000395B091B200B01708F4C6CF88DF87DFD4
:101C6000B091B100B395B093B100B091B100BC3068
:101C700008F4B7CF03DBF89418DFB8E0B1BD77DF25
:00000001FF
