:020000020000FC
:10000000B2CDADC10000000020C000008DC00000D6
:10001000000097C00000000000000000020304067A
:10002000080C10182030406080000406080C1018DE
:100030002030406080A0C0000003070F1F000D0D9E
:1000400004050D050305030302004FB662FD0CC055
:10005000552041F00994C52DC095089483FDC7959E
:10006000C4BD64604FBE1895C0916400089483FDC0
:10007000C795C4BD6B7FC0916400CF3F09F41DC01C
:1000800070FF19C082FD05C04FBE909A949A959A50
:100090001895909A949A959A76FD0DC065FD0BC0BF
:1000A000C9E0CA95F1F7C091B100C0FD919AC1FDB8
:1000B000939AC2FD979A4FBE189524BCCC27C06472
:1000C000C8BF6460F8CFC7CF70FFC5CF65FDC3CF91
:1000D0009098C1CF70FFBFCF65FDBDCF9498BBCFC7
:1000E00070FFB9CF65FDB7CF9598B5CF919870FFE8
:1000F000B2CF65FDB0CFC7E0CA95F1F79098ABCF0E
:10010000939870FFA8CF65FDA6CFC7E0CA95F1F719
:100110009498A1CF979870FF9ECF65FD9CCFC7E0C4
:10012000CA95F1F7959897CF4FB6C9B7CF7EC9BF9B
:100130006E7FCCB5CE0DDDB5DF1DDBBDCABD4FBEBC
:1001400018953FB68F7EABB7A074A2118061A0E076
:10015000ABBFA9B7AE7FA9BF7894A0916800AA23CE
:1001600041F085FD2AC0A0916800AA95A09368007F
:1001700024C040E050E085FD14C0A0B396FDA095DA
:10018000A2FD4FEFA3E096FDA2E0A5BFAA27A064C1
:10019000AABF8D7FA0B396FDA095A2FD5FEF451786
:1001A00041F7A8E161FDA093680085FD03C0A8E1C7
:1001B000A093680040939600816085FD0EC0A091D9
:1001C0006900AA2331F0A0916900AA95A093690063
:1001D00004C08061AA27A064AABF80FF3CC0A09190
:1001E00096004A2F61FF8E7F85FD1CC0A091B40050
:1001F000A430C1F4403F08F040EFA42FA295AF70A7
:100200004A0F5091B600533069F0A695A69550FD5F
:1002100001C0A69552FD03C0A41B4A2F03C04A0F7C
:1002200008F44FEF40936100A72FA670A1F073FD73
:1002300012C0A0917000AA0FAA0F50919E0056956F
:100240005695541708F0452F4A0F4093610018F453
:10025000AFEFA09361004091B400443009F03EC07C
:10026000A0916100A093630040916300A0919B0066
:100270004A1708F04A2FA0919D004A1708F04A2F0C
:10028000542EA091A000AA2309F422C0542F5A1B77
:1002900010F4A42F50E0BA2E8894AA1FAA2EA09181
:1002A000A200A095AA22A50E58F0A091A100A21527
:1002B00009F0AA95AA0EA093A10048F04A2D08C003
:1002C000A091A100BA1608F0A395A093A1004FEF4A
:1002D000409364007F7B485F08F07064A52DA034D4
:1002E00008F06860A0916000A395A093600051F0B1
:1002F000F894A9B7A160A9BF84FF02C0A0E4ABBF76
:100300003FBE1895A0917400A395A093740041E09E
:1003100050916800552329F085FF03C05A955093EA
:100320006800A0919600A13018F0209299000DC0AD
:1003300020929A002092A300A0919900AF5FA09311
:10034000990018F0AFEFA0939900F894A9B7A160B5
:10035000A9BF84FF02C0A0E4ABBF3FBE18953FB663
:100360004CB55DB58F7EABB7A074A2118061A0E0E3
:10037000ABBFA9B7AE7FA9BF789481FD23C0A2E02F
:1003800096FDA3E0A5BF8260A0B396FDA095A2FF55
:1003900005C040936500509366003EC1A3E096FD02
:1003A000A2E0A5BFAA27A064AABF8D7F85FF01C0D8
:1003B00026C140E0A0B396FDA095A2FD20C14093C8
:1003C00096000FC1A3E096FDA2E0A5BF8D7F61FF5F
:1003D00071C0A2E096FDA3E0A5BFAA27A064AABFB2
:1003E00082604093910050939200A0908F004A1930
:1003F000B09090005B09BB24A22C4C38520518F435
:100400002092950049C0A091D400AA2359F1483CFC
:10041000520528F4A0E1BA2EAAE0AA2E23C048363D
:10042000A1E05A0728F4A8E0BA2EAFE0AA2E1AC01D
:10043000403DA2E05A0728F4A4E0BA2EAEE1AA2E6D
:1004400011C0403AA5E05A0728F4A2E0BA2EACE366
:10045000AA2E08C04839A8E05A0720F4A1E0BA2E15
:10046000A8E7AA2EC42EA0919300CA1AD52EA09157
:100470009400DA0ADD202AF4AFEFC094D094CA1AAF
:10048000DA0A20929500A8E0A210A0E0CA14DA06C9
:1004900018F4A1E0A093950040939300509394002A
:1004A000409191005091920040938F0050939000A2
:1004B00042E097C0A09165004A1BA09166005A0BCC
:1004C00094FD82C093FD80C092FD7CC086FF03C076
:1004D000D52EC42E0CC05695479591FD73C05695E8
:1004E000479590FD6FC0D52EC42ED694C79461FD5C
:1004F00019C0AC2DAC51AD2DA24008F005C0DD20D7
:1005000089F4AC2DA85C70F4A0916700A395AA2390
:1005100011F0A0936700AA3008F471C020929600F1
:1005200081606DC0A0916700AA2319F0AA95A093DD
:100530006700A22C5091BA0097FD06C0A090C80099
:10054000533011F4A090D000AAEFAA0EA22DA21D44
:10055000CA18DA0A4FB74170533049F4442321F0E6
:1005600087FD05C0806803C087FF01C08F774423E3
:1005700059F0533031F4AFEFC094D094CA1ADA0A6C
:1005800003C040E050E020C0533049F4CC0CDD1CE7
:10059000AAE0CA1AD20818F4A0E0CA2ED22CAFEFF3
:1005A000CA16D20418F04FEF50E00EC0A091AC0074
:1005B000CA9E412D000C441F50E008F012C04FEFBE
:1005C00050E00FC05695479594FF07C0552309F09A
:1005D0004FEFA42FA6954A0F521D4F3F520508F02A
:1005E0004FEF40939600816061FF09C0AFE1A09595
:1005F000A923AB299A2F8F7DBB2009F48062A8E143
:10060000A093680085FF03C0AAE0A093680061FD85
:1006100003C085FD01C08F7E85FD03C0A6E0A093C9
:100620006900F894A9B7A160A9BF84FF02C0A0E443
:10063000ABBF3FBE189511E00AC013E008C01AE036
:1006400006C01EE104C014E602C018EC00C005E1BB
:10065000BB27BA95F1F70A95D9F71A95C1F708950E
:100660002AE338E709C020E33CE806C02AE234EB7D
:1006700003C025E238EC00C012E0BB279398BA957E
:10068000F1F79498BA95F1F7949ABA95F1F7939A8D
:10069000BA95F1F7123009F09098123009F4959854
:1006A000B091AD00BA95F1F7123009F0909A12307E
:1006B00009F4959AB7E8BA95F1F71A95F1F6022F71
:1006C000B22FBA95F1F70A95D9F73A95A9F693980A
:1006D0000895221B39E0001F3A9509F40895221F5E
:1006E000211B18F4210F8894F6CF0894F4CF622CC4
:1006F000722CB0E08894B395221F331FE0F7379532
:1007000027958894912E802E020B130B10F4192D2F
:10071000082D10F4889401C00894661C771CBA95C3
:1007200071F7172D062D0895322D11232AF43A95CD
:1007300000951095031B130BF894029F712C002D4C
:10074000129F912C802C7894780C172D921C292DB7
:10075000B4E06B2E2695179507956A94D9F7332345
:1007600021F000951095031B130B08950091B40020
:100770000430A1F1B0919600B15008F010C0B091D2
:100780006100B093630020927E0020927F0020924F
:10079000800020928100209282006F7B1FC06090B9
:1007A000B4006064B0916100B093620008E317EC9C
:1007B00020917A0030917B0036952795B62DBA9519
:1007C00041F036952795B62DBA95BA9511F0369524
:1007D00027958DDF00937E0010937F000895009190
:1007E0007E00B09162000B1B10917F00120928F46B
:1007F0000038BFEF1B0740F009C00F37120508F49F
:1008000005C00FE710E002C000E81FEF009383006F
:1008100010938400089500918300B09180000B0F25
:1008200010918400B09181001B1F20E03091840062
:1008300033230AF42A95B09182002B1F1AF4203F2B
:1008400040F00AC02F3008F407C00FEF1FEF2FE071
:1008500003C000E010E020EF30916300B0919B00F6
:100860003B1718F4323030F009C0B0918400BB233C
:100870005AF004C0B0918400BB2332F4009380008E
:10088000109381002093820008952091D700009159
:100890008300000F10918400111F46DF11232AF4FA
:1008A0000038BFEF1B0740F009C00F37120508F4EE
:1008B00005C00FE710E002C000E81FEF002352F070
:1008C000B0916200B01B0B2F18F0013008F00AC085
:1008D00001E008C000950F5FB09162000B0F08F0B7
:1008E00001C00FEF0093850008952091D80000917A
:1008F00081001091820018DF11232AF40130BFEF2C
:100900001B0740F009C00F3F120508F405C00FEFA8
:1009100010E002C001E01FEF112352F0B0918500FA
:10092000B01B0B2F18F0013008F00AC001E008C01E
:1009300000950F5FB09185000B0F08F001C00FEF1D
:100940000093630008950FEF677F71FD29C072FD6A
:1009500009C06860B0917B00BA3020F0B52DB0348A
:1009600008F4677FB091D300BB23D1F0B0917B0036
:10097000BB23B1F00FEF10917B00ABDEF894B09188
:10098000730072FDB5E00B9F112D002D789411239B
:1009900009F00FEFB0919E000B1710F400919E002C
:1009A00000939D00089500917A0010917B000054FF
:1009B0001140B0919D0010F4BA9501C0B39511F0AB
:1009C000B0939D00089500C008952091B500B6B180
:1009D000B6FDFBCF04B115B1B6B1BF77B6B9B091D2
:1009E000AA00B395B093AA00B83060F12092AA0093
:1009F000B091D200BB2321F1112329F0B091AB00BB
:100A0000BF3F61F009C0B091AB000B1739F020F483
:100A1000BB2321F0BA9502C0B395E1F300919B008E
:100A2000B093AB00B03050F400ECB03038F400E8D4
:100A3000B03020F400E4B03008F400E000939B00F4
:100A40007F7E089510919B00B0E11B0F08F41FEF0B
:100A500010939B00B091B400B43081F000919B00E2
:100A6000B0916300B01B10F400916300B0919D0041
:100A70000B1708F00B2F502E00936400B091AA00C2
:100A8000B73009F47061089502E3F894B091D90089
:100A90000B9F012D000C001F7894B0919B000B1749
:100AA00010F000919B000093610000936300502EB2
:100AB0000093640000939E00089520927A00B0EFA6
:100AC000B0937B000895F8940CB51DB52091740087
:100AD00078943091750060907600009375001093C3
:100AE0007600031B160971FD03C077FD7DC027C08A
:100AF00070907700209377002709222311F00FEFE1
:100B00001FEF809078009090790030937800609289
:100B1000790000917500109176000819190920914B
:100B20007A0030917B0036952795020F131F10F441
:100B30000FEF1FEF00937A0010937B0029C02091E4
:100B40007A0030917B003901B4E08B2EB2E09B2E0D
:100B5000343010F08A949A94383010F08A949A9431
:100B6000769467948A94E1F726193709992021F041
:100B7000169507959A94E1F7200F311F20937A007C
:100B800030937B0028F43FEF30937A0030937B0062
:100B9000323008F4706871FF02C0B3E00DC0B0914C
:100BA000C40000917100023838F0B395003A08F0A3
:100BB000B395B63008F0B5E09B2EB4E08B2E1091C3
:100BC0007B0000917A0024E0169507952A95E1F7BD
:100BD0000819120928F0B02FB250B12FB20910F441
:100BE00002E010E0980126C020917A0030917B004D
:100BF000390176946794669466946694261932094E
:100C000006950695200F321D20937A0030937B00C5
:100C1000323008F07F7704E0369527953695279592
:100C200026952695201B10F0223008F422E0890139
:100C30009090C40060FDFECFE0908B00F0908C009F
:100C40006160B9B7B061B9BF380177FD41C0769432
:100C5000679400938B0010938C00B92DB330E1F0B2
:100C6000B0FD04C0060D171D930106C0000F111F33
:100C70000250120922E030E0B92DB33068F0209321
:100C80008D0030938E00009387001093880060924F
:100C9000890070928A003AC000938D0010938E00F4
:100CA00020938700309388006092890070928A00B8
:100CB00071FF0DC0BFE0B0938D0020928E00B09305
:100CC000890020928A00B0938B0020928C001EC075
:100CD000669400938B00B92DB33091F0B0FD03C042
:100CE000060D262D03C0000F025022E0B92DB330AF
:100CF00038F020938D00009387006092890006C031
:100D000000938D00209387006092890000917C0001
:100D100002FD0350013031F495FD0CC0B4E0B06C1D
:100D2000B7B90BC0023021F4B3E0B06CB7B905C05D
:100D300095FDF4CFB2E0B06CB7B90091A200000FFE
:100D400010F4BBE60B270093A20060FDFECFB2E0DB
:100D5000B0936E006160B9B7B061B9BFB72FB6701C
:100D6000D1F020917A0030917B0036952795369509
:100D7000279571FF02C0B0E43B0FF8940CB51DB588
:100D8000020F131F1BBD0ABD6160B0E1B8BFB9B748
:100D9000B061B9BF78940895606120927D0020E031
:100DA00067FD20E206C0606120927D0020E267FDC1
:100DB00020E001E011E077FD11C0B72FB67009F017
:100DC0006F7E14E100917B00069509F403950F30C6
:100DD00008F00FE071FF02C004E114E160FD0FC0F4
:100DE000B0917D00BB2359F071FF06C0B0916E0039
:100DF000BA95B0936E0011F4706247C0ABDFB0B724
:100E0000B77FB0BFB8B1B0B7B860B0BFB0917D0028
:100E1000B395B0937D00B8B177FD06C0B1E071FD28
:100E2000B3E0BA95F1F7B8B1B072B21709F022C0C9
:100E300071FF05C00395011708F00A95CFCF64FD37
:100E400005C00395011708F0B4CFC8CF6F7EF894A2
:100E50003CB56DB470907A0080907B00370D681CB3
:100E60006BBC3ABD6160B0E1B8BFB9B7B061B9BFA2
:100E700078949FCFB0916D00B13008F49ACF64FDA3
:100E800098CF0A9509F0AACF7F7D20918D003091EF
:100E90008E00F894B0E1B8BF0CB51DB5020F131F5A
:100EA0001BBD0ABDE0908700F09088006160B9B773
:100EB000B061B9BF7894B72FB67039F0B0916D00BA
:100EC00072FFB395B0936D0009C075FF07C067FD51
:100ED00005C064FD03C0BF91BF91F1C4089500E057
:100EE00063FF03C064FF01C001E0F894109171003A
:100EF000B7E01B9F212D102D7894200F2695179574
:100F0000269517952695179510937100183718F4A4
:100F1000B8E7B093710000917100B09172000B17A7
:100F200020F06062909A949A959A60FDFECFE090CE
:100F30008900F0908A006160B9B7B061B9BF0895C7
:100F4000B2E095FD0AC0F894B0937C009398919A12
:100F500062FF01C095987894F4C0F894B0937C0037
:100F60009398979A62FF01C090987894EAC0B3E092
:100F700082FF24C095FD11C002E0F894B0937C007C
:100F8000E0E8F0E00093B100959A979862FF02C004
:100F9000949801C0939A7894D4C002E0F894B093E6
:100FA0007C00E0E8F0E00093B100909A919862FF35
:100FB00002C0949801C0939A7894C3C095FD0BC069
:100FC000F894B0937C00EAE6F0E0959A62FF01C0E5
:100FD00094987894B6C0F894B0937C00EAE6F0E078
:100FE000909A62FF01C094987894ABC0B4E095FDEC
:100FF0000AC0F894B0937C009198979A62FF01C060
:10100000949878949EC0F894B0937C009798919AA5
:1010100062FF01C09498789494C0B5E082FF24C028
:1010200095FD11C001E0F894B0937C00E6E7F0E094
:101030000093B100949A939862FF02C0909801C007
:10104000919A78947EC004E0F894B0937C00EAE82A
:10105000F0E00093B100949A939862FF02C09598D3
:1010600001C0979A78946DC095FD0BC0F894B09329
:101070007C00E4E6F0E0949A62FF01C090987894D6
:1010800060C0F894B0937C00E0E7F0E0949A62FFCF
:1010900001C09598789455C0B6E095FD0AC0F894C3
:1010A000B0937C009798939A62FF01C090987894CF
:1010B00048C0F894B0937C009198939A62FF01C065
:1010C000959878943EC0B1E082FF24C095FD11C090
:1010D00004E0F894B0937C00EAE8F0E00093B100FB
:1010E000909A919862FF02C0959801C0979A78945F
:1010F00028C001E0F894B0937C00E6E7F0E00093AC
:10110000B100959A979862FF02C0909801C0919A99
:10111000789417C095FD0BC0F894B0937C00E0E77D
:10112000F0E0909A62FF01C0959878940AC0F89414
:10113000B0937C00E4E6F0E0959A62FF01C09098DD
:1011400078946F7D089523E630E0F9012092B10094
:10115000909A949A959A9198939897986B7F0895FE
:10116000A2EBB0E009E00D9309E00D9304E00D93CC
:101170000FEF0D9303E00D930FEF0D9309E00D9327
:1011800003E00D9301E00D9301E00D93AEEBB0E0B1
:1011900001E00D930FEF0D930D930D930D930D93B0
:1011A00003E00D930FEF0D930FEF0D930D9305E2F9
:1011B0000D9300ED0D9308E20D9300E50D9304E00F
:1011C0000D930FEF0D9302E00D9300E00D930AE7EE
:1011D0000D930FEF0D9300E00D9301E00D9300E0F0
:1011E0000D9303E00D9300E00D9308952091B90055
:1011F0008B7F233009F48460B091BA00B33019F0CA
:101200009F7DB1FD90629F7BB091BB00B1FD90646A
:10121000223011F0886001C0877F08950A95E00FA1
:10122000F21DB4910895ECE1F0E00091B200F6DF18
:10123000B093D700ECE1F0E00091B300EFDFB093A2
:10124000D800EAE2F0E00091B800E8DFB093D900FE
:101250000091B800023008F402E000937300B091EE
:10126000CE000FEFB23009F400EAB33009F402E81F
:1012700000937200E8E3F0E00091D500CFDFB09377
:10128000A000089508952091C8003091C900B09140
:10129000BA00B33009F43E5097FF02C020E03FEFA0
:1012A000B32FB21B6B2EB25810F4B2E86B2E00E0D5
:1012B0000395609EB12DBD57D8F30093AC000895FF
:1012C0009068E1DFBED920E030E0B0E16B2EB5D907
:1012D000B09196002B0F321D6A94C9F7B4E0369591
:1012E0002795BA95E1F7822E9F77CDDF0895F89480
:1012F000E3E0F0E0B9E0B7BFB491B078C1F3F8949F
:10130000A895B1B5B861B1BDB0E0B1BDB4E0BEBFA4
:10131000BFE5BDBF18DFB4E0B8BBB4E1B7BBB0E018
:10132000B5BBB0E0B4BBB1E3B2BBBBEBB1BB2224F5
:10133000A0E0B0E02D92AA31E9F7A0E6B0E00FEF0F
:101340002D920A95E9F7B1E0B093A20009DFF3D23C
:10135000B7E0B06CB7B9B6B1B460B068B6B90091D7
:10136000CA000093AD00B1E0B0936A00F8946DD963
:1013700077D967D978D965D979D963D9F8940AEF3B
:101380001AEFA0B396FDA095A2FF1FC01A95C9F74A
:101390000A95B1F7E0E0FCE1B591B43E39F4B591BE
:1013A000B03E21F4B591BF3F09F40CC0E0E0F395E5
:1013B000F395B591B83F49F4B591B43931F4B5918D
:1013C000BA3A19F4EE27F695099410DF2CDF5ADFAC
:1013D0005ADF0091CA000093AD00B5DEB2E0B3BFA2
:1013E000B2E0BEBDB2E0B5BDB1E5B8BFB9BFB0B700
:1013F000B77FB0BFB8B1B0B7B860B0BF1CD97894F0
:10140000E2DA20927000B3E096FDB2E0B5BFB0E43E
:10141000BBBFBB27B064BABF8D7F17D9626033E012
:101420002CE0B0919500BB2321F42CE03A9509F40F
:10143000A5CF07D980FFA2CF8E7FB0919600B230A2
:1014400078F3B92FBF710091980000939700B09383
:101450009800B01729F72A9521F76D7FB3E096FD24
:10146000B2E0B5BFBB27B064BABF8D7FB091D400E6
:10147000BB2321F48062B92FB0709B2F8F7B209209
:101480006700E1D885FF05C0B0916700BA3008F069
:101490008064D3D802E085FF01C000E0B0919600DF
:1014A000B017B8F3F894DCD8DBD8DAD87894CDD874
:1014B00020928600B091BA00B33009F473C0BDD851
:1014C000B091BE00B13008F46DC0B0916A00B13087
:1014D00008F468C085FD18C0B0919600BF3F08F4BD
:1014E00061C0F894C6D87894AED8B0919600B13067
:1014F000C0F7F894B5D8A3D8B3D87894A4D8B0914D
:101500009600BF3FB0F3D8C2B3E09B2E9068F8942A
:10151000BADE789498D8F8949F77B5DE80909600DC
:10152000B0919600BF37789408F444C084D8F894FA
:10153000A0D878949A9451F7C3DEB82DB093C9001F
:1015400084D8F89425D28BD27894BAE09B2E9068F8
:10155000F89499DE789477D8F8949F7794DE809009
:101560009600B0919600BF37789478F764D8F894D5
:1015700077D865D875D878949A9449F7A1DEB82DB4
:10158000BB5FB093C80061D8F89402D277D2789448
:101590005AD8F89478DE7894B0919600BF3F08F45A
:1015A00099CF8AC200919600B09186000B1710F077
:1015B0000093860048D801E0B091BA00B35009F416
:1015C00005E0B0919600B01708F074CFF89451D8A8
:1015D00050D84FD8789439D820926A0020926B0066
:1015E00020926C00B0916B00B395B0936B00BF3F3D
:1015F00071F5B0916C00B395B0936C00B091CC00D4
:1016000009E1BA9559F002E3BA9541F00DE7BA95B0
:1016100029F00AEFBA9511F020926C00B0916C009D
:10162000B017A8F090DD07D8B0916C00BA95B093D0
:101630006C0020926B00B091CB00B093AD00F89499
:1016400018D87894B091CA00B093AD00FCD7F7D702
:10165000B0916800BB2319F485FF01C08FCE01E073
:1016600085FD01C006E0B0919600B01708F4BACF2E
:10167000B091BA00B35009F0E6D7B0916800BB232F
:1016800009F47CCEF8945FDD209261002092620024
:1016900020926300522C209264002092A100789442
:1016A000B091B700BB0FB0939F0020927E002092B4
:1016B0007F00209280002092810020928200209260
:1016C000AA0060E070E020927100B8E0B093AA0038
:1016D0007061B1D7B7E074FDB7E0B06CB7B9B6B11F
:1016E000B068B064B6B9B6B1B6FDFDCF04B115B1FE
:1016F000B6B1BF77B6B9112309F00FEF0093AB0075
:1017000064D9B8E0B093AA00706170DDF894BFEFBF
:10171000B0939B00B9D9B0916100B0939B00B09396
:101720009C00B0939D007894B1E0B0936100B093B9
:1017300063005B2EB0936400B093A400B0919A0054
:10174000B093A300B091BA00B33019F49F7D87FD28
:1017500090627160726020926D009EDCB4DCADD945
:10176000B2D9ABD9B0D9A9D91EDB00D8B8DBE8DB38
:10177000AAD912DB66FD33D877FFE5D877FD13D9F8
:10178000AEDBF5DBA0D90FDB66FD45D8A8DB2EDC90
:101790009AD902DB66FD79D8A2DB3FDC94D903DB62
:1017A00066FDA3D89CDB78DC8ED9F6DAB7E074FD51
:1017B000B7E0B06CB7B9B6B1B068B064B6B98FDB9A
:1017C00082DC81D902D971FF24C0B0919E00B09310
:1017D0009B00B0939C00B0919A00B093A300B1E03D
:1017E000B093A40018E12CE0B0916D00B11758F04F
:1017F0007D7F746020936F00B0919E00B0939B003A
:10180000B0939D0006C0B0919600B13008F0ACCF07
:1018100060C072FF11C067FD0FC0B0916F00BA9534
:1018200019F47B7F7860A0CFB0936F00B0919600E1
:10183000B13008F099CF4DC020927000B09199005E
:101840000AEF1091D600112309F003E0B01708F059
:1018500040C085FF04C0B0916800BB23D1F1B091B6
:10186000BA00B33081F495FD03C087FD04C00BC0FE
:1018700087FF01C008C067FD06C06068B0919E0088
:10188000B0939B0086CF00EF67FF05C0B0919E002C
:10189000B0939B0000E2B0917B00B01708F464CFD6
:1018A00067FF17C06F779F7D87FD90627460B2E11C
:1018B000B0936F00B0919E00B0939B0055CFB09154
:1018C0007000B395B0937000B0919600BB2309F0FF
:1018D00002C020927000F89436DC8090B900B2E02B
:1018E000B093B90083DC8092B9002092610020920D
:1018F000620020926300522C2092640020929F008C
:1019000060E070E078949FD61EDC0091D600002342
:1019100019F0909894989598B7E0B06CB7B9B6B1B3
:10192000B460B068B6B985FF05C0B0917000B4303E
:1019300008F024CD53CEEDE0F0E023D0053509F0DA
:101940001BC0EEE0F0E01DD00A3A09F015C03AE005
:10195000A2EBB0E0E3E0F0E014D00D9331963A95BD
:10196000D9F739E1AEEBB0E0EFE0F0E00AD00D934B
:1019700031963A95D9F702C0F3DB0AD0E8E2F0E0FD
:101980000895E199FECFEEBBFFBBE09A0DB3089539
:101990001ED03AE0A2EBB0E0E3E0F0E00D910FD012
:1019A00031963A95D9F739E1AEEBB0E0EFE0F0E0EF
:1019B0000D9105D031963A95D9F712D00895E19955
:1019C000FECF0DBBEEBBFFBBE29AE19A0895EDE0BE
:1019D000F0E00FEFF4DFEEE0F0E00FEFF0DF08955E
:1019E000EDE0F0E005E5EBDFEEE0F0E00AEAE7DF4E
:1019F00008953091AE000091AF00313011F40093A2
:101A0000B200323011F40093B300333011F400937C
:101A1000B400343011F40093B600353011F4009363
:101A2000B800363011F40093C400373011F400933D
:101A3000B900383011F40093D500393011F4009317
:101A4000CE003A3011F40093BA003B3011F4009309
:101A5000BB00089525E0F9D52A95E9F7089500D649
:101A600002D604D606D6EBD5FBD5FDD5FFD501D6DB
:101A7000E6D5F6D5F8D5FAD5FCD50895FAD5F6D53C
:101A8000F2D5EED5DCD5F5D5F1D5EDD5E9D5D7D55F
:101A9000F0D5ECD5E8D5E4D508958090AE009090CF
:101AA000AF00DED5DDD5DCD5CAD58A94D1F7E1D536
:101AB000C6D59A94E1F70895F894D1DF7894CADFF7
:101AC000C9DFB1E0B093AE00B1E0B093AF002092B7
:101AD000B000F894E2DF7894B5E06B2E7090960039
:101AE000B4D5B09196007B16C9F7B13018F0BF3F5E
:101AF00040F107C07EDFF8944BDFB1DFB8E0B1BD45
:101B0000A9DF6A9459F7B091B000B395B093B000D3
:101B1000B33008F4DECF9EDFB091AF00B395B09341
:101B2000AF00F894B091AE00BA95EEE3F0E0EB0FA1
:101B3000F21D049178940395B091AF00B01708F4AA
:101B4000C6CF88DF87DFB091AE00B395B093AE000B
:101B5000B091AE00BC3008F4B7CF02DBF89418DFC8
:081B6000B8E0B1BD77DFC3CB93
:00000001FF
