:020000020000FC
:100000000C944109B5C2000000000000000000008F
:1000100000000000000000000000000000000000E0
:100020000000000033C0000000000000BBC1000061
:1000300000000000000000000000000000000000C0
:10004000B7C1000000000000000000000000000038
:100050000000000002030406080C10182030406065
:10006000800002030406080C101820304080FF00B6
:100070000406080C10182030406080A0C000000268
:10008000010005050D050D06030503024FB662FDCF
:1000900023C070FF20C064FD1EC057FE01C009943C
:1000A000C0913401C395C0933401C5E0C519B8F3BC
:1000B000D0913401CD1B98F3C8E7089485FDC7950E
:1000C000C093B200C52DCC2329F4C0E085FDC0E863
:1000D000C093B20065C158C171FF03C02B982C9822
:1000E0002D98C52D089485FDC795C093B200C09387
:1000F00036016B7FC52DCF3F09F462C0C091350139
:10010000C395C093350170FF07C082FD09C02B98CD
:100110002C982D984FBE18952B982C982D984BC045
:1001200078607F7EC0913A01CC2399F0C09135016F
:10013000CA95D0913A01CD1B60F0777F7061C09174
:100140003501D0913901CD1B08F435C0209235011D
:1001500032C084FD0AC02B982C982D98C1E0CA9516
:10016000F1F72A9A289A299A26C02B982C982D982C
:10017000C0911301C2FD10C0C1FD05C095FF2A9AB0
:1001800095FD299A18C0C0FD02C0289A14C095FF99
:10019000299A95FD2A9A0FC0C1FD09C0C0FD05C06E
:1001A00095FF2A9A95FD299A06C0289A04C095FFC2
:1001B000299A95FD2A9A2B982C982D984FBE189520
:1001C0004FBE1895E1C0552021F095FF2B9A95FD63
:1001D0002D9A2C98D9C0552009F02C9A95FF2D986E
:1001E00095FD2B98D1C0552021F095FF2D9A95FDB6
:1001F0002B9A95FF2B9895FD2D98C6C095FF2A98B0
:1002000095FD2998552021F095FF2B9A95FD2D9A63
:1002100095FF299895FD2A982C98B6C095FF2A98A5
:1002200095FD299895FF299895FD2A98C1E0CA95D2
:10023000F1F7552021F095FF2B9A95FD2D9A2C98DA
:10024000A3C095FF2A9895FD2998552021F095FF88
:100250002B9A95FD2D9A28982C9896C095FF2A9850
:1002600095FD29982898C1E0CA95F1F7552021F00D
:1002700095FF2B9A95FD2D9A2C9886C0289855208D
:1002800009F02C9A95FF2A9895FD299895FF2D98AD
:1002900095FD2B9879C0289895FF2A9895FD299867
:1002A000C1E0CA95F1F7552009F02C9A95FF2D98D9
:1002B00095FD2B9869C02898552009F02C9A95FF38
:1002C000299895FD2A9895FF2D9895FD2B985CC04F
:1002D000289895FF299895FD2A98C1E0CA95F1F7CD
:1002E000552009F02C9A95FF2D9895FD2B984CC020
:1002F00095FF299895FD2A98552021F095FF2D9A74
:1003000095FD2B9A289895FF2B9895FD2D983CC02C
:1003100095FF299895FD2A982898C1E0CA95F1F78C
:10032000552021F095FF2D9A95FD2B9A95FF2B983E
:1003300095FD2D9829C095FF299895FD2A9855205F
:1003400021F095FF2D9A95FD2B9A95FF2A9895FD02
:10035000299895FF2B9895FD2D9816C095FF299803
:1003600095FD2A9895FF2A9895FD2998C1E0CA9590
:10037000F1F7552021F095FF2D9A95FD2B9A95FFC9
:100380002B9895FD2D9800C0C52DC095089485FD2E
:10039000C795C093B200C0933601209234016460C7
:1003A0004FBE18954FB6C2E0C6BB6E7F4FBE1895C4
:1003B0003FB68F7BADB3A170A2118064A0E0ADBB4E
:1003C000A0916E00AE7FA0936E007894A09106017C
:1003D000AA2349F0A92FAF7159F1A0910601AA955E
:1003E000A093060125C040E050E0A9B196FDA0957C
:1003F000A2FD4FEF96FFA3E096FDA2E0A093690057
:10040000AA27A160ACBB8D7FA9B196FDA095A2FDE6
:100410005FEF451741F7A8E161FDA0930601A92F01
:10042000AF7119F0A8E1A093060140932B01816000
:10043000A0910701AA2331F0A0910701AA95A093EA
:10044000070107C0A92FAF7121F08064AA27A1601E
:10045000ACBB80FF50C0A0912B014A2F8E7FA92FEB
:10046000AF71C1F0403F08F040EFA42FA295AF70EC
:100470004A0F50914A01533069F0A695A69550FD58
:1004800001C0A69552FD03C0A41B4A2F03C04A0F0A
:1004900008F44FEFA09133014A1708F44A2F409314
:1004A000010171FF08C0A091010150913001A51711
:1004B00010F050930101A091010140910301A41B90
:1004C00070F040916701A40B50F0A0910301A40FBC
:1004D000A093030140F4AFEFA093030104C0A091E7
:1004E0000101A093030140910301A09130014A173B
:1004F00008F04A2F542EA0910001A395A09300016B
:1005000061F0F894A0916E00A160A0936E0086FF48
:1005100002C0A1E0ADBB3FBE189541E0509106017D
:10052000552331F0A92FAF7119F45A955093060154
:10053000A0912B01A13018F020922E010DC0209225
:100540002F0120923701A0912E01AF5FA0932E01C1
:1005500018F0AFEFA0932E01F894A0916E00A16067
:10056000A0936E0086FF02C0A1E0ADBB3FBE189510
:100570003FB640918400509185008F7BADB3A17050
:10058000A2118064A0E0ADBBA0916E00AE7FA093ED
:100590006E00789481FD28C096FFA2E096FDA3E04E
:1005A000A09369008260A9B196FDA095A2FF05C045
:1005B00040930401509305012EC196FFA3E096FDE0
:1005C000A2E0A0936900AA27A160ACBB8D7FA92FF0
:1005D000AF7109F411C140E0A9B196FDA095A2FD4B
:1005E0000BC140932B01FEC096FFA3E096FDA2E055
:1005F000A09369008D7F61FF67C096FFA2E096FD22
:10060000A3E0A0936900AA27A160ACBB82604093DD
:10061000260150932701A09024014A19B09025018A
:100620005B09BB24AAEFAA2E483CA0E05A0728F495
:10063000A0E1BA2EAAE0AA2E23C04836A1E05A07AC
:1006400028F4A8E0BA2EAFE0AA2E1AC0403DA2E0DE
:100650005A0728F4A4E0BA2EAEE1AA2E11C0403AFF
:10066000A5E05A0728F4A2E0BA2EACE3AA2E08C0EF
:100670004839A8E05A0720F4A1E0BA2EA8E7AA2E2C
:10068000C42EE0902801CE18D52EF0902901DF0865
:10069000DD202AF4AFEFC094D094CA1ADA0A20926F
:1006A0002A01DD2029F4CA1418F4A1E0A0932A013C
:1006B0004093280150932901409126015091270130
:1006C0004093240150932501E09004014E19F090CD
:1006D00005015F0994FD79C093FD77C092FD73C059
:1006E0005695479591FD6FC05695479590FD6BC007
:1006F000D52EC42ED694C79461FD0CC0AC2DAC5140
:10070000AD2DA24008F078C0DD2021F4AC2DA85C0E
:1007100008F472C0A0E0EA2E97FD08C0E0905C01EA
:10072000A0914E01A33011F4E0906401AAEFEA0E0B
:10073000F22CF21CCE18DF084FB74170A0914E0189
:10074000A33091F4442329F095FD0EC0F8949062F3
:1007500004C095FF09C0F8949F7D2B982C982D9884
:100760002A98289829987894442369F0A0914E01FA
:10077000A33031F4AFEFC094D094CA1ADA0A03C0A0
:1007800040E050E022C0A0914E01A33049F4CC0CCF
:10079000DD1CA5E0CA1AD20818F4A0E0CA2ED22C9B
:1007A000AFEFCA16D20418F04FEF50E00EC0F09031
:1007B0004101CF9C412D000C441F50E008F012C0B5
:1007C0004FEF50E00FC05695479594FF07C0552353
:1007D00009F04FEFA42FA6954A0F521D4F3F520527
:1007E00008F04FEF40932B01816061FF05C0AFE13E
:1007F000A095A923AB299A2FA8E1A0930601A92FC0
:10080000AF7119F4AAE0A093060161FD04C0A92FFD
:10081000AF7109F08F7BA6E0A0930701A92FAF71FC
:1008200019F4AAE0A0930701F894A0916E00A160CA
:10083000A0936E0086FF02C0A1E0ADBB3FBE18953D
:1008400011E00AC013E008C01AE006C01EE104C0AF
:1008500014E602C018EC00C005E1BB27BA95F1F719
:100860000A95D9F71A95C1F708952AE338E709C020
:1008700020E33CE806C02AE234EB03C025E238EC72
:1008800000C0652CB1E05B2E12E095FD9F7D95FFC9
:100890009062BB272898BA95F1F7552009F02C9A59
:1008A000BA95F1F72C98BA95F1F7289ABA95F1F71D
:1008B000552021F095FF2B9A95FD2D9AB09142017C
:1008C000BA95F1F795FF2B9895FD2D98B7E8BA9555
:1008D000F1F71A95D1F6022FB22FBA95F1F70A95D2
:1008E000D9F73A9571F62898562C0895622C722CF7
:1008F000B0E08894B395221F331FE0F73795279512
:100900008894912E802E020B130B10F4192D082DB4
:1009100010F4889401C00894661C771CBA9571F78E
:10092000172D062D0895322D11232AF43A9500959E
:100930001095031B130BF894029F712C002D129F2E
:10094000912C802C7894780C172D921C292DB4E0D2
:100950006B2E2695179507956A94D9F7332321F0C6
:1009600000951095031B130B0895089565FF21C092
:10097000109112011695009111010795B091150182
:10098000B01B0B2FB0911601B10B1B2F28F40038B0
:10099000BFEF1B0740F009C00F37120508F405C070
:1009A0000FE710E002C000E81FEF00931A01109358
:1009B0001B01089565FF39C000911A01B09117011C
:1009C0000B0F10911B01B09118011B1F20E03091FB
:1009D0001B0133230AF42A95B09119012B1F1AF435
:1009E000203F40F00AC02F3008F407C00FEF1FEF80
:1009F0002FE003C000E010E020EF30910301B09140
:100A000030013B1718F4332331F009C0B0911B01BA
:100A1000BB235AF004C0B0911B01BB2332F40093F6
:100A200017011093180120931901089565FF30C034
:100A30002091650100911A01000F10911B01111FF7
:100A40000E94930411232AF40038BFEF1B0740F0E3
:100A500009C00F37120508F405C00FE710E002C007
:100A600000E81FEF002352F0B0910201B01B0B2FE2
:100A700018F0013008F00AC001E008C000950F5FCF
:100A8000B09102010B0F08F001C00FEF00931C01A1
:100A9000089565FF2EC02091660100911801109104
:100AA00019010E94930411232AF40130BFEF1B07A0
:100AB00040F009C00F3F120508F405C00FEF10E029
:100AC00002C001E01FEF112352F0B0911C01B01BD6
:100AD0000B2F18F0013008F00AC000E008C00095A4
:100AE0000F5FB0911C010B0F08F001C00FEF0093D6
:100AF000030108957BC00E941B0875FFB0E075FDDF
:100B0000B0E0B06CB0937C00B0917A00B068B06493
:100B1000B0937A000E94200475FFB0E075FDB0E04C
:100B2000B06CB0937C00B0917A00B068B064B093C0
:100B30007A00B0917A00B6FDFCCF00917800109158
:100B40007900B0917A00BF77B0937A000E94630871
:100B500027EE20933D0130E030933E01732E7694D2
:100B6000622E6694620E731E262D372D0217130710
:100B700078F080903D01B7EEB80DB0933D018090C4
:100B80003E01B0E0B81DB0933E01260D371DEECFFB
:100B900080903D0190903E0110913E01169500918C
:100BA0003D01079516950795B0913D01B00FB093A3
:100BB0003B01B0913E01B11FB0933C0123E016957B
:100BC00007952A95E1F7209149012A9529F4209269
:100BD0003D0120923E010AC02A9521F0800E911E0F
:100BE0002A95E1F780923D0190923E01089520916F
:100BF0004901B0917A00B6FDFACF009178001091CA
:100C00007900B0917A00BF77B0937A00B0913F013C
:100C1000B395B0933F01B83040F120923F011123CA
:100C200029F0B0914001BF3F61F009C0B09140018F
:100C30000B1739F020F4BB2321F0BA9502C0B3950D
:100C4000E1F300913001B0934001B03050F400EC7A
:100C5000B03038F400E8B03020F400E4B03008F4EC
:100C600000E0009330017F7D0895B0913F01B730DF
:100C700009F47062089502E3F894B09168010B9F43
:100C8000012D000C001F7894B09130010B1710F06B
:100C9000009130010093010100930301502E009355
:100CA0003201089520921101B8E0B0931201089525
:100CB00020911E0130911F01F89400918400109141
:100CC0008500200F311F309389002093880078948D
:100CD000616020910F013091100100930F0110937A
:100CE0001001021B130B2091110130911201732E80
:100CF000622E769467947694679426193709200FAC
:100D0000311F209311013093120108F00895BFEFB5
:100D1000B0931101B09312010895209120013091F8
:100D20002101F8940091840010918500020F131F97
:100D30001093890000938800789461600895B1E071
:100D40009B2EB0916201BA9511F0B2E09B2E60FD2E
:100D5000FECF0E948D069A94D1F708959090580185
:100D6000B0E18B2E71FF03C0B3E09B2E822C10915B
:100D700012010091110124E0169507952A95E1F7DB
:100D80000819120928F0B02FB250B12FB20910F48F
:100D900002E010E0312F202F712E602E76946794A0
:100DA000B92DB330D9F0B0FD05C0060D171D262DA5
:100DB000372D04C0000F111F22E030E0B92DB330F1
:100DC00068F0209322013093230100931E011093B9
:100DD0001F01609220017092210108950093220169
:100DE0001093230120931E0130931F016092200174
:100DF00070922101089560FDFECF20911101309184
:100E00001201F8940091840010918500020F131FC5
:100E1000109389000093880078946160089520926F
:100E2000140120E003C02092140120E27894B091D4
:100E30001401B395B093140160FF0895B0911201AD
:100E4000B695B6950B2F039571F082FF04C0B69549
:100E5000B6950B2F03950A3008F00AE085FF03C012
:100E6000043008F004E060FD02C0789408951AE0B0
:100E700085FF1AE0789400000000F89462FD05C038
:100E800014E185FF14E174FFEECF71FF01C018E794
:100E9000B091B20030913601B31BB10B20F3B0B763
:100EA000B072B21709F4C2CF0A95E9F678940895A2
:100EB000677FB0916201BA9539F0B0911401BA958B
:100EC00019F471FD01C0686071FF0AC0B0910D0195
:100ED000B395B0930D0160FD08C020920D0105C0CF
:100EE00060FD03C0BF91BF9115C5089520912201F7
:100EF00030912301F8940091840010918500020F35
:100F0000131F1093890000938800789461600895FE
:100F1000B0910E01B395B0930E0163FF20920E01C4
:100F200063FF16C020916901213021F460612B9884
:100F30002C982D980E948D0660FDFECF20916901AE
:100F4000223021F460612B982C982D980E9476070E
:100F500060FDFECF0895F894289882FF0DC0E8E761
:100F6000F1E084FD09C073FF07C095FF299895FD46
:100F70002A98B1E4BA95F1F795FF2A9A95FD299A36
:100F8000B2E0B093130194C0F89482FF0DC0EBE57A
:100F9000F1E073FF0BC0289895FF299895FD2A98DA
:100FA000B1E4BA95F1F702C0EBEEF0E095FF2D98B1
:100FB00095FD2B9862FF03C0552009F02C9AB3E0F1
:100FC000B093130175C0F89495FF2A9895FD299860
:100FD00082FF0AC0EEE3F1E084FD06C073FF04C0A7
:100FE0002898B1E4BA95F1F795FF299A95FD2A9AC8
:100FF000B4E0B09313015CC0F89482FF0DC0E1E24D
:10100000F1E073FF0BC095FF2A9895FD2998289869
:10101000B1E4BA95F1F702C0E3EEF0E02C9862FF7C
:1010200006C0552021F095FF2B9A95FD2D9AB5E02D
:10103000B09313013DC0F89495FF299895FD2A9827
:1010400082FF0DC0EEEFF0E084FD09C073FF07C022
:1010500095FF2A9895FD2998B1E4BA95F1F7289A59
:10106000B6E0B093130124C0F89482FF10C0EBE9FE
:10107000F1E073FF0EC095FF2A9895FD299895FF22
:10108000299895FD2A98B1E4BA95F1F702C0E3EFEB
:10109000F0E095FF2B9895FD2D9862FF06C0552036
:1010A00021F095FF2D9A95FD2B9AB1E0B093130195
:1010B0007894B0916201B23020F0B0910E01B3305B
:1010C00008F46F7E089522EE30E0F9012B982C98F9
:1010D0002D982A98289829986B7F0895A6E4B1E066
:1010E0000FEF0D930D930D930D9303E00D9304E01B
:1010F0000D930BE00D9303E00D9301E00D9301E0E0
:101100000D93A2E5B1E001E00D930FEF0D930D9368
:101110000FEF0D930D930D9303E00D9305E00D93E9
:101120000FEF0D930D9305E20D9300ED0D930AEF74
:101130000D930AEF0D9304E00D930DE00D9301E084
:101140000D9300E00D930AE70D9308952091590146
:1011500009E011E0223011F405E011E0233011F430
:1011600005E012E0243011F405E013E0253011F41D
:1011700009E017E0263011F400E010E00093390197
:1011800010933A0120914D018F7E233009F4806144
:10119000877F243009F488608B7FB8E1B82309F099
:1011A0008460777FBB2309F078607061BB2309F00E
:1011B0007F7EB0914E01B33019F09F7DB1FD9062FA
:1011C0009F7BB0914F01B1FD9064B22FB23011F00E
:1011D000806201C08F7D0895E4E5F0E00091460152
:1011E0000A95E00FF21DB491B0936501009147019B
:1011F0000A95E00FF21DB491B09366010E94630856
:101200000895E2E6F0E0009161010A95E00FF21D19
:10121000B491B09367010E9463080895E0E7F0E09D
:1012200000914C010A95E00FF21DB491B093680152
:101230000E9463080895EEE7F0E0009162010A95CC
:10124000E00FF21DB491B09369010E946308089504
:10125000089520915C0130915D0197FF02C020E06C
:101260003FEFB32FB21B6B2EB25810F4B2E86B2EC7
:1012700000E00395609EB12DB058D8F30093410172
:101280000895F894E1E0F0E0B9E0B7BFB491BF3F52
:10129000C1F7E3E0F0E0B9E0B7BFB491B07889F30B
:1012A000F894A895B4B7B070B4BFB0916000B861BD
:1012B000B0936000B0E0B0936000B4E0BEBFBFEF99
:1012C000BDBF0E946308B0E0B5B9BFE3B4B9B0E0F8
:1012D000B8B9B0E0B7B9B0E0BBB9B0E0BAB9222450
:1012E000A0E0B0E02D92AA31E9F7A0E0B1E00FEF65
:1012F0002D920A95E9F70E946E080E94AE0C0E949A
:10130000A6080E94EC080E9401090E940E090E9492
:101310001B090E9428090E94290900915E0100937F
:1013200042010E946308B2E0B5BDB2E0B093810013
:10133000B2E0B093B100F8940E942A040E943504F0
:101340000E9426040E9438040E9426040E943B0446
:101350000E9426040E94470D0E942A040E942A042B
:101360000E942804B1E0B5BBB0936E00B2E0B6BBFA
:10137000B0936F00B1E0B7BBB0937000B0917B0049
:10138000B064B0937B00B0917A00B460B0937A00FF
:101390000E94200478940E947A05B1E0BDBBBB276F
:1013A000B160BCBB8D7F0E942A04B1E0B0930901FB
:1013B000626025E0B0912A01BB2309F425E00E9478
:1013C0002204B0912B01B230A0F3B92FBF7100916C
:1013D0002D0100932C01B0932D01B01751F72A95E0
:1013E00049F76D7F96FFB3E096FDB2E0B0936900D8
:1013F000BB27B160BCBB8D7F0E9428040E942204E1
:1014000002E0B92FBF7109F400E0B0912B01B017D1
:10141000A8F3F8940E9435040E9435040E94350414
:1014200078940E942A0420921D01B0914E01B3309D
:1014300009F48DC00E942204B0915201B13008F429
:1014400086C0B0910901B13008F481C0B92FBF71D5
:10145000F1F0B0912B01BF3F08F479C0F8940E94DD
:101460003E0478940E942804B0912B01B130B0F76B
:10147000F8940E9435040E9424040E943504789454
:101480000E942804B0912B01BF3F90F355C3B8E0F0
:101490009B2E9068F8940E94290978940E94280451
:1014A000F8949F770E94290980902B01B0912B011D
:1014B000BF37789408F453C00E942004F8940E9427
:1014C0003E0478949A9429F7B82DB550B0935D01F5
:1014D0000E942A04F8940E94E10C0E944D0D789419
:1014E000BAE09B2E9068F8940E94290978940E9493
:1014F0002804F8949F770E94290980902B01B091CD
:101500002B01BF37789460F70E942004F8940E9462
:1015100035040E9424040E94350478949A9411F7AB
:10152000B82DBB5FB0935C010E942A04F8940E941E
:10153000E10C0E946A0D78940E942804F8940E949D
:1015400029097894B0912B01BF3FB0F3F5C2009107
:101550002B01B0911D010B1710F000931D010E948B
:101560002804B0912B01B13008F05FCFF8940E94AD
:101570003E040E943E040E943E0478940E942A0485
:101580002092090120920A0120920B01B0910A01D8
:10159000B395B0930A01BF3F79F5B0910B01B395B4
:1015A000B0930B01B091600109E1BA9559F002E3E3
:1015B000BA9541F00DE7BA9529F00AEFBA9511F006
:1015C00020920B01B0910B01B017B0F0B0910B015C
:1015D000BA95B0930B01B4EBB0930A01B0915F01DF
:1015E000B0934201F8940E943E047894B0915E0159
:1015F000B09342010E9428040E942404B091060185
:10160000BB2321F4B92FBF7109F4D2CEB0912B01C5
:10161000B63008F4BBCFB0914E01B35009F00E9430
:101620002804B0910601BB2309F4C2CEF8940E94AD
:101630006308209201012092020120920301522CA2
:101640007894B0914B01B093330120921501209210
:101650001601209217012092180120921901209260
:101660003F0160E070E020920E010E945206B8E057
:10167000B0933F0170620E94200475FFB0E075FDD9
:10168000B0E0B06CB0937C00B0917A00B068B06408
:10169000B0937A00B0917A00B6FDFCCF009178004B
:1016A00010917900B0917A00BF77B0937A0011233E
:1016B00009F00FEF009340010E94F705B8E0B093E6
:1016C0003F01706280904D01B2E0B0934D010E94E5
:1016D000A60880924D01F894BFEFB09330010E94AC
:1016E0003B06B0910101B0933001B0933101789481
:1016F000B1E05B2EB0933801B0912F01B093370168
:101700007160726020920D010E941B080E943408D3
:101710000E9458060E9452060E94AE0607C00E9410
:10172000A6080E94340820923F017F7D95FFB5E016
:1017300095FDB3E0B06CB0937C000E9413070E944B
:1017400058070E9476070E94B5040E9488070E94ED
:10175000AB070E9458060E949F060E94AE060E9498
:10176000FB06B4E0B06CB0937C000E940F070E94AF
:1017700058070E9476070E94B6040E9488070E94BC
:10178000C4070E9458060E949F060E94AE060E944F
:10179000FB0695FFB3E095FDB5E0B06CB0937C001F
:1017A0000E9413070E9458070E9476070E94DA04DD
:1017B0000E9488070E94E3070E9458060E949F0625
:1017C0000E94AE060E94FB0695FFB5E095FDB3E0D2
:1017D000B06CB0937C000E940F070E9458070E94D3
:1017E00076070E9416050E9488070E94FC070E9447
:1017F00058060E949F060E94AE060E94FB06B4E0B7
:10180000B06CB0937C000E9413070E9458070E949E
:1018100076070E9449050E9488070E941B080E94C3
:1018200058060E949F060E94AE060E94FB0695FF86
:10183000B3E095FDB5E0B06CB0937C000E940F075B
:1018400075FFB0E075FDB0E0B06CB0937C00B09176
:101850007A00B068B064B0937A000E9458070E9482
:1018600076070E9488070E9434080E9458060E944A
:101870009F060E94AE060E94F7050E94FB0671FFBC
:1018800029C0B0913201B0933001B0933101B091D1
:101890002F01B0933701B1E0B093380114E624E191
:1018A000B0914E01B33011F41EE125E0B0910D016D
:1018B000B11750F07D7F746020930C01BFEFB0939F
:1018C0003001B093310106C0B0912B01B13008F066
:1018D0002DCF20C072FF0EC0B0910C01BA9511F44B
:1018E0007B7F1DCFB0930C01B0912B01B13008F07C
:1018F0001DCF10C0B0912E01B23860F4B92FBF7166
:1019000021F4B0910601BB2329F0B0911201B03F40
:1019100008F40CCFF8940E94630880904D01B2E067
:10192000B0934D010E94A60880924D0120920101C2
:101930002092020120920301522C209233017E7FDB
:1019400078940E9420040E946308B92FBF7129F483
:10195000B0910601BB2309F42BCD14CEEDE0F0E0ED
:101960000E94DA0C0A3509F01EC0EEE0F0E00E9499
:10197000DA0C053A09F017C03AE0A6E4B1E0E3E07A
:10198000F0E00E94DA0C0D9331963A95D1F733E1ED
:10199000A2E5B1E0EFE0F0E00E94DA0C0D933196A1
:1019A0003A95D1F704C00E946E080E94E10CE2E271
:1019B000F0E00895F999FECFE1BDF2BDF89A00B5C7
:1019C00008950E94040D3AE0A6E4B1E0E3E0F0E0FF
:1019D0000D910E94FC0C31963A95D1F733E1A2E5C6
:1019E000B1E0EFE0F0E00D910E94FC0C31963A95E9
:1019F000D1F70E940F0D0895F999FECF00BDE1BD0A
:101A0000F2BDFA9AF99A0895EDE0F0E00FEF0E9426
:101A1000FC0CEEE0F0E00FEF0E94FC0C0895EDE00E
:101A2000F0E00AE50E94FC0CEEE0F0E005EA0E941E
:101A3000FC0C08953091430100914401313011F4C0
:101A400000934A01323011F400934B01333011F40A
:101A500000934C01343011F400935801353011F4E7
:101A600000936101363011F400935901373011F4BD
:101A700000934D01383011F400936201393011F4B4
:101A800000934E013A3011F400934F01089525E080
:101A90000E942A042A95E1F708950E9435040E94C5
:101AA00038040E943B040E943E040E9424040E94C9
:101AB00035040E9438040E943B040E943E040E94A8
:101AC00024040E9435040E9438040E943B040E94B2
:101AD0003E0408950E943E040E943B040E94380484
:101AE0000E9435040E9424040E943E040E943B048C
:101AF0000E9438040E9435040E9424040E943E047F
:101B00000E943B040E9438040E943504089580908E
:101B10004301909044010E9435040E9435040E94C4
:101B200035040E9424048A94B1F70E943E040E9466
:101B300024049A94D1F70895F8940E944D0D789456
:101B40000E94470D0E94470DB1E0B0934301B1E000
:101B5000B093440120924501F8940E94870D789437
:101B6000B5E06B2E70902B010E942A04B0912B01DE
:101B70007B16C1F7B13018F0BF3F70F10CC00E9466
:101B80001A0DF8940E94E10C0E944D0DB8E0B0933C
:101B900060000E94470D6A9429F7B0914501B39502
:101BA000B0934501B33008F4D7CF0E94470DB091F0
:101BB0004401B395B0934401F894B0914301BA95B0
:101BC000E2E8F0E0EB0FF21D049178940395B091F8
:101BD0004401B01708F4BECF0E94470D0E94470D84
:101BE000B0914301B395B0934301B0914301BB3031
:101BF00008F4ADCF0E946E08F8940E94E10CB8E0A2
:081C0000B09360000E94470D43
:00000001FF
