:020000040800F2
:10000000700E0020B5120008DD120008E912000889
:10001000F5120008011300080D130008000000008D
:10002000000000000000000000000000191300089C
:100030002513000800000000311300083D130008DC
:1000400000000000000000000000000000000000B0
:1000500000000000000000000000000000000000A0
:100060000000000000000000000000000000000090
:100070000000000000000000000000003124000823
:1000800051240008000000000000000000000000F3
:0800900051240008412400087E
:06010000FFFF00000000FB
:10010E00010123464F584545525F52656170657235
:10011E005F4D696E695F34494E315F34354123203E
:10012E00202023424C48656C695F33322A53544D6C
:10013E0033324630353178362320202020202020BF
:10014E0020202A2A2A2A2A494E56414C49442A2A34
:0E015E002A2A424C48656C693437316D07041B
:10017000AFB76F4E952701DF7F43D348B10C6B18A3
:10018000F1A21A8FB0D17914D35FFDC8535860D350
:10019000B7BAB746C2ECA9B51352D89A5B3E2F75D1
:1001A0001A3953579BE1944B3F9A0B8F9D10E5975B
:1001B0000121C006C00E81400F480160704710B495
:1001C00081B0C20018231340FF249C40E2438907FA
:1001D000090E9940030004D508481B071B0F083B74
:1001E00000E007489B089B00C01803681A401143B1
:1001F000016001B010BC704700E100E01CED00E0C0
:1002000000E400E0F0B591B072B69020C005818A9C
:10021000BF4A0A408282BF498A8ABF4B13408B8201
:100220008A8ABE4B13408B82828ABD4B13408382E5
:10023000828ABC4B13408382828ABB4B13408382E9
:10024000BA4A0260BA480860BA48002101604160B9
:100250008160B948B9498867B949B84AD16710235C
:10026000B84A1488E4B2AA2C03D054881D002C424A
:1002700068D0B24CA46FB44D6C60B04CE46F6C604D
:100280002C46A060A160246920252543AE4C256141
:10029000246940252543AC4C256109E0AA4CE4685B
:1002A000A40605D5A84CE46820252543A64CE560A6
:1002B000A54CE468E407F1D40024A34D2C612C463E
:1002C000A060204681600069034320460361FF204F
:1002D00010802046C068C007FBD42046C068800656
:1002E00005D52046C068202101432046C1609748BB
:1002F00050802046C068C007FBD42046C0688006F6
:1003000005D52046C068202101432046C160FE205B
:10031000400010812046C068C007FBD42046C0685A
:10032000800605D52046C068202101432046C160D3
:100330008020214608610846006980218901014327
:1003400020460161824800680005000D8821C9002F
:10035000884200D0FEE7C94C002060600CE0606875
:10036000C749085CC7496268895C884201D000F0CF
:10037000D1FE6068401C606060680728EFD90020EB
:1003800060600CE06068C049085CC0496268895CD4
:10039000884201D000F0BEFE6068401C606060686A
:1003A0004028EFD3112068490860B948A02189038B
:1003B0004160B8490160FA214901616002E0626868
:1003C000521E62606268002AF9D142680223134318
:1003D0004360C64A4261C64AC261C64A82616160E0
:1003E00002E06068401E606060680028F9D101206A
:1003F000C14908800020C043C86201200D90BF4859
:100400006946C881002600206946488102A8401C30
:10041000009002AB02AA921CB849FF20E03000F025
:10042000B7FD6946097A6A46527A0A4322D14228C0
:1004300020D1012501E06D1CADB2062D02A800DB24
:1004400078E3401C009002AB02AA921CAB49072043
:1004500000F09EFDAA49495D8842ECD00625ECE7F4
:100460000020A5494862A749A348406A8842FBD3B7
:10047000002513E00846002805D16846407A002888
:1004800001D0761CF6B230008D28BCDB50E3002290
:100490009A499D48405D00F0EAFD6D1C042DF6DB95
:1004A00000229649332000F0E2FD00229349062005
:1004B00000F0DDFD00229149072000F0D8FD002268
:1004C0008E49042000F0D3FD00228C49302000F03A
:1004D000CEFD00200B90012009A9087006E00B98C2
:1004E000C0B2652802DB002009A9087009A80078BD
:1004F000002800D118E30D98012803D17F486946F0
:10050000C88133E0022825D1D0486946C8812DE052
:100510007FFF000000040048FEFF0000FDFF000018
:10052000FFFE0000FFFD0000FFFB00006F5F55694C
:1005300055655555342C0140230167455807002067
:10054000AB89EFCD00F8FF1F00200240EFFF000055
:1005500000580140032803D1BD486946C88105E021
:10056000062803D1FF20A2306946C88101206946D0
:1005700008726846C58900206946488102A8401C67
:10058000009002AB02AA921C2900FF20E03000F08C
:10059000FFFC6946097A0029EDD1411FF729694618
:1005A00043D2497A0029E6D06946CD8108900B985C
:1005B000401CC0B20B900A984F49496A40180A90F3
:1005C00002A8401C009002AB02AA921C6846C18996
:1005D000072000F0DDFC0E900A984749496A401850
:1005E000C0B20C9030250E9EF6B20898FF2821D19B
:1005F00002A8401C009002AB02AA921C6846C18966
:10060000072000F0C5FC0102019102A8401C0090E7
:1006100002AB02AA921C6846C189072000F0B8FC10
:100620000199014389B20F0039E0CD810890002083
:100630000B90C0E7FE282FD102A8401C009002AB0F
:1006400002AA921C6846C189072000F0A1FC0102A1
:10065000019102A8401C009002AB02AA921C6846BD
:10066000C189072000F094FC0199014389B20791E8
:100670000846C249884212DBC52510E0D806002092
:1006800000010008307C000810010008407C0008D0
:100690000010024083000001FC2800D10D9602A842
:1006A000401C009002AB02AA921C6846C189072038
:1006B00000F06EFC02A8401C009002AB02AA921C43
:1006C0006846C189072000F063FC0898FE2807D01F
:1006D0000020094948620B490748406A8842FBD319
:1006E00068464089002811D0C22502E201000600B8
:1006F00003010200014A030000200040C409000079
:1007000060010008881300006601000808980028AE
:100710000AD100226846C189280000F0A8FC0E9882
:10072000002800D170E503E2802000020899012929
:1007300000D092E081088F4200DAB7E0874200DD06
:10074000D7E139006A469181F821C9018F4202DA66
:100750000020069013E0874211DC02DA01200690A7
:1007600009E008D1022006900003070007984128FD
:1007700001DB40200790380080B200F014FABB483B
:10078000806FBB494860B948C06F4860084600693F
:1007900001210143B648016100263046009019E06E
:1007A000B348C068800605D5B148C0682021014320
:1007B000AF48C160AE48C068C007F1D46068801C13
:1007C0006060B61CB6B26068072812D9009808307D
:1007D00080B20090009880B20799884224DA03AB77
:1007E000069AD2B204A9009880B200F04FFB002014
:1007F00060600698012801D0022805D160680028B1
:1008000002D16068801C6060606804A9491C085CB3
:10081000000204A96268895C0843310079188022CB
:10082000120589180880C5E780209149086106985B
:10083000002801D002280DD100F0E4F98B48806B2C
:10084000A749087007983F18BFB252E1E2040000C0
:100850004103000000F0C6F9F4E7022919D180082D
:10086000874223DB3E00B6B2F820C001864201DA9F
:100870008026B601300000F096F98020C0003618BE
:10088000B6B2F820C0018642F4DB802078490861C6
:100890002FE1032900D082E007963146002901D1DB
:1008A000C1090791F821C9018F4201DAC52520E16C
:1008B000002639006A46918131460691874202DA64
:1008C0000120069008E007D1022006900703079850
:1008D000412801DB4020079008460F900798401EF2
:1008E000019086424CDA0020606000970F9832E059
:1008F000BB4A891806E01A46EC231B029A42F7DA33
:10090000BB494118069A012A14D16268002A11D104
:100910000A9A3300D21804AB6768DA550C9A330090
:10092000D21A04AB5B1C6768DA556268921C62607D
:10093000B61CB6B20A8804AB6768DA550988090A9A
:1009400004AA521C6368D154B61CB6B2801C80B293
:100950006168891C6160EB2212026168072900D975
:1009600003E101998E4200DBFFE000990918009B2A
:100970009342C0DA802212058918C3E701040000FF
:1009800000226846C1894089C0B200F070FB002295
:100990006846C1894089000A00F069FB52E70429D2
:1009A0004DD139006A46918100210691F821C90193
:1009B0008F420DDB874202DA0120069008E007D162
:1009C0000220069007030798412801DB402007908A
:1009D0000026304600901EE00020606004A8616898
:1009E000405CB9198022120589180978884206D01E
:1009F000B819804940188049884200D3C0256068F2
:100A0000401C6060761CB6B260680728E6D9009882
:100A1000083080B20090009880B20799884200DBCD
:100A200010E703AB069AD2B204A9009880B200F096
:100A30002DFA06980128CFD102206060CEE7084643
:100A4000FC2856D0FD2854D0FE284BD102A8401CCB
:100A5000009002AB02AA921C6846C189674800F068
:100A600097FA67490870012612E000BF5807002076
:100A700000200240401C009002AB02AA921C684673
:100A8000C189072000F084FA5D498855761CB6B20A
:100A90000798864202A8EDDB401C009002AB02AA38
:100AA000921C6846C189072000F072FA02A8401C17
:100AB000009002AB02AA921C6846C189072000F090
:100AC00067FA0020B3494862B349B248406A884295
:100AD000FBD36846408900280BD0C22509E000BF3F
:100AE000000F0020FF2804D00B98401CC0B20B90D0
:100AF000C1252800302800D0F1E40898FD2800D155
:100B0000C12500226846C189280000F0B0FA089883
:100B1000002800D0EAE40E98002801D1FFF774FB0A
:100B2000002009A90870E1E40020D0498867C8675F
:100B300011B0F0BD401C009002AB02AA921CCC493F
:100B4000072000F025FA02A8401C009002AB02AA80
:100B5000921CC749072000F01BFA6846408900280C
:100B600000D17DE4361DF6B28DE400990F000F90A0
:100B7000974205DA03AA0699C9B204A800F00EF953
:100B8000002060606068072800D9A7E602AA921CCE
:100B90006846C18904A86368C05C00F068FA6068B0
:100BA000401C6060EEE7B349B04A936F0B60D26FB0
:100BB0000A600222CA60920680180861C868402252
:100BC0000243CA6006E020208A68024002D08A6898
:100BD000104388608868C007F5D40020C86070475B
:100BE0000000FF1FA4480078C0B2A04948667047C3
:100BF000000F002000E0FFFF010400007F0700005D
:100C00000000002000B591B00CA89C49102201F012
:100C1000D7F908A89A49102201F0D2F904A89949F5
:100C2000102201F0CDF968469749102201F0C8F969
:100C300000208E4988630820C5494860C448406840
:100C4000102814D2C2484068C249085CC249C04A50
:100C50005268891808390978884202D003208349EC
:100C60008863BB484068401CB9494860E6E70020FB
:100C7000B7494860B6484068042813D2B448406871
:100C8000B649085CB449B24A52688918097A884260
:100C900002D0032075498863AD484068401CAC49C8
:100CA0004860E7E77148806B002871D001206F49E8
:100CB00088630820A6494860A5484068102812D2D9
:100CC000A3484068A349085C0CA9A14A5268895C02
:100CD000884202D00320654988639D484068401CD3
:100CE0009B494860E8E70020994948609848406877
:100CF000042812D2964840689849085C08A9944A8A
:100D00005268895C884202D0032058498863904821
:100D10004068401C8E494860E8E75448806B0128D1
:100D200036D00220514988630820894948608848A4
:100D30004068102812D2864840688649085C04A999
:100D4000834A5268895C884202D0032047498863FD
:100D50007F484068401C7E494860E8E700207C49A5
:100D600048607B484068042812D2794840687B4933
:100D7000085C6946764A5268895C884202D0032042
:100D80003A49886372484068401C71494860E8E706
:100D900011B000BD0020004088130000FFB40B001C
:100DA0001500C17809068278120489184278120267
:100DB000891802788E18C179090682791204891877
:100DC00042791202891802798A18002460494C601D
:100DD0006F463B71039523002FE0C94C6D462D797A
:100DE0002D0164190294039C2488032500961701A1
:100DF00056097E40B718BC46029F2E001E40B60022
:100E0000BE599E19361967467E40009FBE19BD4FD8
:100E1000DB190092370172097A4092199446029ABE
:100E2000DF0A3D40AD0052599A18141962465440E9
:100E3000009A12194C68641C4C604C68202CCCD36E
:100E40000399130EC37113001B0C8371130A4371B2
:100E50000271320EC2703200120C8270320A42707D
:100E60000670088808300880FFBC704758070020CB
:100E7000C409000004200240187C00081C1200086D
:100E80002C1200083C1200084C120008FAB482B080
:100E90009D490818C1788378447809061B04C9184D
:100EA0002302C9180378CB18C479857941792406BF
:100EB0002D0464190902611800790E18934C244816
:100EC0000021416026A11201891801910399098826
:100ED0008F4A23E0032500961F015E097E40F71824
:100EE000BC46019FE60A2E40B600BE598E1936193F
:100EF00067467E40009FBE1BA4189C4637017309BD
:100F00007B409F19019B2540AD005B59CB181B19F5
:100F10007B406546EB1A45686D1C45604568202D91
:100F2000D8D30298310EC171310C8171310A4171EF
:100F30000671190EC170190C8170190A4170037085
:100F40000398008808300399088004B0F0BC70470B
:100F5000D806002000200008ACF7FF1F1020000872
:100F600052313EE01067DBFA421EFE8D8061C48282
:100F700017C6FB8101C9819E54FAA129B43482317C
:100F8000E10F9A32311EC5315136241FA144CCA243
:100F9000F0B481B008B482B0150000229023DB05C4
:100FA0001C683027BC431C60944CA0820120208028
:100FB0002261029F3870089F3A70480800901F8A8B
:100FC0007F0703D427698F42F9D348E022611F8A43
:100FD0007F0703D527698F42F9D340E0A282012021
:100FE00020802261009827698742FCD31F8A7F07EF
:100FF00030D40095401880B208256F46B980002192
:1010000026698642FCD36E46B688801980B21E8A55
:101010003606B60EF6010906490E3143360605D0EE
:10102000009E378801267E40009F3E80009E3788C4
:101030007E08FF0704D5724F7740009E378001E09D
:10104000009F3E806D1EDBD125698542FCD3188A46
:10105000400706D402980270012008990870802089
:1010600002E002980270C8B204B0F0BC7047F0B45D
:1010700081B01500614A002393820123138000236D
:1010800013619023DB051C68102626431E600C00AC
:101090001169A142FCD3290000251561002902D065
:1010A0000D8845400D8008263025ED430091C1078D
:1010B000196803D410270F431F6001E0294019600D
:1010C00040081169A142FCD3002111610099002957
:1010D0000AD00F887908FF0704D5494F4F4000997F
:1010E0000F8001E0009F3980761EE0D1186805402E
:1010F0001D601069A042FCD301B0F0BC7047000035
:10110000600F0008B979379E000000202037EFC635
:101110004786C861F8B53B4807003B4C0025656031
:101120003A4E07E06168626812181278725461687A
:10113000491C61606168FF29F4D93078FF280BD120
:10114000202030705E2070703020B0708C20F073E2
:10115000FF20010031747074656006E0280061684A
:10116000711808756068401C606060680128F5D9D6
:10117000656009E0606826496268895C3018302241
:1011800081546068401C606060680828F2D3656024
:1011900009E060681F496268895C30184022815408
:1011A0006068401C606060685028F2D3F820C0017D
:1011B000FFF7F9FC1848012142680A434260656064
:1011C0000CE020220368134002D003681A43026037
:1011D00002680A40F5D16268921C62606268FF2A68
:1011E00009D86268731C9A5C63681202F35CD218B7
:1011F0003A80BF1CECE780214160F1BD1420004023
:1012000001A00000007C0008D8060020000000209B
:1012100000010008100100080C20024010E3C7483C
:101220009E9945251C0040000757334E3234332029
:10123000D006F605EE4727CFF3B23D2E10E3C748A0
:101240009E994525310052000157334E32343320E8
:10125000CF06F705EE4727CFF3B23D2E10E3C74880
:101260009E9945251C0040000757334E32343320E9
:10127000D006F605EE4727CFF3B23D2E10E3C74860
:101280009E994525310052000157334E32343320A8
:10129000CF06F705EE4727CFF3B23D2E250B000012
:1012A0006C0A00000000002000010000000F002078
:1012B0000000000000B581B000BF00BF00BF00BF4C
:1012C00001F09EF801B000BD80B500BF00BF024A2A
:1012D00011001820ABBEFBE72600020000B581B06C
:1012E000FEF790FF01B000BD00B581B0FEF78AFFA8
:1012F00001B000BD00B581B0FEF784FF01B000BDB4
:1013000000B581B0FEF77EFF01B000BD00B581B031
:10131000FEF778FF01B000BD00B581B0FEF772FFA7
:1013200001B000BD00B581B0FEF76CFF01B000BD9B
:1013300000B581B0FEF766FF01B000BD00B581B019
:10134000FEF760FF01B000BD07463846FFF7BCFF5F
:0A135000FBE780B5FFF7F8FF01BDD1
:0C18000000B581B0FEF7FEFC01B000BD99
:101DC00070B401000123002413E00A68091D1A42BF
:101DD00002D04D466D1E52191460121D001F0428BA
:101DE000FAD21500860701D51480AD1C184000D02A
:101DF0002C700868091D0028E7D1080070BC7047E6
:041E200001207047E6
:101E300010B5074979441831064C7C44163404E047
:101E4000081D0A68891888470100A142F8D110BD11
:081E50004CF4FFFF60F4FFFFFA
:021E60007047C9
:101E7000F446002804D4494200F013F84042604779
:101E80004042002905D45FD000F00BF8404249429F
:101E90006047494200F005F84942604703460B435A
:101EA000E6D40022030A8B420BD203098B4219D2DB
:101EB00043088B422ED2411A00D2014652411046AD
:101EC0007047FF2209023FD012068B4205D312123F
:101ED00009028B4201D31212090203098B4219D362
:101EE00000E0090AC3098B4201D3CB01C01A524159
:101EF00083098B4201D38B01C01A524143098B42A3
:101F000001D34B01C01A524103098B4201D30B018B
:101F1000C01A5241C3088B4201D3CB00C01A5241B0
:101F200083088B4201D38B00C01A524143088B4275
:101F300001D34B00C01A5241884200D3401A52418B
:101F4000CFD201461046704708B5FFF789FF08BD9C
:101FC00070B4103A03D378C9103A78C0FBD25307E3
:101FD00001D318C918C001D508C908C0D20704D355
:101FE0000B880380891C801C002A01D50B780370A4
:041FF00070BC70470A
:1020000010E3C7489E9945251C0040000757334EF2
:1020100032343320D006F605EE4727CFF3B23D2EFB
:1020200030799CBBDC0EFA89020FD64A274881EB37
:10203000C6CEEC531B919FF9B5EE835458B1B4C58D
:102040005BDED56F01104E3C05D45597A21A8F9ACE
:10205000FFFFFFFFFFFFFFFFFFFFFFFFFFFFFFFF90
:10206000FFFFFFFFFFFFFFFFFFFFFFFFFFFFFFFF80
:10207000FFFFFFFFFFFFFFFFFFFFFFFFFFFFFFFF70
:10208000FFFFFFFFFFFFFFFFFFFFFFFFFFFFFFFF60
:10240000FFF70EFD002801D0FFF712FD002000BFEE
:0A24100000BF00F005FAFEF79CFF84
:0C24300000B581B001F0B6FF01B000BDA6
:0C24400000B581B002F0BEFC01B000BD90
:0C24500000B581B001F0E0FF01B000BD5C
:1024600000B581B0FFF7CCF9014802490860FEE7EA
:082470000400FA050CED00E088
:0C28000000B500E0401E0028FCD100BD27
:10282000FEB572B60027C54C6760C5490CE060680C
:10283000EFF3088263689B00D2181268800040188A
:1028400002606068401C606060680C28EFD381F310
:102850000888CF48CF498867CF48C867CF48D04954
:102860000A88D2B2AA2A02D04A88D20651D5C94AC9
:10287000926F4260C74AD26F4260C54A8260C64AC0
:1028800082600269202313430361026940231343DA
:10289000036106E0C268920603D5C2682023134391
:1028A000C360C268D207F5D40761B94A8260BA4AE8
:1028B00082600269102313430361FF220A80C26809
:1028C000D207FCD4C268920603D5C2682023134302
:1028D000C360CB4A4A80C268D207FCD4C268920661
:1028E00003D5C26820231343C360FE2252000A812D
:1028F000C168C907FCD4C168890603D5C168202214
:102900000A43C260802101610169802292010A4369
:102910000261A0498F67CF67BA4909680905090DA7
:102920008822D200914200D0FEE711210160A02050
:102930008003B5494860B5480860FA256D01280054
:10294000FFF75EFFB048406802210143AE48416096
:10295000AF48AD494861AF48C861AF4888612800B9
:10296000FFF74EFF01220121012002F0F3FFD348BF
:102970009021C9050860D248D2490860D248902108
:10298000C905C860D148CF49C860D1489021C90560
:102990004862802080050862CA4847622220C949EF
:1029A0000862CC480068052805D11020C949086094
:1029B0000868C006FCD4C7480068012805D1022079
:1029C000C449086008688007FCD4C348C14948600E
:1029D0008020000688600860BE4909680140FBD17C
:1029E0005020FFF70DFF0120BA4908600420C8609D
:1029F000BA48086280200004B94908602800FFF73F
:102A0000FFFEB8480760B848B6498860B748C86054
:102A100018204860B420C00008600868401C0860A6
:102A2000086801218843AF49086018204860086899
:102A300001210143AB480160A6480068052101431C
:102A4000A44801602800FFF7DBFED0204000D349F6
:102A500088818020886001200860A2484761D048B2
:102A6000A049C861CF48029008626760CE4904E07F
:102A700062688F546068401C60606068FF28F7D906
:102A80006760CA49CA4D01E0401C606028004030C0
:102A900001906068FF281AD8606862680A5401983B
:102AA0000760286C08286068EED2085C0006606841
:102AB00062688A5C02D452000A5403E05200072381
:102AC00053400B54286C401C019A1060E9E702F057
:102AD000A1FF3048806BB449087003F087F80120EB
:102AE00001998862B34EB067AE4807658021C90579
:102AF0000F800020C043C8624F6201200880254833
:102B0000806B002801D101F096FB2248806B0128E0
:102B100018D1D34860606068D249884201D201F080
:102B200087FB6068FFF76CFE606861688908401A7F
:102B30006060012002F070FDEDE700BFD8060020C4
:102B4000C00E0020052060606068002801D101F0FF
:102B50006FFBC548FFF754FE022002F05DFD022026
:102B600002F05AFDC148FFF74BFE012002F054FD70
:102B7000012002F051FDBD48FFF742FE002002F0A7
:102B80004BFD002002F048FD6068401EDBE700BFFF
:102B90002301674558070020AB89EFCD0020024094
:102BA00000F8FF1F0198076018E0B148296C405CED
:102BB000FF280FD0296C286CAD4A515C8A09AC49BA
:102BC000085C8006810FAA482B6CC05C0007000FD0
:102BD00002F0AEFD286C401C01990860286C30287A
:102BE000E3D3A448FFF70CFE02F0A1FE0198C760F2
:102BF00001980761019847610198876141E000BF32
:102C0000EFFF000000580140001002408300000167
:102C10000100060003010200014A03000120B06523
:102C20009548C06E0B214843B16D491EC900401A3A
:102C3000C01EF065B06C0C2148439049C8629048B2
:102C4000088307205849C8708C490F850B200884D9
:102C50008C4888818C482349C865880D4865E620E2
:102C600080010865086D401C08650A2030638748AC
:102C7000FFF7C6FD306B012801D801F016FB77661F
:102C8000776472B60120B067464807650120804925
:102C9000886679498F867F48C8864248876477610D
:102CA0008F67CF670020C0438021C905C8620F80AD
:102CB0004F6201200880019807605DE06F5F5569F1
:102CC000556555550004004810802A240A1000005C
:102CD00022020000082401400320000048000100F7
:102CE000082701400800024040240140E40700207A
:102CF0006068694988425FD3706F032805D277679F
:102D00002949CF728F724F720F722748C0780028FE
:102D10000BD15F48C76677672349CF718F714F71B9
:102D20000F71CF728F724F720F72286C0C2805D8FA
:102D30008020C005406AD749884219D3D648006828
:102D400010210143D4480160D44800680121884320
:102D5000D2490860086D01218843D0490865802167
:102D6000C9050F804F62CE490F804F62FFF778FB95
:102D7000286C401C0199086067609020C005008A9B
:102D80004007B5D56068C7498842B1D25020FFF7E7
:102D900037FD6068401C6060EFE700BF003801400D
:102DA0002838014058080020000F002000040020AF
:102DB00058090020D80800200198806A002800D116
:102DC0005AE7B548006810210143B3480160B34891
:102DD000006801218843B1490860B348FFF710FD3E
:102DE000AE48006801210143AC4801600068012140
:102DF0008843AA49086018204860086801210143F7
:102E0000A6480160A448006805210143A24801606A
:102E1000A648A749C861A748886117488767C76758
:102E20000120A060E7607763B763F7637766019876
:102E3000C76177641748608015484766052030678A
:102E4000FA200199486267611148406F012802D059
:102E50000F48C76701E00E49C867676027E000BFF9
:102E600000127A0051C30000009F240080A90300D3
:102E70005C070020006A180058070020004001404D
:102E800031320000010200000000002080841E009A
:102E9000D8070020FFFF0000DC050000D34962686E
:102EA0008F54D34962688F546068401C60606068CA
:102EB0000A28F3D3CF489021C9050860CE48CF49EE
:102EC0000860CF489021C905C860CE48CB49C8608A
:102ED00001220121012002F03DFD02F087FE03F0F6
:102EE00028FA1920C84908701B20487012208870E1
:102EF0001320C8701D200871152048711620887194
:102F00001720C8711A200872092048720A20887296
:102F10000B20C8721E2008730D2048730E20887382
:102F20000F20C873B148006C401EFA218900484345
:102F30005D39FEF7B6FFB5490880AC48006C401E0D
:102F4000FA21890048434C39FEF7ABFFAF4948806E
:102F5000A648006C401EFA21890048433D39FEF71F
:102F6000A0FFAA498880A148006C401EFA21890070
:102F700048432E39FEF795FFA449C8809B48006C52
:102F8000401EFA21890048432039FEF78AFF9F49F5
:102F900008819648006C401EFA2189004843143984
:102FA000FEF77FFF994948819048006C401EFA2146
:102FB000890048430839FEF774FF944988818B489B
:102FC000006C401EFA2189004843891CFEF769FF06
:102FD0008E49C8818548006C401EFA21890048430B
:102FE0000C31FEF75EFF894908828048006C401E64
:102FF000FA21890048431431FEF753FF8349488280
:103000007A48006C401EFA21890048431B31FEF7C4
:1030100048FF7E4988827548006C401EFA2189006D
:1030200048432131FEF73DFF7849C8826F48006C64
:10303000401EFA21890048432631FEF732FF7349CA
:1030400008836A48006C401EFA21890048432A31EF
:10305000FEF727FF6D4948836448006C401EFA2143
:10306000890048432D31FEF71CFF684988835F487B
:10307000006C401EFA21890048432F31FEF711FFF2
:103080006249C883C88B0884102001990860676072
:1030900029E000BF01D8B80508240140080002401B
:1030A00000440140A86100008038010003010200D3
:1030B00000100240014A03006068296C534A49002D
:1030C000515ADD4A40001152286C401E0199086097
:1030D000606861684D4A4900515AD84A400011520F
:1030E0006068401C606060681028E5D33F48006C51
:1030F000401E9021C9004843D14908603B48006CFC
:10310000401ED0494843CE4948603848006C401EB4
:10311000B62189004843CA4988603448006C401E83
:10312000872189004843C649C8603048006C401E6A
:10313000BA2149004843C24908612C48006C401E2E
:10314000E4214843BE4948612848006C401E5B2189
:103150004843BB4988612548006C401E1D21C94376
:103160004843B749C8612148006C401E8E21C943BD
:103170004843B34908621D48006C401EE621C9431C
:103180004843AF4948621948006C401EC94948434A
:10319000AB4988621548006C401EC7494843A8499E
:1031A000C8621248006C401EC4494843A4490863E1
:1031B0000E48006C401EC2494843A14948630B4871
:1031C000006C401EBF4948439D4988630748006C16
:1031D000401E400241429A48C163C06B984908644E
:1031E00010200199086067602AE000BFD80700201E
:1031F000580800206F5F5569556555550004004813
:1032000010802A240A100000240A0020C40900208B
:103210006068296C8A4A89005158CF4A8000115051
:10322000286C401E0199086060686168844A8900C2
:10323000515880001018802281506068401C6060E6
:1032400060681028E4D3B761F76104203062812000
:103250008021C905088001208881D248006C401E69
:10326000D149C86281200880D048088368208883BB
:10327000CF4808844F638F63CF63CE4844310880C2
:10328000CD490F80442008810F84CC480883312029
:103290000884CB48C86203200885042088810F82F7
:1032A00005200880A06F012807D1C64908800F209B
:1032B0000885C348C86201208881C348F067C348B5
:1032C0000765C348C1498865BF48C865232048656C
:1032D000E62080010865BF490F802F200885FA206D
:1032E0008000C86240004863032088814F620F82DB
:1032F0000120088002F06AF962B6AA48806FFF28B0
:103300002CD0B5480760B548B3498881C020886093
:10331000E020800248608020AC4988621020C862AA
:10332000AF480863AF484863886A401C886205203C
:10333000A949086001209B49C867AB48C068AB49F0
:103340000140A948C160C068802189010143A648A5
:10335000C160A74847648764C7643766E06800288F
:1033600001D000F093FF306B322801D300F08EFFC4
:10337000A048FFF745FAF1E79D48C06E112827D213
:103380007763B763F763012070660198C761012016
:103390007064F0204000B064B06C4008F064B06C21
:1033A0000B214843F16C40183065B06C0C21484348
:1033B000F16C401870658E48C06E032800D22DE471
:1033C0008B48C06E0B2148431838C008801C26E487
:1033D000C849CF700A203063C748FFF711FA306B35
:1033E000012804D8C5487449088301207EE10120E2
:1033F000706371490F85C248FFF702FA0A203063F3
:10340000C048FFF7FDF9306B012804D8BB486A4972
:10341000088302206AE177630120B0630A203063E9
:10342000B748FFF7EDF9306B01280DD8B348624972
:10343000088303205AE100BFE4090020040A0020A9
:10344000000500209E0300000B205B490884AE4865
:1034500088815D480760E62080015C490865086D49
:10346000401C0865B763FA208000706672B614E0ED
:10347000706E012811D054480760232053494865D5
:10348000E62080010865086D401C0865706E401ECE
:103490007066706E012800D17766706E01285DD964
:1034A00047484549C8629948FFF7AAF94748076560
:1034B00067601DE0D2FEFFFF8FFEFFFF5EFEFFFF95
:1034C00032FEFFFF11FEFFFF286C296C904A890035
:1034D00051583D4A80001150286C401C01990860E9
:1034E000286C2328F0D3012070666068401C60605F
:1034F00060682128BCD260688649800008586168ED
:10350000854A890052586168801840002E4A890017
:1035100051588842E9D201980760286C232801D3CA
:1035200000F0F4FE6068296C40182328286C62685B
:103530002B6C254905D3D218920089188039096867
:1035400002E0D21892008958714A80001150286C0C
:10355000401C01990860E0E740050020706E0128DA
:1035600000D09DE00199C861019847626760164AE2
:1035700008E0616889005158401801994862606804
:10358000401C6060606820280198406AF1D33021B7
:10359000FEF787FC0199486201980762012060608C
:1035A000094A3FE0D8070020002C0140686800006D
:1035B000550500000C800000004001402122000061
:1035C000FFFF000000040040C0050020080002408A
:1035D00034400140004401400038014041030000F4
:1035E00024380140340A002000040048FFCFFFFFC8
:1035F000580700208038010060688000105861681A
:1036000089005118091F09688900884207D201986A
:10361000006A616889005158401801990862606821
:10362000401C606060681F28E6D30198006A0C2186
:10363000FEF737FCC949C8620198006A1A21FEF7F3
:1036400030FC30640198006A80004B21FEF729FCB1
:10365000801CC349C8630198006AFA214900884266
:1036600001D2C04805E00198006A4900884202D2B0
:103670002248BA490883BA48C06B17214843302111
:10368000FEF70FFC801CB649C86462B6E6208001D4
:10369000C2490865086D401C0865C148076642E0DC
:1036A00062B60520AD490880BE48C8623120088452
:1036B00004208881B948076577660198C7610120B1
:1036C000F0630F48FFF79CF8B548C76677670A2094
:1036D00030630B48FFF794F8306B012801D8706F06
:1036E000042878D205489D49088304200149C87000
:1036F0006FE000BF000F002080841E003132000008
:1037000080A9030000350C0001020000409C00006D
:103710004C060020C4050020C8050020A048006E0B
:10372000401C9F4908669E48006E0128B9D89C48F5
:10373000006E002801D0012000E0032087490884A2
:10374000C348FFF75DF89648C76677670A2030637D
:10375000BF48FFF755F8306B0128DFD8706F042899
:10376000DCD2306C80000521FEF79BFB3064306CAE
:10377000C01C3064B766F7660520CC49C87088481D
:10378000006E002825D0012085494866C003C8493D
:1037900008800198406AA02804D3182080498865D1
:1037A000012015E00198406A502804D30C207C4980
:1037B000886502200CE00198406A282804D306207E
:1037C00077498865042003E003207549886508204F
:1037D000C86500F06AFDF76365E1B648FFF710F8C9
:1037E0006F48C06B8021C900884201DA00F092FD69
:1037F00072B6042001F010FF62B66068401C606081
:1038000060680328E9D3AC48476767600DE0644906
:10381000C96B4018802109014018A7494867A7488B
:10382000FEF7EEFF6068401C606060680828A248F0
:10383000406FECD3C008A0494867486FFA2189005F
:1038400048434001000C9C494867486F9C498842A6
:1038500002D90846984948679A48FEF7D1FF72B6E0
:10386000676011E0012001F0D7FE022001F0D4FED4
:10387000032001F0D1FE042001F0CEFE9248FEF7B5
:10388000BFFF6068401C606060680328EAD362B6CE
:1038900002E08848FEF7B4FF4148C06B8021C900B0
:1038A0008842F6DC676016E08248FEF7A9FF3C48D4
:1038B000C06B8021C9008842EEDC72B6012001F0A5
:1038C000ABFE8148FEF79CFF012001F0A5FE62B629
:1038D0006068401C606060680A28E5D37648076726
:1038E00067600DE02E49C96B40188021090140181E
:1038F000BD4908677148FEF783FF6068401C60603F
:1039000060680828B848006FECD3C008B64908675B
:10391000086FFA21890048434001000C0F30B2497A
:103920000867086FE1218900884202D20846AE4943
:103930000867AD48406FAC49096F401A8C2804D223
:10394000A948006F8C30A84948675E48FEF758FFC9
:1039500002F0D4FB72B6676018E000BF004001407F
:103960005808002021220000042001F055FE032009
:1039700001F052FE022001F04FFE012001F04CFE4A
:103980005148FEF73DFF6068401C60606068032896
:10399000EAD362B69548FEF733FF84E008000240A0
:1039A000D8070020FFFF00006168914A4900515A82
:1039B00040186168C91C616061688E4A926D9142CD
:1039C000F2D38C49C96D4843C00800908948C06F44
:1039D000012822D18848018800980A1A12B2502082
:1039E0005043854A5289891A89B2FEF757FA1E3028
:1039F000010400D500207F490870A069BB498842B6
:103A000003D37C49CF710F7207E0B9486188FEF794
:103A100048FA010A774AD17110727348406D002844
:103A20003CD07448C06C7049096CB24A121A5209F1
:103A3000891A009A914206D2C249884201D20830BE
:103A40000AE0AC4808E0C049884203D3083803E0E4
:103A500080A90300802080006649C86472B6A5482A
:103A60000865486C096D884203D26248406C614920
:103A700008656048806C5F49096D884203D25D48E3
:103A8000806C5C4908655B48C06C5A49096D884286
:103A900003D25848C06C5749086562B6E0680028F0
:103AA00001D000F03AFCFFF7ECF800BF000F002057
:103AB0004440014000350C0058070020007102000E
:103AC00034080000006A180080380100E06800280F
:103AD00001D19E485FE772B6042001F09DFD0420ED
:103AE00001F09AFD042001F097FD62B69848FEF7B8
:103AF00087FE019887623F48C76677672FE202F02A
:103B0000CDFA06280DD1052020670AE0B06E1D28E9
:103B100009D13548406E8006800E3349486601F071
:103B200006FFB766F766A068002800D0F7E1676176
:103B3000E0680028B7D02C48006E00281FD02A4823
:103B4000006E401D8349C96D884218D272B60122A9
:103B50000121012001F0FEFE2348806D60602248B3
:103B6000C06D21498865042001F056FD60681E493A
:103B7000886562B67748C06DC01E7649C865B24890
:103B8000A06102F011FC706E0128CCD1B06E00284B
:103B900020D0B06E06281DD272B60122012101206C
:103BA00001F0D8FE1048806D60600F48C06D0E496E
:103BB0008865B06E052802D2B06EC0B200E0002069
:103BC00001F02AFD606808498865A048FEF718FEE4
:103BD00062B6A6E7B06E062800D0BDE00548806F4B
:103BE000FF28A0D1676011E05807002000127A007A
:103BF000E4070020D8070020B8F7FF1F6068944949
:103C00006268895C29546068401C606060680C28A8
:103C1000F4D3FE202873202068735E20A873EF730E
:103C2000216F009102F03AFA009981423ED0206F54
:103C300001280BD102F032FA022834D002F02EFA19
:103C4000042830D002F02AFA06282CD0206F02284F
:103C50000BD102F023FA012825D002F01FFA032825
:103C600021D002F01BFA05281DD0206F03280BD1AC
:103C700002F014FA022816D002F010FA042812D02A
:103C800002F00CFA06280ED0206F04280ED102F0A4
:103C900005FA012807D002F001FA032803D002F048
:103CA000FDF9052802D10120287400E02F74206F4F
:103CB00003288041C043C00F6874FF20A874E874D3
:103CC00028756875A875E875676008E06068A84998
:103CD0006268895C2818C1776068401C6060606811
:103CE0002028F3D33F216F54676032E3E9FF1700C8
:103CF000C0270900FF0700003F20285C4000072183
:103D000041403F202954286C401C019908602DE354
:103D10000920984908609848476140209649886181
:103D2000902048610D624869401C48619348FEF745
:103D300067FD9020904948610298086201208D49F2
:103D40000860EEE6F70700000902000080841E000C
:103D5000006A180058080020B06E07280ED1F06ED7
:103D600006286AD3206F022801D101202067206F26
:103D7000042801D103202067206FC2E6B06E082816
:103D800011D1F06E062858D3206F012801D10220EE
:103D90002067206F032801D104202067206F0528A9
:103DA000CFD10620B0E6B06E09280ED1F06E0628FD
:103DB00043D3206F032802D3206F801E2067206F1B
:103DC000032822D3206F801E9EE6B06E0A2808D1F9
:103DD000F06E062831D3206F032816D2206F801C86
:103DE00092E6B06E0B2800D19DE6B06E0C280DD186
:103DF000F06E062821D3C048C0498867C048C8670C
:103E000002F016FABD488767C7678AE6B06E0D28CC
:103E10000ED1F06E062810D3BA48406E012800D0AB
:103E200081E66420B5498886E0200001C88678E6EE
:103E3000B06E0E280ED1F06E062800D273E6C820B0
:103E4000AE498886B048F1E7E0FF1F0000350C005E
:103E5000ACF7FF1FB06E142805D1F06E0628ECD326
:103E600002F01CF950E6B06E152820D1F06E06283D
:103E7000E3D302F013F9012801D1022044E602F055
:103E80000DF9022801D101203EE602F007F90328CE
:103E900001D1042038E602F001F9042801D1032001
:103EA00032E602F0FBF8052800D028E679E7B06E8C
:103EB000162806D19148406E012101438F48416682
:103EC0002DE6B06E172803D18C48406E0421F4E72C
:103ED000B06E182803D18948406E1021EDE7B06E0E
:103EE000192803D18548406E4021E6E7B06E1A28B4
:103EF00004D18248406EFC210140DFE7B06E1B28F0
:103F000004D17E48406EF3210140D7E7B06E1C28F3
:103F100000D0FBE57948406ECF210140CEE77948DB
:103F2000C06E6060706F01990860606900282ED1D2
:103F3000E06F00282BD0206F032828D2CD48FEF751
:103F40005FFC706E01286F48C06E616818D1401A1E
:103F5000BF2803D3706F296C401A18D0A760C648D9
:103F6000476587650520C449C86501988760DAE51B
:103F7000407C000800380140080002408038010001
:103F8000401A0628EAD3706F296C401AE6D1A76060
:103F9000B94847658765C7650120B7490865278027
:103FA000B648019948605748476501220121012020
:103FB00001F0D0FC77620120B14908800020C043A5
:103FC000C8622F20088501208882E766E765E06FD8
:103FD000002800D1676102F07BFAE0692062A948FD
:103FE0006062E06947494864A6488864C864086517
:103FF000206F032807D2206F012801D1276603E034
:104000000120206600E067613C48806E012810D0E6
:104010009D48A062E062DC4820636063DB48A063E7
:10402000E063DB4820646064401CA064E064C01C62
:104030000DE0D848A062E062D34820636063D348B3
:10404000A063E063D24820646064A064E0642065FB
:104050006065206E60660120A0652761606E0028A3
:1040600072B614D1CC48808ACC490140CA488182BA
:10407000808A01210143C8488182A06A9021C90534
:104080000860206CC449086062B6512016E0902098
:10409000C005808AC24901409020C0058182BE4887
:1040A000808A01210143BC488182E06B9021C905CF
:1040B0000860606DB849086062B66120BE4908605A
:1040C000A766606E002872B620D19020C005808A55
:1040D000BA4901409020C0058182E06B9021C9055A
:1040E0000860606DAC490860888A01210143AA48D4
:1040F000818262B661201FE02301674558070020D6
:10410000AB89EFCDD8070020FF0E00009020C0053E
:10411000808AAB4901409020C0058182A06A90212D
:10412000C9050860206C9C490860888A0121014308
:104130009948818262B651209F4908600120A0669B
:10414000A048A061B762F0208021C905C8627060F4
:104150009D483060F0609D48B06002F00DFD9948C8
:10416000A061B76298483060F0609848B06002F093
:1041700003FD9448A06102F0F5FD72B60122012111
:10418000012001F0E7FB62B63B480765904860807C
:10419000606F002830D001208E4948658E489021FC
:1041A000C90508608D487C490860606F6421081A61
:1041B0008849096C4843C002C8218902FDF771FE95
:1041C00087494863606F6421081A8249096C484333
:1041D000C002C8218902FDF764FE81498863606FCF
:1041E0006421081A7B49096C4843C002C82189022E
:1041F000FDF757FE7A49C863E06E012803D1606974
:10420000401C606100E06761606904280BD360694D
:104210000A2809D26069C01E724948430621FDF789
:1042200040FEFEF7EDFA9AE60A2060616E48F8E774
:104230006E48FEF7E5FA6E4800780F2802D16C4808
:1042400040780F2801D0FEF7ADFC6A48FEF7D8FA97
:10425000012001F0E1F96848FEF7D2FA022001F0EE
:10426000DBF96548FEF7CCFA032001F0D5F9624886
:10427000FEF7B8FC006A180058080020FFFFFF0096
:1042800000200040FF0700006F9F56695848C06B30
:10429000012801D0FFF770F87763B763F76377669B
:1042A0000198C7610320554908855448008B54493B
:1042B00008645248C06A4864B76772B6012001F0CA
:1042C000ABF9012001F0A8F9012001F0A5F962B6CF
:1042D0004C48FEF795FA4C48454988674B48C867F3
:1042E000086D002816D0206F032813D20198806A29
:1042F00001280FD1706E00280CD13648C06B802188
:10430000C900884206DD6760FFF77AFA0198076006
:10431000FFF7E6F836488767C767A068002801D12D
:10432000FFF7D4FB3248406D002803D12948C06F05
:10433000012802D12748006F012801D0FFF7AEFB0A
:104340002448076700200221FFF735FB6068401C06
:10435000606060683F2800D3DAE43F20285C616831
:10436000695C41403F20295401980760286C082867
:10437000ECD23F20285C000600D5BDE43F20285C3D
:1043800040003F216854BEE46F5F59696F5F656903
:10439000556555556F5F566900040048FDFF0000E4
:1043A0007FFF000072B60020194902000A80194AF6
:1043B0009062888062B670471C000140FFFE0000DA
:1043C000FFFB0000FFFF0700FFBF0000FF7F0000B2
:1043D000FFFF0000D80700206F9F55695A655555AB
:1043E000002C014000366E01005A620200127A0071
:1043F0005807002000350C0080A903000040014050
:1044000058080020006A180023016745AB89EFCDEA
:104410000C000040D8080020F0B581B0CE480188DB
:10442000C90701D500F030FC0020CC490882CC48F7
:10443000406E012800D01BE28889800705D5052041
:104440000880C848888100F014FC8889C00701D41E
:1044500000F00FFCC448056C03200880C348888125
:10446000BF48406C012800D08BE00020BE49C863E3
:10447000880D0864E6208001C86300200090B848D9
:10448000836D446D066DBA4F002203CF42414A410D
:10449000B242FAD4A24203D55B1EF5D13E0000E041
:1044A0000026002E2FD0AE48C56C876C002001245A
:1044B0000022002302CEA9421BD4C91BA94203D467
:1044C000C91BE0410133F9E702CEA94205D4C91B5B
:1044D0000130E04101320133F7E70B2B02D008D560
:1044E00002CEEBE7224204D14032C000C02AE0D421
:1044F00000E0FF200500FF2D05D09948C06DC540A4
:104500006D056D0D01E0012000909748C06B401CC7
:104510009549C8630098002811D1C348C16E002294
:10452000D243914202D0C16E491CC166A4218900C8
:104530004D43690AE222D2008918C16354E28848D7
:10454000406F0021C943884204D08548406F401C19
:10455000834948678248006B322808D28048006B44
:10456000401C7F4908630A20CE49C86081E30020CF
:10457000AD49C863CB4988600022012101F0EAF906
:1045800077E300207849C863C7487549C96F8142FD
:1045900003D175498864C54802E0C449724A9164F0
:1045A0006F49C867142D8041C043C00F009023207D
:1045B0006D490864E6208001C863C86B401CC8636D
:1045C0009948006E00286648056CC66F35D00F27E5
:1045D000002000240ECE491B4041521B40415B1B72
:1045E00040410ECE491B40414440521B40415B1BA1
:1045F00040410ECE491B4041521B404144405B1B91
:1046000040410ECE491B4041521B40415B1B404183
:1046100044400ECE491B4041521B40415B1B404170
:1046200002CE491B4041010009077C402407641A5F
:1046300001D0FF200006050034E000270020002400
:104640000ECE491B4041521B40415B1B40410ECEE8
:10465000491B40414440521B40415B1B40410ECE30
:10466000491B4041521B404144405B1B40410ECE20
:10467000491B4041521B40415B1B404144400ECE10
:10468000491B4041521B40415B1B404102CE491B2C
:104690004041010009077C402407641A01D0FF2033
:1046A000000605002C0080204002844200D3BDE0BB
:1046B0000098002800D0B9E05B48C06E0021C943D3
:1046C000884204D05848C06E401C5749C866E0066E
:1046D00050D56009302810D200280ED02049896EAC
:1046E000814203D11E49C96E491C00E001211C4AC8
:1046F000D16690662F20C0434BE04B48806FFF2867
:1047000045D14948406F012841D001204649C8673A
:10471000C04D09222800FDF753FC00232900032285
:10472000BD480E785E40835D4E785E40835D8E7836
:104730005E40835DC91C521EF3D16B720920B749DC
:1047400008600020084908600A204860902008603E
:104750000868401C08601AE0100400400040014056
:10476000D8080020010200001C00024002020000E4
:1047700004000020A9480168090708D5A84949682C
:10478000002904D1C169490601D5012101606009F0
:1047900030382549C8634348016F032935D322497E
:1047A000C96BFA22920091421ADA016F032923D0D1
:1047B000016F052920D0012101661B49C96B490001
:1047C000194AD163016F052918D2D06B5F21C94303
:1047D00088421AD0D06B802817DA8020D06314E08A
:1047E0001149C96B404A89180F4AD163016F0429E6
:1047F00002D0016F0629DED10021DDE7D16B5F22F7
:10480000D243914201D1416E01660748C06BBA495B
:1048100048430112C90D08184012802109014018AF
:104820000149C863E0E000BFD8070020B348406FEB
:104830000021C943884204D0B048406F401CAF49B2
:104840004867AE48006B322808D2AC48006B401C69
:10485000AA4908630A201349C8600AE20020A8494F
:10486000C863104988600022012101F073F800E25A
:10487000A34C886BE063A148C06B012818D1E06BA2
:10488000AB283CDBE06B9F494843E063E06B0113DE
:10489000C90C08184013E063E06BC021C900401840
:1048A0002CE000BFD8060020C00500204C060020E8
:1048B0009248806B012809D1E06B93494843E0633B
:1048C000E06B8112490D0818C01217E08B48406B4D
:1048D0000128E06B0AD18D494843E063E06B811207
:1048E000490D0818C01209E018FCFFFF874948432A
:1048F000E063E06BC112090D08180013E063E06B80
:104900008349884203DBE06B8249884257DB7B485E
:10491000806B012801D07948406BE06BA06FFF28C5
:104920002CD17648806F002828D1606F012825D0CF
:104930000120E067374D092221002800FDF740FBE8
:1049400000232900032234480E785E40835D4E78B0
:104950005E40835D8E785E40835DC91C521EF3D13C
:104960006B7209202D4908602D48002101600A2141
:104970004160902101600168491C01605F48406FFF
:104980000021C943884204D05C48406F401C5B4909
:1049900048675A48006B322808D25848006B401CC0
:1049A000564908630A20B749C86062E10020E06305
:1049B000B44988600022012100F0CCFF59E1E06E8B
:1049C0000021C943884202D0E06E401CE0661348D3
:1049D0000168090708D512494968002904D1C1694D
:1049E000490601D5012101604448006B002804D02C
:1049F0004248006B401E414908634148C16BC26B8D
:104A0000B94BD218C2633D4A526E002A0DD03B4AC0
:104A100008E000BF580800200004002000380140D2
:104A20001C000240526C012A42D1964A136F032B9C
:104A30000AD2AE4AD38AC91A09B2928B51438A125A
:104A4000520D5118C91234E0A84B1C8B091B0129C7
:104A500018DB09B29B8B59438B125B0D5918C91295
:104A60008039136F032B1CD0136F052B19D0012332
:104A70001366136F052B16D24B1E7F2B19D2802184
:104A8000916026E009B2DB8B59438B125B0D5918FC
:104A9000CB1259428039136F042B02D0136F062BAF
:104AA000E5D10023E4E7012903DA536E136600E041
:104AB000C16B002903D50021724A91600CE08C4A39
:104AC000914202DD6F498A6003E06E4A91600029DD
:104AD00002D00021854A11626A490A22CA608C68A4
:104AE0008A6D002A2DD0CA6F002A2AD00A6F052AA3
:104AF00012D3002C22D01BE00D020000D8080020A9
:104B0000D80700204344000031080000BB02000029
:104B1000DC050000F91100000A6F032A08D3002CFD
:104B20000CD0CA695208944208D2CA69540805E0F8
:104B3000CA699208944201D2CA6994084A6952012A
:104B4000A4180A6AA24200D20C6A4A6AA24200D29F
:104B50004C6A026DA24200D2046D644B5C63DA6A57
:104B6000012A1DD14A885500AA1812015D6A6E00FB
:104B70007519AD00AA4208D24D88D82252006A4366
:104B800095116D0EAA18D21100E05A6A0264026CE7
:104B90005D6A9E6AAD1BAA4208D25A6A9D6A03E00A
:104BA0005A6A9D6A6543ED0A521B0264056C6D1ECC
:104BB000774A1668AE4209D21668AE1B0C2E01D990
:104BC000744E02E080273F02F61B16831560056CC9
:104BD0006C43240A704D6D696607760FAD196E4EF1
:104BE0007561E4087569082D03D37569083D756121
:104BF000641C456D002D22D101251D63036C5B1ED5
:104C00009C4205D3016C9160D160116161490EE055
:104C1000036C0D3B9C420CD3036C5B1E9360D36012
:104C20001361896F01290AD0E903591A091B1183FD
:104C300005E00C34574911839460D4601461416ECF
:104C4000002916D0B16F002913D181665348416AFB
:104C5000326F8918FA229200914201D3504A891882
:104C6000416300210180018A4E4A0A4002820121EB
:104C70000180802040034C49086000204B49088295
:104C800030E000BFD806002000210180424A93692D
:104C9000302B01D32F239361144B5C6B444DAC42FA
:104CA00004D29369434C5B00E35E11E09469414D8B
:104CB00064002C5F9569404EAD0075595B6B3F4EAB
:104CC0009B195D43EB141B0B5B191B15E31A9BB27D
:104CD0002F4C23609369146A1B199361820B324B2A
:104CE0001A60018001B0F0BD00F8FFFF58080020F5
:104CF000FF070000F0B41400314AD07211735473EE
:104D00009373107A517A4018917A4018D17A4018EA
:104D1000117B4018517B4018917B4018FF21091AE4
:104D2000000A081AD07300200821150008355D23F9
:104D30005E2416182F787E2F04D17D273770401CF3
:104D4000145408E02F787D2F03D13770401C135482
:104D500001E02F783770401C491C16186F787E2FA1
:104D600004D17D273770401C145408E06F787D2FE4
:104D700003D13770401C135401E06F783770401C2A
:104D8000491CAD1C1029D4D3C0B2F0BC7047000040
:104D90002C2C01400C800000D80800200044014069
:104DA00018FCFFFFFDFF000080E200E00040014032
:104DB000A3070000C4090020000500205EF8FFFFE3
:104DC00058080020F0B583B0B448008A02908007EC
:104DD00000D490E10025B1490D80088AB049014016
:104DE000AE4801820120AD490880486B090D884218
:104DF00000D380E1AB48806E002800D024E1AA48AF
:104E0000AA49C96F814200D1A9480190A949AA4A7B
:104E1000D08E88421CD0908E4028D08E01DAD18668
:104E20003DE0938E5B1C9386938E6E2B04D1012301
:104E30009386D1869B4CE367938ED22B2FD1958698
:104E4000D1869849496F012929D09649CD6726E036
:104E5000C74840883C2801D23C201BE080229200B9
:104E6000904217D37E39884213D200214008891816
:104E700090420BD340088918904207D34008891804
:104E8000904203D3400889189042EFD20091401815
:104E900000E0D348D349096D002900D1D0480F2341
:104EA000010102094240000A50400F2282438E183D
:104EB000CD4C300B1840205C310A1940615C32093E
:104EC0001A40A25C3340E35CC84C26681027374385
:104ED0002760C74C24680126B443C54E34601824AB
:104EE00074603565C0038902401851014018C61826
:104EF0000198071D360300200138010076000A00E2
:104F000000D342407600130000D3434076001C00DB
:104F100000D344401EC77600210000D341407600F4
:104F20000A0000D342407600130000D343407600CD
:104F30001C0000D344401EC77600210000D341402E
:104F400076000A0000D342407600130000D34340AD
:104F500076001C0000D344401EC77600210000D319
:104F6000414076000A0000D342407600130000D38F
:104F7000434076001C0000D344401EC77600210049
:104F800000D3414076000A0000D34240760013006F
:104F900000D3434076001C0000D344401EC7760077
:104FA000210000D34140002200230EC70198056074
:104FB0009020C00501680268914204D10168302246
:104FC0009143016004E0AE490A6830239A430A60C5
:104FD000AC49874A116517215165C9490D800D817A
:104FE0000D8440220A834D624D6360220A837D4A0C
:104FF000D36BCB624B0D8B8103230B840368046856
:10500000A34200D09E48036820241C4304607848D3
:10501000006D401C764B1865012008801F48406ACF
:10502000D16C4018FA218900884201D3B549401853
:105030001A4948630D80088A1949014017480182BE
:1050400001201649088054E06948016801220A439A
:1050500002600168012291430160182141600168EA
:105060000A43026061490A68052313430B60056522
:10507000E6218901016523214165A1490D80442272
:105080000A8102228A810D84564A136C0B83054BD8
:105090001B6E002B12D0012311E000BF0044014021
:1050A000FDFF0000D8070020C0050020D808002020
:1050B0004C060020FFFF00005807002003230B844C
:1050C000536CCB62AE4B8B810D8203230B80036D3F
:1050D0005B1C0365FA20C000AA4B58638020400384
:1050E000A94B18600D82906C012801D102209064B8
:1050F0000220A64988660298C00704D43948806C0B
:10510000022800D059E200279E490F80088AA04952
:1051100001409C48018201209A490880314CA06CD2
:10512000002801D10120A06475488089C00703D4FC
:105130009648806E01280BD8A06C022808D09348AE
:10514000406E002804D09348806F002800D134E2DC
:10515000A76491480100A26F002A13D0626B8023DC
:105160009B009A42626BA36F04D25B00D21806E0E8
:10517000D80600208025ED005B195A43920A82422E
:1051800000D21100814D6964216F002903D1A16F04
:10519000002900D181E072B62865686C296D8842CB
:1051A00001D2686C2865A86C296D884201D2A86C70
:1051B0002865E86C296D884201D2E86C2865206B6F
:1051C000002868D175488168826D002A24D0C26F9A
:1051D000002A21D0026F052A0CD3C26914E000BF57
:1051E000FF0F000058080020240A00200824014076
:1051F00008000240026F022AC26905D95208914292
:1052000007D2C169490804E09208914201D2C169FC
:105210008908426952018918026A8A4200D2016AE9
:10522000426A8A4200D2416A2A6D8A4200D2296DBE
:1052300061632A6C5143C90A6A6D002A2BD101228D
:1052400022632A6C521E914207D3286C544908608D
:1052500048608860534808821DE02A6C0D3A9142EC
:1052600012D32B6C5B1E4E4A136053609360806FA9
:10527000012810D080200002181A401A10820AE07B
:1052800000040048903900000C314548454A02822C
:10529000016041608160276362B6606D000701D1E3
:1052A00001202867606D401C6065606DC00702D4F6
:1052B0000120C3494862606D0D2817D1C148E96ECD
:1052C000090EC171E96E090C8171E96E090A41711B
:1052D000E96E01712F494A6F120EC2724A6F120CA9
:1052E00082724A6F120A4272496F0172B64E706C36
:1052F00096214900884207D2706C401C706406E019
:105300000040014018FCFFFF77640120B064F06C9E
:10531000002802D0F06C401EF0641E48016E002987
:1053200002D0016E491E0166F16C002908D1016EA0
:10533000002905D1B649C96A102901D002210166A8
:10534000F16C002900D087E0006E012800D083E0D6
:105350009B48017C7E2973D1407CA96F88426FD124
:10536000B06C002820D127706770A770E770277194
:105370006771A771FF20E071082000904AE000BF2C
:10538000020200000044014080E200E0D807002053
:10539000FEFF0000D8080020FF070000D80600200C
:1053A000342C01400C800000B06C01280ED110207C
:1053B0002072502060720B20A072EB782A796978F5
:1053C000A878FFF797FC0090022010E0B06C02284C
:1053D0000FD110202072602060720B20A0726B79B8
:1053E000AA79E979287AFFF785FC00900320B06458
:1053F00010E0B06C03280DD1102020727020607274
:105400000B20A0720023002200212878FFF772FCF5
:105410000090B7647F480760C02189024160C021C5
:105420008160092101607A4847610099816190217A
:10543000416104624169491C41610420F0640BE050
:105440000020C043734908627148802181621021A5
:10545000C162816A491C8162F06C01280ED16D48DD
:105460000760E021890241600521016068488021D0
:1054700081621021C162816A491C8162606D1928B4
:1054800031D1B08E00282ED0B08E40282BDAB08ECD
:10549000012806D12878802189004018F086022052
:1054A00020E0B08E02280DD168780002A97840185B
:1054B000192180B2FCF7F5FC8021C9004018F08664
:1054C00003200FE0B08E03280DD1E878000229797F
:1054D0004018642180B2FCF7E4FCC021C9004018E8
:1054E000F0860120B086686F012824D1606D0728FE
:1054F00021D1092229002000FCF762FD00232100B0
:1055000003227B480E785E40835D4E785E40835D6B
:105510008E785E40835DC91C521EF3D163720920F0
:105520003C4908603A4847610A2181619021416104
:105530004169491C4161E06D05280ED2606D40074C
:105540000BD16C48C168002907D0C168491EC160F1
:10555000C168002901D1EF638760606D202822D1E6
:1055600067656448C168002907D0C168491EC160E9
:10557000C168002901D1EF6387608068002808D1E5
:10558000206A5D49884203D2206A401C206200E004
:105590002762A06D401CA065A06D202803D1A765DF
:1055A000E06D401CE06555480068618A401A80B291
:1055B0005349884201DB0120A08203B0F0BD000006
:1055C000240A0020000F00205807002080B50F207B
:1055D000FAF7EEFD1420FAF7EBFD4648806F01283C
:1055E00002D11020FAF7E4FD1520FAF7E1FD0021C1
:1055F0000F20FAF7E4FD00211420FAF7E0FD002166
:105600001020FAF7DCFD00211520FAF7D8FD01BDC6
:1056100008000240003801403A4A926D012A00D841
:105620007047F8B5374A926DFF2A60D2020002D166
:105630003549FA25AD00012801D13449F025022869
:1056400002D133498C256D00032802D13149B4259C
:105650006D00042802D13049C8256D0000912F4CFF
:105660002F4E20E02F490140218011E08021C90008
:10567000014321802348806D64214843FCF711FCDD
:10568000FDF7BEF8002F2088ECD12749014021808A
:1056900000981C49896D401A64214843FCF701FCBD
:1056A000FDF7AEF86D1E2148002D31881DD0084051
:1056B00030801820FDF7A4F820888021890001435C
:1056C000218020889C49014021801820FDF798F80E
:1056D000012730883900014331802F402088C5D10F
:1056E0008021490001432180C4E708403080F1BD9A
:1056F00000040020D8060020FFFF00002420004006
:1057000061EA000058070020581B0000CA12000080
:1057100018100000240E0000C60C00001400004801
:1057200014040048FFFB0000FFFE0000FEFF000025
:10573000824B9B6D012B00D87047F0B583B07F4B37
:105740009B6DFF2B00D3F1E07D4F01233B800023B5
:10575000DB43FB620B0002D107233B850BE0012BEF
:1057600002D103233B8506E0022B02D101233B85B6
:1057700001E000233B856B4618700120B882684623
:105780000078002802D16F4B6F4847E068460078E8
:10579000012802D16D4B6E4840E0022802D1844BB3
:1057A00084483BE0032802D1834B844836E0042838
:1057B00002D1834B834831E0052802D1824B8348D4
:1057C0002CE0062803D1824BB920000126E00728EF
:1057D00003D1804BC420000120E0082802D17E4B79
:1057E0007E481BE009280BD00A2802D17C4B7D485B
:1057F00014E00B2802D17C4B7C480FE00C2803D12D
:105800007B4BDC20000109E0794BDC2006E05B08E3
:105810003C8D6400641C3C850124BC82754CA34211
:10582000F5D20193130001D1C00806E0012A01D18D
:10583000800802E0022A00D1400840083F4A12785E
:105840005043C508080001D1ED0806E0012901D147
:10585000AD0802E0022900D16D0867484560674C39
:10586000674E43E067490140218035E07962318825
:1058700008403080684600780B282DDC1820FCF7A3
:10588000BFFF2088790D0143218020882A490140EB
:1058900021801820FCF7B4FF3088012101433180BA
:1058A00055484068C007208803D4B90D01432180C2
:1058B00002E0390D014321802048806D6421484376
:1058C000FCF7EFFAFCF79CFF4B484068C0072088C4
:1058D000C8D44D49014021800198796A8142FCD3A6
:1058E000019045484068401E4349486047480021B0
:1058F000414A5268002AB9D13288104030800F489E
:105900004078454368093C4A50600AE07962019852
:105910007A6A8242FCD3019037484068401E364A7A
:105920005060104640680028F0D13980F7BD034828
:10593000416E416670470000FFFD000058070020DF
:1059400000200040965900002D0800008E540000F1
:10595000AA08000030B49023DB0501280CD1988AF6
:10596000934C04409C829348848A284D254085822C
:10597000848A914D2540858201290BD1988A22493C
:1059800001409982988A224901409982988A1D494A
:105990000140998289481860894886490860012A2F
:1059A00004D18848002101604160816030BC7047AB
:1059B000CF4F00002D090000554B0000B909000031
:1059C0001A4700004D0A00001D430000EA0A0000CB
:1059D000583F0000CA3B00006F380000FA0C00007E
:1059E00047320000910E0000752F00006F0F00007D
:1059F00044350000F1FF0000D806002014000048E4
:105A000014040048FFFB0000FFFE0000FEFF000042
:105A1000FFFD000000B591B00CA86B491022FCF707
:105A2000CFFA08A869491022FCF7CAFA04A8684905
:105A30001022FCF7C5FA684666491022FCF7C0FA46
:105A400000206549C86300206349886308206349D2
:105A5000486062484068102814D260484068604935
:105A6000085C60495D4A526889180839097888429B
:105A700002D003205849886358484068401C574961
:105A80004860E6E7002055494860544840680428CB
:105A900013D2524840685449085C52494F4A5268F0
:105AA0008918097A884202D003204B4988634B4801
:105AB0004068401C49494860E7E74748806B002838
:105AC00074D0012044498863082044494860434811
:105AD0004068102812D2414840684149085C0CA92E
:105AE0003E4A5268895C884202D003203A49886362
:105AF0003A484068401C39494860E8E70020374987
:105B0000486036484068042812D234484068364914
:105B1000085C08A9314A5268895C884202D0032097
:105B20002D4988632D484068401C2C494860E8E7AF
:105B30002948806B012839D0022027498863082032
:105B40002649486025484068102812D223484068FA
:105B50002349085C04A9214A5268895C884202D022
:105B600003201D4988631D484068401C1B4948604C
:105B7000E8E700201949486018484068042812D214
:105B8000164840681849085C6946144A5268895C9E
:105B9000884202D003201049886310484068401CA6
:105BA0000E494860E8E701200B49C86311B000BD09
:105BB0007FFF000000040048FDFF00006F5F556993
:105BC00055655555342C01405C1200086C120008D4
:105BD0007C1200088C12000858070020D80600200C
:105BE00000200008ACF7FF1F1020000810B5834804
:105BF0000078C0B28249086780480078C0B20028A7
:105C000002D101207E4908677C480078C0B207288D
:105C100002DB06207A4908677A480078C0B27A49E0
:105C200008667948006E962803D30D207749C8701E
:105C300052E07548006E7D2803D30C207349C8706C
:105C40004AE07148006E642803D30B206F49C87086
:105C500042E06D48006E4B2803D30A206B49C870A0
:105C60003AE06948006E322803D309206749C870BA
:105C700032E06548006E252803D308206349C870C8
:105C80002AE06148006E192803D307205F49C870D5
:105C900022E05D48006E132803D306205B49C870DC
:105CA0001AE05948006E0C2803D305205749C870E4
:105CB00012E05548006E092803D304205349C870E8
:105CC0000AE05148006E062803D303204F49C870EC
:105CD00002E002204D49C870B5480078C0B21128D2
:105CE00004DAC02000014849486214E0B048007856
:105CF000C0B2302804DB8020C000434948620AE07B
:105D000090208003AA490978C9B230225143FCF798
:105D1000C5F83D4948623C48406ADC490864DC48B3
:105D20000078A3490978C0B2C9B2884203D20020E2
:105D3000354988621BE0D6480078C0B2302804DBC1
:105D40008020C000304988620AE090208003D0495A
:105D50000978C9B230225143FCF7A0F82A49886279
:105D60002948406A2849896A401A27498862C848F0
:105D70000078C0B2312803DB01202349C86202E069
:105D800000202149C862C3480078C0B2012805D16B
:105D900000201D49886200201B49C862C148007864
:105DA000C0B219494866BF480078C0B2202802DB5B
:105DB0001F20154948661448406E144988701248DF
:105DC000406E002802D1012010498870B648007842
:105DD000C0B20D498866B4480078C0B2022803DA20
:105DE000FF200949886316E0AF480078C0B2022856
:105DF0000ED1A020044988630DE000BF037C000899
:105E0000D8060020047C000858080020580700200D
:105E10008220A6498863A048018889B280200001B9
:105E20004843FA218900FCF739F8A049C882A04804
:105E3000018889B2802000014843FA218900FCF7DB
:105E40002DF89A4908839B48018889B28020000177
:105E50004843FA218900FCF721F894494883964881
:105E60000078C0B2954908651820884988650120E6
:105E70008649C86592480078C0B290494865914803
:105E800004889048008890490988411A09B28B48D3
:105E9000406D1E3848435021FCF700F8201A80B2AC
:105EA0008649086400208149C86600207F49086748
:105EB00086480078C0B27D49486785480078C0B2FE
:105EC0008449486784480078C0B27C498865834823
:105ED0000078C0B27949C8658148008880B27749A6
:105EE000086680480078C0B2000974490870734899
:105EF0000078002802D101207049087079480078A4
:105F00000007000F6D4948700020724948607148D1
:105F1000406830280DD26F48406873496D4A526816
:105F2000895C724A11546B484068401C694948605A
:105F3000EDE76F480078C0B2604948666D48007868
:105F4000C0B25A4988676C480078C0B25B4988661D
:105F5000B2480078C0B2FF2804D18020C000534965
:105F6000C8670AE0AD480078C0B28021C900484344
:105F70006421FBF793FF4D49C86746480078C0B2DB
:105F800054498867A6480078C0B240494867A54888
:105F90000078C0B24F49C867A3480078C0B2112842
:105FA00008DAA1480078C0B24449C86605E000BFDD
:105FB000057C0008FF204149C8669C480078C0B2B3
:105FC000002803D1FF20314988670DE09748007809
:105FD000C0B21D2803DBFF202C49886704E09348EA
:105FE0000078C0B2294988672848806FFF284BD0C5
:105FF0002648806F401E254988672448806F3549B0
:1060000048602248806F33494968324A52680B0021
:10601000DB07DB0F11008907C90F59402D4A526871
:1060200013005B07DB0F4B40590140181749886785
:106030001648806F27494968264A52680901D200EC
:106040004A40244949688900514040221140401883
:106050000E4988670D48806F1E4949681D4A52687D
:106060000B00DB07DB0F11004907C90F5940194A24
:1060700052681300DB06DB0F4B40D901401803497F
:10608000886700200149486710BD0000D80700203C
:10609000227C00081D7C0008087C0008B5480078B8
:1060A000C0B27047067C0008077C00085808002032
:1060B0000A7C00080C7C00080E7C000858070020B1
:1060C0000F7C0008B8F7FF1FC2F7FF1F127C000803
:1060D000137C0008D8060020147C0008157C0008FA
:1060E000167C00081C7C0008907C00085C070020DF
:1060F000187C0008197C00081A7C000830B59E48FE
:1061000000219E4A51609D494968FF290ED89B494C
:1061100049689A4A5268984BD2181278984B5A5448
:1061200096494968491C954A5160ECE79549964A59
:10613000126F934B5B18954C1A55934A126F120AC3
:106140008F4B5B18924C1A55924A8F4B5B6F8C4C5D
:10615000A4188E4D63558C4B5B6F1B0A884CA4189A
:106160008B4D6355884B9B6F8B4C2360864BDB6F4D
:10617000894C23600223894C23607F4B884C236029
:10618000864B1B6840241C43844B1C608548006878
:10619000C0070AD5834800688006F7D581480068A3
:1061A000202101437F480160F0E700207B4908601F
:1061B0007A48006801210143784801606E48002157
:1061C0006E4B59606D494968FF2922D86B4949686F
:1061D0006B4A51184978694A5268C9B20902684B3A
:1061E0009A5C89180180801C6E490968C9070AD524
:1061F0006C4909688906F7D56A49096820220A436B
:1062000068490A60F0E75D494968891C5B4A51604A
:10621000D8E78021614A116030BD00001B7C000876
:106220001E7C00081F7C0008207C0008217C0008E0
:1062300030B551480021514A516050494968FF2901
:106240000ED84E4949684D4A52684B4BD2181278C5
:106250004B4B5A5449494968491C484A5160ECE73C
:106260004449464A126F464B5B18484C1A55934AAC
:10627000454B5B6E424CA418444D6355424B9B6F9B
:10628000454C2360404BDB6F434C23600223434C5F
:106290002360394B424C2360404B1B6840241C4315
:1062A0003E4B1C603F480068C0070AD53D48006867
:1062B0008006F7D53B48006820210143394801603A
:1062C000F0E70020354908603448006801210143A7
:1062D0003248016028480021284B59602749496805
:1062E000FF2922D825494968254A51184978234A67
:1062F0005268C9B20902224B9A5C89180180801C3D
:1063000028490968C9070AD5264909688906F7D5C1
:106310002449096820220A4322490A60F0E7174904
:106320004968891C154A5160D8E780211B4A1160D1
:1063300030BD30B58024E403614D6248006F03280E
:10634000698B06D22000EA8A891AFBF7A7FDA88389
:1063500030BD20002A8B891A4039FBF79FFDA883A6
:10636000298B2000EA8A891A4039FBF797FDE883D8
:1063700030BD0000037C0008007C0008D806002027
:1063800000000020087C0008580700200084FFF768
:106390000184FFF70C7C000804200240102002401A
:1063A000142002400C200240F0B581B0464C474D0D
:1063B000686D002802D1E06F01287DD1206F01288F
:1063C0007AD10026266700203E4F02217960796845
:1063D000A26D914219D2796822000C324900515ABB
:1063E00040187968C91C79607968A26D91420CD215
:1063F000796822000C324900515A40187968C91C4A
:1064000079607968A26D9142E5D3E16D4843C00897
:106410000090E06F01281FD13F490A880098101AA8
:1064200000B28300181800014989511A89B2FBF79C
:1064300035FD1E30010400D500202070B8693749B1
:10644000884202D3E671267206E035487988FBF768
:1064500028FD010AE1712072686D00282CD0E06CE3
:106460004C492A6C0B1A5B09D21A009B9A4206D23D
:10647000494A904201D2083008E0080006E0474A45
:10648000904201D3083801E080208000E06472B6B9
:106490002165606C216D884201D2606C2065A06C22
:1064A000216D884201D2A06C2065E06C216D88428C
:1064B00001D2E06C206562B601B0F0BD187C000826
:1064C00058080020D8060020D807002058070020D0
:1064D00010B5344CC8204000E0616421304A106E91
:1064E000032809D3106E962806D8E069126E50432F
:1064F000FBF7D7FCE06110BD106E0328E06905D200
:1065000042001018FBF7CDFCE06110BD962250430D
:10651000FBF7C7FCE06110BDB8F7FF1FE9FF1700EC
:10652000C0270900F0B51F4C1D4D686F00282ED004
:10653000A06D01282DD01C48416C426C120A891AAA
:106540004164416CA269A3685A43120A89184164E4
:10655000406C000D154EF17848430709A069010908
:10656000FF200004FBF79DFC696F022902D17843EC
:10657000400902E0F178484340090649884200D9C1
:106580000800E169884200D2E0696062F0BD01481C
:106590006062F0BDFF070000F7070000090200007D
:1065A00058080020D806002058090020580700206D
:1065B000F0B581B0B24D0120E862B24C0020A0607D
:1065C0006061B14FF86D0028B86E02D0401E804166
:1065D000C00F2061E068B96940184008E06080267B
:1065E000F605706A2861A948006804210143A7489C
:1065F00001601DE0002201210020FFF7ABF972B617
:10660000E868716A4018E8600020B0813088A049CD
:106610000140318000207062B8690009F06262B602
:106620000120A862002030820120B0810220606138
:10663000E068984988426CD3B86D002801D00020EA
:10664000E862E068C00A20602068022801D80220C1
:1066500020602068142801D9142020602068606020
:10666000B86D01284DD13869042815D2B8694100A8
:10667000081800013021FBF714FCC00A20602068D4
:10668000A02801D2A0202060C820C000216881423B
:1066900000D92060206833E038690A2815D2B8692B
:1066A0004100081800013021FBF7FBFB000B2060C4
:1066B0002068502801D250202060C8208000216826
:1066C000814200D9206020681AE03869142815D862
:1066D000B8694100081800013021FBF7E2FB400BCC
:1066E00020602068292801D229202060CD20400088
:1066F0002168814200D92060206801E029202060C3
:1067000060606068C002C00A60602068C002C00AA1
:106710000CE0012020600220606008E0706AE86000
:1067200020686168884202D22068401C2060A86A04
:10673000002802D1A068002817D1A068401CA060E2
:10674000524800684104C90F20698142E86A41D07B
:10675000012803D1706A2969401A2861B86D01289F
:10676000DCD0E86A002871D1DAE7B86D002801D0E2
:10677000022060616069012800D13BE79A48806E81
:10678000042824D1002201210020FFF7E3F8002093
:10679000B08130883E4901403180002070626868D5
:1067A0004008F06262B60120A86200203082012019
:1067B000B08109E068684008716A884204D200200C
:1067C000B081A86270623082A86A0128F2D00020ED
:1067D000286109E0012800D12AE72068401E2060D6
:1067E00020680028A3D1606172B6E868716A401819
:1067F000E860A84800687C49088230882449014044
:10680000318000207062A868F062308880210143E6
:1068100031802868F06262B60120A86200203082D0
:106820000120B081B86D002806D0B86D01280BD1C9
:106830003869401C386107E06069022804D1F86DAE
:10684000002801D10120F86601B0F0BD0020E86207
:1068500072B6E868716A4018E8600020B08130883C
:106860000B490140318000207062B8694008F06235
:1068700062B60120A862002030820120B081D6E6F5
:10688000D80800204C0A0020D80600201C00014037
:106890007FFF00000118000010B5954C606AC10030
:1068A000081A6062E06A012804D1606A8021490008
:1068B00040186062606AC0086062606A782801D22D
:1068C000782060624848806B616A88420ED200225C
:1068D00001210020FFF73EF808E0A168826991429B
:1068E00004D200210180A162816181809748A16A60
:1068F0000129F2D0616801620121A16201809448FE
:10690000806F01281DD193480188934A0A40028074
:106910000021416280216268904B9A4208D36268EC
:106920009209C2620288114301806168490905E049
:106930001E22C2620288114301803C21C162E069CB
:10694000A06110BD70B486484121864A9023DB05C2
:10695000854D7F4C666E002E72B6968A09D1354001
:1069600095829D8A80262E439E82A56B1D60236D95
:1069700008E035409582958A02262E439682E56A84
:106980001D60636C136062B601600020A06670BC7D
:10699000704730B4724873499022D2056C4B5C6EDC
:1069A000002C72B6948A0DD1704D254095821C6BD7
:1069B00014609C6C0C60918A80240C43948262B6B3
:1069C00051210CE06A4D254095825C6B1460DA6CB5
:1069D0000A608A8A022414438C8262B661210160B3
:1069E0000120986630BC70475808002030B45C48DD
:1069F0005C499022D205564B5C6E002C72B60ED1CB
:106A0000948A554D254095828C8A022525438D8296
:106A10005C6B1460DA6C0A6062B661210DE08C8AEE
:106A2000C64D25408D82948A8025254395821C6B16
:106A300014609A6C0A6062B6512101600020986669
:106A400030BC704770B446484121464A9023DB056C
:106A5000484DBB4C666E002E72B69E8A0AD13540F8
:106A60009D82E56A1D60636C1360938A02251D4355
:106A7000958209E035409D82A56B1D60256D1560EE
:106A80009A8A802515439D8262B601600120A06626
:106A900070BC70472420004070B4314831499022C6
:106AA000D20501232A4C656E002D72B60DD18D8A58
:106AB000A24E2E408E828D8A2B438B82A36A136056
:106AC000226C0A6062B651210CE0958A9D4E2E40E0
:106AD00096828D8A2B438B82E36B1360626D0A6012
:106AE00062B6612101600020A06670BC70470000A2
:106AF000D808002070B4012019491A4A9023DB05F8
:106B0000134C656E002D72B69D8A0DD1184E2E4025
:106B10009E82E56B1D60636D1360938A01251D43A2
:106B2000958262B661220CE0104E2E409E82A56ACC
:106B30001D60236C1360938A01251D43958262B604
:106B400051220A60A06670BC704700000C00004033
:106B5000D8060020000400407FFF000081070000ED
:106B60001C00014000040048FEFF0000FFFB000085
:106B7000FFFE0000FFFD0000F0B581B0724C206800
:106B8000E1684018A16840186D4DA9696F4A5160CD
:106B9000A969902212029142A96905D2AA69120933
:106BA000891A8008081827E05200914206D2A96984
:106BB000AA69D208891A400808181DE0296F02291D
:106BC00010D9A96D02290DD1604909680729A96961
:106BD000AA6903D31209891A800807E0D208891A22
:106BE000400803E0A969AA699208891A0818A861EF
:106BF0005748A969814200D9A861E86D012807D1E9
:106C0000A86952494968884202D250484068A86140
:106C10005048A96981420AD2A86108E02068716AD7
:106C2000884204D20020B081A06270623082802647
:106C3000F605A06A0128F1D00127A762B7810020DC
:106C4000E060300DA969814200D2A861A869000AFC
:106C50004149424A526E002A11D12269002A02D0CB
:106C60002269B52A05D38A781F2A08DA8A78521C45
:106C700004E08A78032A02DB8A78521E8A70626AEC
:106C80008978783A52088918202900D31F210201F7
:106C900062602022521A4243A260083148432060B9
:106CA000A86F012813D1F02080016168FBF7F9F883
:106CB000E061E069102801D91020E061606828498E
:106CC000884201D3042001E0E06940082062A86DF9
:106CD000002830D0A86D01280AD12869082807D8D3
:106CE0002068FF21E231884202D3206840082060FA
:106CF0000020B0813088134901403180002070624B
:106D0000A86D012805D128690428A8690ED840007B
:106D10000CE0286F022808D90C4800680728A869E9
:106D200001D3800002E0400000E0A869F062A762A1
:106D300000203082B78101B0F0BD0000FDFF0000EF
:106D4000D80600207FFF0000D8080020640A002039
:106D5000E8FF1700580C00005807002058080020D2
:106D600081070000F0B581B0CF4E9025ED05CF4CE6
:106D7000002733E0CE48008ACD49498A401A80B2C4
